{
  "_format": "hh-sol-artifact-1",
  "contractName": "CrowdFunding",
  "sourceName": "contracts/CrowdFunding.sol",
  "abi": [
    {
      "inputs": [],
      "stateMutability": "payable",
      "type": "constructor"
    },
    {
      "anonymous": false,
      "inputs": [
        {
          "indexed": true,
          "internalType": "address",
          "name": "sender",
          "type": "address"
        },
        {
          "indexed": false,
          "internalType": "string",
          "name": "title",
          "type": "string"
        }
      ],
      "name": "CampaignCreated",
      "type": "event"
    },
    {
      "inputs": [
        {
          "internalType": "uint256",
          "name": "",
          "type": "uint256"
        }
      ],
      "name": "campaigns",
      "outputs": [
        {
          "internalType": "uint256",
          "name": "id",
          "type": "uint256"
        },
        {
          "internalType": "address",
          "name": "creator",
          "type": "address"
        },
        {
          "internalType": "string",
          "name": "fullname",
          "type": "string"
        },
        {
          "internalType": "string",
          "name": "title",
          "type": "string"
        },
        {
          "internalType": "string",
          "name": "story",
          "type": "string"
        },
        {
          "internalType": "uint256",
          "name": "goalAmount",
          "type": "uint256"
        },
        {
          "internalType": "uint256",
          "name": "currentAmount",
          "type": "uint256"
        },
        {
          "internalType": "uint256",
          "name": "deadline",
          "type": "uint256"
        }
      ],
      "stateMutability": "view",
      "type": "function"
    },
    {
      "inputs": [
        {
          "internalType": "string",
          "name": "_fullname",
          "type": "string"
        },
        {
          "internalType": "string",
          "name": "_title",
          "type": "string"
        },
        {
          "internalType": "string",
          "name": "_story",
          "type": "string"
        },
        {
          "internalType": "uint256",
          "name": "_goalAmount",
          "type": "uint256"
        },
        {
          "internalType": "uint256",
          "name": "_deadline",
          "type": "uint256"
        }
      ],
      "name": "createCampaign",
      "outputs": [],
      "stateMutability": "nonpayable",
      "type": "function"
    },
    {
      "inputs": [],
      "name": "getUserCampaigns",
      "outputs": [
        {
          "components": [
            {
              "internalType": "uint256",
              "name": "id",
              "type": "uint256"
            },
            {
              "internalType": "address",
              "name": "creator",
              "type": "address"
            },
            {
              "internalType": "string",
              "name": "fullname",
              "type": "string"
            },
            {
              "internalType": "string",
              "name": "title",
              "type": "string"
            },
            {
              "internalType": "string",
              "name": "story",
              "type": "string"
            },
            {
              "internalType": "uint256",
              "name": "goalAmount",
              "type": "uint256"
            },
            {
              "internalType": "uint256",
              "name": "currentAmount",
              "type": "uint256"
            },
            {
              "internalType": "uint256",
              "name": "deadline",
              "type": "uint256"
            }
          ],
          "internalType": "struct CrowdFunding.Campaign[]",
          "name": "",
          "type": "tuple[]"
        }
      ],
      "stateMutability": "view",
      "type": "function"
    },
    {
      "inputs": [],
      "name": "owner",
      "outputs": [
        {
          "internalType": "address payable",
          "name": "",
          "type": "address"
        }
      ],
      "stateMutability": "view",
      "type": "function"
    },
    {
      "inputs": [],
      "name": "totalCampaigns",
      "outputs": [
        {
          "internalType": "uint256",
          "name": "",
          "type": "uint256"
        }
      ],
      "stateMutability": "view",
      "type": "function"
    },
    {
      "inputs": [
        {
          "internalType": "address",
          "name": "",
          "type": "address"
        }
      ],
      "name": "users",
      "outputs": [
        {
          "internalType": "uint256",
          "name": "totalCampaigns",
          "type": "uint256"
        }
      ],
      "stateMutability": "view",
      "type": "function"
    }
  ],
  "bytecode": "0x6080604052336000806101000a81548173ffffffffffffffffffffffffffffffffffffffff021916908373ffffffffffffffffffffffffffffffffffffffff16021790555060006003819055506118b88061005b6000396000f3fe608060405234801561001057600080fd5b50600436106100625760003560e01c806302932f56146100675780630e274ae214610085578063141961bc146100a35780638da5cb5b146100da578063980f2e66146100f8578063a87430ba14610114575b600080fd5b61006f610144565b60405161007c9190610c0b565b60405180910390f35b61008d61014a565b60405161009a9190610e86565b60405180910390f35b6100bd60048036038101906100b89190610ee8565b6104c9565b6040516100d1989796959493929190610f6e565b60405180910390f35b6100e26106c9565b6040516100ef9190611022565b60405180910390f35b610112600480360381019061010d9190611172565b6106ed565b005b61012e6004803603810190610129919061126d565b610b79565b60405161013b9190610c0b565b60405180910390f35b60035481565b60606000600160003373ffffffffffffffffffffffffffffffffffffffff1673ffffffffffffffffffffffffffffffffffffffff16815260200190815260200160002060000154905060008167ffffffffffffffff8111156101af576101ae611047565b5b6040519080825280602002602001820160405280156101e857816020015b6101d5610b97565b8152602001906001900390816101cd5790505b50905060005b828110156104c0576000600160003373ffffffffffffffffffffffffffffffffffffffff1673ffffffffffffffffffffffffffffffffffffffff168152602001908152602001600020600101600083815260200190815260200160002090508060405180610100016040529081600082015481526020016001820160009054906101000a900473ffffffffffffffffffffffffffffffffffffffff1673ffffffffffffffffffffffffffffffffffffffff1673ffffffffffffffffffffffffffffffffffffffff1681526020016002820180546102ca906112c9565b80601f01602080910402602001604051908101604052809291908181526020018280546102f6906112c9565b80156103435780601f1061031857610100808354040283529160200191610343565b820191906000526020600020905b81548152906001019060200180831161032657829003601f168201915b5050505050815260200160038201805461035c906112c9565b80601f0160208091040260200160405190810160405280929190818152602001828054610388906112c9565b80156103d55780601f106103aa576101008083540402835291602001916103d5565b820191906000526020600020905b8154815290600101906020018083116103b857829003601f168201915b505050505081526020016004820180546103ee906112c9565b80601f016020809104026020016040519081016040528092919081815260200182805461041a906112c9565b80156104675780601f1061043c57610100808354040283529160200191610467565b820191906000526020600020905b81548152906001019060200180831161044a57829003601f168201915b5050505050815260200160058201548152602001600682015481526020016007820154815250508383815181106104a1576104a06112fa565b5b60200260200101819052505080806104b890611358565b9150506101ee565b50809250505090565b60026020528060005260406000206000915090508060000154908060010160009054906101000a900473ffffffffffffffffffffffffffffffffffffffff1690806002018054610518906112c9565b80601f0160208091040260200160405190810160405280929190818152602001828054610544906112c9565b80156105915780601f1061056657610100808354040283529160200191610591565b820191906000526020600020905b81548152906001019060200180831161057457829003601f168201915b5050505050908060030180546105a6906112c9565b80601f01602080910402602001604051908101604052809291908181526020018280546105d2906112c9565b801561061f5780601f106105f45761010080835404028352916020019161061f565b820191906000526020600020905b81548152906001019060200180831161060257829003601f168201915b505050505090806004018054610634906112c9565b80601f0160208091040260200160405190810160405280929190818152602001828054610660906112c9565b80156106ad5780601f10610682576101008083540402835291602001916106ad565b820191906000526020600020905b81548152906001019060200180831161069057829003601f168201915b5050505050908060050154908060060154908060070154905088565b60008054906101000a900473ffffffffffffffffffffffffffffffffffffffff1681565b42811161072f576040517f08c379a0000000000000000000000000000000000000000000000000000000008152600401610726906113ec565b60405180910390fd5b60008211610772576040517f08c379a00000000000000000000000000000000000000000000000000000000081526004016107699061147e565b60405180910390fd5b60008551116107b6576040517f08c379a00000000000000000000000000000000000000000000000000000000081526004016107ad906114ea565b60405180910390fd5b60008451116107fa576040517f08c379a00000000000000000000000000000000000000000000000000000000081526004016107f190611556565b60405180910390fd5b600083511161083e576040517f08c379a0000000000000000000000000000000000000000000000000000000008152600401610835906115c2565b60405180910390fd5b600060405180610100016040528060035481526020013373ffffffffffffffffffffffffffffffffffffffff16815260200187815260200186815260200185815260200184815260200160008152602001838152509050806002600060035481526020019081526020016000206000820151816000015560208201518160010160006101000a81548173ffffffffffffffffffffffffffffffffffffffff021916908373ffffffffffffffffffffffffffffffffffffffff1602179055506040820151816002019081610911919061178e565b506060820151816003019081610927919061178e565b50608082015181600401908161093d919061178e565b5060a0820151816005015560c0820151816006015560e082015181600701559050506000600160003373ffffffffffffffffffffffffffffffffffffffff1673ffffffffffffffffffffffffffffffffffffffff16815260200190815260200160002060000154905081600160003373ffffffffffffffffffffffffffffffffffffffff1673ffffffffffffffffffffffffffffffffffffffff16815260200190815260200160002060010160008381526020019081526020016000206000820151816000015560208201518160010160006101000a81548173ffffffffffffffffffffffffffffffffffffffff021916908373ffffffffffffffffffffffffffffffffffffffff1602179055506040820151816002019081610a60919061178e565b506060820151816003019081610a76919061178e565b506080820151816004019081610a8c919061178e565b5060a0820151816005015560c0820151816006015560e08201518160070155905050600160003373ffffffffffffffffffffffffffffffffffffffff1673ffffffffffffffffffffffffffffffffffffffff1681526020019081526020016000206000016000815480929190610b0190611358565b919050555060036000815480929190610b1990611358565b91905055503373ffffffffffffffffffffffffffffffffffffffff167f17dd0b5f0975f4651b002ed3b016428bae979f5704d8b2473931b2312185c05a8360600151604051610b689190611860565b60405180910390a250505050505050565b60016020528060005260406000206000915090508060000154905081565b60405180610100016040528060008152602001600073ffffffffffffffffffffffffffffffffffffffff1681526020016060815260200160608152602001606081526020016000815260200160008152602001600081525090565b6000819050919050565b610c0581610bf2565b82525050565b6000602082019050610c206000830184610bfc565b92915050565b600081519050919050565b600082825260208201905092915050565b6000819050602082019050919050565b610c5b81610bf2565b82525050565b600073ffffffffffffffffffffffffffffffffffffffff82169050919050565b6000610c8c82610c61565b9050919050565b610c9c81610c81565b82525050565b600081519050919050565b600082825260208201905092915050565b60005b83811015610cdc578082015181840152602081019050610cc1565b60008484015250505050565b6000601f19601f8301169050919050565b6000610d0482610ca2565b610d0e8185610cad565b9350610d1e818560208601610cbe565b610d2781610ce8565b840191505092915050565b600061010083016000830151610d4b6000860182610c52565b506020830151610d5e6020860182610c93565b5060408301518482036040860152610d768282610cf9565b91505060608301518482036060860152610d908282610cf9565b91505060808301518482036080860152610daa8282610cf9565b91505060a0830151610dbf60a0860182610c52565b5060c0830151610dd260c0860182610c52565b5060e0830151610de560e0860182610c52565b508091505092915050565b6000610dfc8383610d32565b905092915050565b6000602082019050919050565b6000610e1c82610c26565b610e268185610c31565b935083602082028501610e3885610c42565b8060005b85811015610e745784840389528151610e558582610df0565b9450610e6083610e04565b925060208a01995050600181019050610e3c565b50829750879550505050505092915050565b60006020820190508181036000830152610ea08184610e11565b905092915050565b6000604051905090565b600080fd5b600080fd5b610ec581610bf2565b8114610ed057600080fd5b50565b600081359050610ee281610ebc565b92915050565b600060208284031215610efe57610efd610eb2565b5b6000610f0c84828501610ed3565b91505092915050565b610f1e81610c81565b82525050565b600082825260208201905092915050565b6000610f4082610ca2565b610f4a8185610f24565b9350610f5a818560208601610cbe565b610f6381610ce8565b840191505092915050565b600061010082019050610f84600083018b610bfc565b610f91602083018a610f15565b8181036040830152610fa38189610f35565b90508181036060830152610fb78188610f35565b90508181036080830152610fcb8187610f35565b9050610fda60a0830186610bfc565b610fe760c0830185610bfc565b610ff460e0830184610bfc565b9998505050505050505050565b600061100c82610c61565b9050919050565b61101c81611001565b82525050565b60006020820190506110376000830184611013565b92915050565b600080fd5b600080fd5b7f4e487b7100000000000000000000000000000000000000000000000000000000600052604160045260246000fd5b61107f82610ce8565b810181811067ffffffffffffffff8211171561109e5761109d611047565b5b80604052505050565b60006110b1610ea8565b90506110bd8282611076565b919050565b600067ffffffffffffffff8211156110dd576110dc611047565b5b6110e682610ce8565b9050602081019050919050565b82818337600083830152505050565b6000611115611110846110c2565b6110a7565b90508281526020810184848401111561113157611130611042565b5b61113c8482856110f3565b509392505050565b600082601f8301126111595761115861103d565b5b8135611169848260208601611102565b91505092915050565b600080600080600060a0868803121561118e5761118d610eb2565b5b600086013567ffffffffffffffff8111156111ac576111ab610eb7565b5b6111b888828901611144565b955050602086013567ffffffffffffffff8111156111d9576111d8610eb7565b5b6111e588828901611144565b945050604086013567ffffffffffffffff81111561120657611205610eb7565b5b61121288828901611144565b935050606061122388828901610ed3565b925050608061123488828901610ed3565b9150509295509295909350565b61124a81610c81565b811461125557600080fd5b50565b60008135905061126781611241565b92915050565b60006020828403121561128357611282610eb2565b5b600061129184828501611258565b91505092915050565b7f4e487b7100000000000000000000000000000000000000000000000000000000600052602260045260246000fd5b600060028204905060018216806112e157607f821691505b6020821081036112f4576112f361129a565b5b50919050565b7f4e487b7100000000000000000000000000000000000000000000000000000000600052603260045260246000fd5b7f4e487b7100000000000000000000000000000000000000000000000000000000600052601160045260246000fd5b600061136382610bf2565b91507fffffffffffffffffffffffffffffffffffffffffffffffffffffffffffffffff820361139557611394611329565b5b600182019050919050565b7f446174652073686f756c64206265206675747572652064617465000000000000600082015250565b60006113d6601a83610f24565b91506113e1826113a0565b602082019050919050565b60006020820190508181036000830152611405816113c9565b9050919050565b7f476f616c20616d6f756e742073686f756c64206265206d6f7265207468616e2060008201527f3000000000000000000000000000000000000000000000000000000000000000602082015250565b6000611468602183610f24565b91506114738261140c565b604082019050919050565b600060208201905081810360008301526114978161145b565b9050919050565b7f46756c6c206e616d652063616e6e6f7420626520656d70747900000000000000600082015250565b60006114d4601983610f24565b91506114df8261149e565b602082019050919050565b60006020820190508181036000830152611503816114c7565b9050919050565b7f5469746c652063616e6e6f7420626520656d7074790000000000000000000000600082015250565b6000611540601583610f24565b915061154b8261150a565b602082019050919050565b6000602082019050818103600083015261156f81611533565b9050919050565b7f53746f72792063616e6e6f7420626520656d7074790000000000000000000000600082015250565b60006115ac601583610f24565b91506115b782611576565b602082019050919050565b600060208201905081810360008301526115db8161159f565b9050919050565b60008190508160005260206000209050919050565b60006020601f8301049050919050565b600082821b905092915050565b6000600883026116447fffffffffffffffffffffffffffffffffffffffffffffffffffffffffffffffff82611607565b61164e8683611607565b95508019841693508086168417925050509392505050565b6000819050919050565b600061168b61168661168184610bf2565b611666565b610bf2565b9050919050565b6000819050919050565b6116a583611670565b6116b96116b182611692565b848454611614565b825550505050565b600090565b6116ce6116c1565b6116d981848461169c565b505050565b5b818110156116fd576116f26000826116c6565b6001810190506116df565b5050565b601f82111561174257611713816115e2565b61171c846115f7565b8101602085101561172b578190505b61173f611737856115f7565b8301826116de565b50505b505050565b600082821c905092915050565b600061176560001984600802611747565b1980831691505092915050565b600061177e8383611754565b9150826002028217905092915050565b61179782610ca2565b67ffffffffffffffff8111156117b0576117af611047565b5b6117ba82546112c9565b6117c5828285611701565b600060209050601f8311600181146117f857600084156117e6578287015190505b6117f08582611772565b865550611858565b601f198416611806866115e2565b60005b8281101561182e57848901518255600182019150602085019450602081019050611809565b8683101561184b5784890151611847601f891682611754565b8355505b6001600288020188555050505b505050505050565b6000602082019050818103600083015261187a8184610f35565b90509291505056fea26469706673582212205421d533261f1de41259107986655e82c4692f138dfde81b6ab2f2432563dde464736f6c63430008120033",
  "linkReferences": {},
  "deployedLinkReferences": {}
}