{
  "_format": "hh-sol-artifact-1",
  "contractName": "CrowdFunding",
  "sourceName": "contracts/CrowdFunding.sol",
  "abi": [
    {
      "inputs": [],
      "stateMutability": "payable",
      "type": "constructor"
    },
    {
      "anonymous": false,
      "inputs": [
        {
          "indexed": true,
          "internalType": "address",
          "name": "sender",
          "type": "address"
        },
        {
          "indexed": false,
          "internalType": "string",
          "name": "title",
          "type": "string"
        }
      ],
      "name": "CampaignCreated",
      "type": "event"
    },
    {
      "anonymous": false,
      "inputs": [
        {
          "indexed": true,
          "internalType": "address",
          "name": "sender",
          "type": "address"
        },
        {
          "indexed": false,
          "internalType": "string",
          "name": "title",
          "type": "string"
        }
      ],
      "name": "CampaignEdited",
      "type": "event"
    },
    {
      "anonymous": false,
      "inputs": [
        {
          "indexed": true,
          "internalType": "address",
          "name": "sender",
          "type": "address"
        },
        {
          "indexed": false,
          "internalType": "string",
          "name": "title",
          "type": "string"
        },
        {
          "indexed": false,
          "internalType": "uint256",
          "name": "amount",
          "type": "uint256"
        }
      ],
      "name": "DonationSent",
      "type": "event"
    },
    {
      "inputs": [
        {
          "internalType": "uint256",
          "name": "",
          "type": "uint256"
        }
      ],
      "name": "campaigns",
      "outputs": [
        {
          "internalType": "uint256",
          "name": "id",
          "type": "uint256"
        },
        {
          "internalType": "address",
          "name": "creator",
          "type": "address"
        },
        {
          "internalType": "string",
          "name": "fullname",
          "type": "string"
        },
        {
          "internalType": "string",
          "name": "title",
          "type": "string"
        },
        {
          "internalType": "string",
          "name": "story",
          "type": "string"
        },
        {
          "internalType": "uint256",
          "name": "goalAmount",
          "type": "uint256"
        },
        {
          "internalType": "uint256",
          "name": "currentAmount",
          "type": "uint256"
        },
        {
          "internalType": "uint256",
          "name": "deadline",
          "type": "uint256"
        },
        {
          "internalType": "uint256",
          "name": "totalDonations",
          "type": "uint256"
        }
      ],
      "stateMutability": "view",
      "type": "function"
    },
    {
      "inputs": [
        {
          "internalType": "string",
          "name": "_fullname",
          "type": "string"
        },
        {
          "internalType": "string",
          "name": "_title",
          "type": "string"
        },
        {
          "internalType": "string",
          "name": "_story",
          "type": "string"
        },
        {
          "internalType": "uint256",
          "name": "_goalAmount",
          "type": "uint256"
        },
        {
          "internalType": "uint256",
          "name": "_deadline",
          "type": "uint256"
        }
      ],
      "name": "createCampaign",
      "outputs": [],
      "stateMutability": "nonpayable",
      "type": "function"
    },
    {
      "inputs": [
        {
          "internalType": "uint256",
          "name": "",
          "type": "uint256"
        }
      ],
      "name": "donationTransactions",
      "outputs": [
        {
          "internalType": "uint256",
          "name": "id",
          "type": "uint256"
        },
        {
          "internalType": "uint256",
          "name": "campaignId",
          "type": "uint256"
        },
        {
          "internalType": "address",
          "name": "donor",
          "type": "address"
        },
        {
          "internalType": "uint256",
          "name": "amount",
          "type": "uint256"
        },
        {
          "internalType": "uint256",
          "name": "timestamp",
          "type": "uint256"
        }
      ],
      "stateMutability": "view",
      "type": "function"
    },
    {
      "inputs": [
        {
          "internalType": "uint256",
          "name": "_campaignId",
          "type": "uint256"
        },
        {
          "internalType": "string",
          "name": "_fullname",
          "type": "string"
        },
        {
          "internalType": "string",
          "name": "_title",
          "type": "string"
        },
        {
          "internalType": "string",
          "name": "_story",
          "type": "string"
        },
        {
          "internalType": "uint256",
          "name": "_goalAmount",
          "type": "uint256"
        },
        {
          "internalType": "uint256",
          "name": "_deadline",
          "type": "uint256"
        }
      ],
      "name": "editCampaign",
      "outputs": [],
      "stateMutability": "nonpayable",
      "type": "function"
    },
    {
      "inputs": [
        {
          "internalType": "uint256",
          "name": "_campaignId",
          "type": "uint256"
        }
      ],
      "name": "getCampaign",
      "outputs": [
        {
          "components": [
            {
              "internalType": "uint256",
              "name": "id",
              "type": "uint256"
            },
            {
              "internalType": "address",
              "name": "creator",
              "type": "address"
            },
            {
              "internalType": "string",
              "name": "fullname",
              "type": "string"
            },
            {
              "internalType": "string",
              "name": "title",
              "type": "string"
            },
            {
              "internalType": "string",
              "name": "story",
              "type": "string"
            },
            {
              "internalType": "uint256",
              "name": "goalAmount",
              "type": "uint256"
            },
            {
              "internalType": "uint256",
              "name": "currentAmount",
              "type": "uint256"
            },
            {
              "internalType": "uint256",
              "name": "deadline",
              "type": "uint256"
            },
            {
              "internalType": "uint256",
              "name": "totalDonations",
              "type": "uint256"
            }
          ],
          "internalType": "struct CrowdFunding.Campaign",
          "name": "",
          "type": "tuple"
        }
      ],
      "stateMutability": "view",
      "type": "function"
    },
    {
      "inputs": [
        {
          "internalType": "uint256",
          "name": "_campaignId",
          "type": "uint256"
        }
      ],
      "name": "getCampaignDonations",
      "outputs": [
        {
          "components": [
            {
              "internalType": "uint256",
              "name": "id",
              "type": "uint256"
            },
            {
              "internalType": "uint256",
              "name": "campaignId",
              "type": "uint256"
            },
            {
              "internalType": "address",
              "name": "donor",
              "type": "address"
            },
            {
              "internalType": "uint256",
              "name": "amount",
              "type": "uint256"
            },
            {
              "internalType": "uint256",
              "name": "timestamp",
              "type": "uint256"
            }
          ],
          "internalType": "struct CrowdFunding.DonationTransaction[]",
          "name": "allDonations",
          "type": "tuple[]"
        },
        {
          "internalType": "uint256",
          "name": "totalCampaignDonations",
          "type": "uint256"
        }
      ],
      "stateMutability": "view",
      "type": "function"
    },
    {
      "inputs": [
        {
          "internalType": "address",
          "name": "_walletAddress",
          "type": "address"
        },
        {
          "internalType": "uint256",
          "name": "_pageSize",
          "type": "uint256"
        },
        {
          "internalType": "uint256",
          "name": "_pageNumber",
          "type": "uint256"
        }
      ],
      "name": "getDonatorsByWalletAddress",
      "outputs": [
        {
          "components": [
            {
              "internalType": "address",
              "name": "donator",
              "type": "address"
            },
            {
              "internalType": "string",
              "name": "campaignTitle",
              "type": "string"
            },
            {
              "internalType": "uint256",
              "name": "donationAmount",
              "type": "uint256"
            }
          ],
          "internalType": "struct CrowdFunding.DonationData[]",
          "name": "",
          "type": "tuple[]"
        },
        {
          "internalType": "uint256",
          "name": "",
          "type": "uint256"
        },
        {
          "internalType": "uint256",
          "name": "",
          "type": "uint256"
        },
        {
          "internalType": "uint256",
          "name": "",
          "type": "uint256"
        },
        {
          "internalType": "uint256",
          "name": "",
          "type": "uint256"
        }
      ],
      "stateMutability": "view",
      "type": "function"
    },
    {
      "inputs": [
        {
          "internalType": "uint256",
          "name": "_pageSize",
          "type": "uint256"
        },
        {
          "internalType": "uint256",
          "name": "_pageNumber",
          "type": "uint256"
        }
      ],
      "name": "getUserCampaigns",
      "outputs": [
        {
          "components": [
            {
              "internalType": "uint256",
              "name": "id",
              "type": "uint256"
            },
            {
              "internalType": "address",
              "name": "creator",
              "type": "address"
            },
            {
              "internalType": "string",
              "name": "fullname",
              "type": "string"
            },
            {
              "internalType": "string",
              "name": "title",
              "type": "string"
            },
            {
              "internalType": "string",
              "name": "story",
              "type": "string"
            },
            {
              "internalType": "uint256",
              "name": "goalAmount",
              "type": "uint256"
            },
            {
              "internalType": "uint256",
              "name": "currentAmount",
              "type": "uint256"
            },
            {
              "internalType": "uint256",
              "name": "deadline",
              "type": "uint256"
            },
            {
              "internalType": "uint256",
              "name": "totalDonations",
              "type": "uint256"
            }
          ],
          "internalType": "struct CrowdFunding.Campaign[]",
          "name": "",
          "type": "tuple[]"
        },
        {
          "internalType": "uint256",
          "name": "",
          "type": "uint256"
        },
        {
          "internalType": "uint256",
          "name": "",
          "type": "uint256"
        },
        {
          "internalType": "uint256",
          "name": "",
          "type": "uint256"
        },
        {
          "internalType": "uint256",
          "name": "",
          "type": "uint256"
        }
      ],
      "stateMutability": "view",
      "type": "function"
    },
    {
      "inputs": [],
      "name": "owner",
      "outputs": [
        {
          "internalType": "address payable",
          "name": "",
          "type": "address"
        }
      ],
      "stateMutability": "view",
      "type": "function"
    },
    {
      "inputs": [
        {
          "internalType": "uint256",
          "name": "_campaignId",
          "type": "uint256"
        }
      ],
      "name": "sendDonation",
      "outputs": [],
      "stateMutability": "payable",
      "type": "function"
    },
    {
      "inputs": [],
      "name": "totalCampaigns",
      "outputs": [
        {
          "internalType": "uint256",
          "name": "",
          "type": "uint256"
        }
      ],
      "stateMutability": "view",
      "type": "function"
    },
    {
      "inputs": [],
      "name": "totalDonations",
      "outputs": [
        {
          "internalType": "uint256",
          "name": "",
          "type": "uint256"
        }
      ],
      "stateMutability": "view",
      "type": "function"
    },
    {
      "inputs": [
        {
          "internalType": "address",
          "name": "",
          "type": "address"
        }
      ],
      "name": "users",
      "outputs": [
        {
          "internalType": "uint256",
          "name": "totalCampaigns",
          "type": "uint256"
        },
        {
          "internalType": "uint256",
          "name": "totalDonations",
          "type": "uint256"
        }
      ],
      "stateMutability": "view",
      "type": "function"
    }
  ],
  "bytecode": "0x6080604052336000806101000a81548173ffffffffffffffffffffffffffffffffffffffff021916908373ffffffffffffffffffffffffffffffffffffffff16021790555060006004819055506138048061005b6000396000f3fe6080604052600436106100c25760003560e01c80638acd0bfc1161007f578063a87430ba11610059578063a87430ba146102a4578063b0445d60146102e2578063de2ed89314610323578063e1a783a01461034e576100c2565b80638acd0bfc1461020f5780638da5cb5b14610250578063980f2e661461027b576100c2565b806302932f56146100c7578063141961bc146100f25780633e3b6675146101375780635167642f146101785780635598f8cc146101b6578063665588c9146101f3575b600080fd5b3480156100d357600080fd5b506100dc610377565b6040516100e991906120af565b60405180910390f35b3480156100fe57600080fd5b506101196004803603810190610114919061210a565b61037d565b60405161012e99989796959493929190612208565b60405180910390f35b34801561014357600080fd5b5061015e600480360381019061015991906122aa565b610583565b60405161016f9594939291906124e7565b60405180910390f35b34801561018457600080fd5b5061019f600480360381019061019a919061210a565b61093d565b6040516101ad929190612658565b60405180910390f35b3480156101c257600080fd5b506101dd60048036038101906101d8919061210a565b610d12565b6040516101ea919061275b565b60405180910390f35b61020d6004803603810190610208919061210a565b610f7e565b005b34801561021b57600080fd5b506102366004803603810190610231919061210a565b61126e565b60405161024795949392919061277d565b60405180910390f35b34801561025c57600080fd5b506102656112c4565b60405161027291906127f1565b60405180910390f35b34801561028757600080fd5b506102a2600480360381019061029d9190612941565b6112e8565b005b3480156102b057600080fd5b506102cb60048036038101906102c69190612a3c565b6116e4565b6040516102d9929190612a69565b60405180910390f35b3480156102ee57600080fd5b5061030960048036038101906103049190612a92565b611708565b60405161031a959493929190612bf7565b60405180910390f35b34801561032f57600080fd5b50610338611ae0565b60405161034591906120af565b60405180910390f35b34801561035a57600080fd5b5061037560048036038101906103709190612c51565b611ae6565b005b60045481565b60026020528060005260406000206000915090508060000154908060010160009054906101000a900473ffffffffffffffffffffffffffffffffffffffff16908060020180546103cc90612d61565b80601f01602080910402602001604051908101604052809291908181526020018280546103f890612d61565b80156104455780601f1061041a57610100808354040283529160200191610445565b820191906000526020600020905b81548152906001019060200180831161042857829003601f168201915b50505050509080600301805461045a90612d61565b80601f016020809104026020016040519081016040528092919081815260200182805461048690612d61565b80156104d35780601f106104a8576101008083540402835291602001916104d3565b820191906000526020600020905b8154815290600101906020018083116104b657829003601f168201915b5050505050908060040180546104e890612d61565b80601f016020809104026020016040519081016040528092919081815260200182805461051490612d61565b80156105615780601f1061053657610100808354040283529160200191610561565b820191906000526020600020905b81548152906001019060200180831161054457829003601f168201915b5050505050908060050154908060060154908060070154908060080154905089565b60606000806000806000600160003373ffffffffffffffffffffffffffffffffffffffff1673ffffffffffffffffffffffffffffffffffffffff168152602001908152602001600020905060006105df82600001548a8a611ddd565b90506000816060015182608001516105f79190612dc1565b67ffffffffffffffff8111156106105761060f612816565b5b60405190808252806020026020018201604052801561064957816020015b610636611f89565b81526020019060019003908161062e5790505b50905060005b8151811015610910576000600260008660020160008588606001516106749190612df5565b815260200190815260200160002054815260200190815260200160002060405180610120016040529081600082015481526020016001820160009054906101000a900473ffffffffffffffffffffffffffffffffffffffff1673ffffffffffffffffffffffffffffffffffffffff1673ffffffffffffffffffffffffffffffffffffffff16815260200160028201805461070d90612d61565b80601f016020809104026020016040519081016040528092919081815260200182805461073990612d61565b80156107865780601f1061075b57610100808354040283529160200191610786565b820191906000526020600020905b81548152906001019060200180831161076957829003601f168201915b5050505050815260200160038201805461079f90612d61565b80601f01602080910402602001604051908101604052809291908181526020018280546107cb90612d61565b80156108185780601f106107ed57610100808354040283529160200191610818565b820191906000526020600020905b8154815290600101906020018083116107fb57829003601f168201915b5050505050815260200160048201805461083190612d61565b80601f016020809104026020016040519081016040528092919081815260200182805461085d90612d61565b80156108aa5780601f1061087f576101008083540402835291602001916108aa565b820191906000526020600020905b81548152906001019060200180831161088d57829003601f168201915b505050505081526020016005820154815260200160068201548152602001600782015481526020016008820154815250509050808383815181106108f1576108f0612e29565b5b602002602001018190525050808061090890612e58565b91505061064f565b50808360000154836000015184602001518560400151975097509750975097505050509295509295909350565b60606000806002600085815260200190815260200160002060405180610120016040529081600082015481526020016001820160009054906101000a900473ffffffffffffffffffffffffffffffffffffffff1673ffffffffffffffffffffffffffffffffffffffff1673ffffffffffffffffffffffffffffffffffffffff1681526020016002820180546109d190612d61565b80601f01602080910402602001604051908101604052809291908181526020018280546109fd90612d61565b8015610a4a5780601f10610a1f57610100808354040283529160200191610a4a565b820191906000526020600020905b815481529060010190602001808311610a2d57829003601f168201915b50505050508152602001600382018054610a6390612d61565b80601f0160208091040260200160405190810160405280929190818152602001828054610a8f90612d61565b8015610adc5780601f10610ab157610100808354040283529160200191610adc565b820191906000526020600020905b815481529060010190602001808311610abf57829003601f168201915b50505050508152602001600482018054610af590612d61565b80601f0160208091040260200160405190810160405280929190818152602001828054610b2190612d61565b8015610b6e5780601f10610b4357610100808354040283529160200191610b6e565b820191906000526020600020905b815481529060010190602001808311610b5157829003601f168201915b50505050508152602001600582015481526020016006820154815260200160078201548152602001600882015481525050905080610100015191508167ffffffffffffffff811115610bc357610bc2612816565b5b604051908082528060200260200182016040528015610bfc57816020015b610be9611feb565b815260200190600190039081610be15790505b5092506000805b600554811015610d0a578260000151600360008381526020019081526020016000206001015403610cf757600360008281526020019081526020016000206040518060a001604052908160008201548152602001600182015481526020016002820160009054906101000a900473ffffffffffffffffffffffffffffffffffffffff1673ffffffffffffffffffffffffffffffffffffffff1673ffffffffffffffffffffffffffffffffffffffff16815260200160038201548152602001600482015481525050858381518110610cdd57610cdc612e29565b5b60200260200101819052508180610cf390612e58565b9250505b8080610d0290612e58565b915050610c03565b505050915091565b610d1a611f89565b6002600083815260200190815260200160002060405180610120016040529081600082015481526020016001820160009054906101000a900473ffffffffffffffffffffffffffffffffffffffff1673ffffffffffffffffffffffffffffffffffffffff1673ffffffffffffffffffffffffffffffffffffffff168152602001600282018054610da990612d61565b80601f0160208091040260200160405190810160405280929190818152602001828054610dd590612d61565b8015610e225780601f10610df757610100808354040283529160200191610e22565b820191906000526020600020905b815481529060010190602001808311610e0557829003601f168201915b50505050508152602001600382018054610e3b90612d61565b80601f0160208091040260200160405190810160405280929190818152602001828054610e6790612d61565b8015610eb45780601f10610e8957610100808354040283529160200191610eb4565b820191906000526020600020905b815481529060010190602001808311610e9757829003601f168201915b50505050508152602001600482018054610ecd90612d61565b80601f0160208091040260200160405190810160405280929190818152602001828054610ef990612d61565b8015610f465780601f10610f1b57610100808354040283529160200191610f46565b820191906000526020600020905b815481529060010190602001808311610f2957829003601f168201915b505050505081526020016005820154815260200160068201548152602001600782015481526020016008820154815250509050919050565b60008110158015610f90575060045481105b610fcf576040517f08c379a0000000000000000000000000000000000000000000000000000000008152600401610fc690612eec565b60405180910390fd5b6000600260008381526020019081526020016000209050806007015442111561102d576040517f08c379a000000000000000000000000000000000000000000000000000000000815260040161102490612f58565b60405180910390fd5b60003411611070576040517f08c379a000000000000000000000000000000000000000000000000000000000815260040161106790612fea565b60405180910390fd5b6000600160003373ffffffffffffffffffffffffffffffffffffffff1673ffffffffffffffffffffffffffffffffffffffff168152602001908152602001600020905060008160010154905060006040518060a001604052806005548152602001856000015481526020013373ffffffffffffffffffffffffffffffffffffffff16815260200134815260200142815250905080600360006005548152602001908152602001600020600082015181600001556020820151816001015560408201518160020160006101000a81548173ffffffffffffffffffffffffffffffffffffffff021916908373ffffffffffffffffffffffffffffffffffffffff1602179055506060820151816003015560808201518160040155905050806000015183600301600084815260200190815260200160002081905550348460060160008282546111bd9190612df5565b92505081905550600560008154809291906111d790612e58565b91905055508260010160008154809291906111f190612e58565b919050555083600801600081548092919061120b90612e58565b91905055503373ffffffffffffffffffffffffffffffffffffffff167f3b5443c59641f965c6df0836dbe11676fa8c79c3184392351bb19fd51de3d49a85600301866006015460405161125f9291906130a3565b60405180910390a25050505050565b60036020528060005260406000206000915090508060000154908060010154908060020160009054906101000a900473ffffffffffffffffffffffffffffffffffffffff16908060030154908060040154905085565b60008054906101000a900473ffffffffffffffffffffffffffffffffffffffff1681565b848484848442811161132f576040517f08c379a00000000000000000000000000000000000000000000000000000000081526004016113269061311f565b60405180910390fd5b60008211611372576040517f08c379a0000000000000000000000000000000000000000000000000000000008152600401611369906131b1565b60405180910390fd5b60008551116113b6576040517f08c379a00000000000000000000000000000000000000000000000000000000081526004016113ad9061321d565b60405180910390fd5b60008451116113fa576040517f08c379a00000000000000000000000000000000000000000000000000000000081526004016113f190613289565b60405180910390fd5b600083511161143e576040517f08c379a0000000000000000000000000000000000000000000000000000000008152600401611435906132f5565b60405180910390fd5b600060405180610120016040528060045481526020013373ffffffffffffffffffffffffffffffffffffffff1681526020018c81526020018b81526020018a81526020018981526020016000815260200188815260200160008152509050806002600060045481526020019081526020016000206000820151816000015560208201518160010160006101000a81548173ffffffffffffffffffffffffffffffffffffffff021916908373ffffffffffffffffffffffffffffffffffffffff160217905550604082015181600201908161151891906134ac565b50606082015181600301908161152e91906134ac565b50608082015181600401908161154491906134ac565b5060a0820151816005015560c0820151816006015560e0820151816007015561010082015181600801559050506000600160003373ffffffffffffffffffffffffffffffffffffffff1673ffffffffffffffffffffffffffffffffffffffff1681526020019081526020016000206000015490508160000151600160003373ffffffffffffffffffffffffffffffffffffffff1673ffffffffffffffffffffffffffffffffffffffff168152602001908152602001600020600201600083815260200190815260200160002081905550600160003373ffffffffffffffffffffffffffffffffffffffff1673ffffffffffffffffffffffffffffffffffffffff168152602001908152602001600020600001600081548092919061166790612e58565b91905055506004600081548092919061167f90612e58565b91905055503373ffffffffffffffffffffffffffffffffffffffff167f17dd0b5f0975f4651b002ed3b016428bae979f5704d8b2473931b2312185c05a83606001516040516116ce919061357e565b60405180910390a2505050505050505050505050565b60016020528060005260406000206000915090508060000154908060010154905082565b60606000806000806000606061171c612030565b60005b6004548110156118035760006002600083815260200190815260200160002090508c73ffffffffffffffffffffffffffffffffffffffff168160010160009054906101000a900473ffffffffffffffffffffffffffffffffffffffff1673ffffffffffffffffffffffffffffffffffffffff16036117ef5760005b6005548110156117ed57600060036000838152602001908152602001600020905082600001548160010154036117d95786806117d590612e58565b9750505b5080806117e590612e58565b91505061179a565b505b5080806117fb90612e58565b91505061171f565b5061180f838b8b611ddd565b9050806060015181608001516118259190612dc1565b67ffffffffffffffff81111561183e5761183d612816565b5b60405190808252806020026020018201604052801561187757816020015b61186461205f565b81526020019060019003908161185c5790505b5091506000805b600454811015611ab55760006002600083815260200190815260200160002090508d73ffffffffffffffffffffffffffffffffffffffff168160010160009054906101000a900473ffffffffffffffffffffffffffffffffffffffff1673ffffffffffffffffffffffffffffffffffffffff1603611aa15760005b600554811015611a9f5760006003600083815260200190815260200160002090508260000154816001015403611a8b57856060015185101580156119405750856080015185105b15611a7c5761194d61205f565b8160020160009054906101000a900473ffffffffffffffffffffffffffffffffffffffff16816000019073ffffffffffffffffffffffffffffffffffffffff16908173ffffffffffffffffffffffffffffffffffffffff16815250508360030180546119b890612d61565b80601f01602080910402602001604051908101604052809291908181526020018280546119e490612d61565b8015611a315780601f10611a0657610100808354040283529160200191611a31565b820191906000526020600020905b815481529060010190602001808311611a1457829003601f168201915b5050505050816020018190525081600301548160400181815250508088886060015188611a5e9190612dc1565b81518110611a6f57611a6e612e29565b5b6020026020010181905250505b8480611a8790612e58565b9550505b508080611a9790612e58565b9150506118f9565b505b508080611aad90612e58565b91505061187e565b5082848360000151846020015185604001519850985098509850985050505050939792965093509350565b60055481565b8484848484428111611b2d576040517f08c379a0000000000000000000000000000000000000000000000000000000008152600401611b249061311f565b60405180910390fd5b60008211611b70576040517f08c379a0000000000000000000000000000000000000000000000000000000008152600401611b67906131b1565b60405180910390fd5b6000855111611bb4576040517f08c379a0000000000000000000000000000000000000000000000000000000008152600401611bab9061321d565b60405180910390fd5b6000845111611bf8576040517f08c379a0000000000000000000000000000000000000000000000000000000008152600401611bef90613289565b60405180910390fd5b6000835111611c3c576040517f08c379a0000000000000000000000000000000000000000000000000000000008152600401611c33906132f5565b60405180910390fd5b6000600260008d8152602001908152602001600020905060008c10158015611c6557506004548c105b611ca4576040517f08c379a0000000000000000000000000000000000000000000000000000000008152600401611c9b90612eec565b60405180910390fd5b3373ffffffffffffffffffffffffffffffffffffffff168160010160009054906101000a900473ffffffffffffffffffffffffffffffffffffffff1673ffffffffffffffffffffffffffffffffffffffff1614611d36576040517f08c379a0000000000000000000000000000000000000000000000000000000008152600401611d2d90613612565b60405180910390fd5b8a816002019081611d4791906134ac565b5089816003019081611d5991906134ac565b5088816004019081611d6b91906134ac565b508781600501819055508681600701819055503373ffffffffffffffffffffffffffffffffffffffff167fb961c338b427968a67f1a3560907d7075a0d1fca0c2d16dcb76da3a963cfe37382600301604051611dc79190613632565b60405180910390a2505050505050505050505050565b611de5612030565b60008311611e28576040517f08c379a0000000000000000000000000000000000000000000000000000000008152600401611e1f906136a0565b60405180910390fd5b60008211611e6b576040517f08c379a0000000000000000000000000000000000000000000000000000000008152600401611e629061370c565b60405180910390fd5b611e73612030565b8360018587611e829190612df5565b611e8c9190612dc1565b611e96919061375b565b8160000181815250506000816000015111611eb2576000611ecb565b600183611ebf9190612dc1565b84611eca919061378c565b5b81606001818152505084816060015185611ee59190612df5565b11611eff57806060015184611efa9190612df5565b611f01565b845b81608001818152505080600001518310611f1f578060000151611f2d565b600183611f2c9190612df5565b5b81602001818152505060018311611f45576001611f53565b600183611f529190612dc1565b5b8160400181815250506000816000015111611f6f576000611f75565b80604001515b816040018181525050809150509392505050565b60405180610120016040528060008152602001600073ffffffffffffffffffffffffffffffffffffffff168152602001606081526020016060815260200160608152602001600081526020016000815260200160008152602001600081525090565b6040518060a001604052806000815260200160008152602001600073ffffffffffffffffffffffffffffffffffffffff16815260200160008152602001600081525090565b6040518060a0016040528060008152602001600081526020016000815260200160008152602001600081525090565b6040518060600160405280600073ffffffffffffffffffffffffffffffffffffffff16815260200160608152602001600081525090565b6000819050919050565b6120a981612096565b82525050565b60006020820190506120c460008301846120a0565b92915050565b6000604051905090565b600080fd5b600080fd5b6120e781612096565b81146120f257600080fd5b50565b600081359050612104816120de565b92915050565b6000602082840312156121205761211f6120d4565b5b600061212e848285016120f5565b91505092915050565b600073ffffffffffffffffffffffffffffffffffffffff82169050919050565b600061216282612137565b9050919050565b61217281612157565b82525050565b600081519050919050565b600082825260208201905092915050565b60005b838110156121b2578082015181840152602081019050612197565b60008484015250505050565b6000601f19601f8301169050919050565b60006121da82612178565b6121e48185612183565b93506121f4818560208601612194565b6121fd816121be565b840191505092915050565b60006101208201905061221e600083018c6120a0565b61222b602083018b612169565b818103604083015261223d818a6121cf565b9050818103606083015261225181896121cf565b9050818103608083015261226581886121cf565b905061227460a08301876120a0565b61228160c08301866120a0565b61228e60e08301856120a0565b61229c6101008301846120a0565b9a9950505050505050505050565b600080604083850312156122c1576122c06120d4565b5b60006122cf858286016120f5565b92505060206122e0858286016120f5565b9150509250929050565b600081519050919050565b600082825260208201905092915050565b6000819050602082019050919050565b61231f81612096565b82525050565b61232e81612157565b82525050565b600082825260208201905092915050565b600061235082612178565b61235a8185612334565b935061236a818560208601612194565b612373816121be565b840191505092915050565b6000610120830160008301516123976000860182612316565b5060208301516123aa6020860182612325565b50604083015184820360408601526123c28282612345565b915050606083015184820360608601526123dc8282612345565b915050608083015184820360808601526123f68282612345565b91505060a083015161240b60a0860182612316565b5060c083015161241e60c0860182612316565b5060e083015161243160e0860182612316565b50610100830151612446610100860182612316565b508091505092915050565b600061245d838361237e565b905092915050565b6000602082019050919050565b600061247d826122ea565b61248781856122f5565b93508360208202850161249985612306565b8060005b858110156124d557848403895281516124b68582612451565b94506124c183612465565b925060208a0199505060018101905061249d565b50829750879550505050505092915050565b600060a08201905081810360008301526125018188612472565b905061251060208301876120a0565b61251d60408301866120a0565b61252a60608301856120a0565b61253760808301846120a0565b9695505050505050565b600081519050919050565b600082825260208201905092915050565b6000819050602082019050919050565b60a0820160008201516125836000850182612316565b5060208201516125966020850182612316565b5060408201516125a96040850182612325565b5060608201516125bc6060850182612316565b5060808201516125cf6080850182612316565b50505050565b60006125e1838361256d565b60a08301905092915050565b6000602082019050919050565b600061260582612541565b61260f818561254c565b935061261a8361255d565b8060005b8381101561264b57815161263288826125d5565b975061263d836125ed565b92505060018101905061261e565b5085935050505092915050565b6000604082019050818103600083015261267281856125fa565b905061268160208301846120a0565b9392505050565b6000610120830160008301516126a16000860182612316565b5060208301516126b46020860182612325565b50604083015184820360408601526126cc8282612345565b915050606083015184820360608601526126e68282612345565b915050608083015184820360808601526127008282612345565b91505060a083015161271560a0860182612316565b5060c083015161272860c0860182612316565b5060e083015161273b60e0860182612316565b50610100830151612750610100860182612316565b508091505092915050565b600060208201905081810360008301526127758184612688565b905092915050565b600060a08201905061279260008301886120a0565b61279f60208301876120a0565b6127ac6040830186612169565b6127b960608301856120a0565b6127c660808301846120a0565b9695505050505050565b60006127db82612137565b9050919050565b6127eb816127d0565b82525050565b600060208201905061280660008301846127e2565b92915050565b600080fd5b600080fd5b7f4e487b7100000000000000000000000000000000000000000000000000000000600052604160045260246000fd5b61284e826121be565b810181811067ffffffffffffffff8211171561286d5761286c612816565b5b80604052505050565b60006128806120ca565b905061288c8282612845565b919050565b600067ffffffffffffffff8211156128ac576128ab612816565b5b6128b5826121be565b9050602081019050919050565b82818337600083830152505050565b60006128e46128df84612891565b612876565b905082815260208101848484011115612900576128ff612811565b5b61290b8482856128c2565b509392505050565b600082601f8301126129285761292761280c565b5b81356129388482602086016128d1565b91505092915050565b600080600080600060a0868803121561295d5761295c6120d4565b5b600086013567ffffffffffffffff81111561297b5761297a6120d9565b5b61298788828901612913565b955050602086013567ffffffffffffffff8111156129a8576129a76120d9565b5b6129b488828901612913565b945050604086013567ffffffffffffffff8111156129d5576129d46120d9565b5b6129e188828901612913565b93505060606129f2888289016120f5565b9250506080612a03888289016120f5565b9150509295509295909350565b612a1981612157565b8114612a2457600080fd5b50565b600081359050612a3681612a10565b92915050565b600060208284031215612a5257612a516120d4565b5b6000612a6084828501612a27565b91505092915050565b6000604082019050612a7e60008301856120a0565b612a8b60208301846120a0565b9392505050565b600080600060608486031215612aab57612aaa6120d4565b5b6000612ab986828701612a27565b9350506020612aca868287016120f5565b9250506040612adb868287016120f5565b9150509250925092565b600081519050919050565b600082825260208201905092915050565b6000819050602082019050919050565b6000606083016000830151612b296000860182612325565b5060208301518482036020860152612b418282612345565b9150506040830151612b566040860182612316565b508091505092915050565b6000612b6d8383612b11565b905092915050565b6000602082019050919050565b6000612b8d82612ae5565b612b978185612af0565b935083602082028501612ba985612b01565b8060005b85811015612be55784840389528151612bc68582612b61565b9450612bd183612b75565b925060208a01995050600181019050612bad565b50829750879550505050505092915050565b600060a0820190508181036000830152612c118188612b82565b9050612c2060208301876120a0565b612c2d60408301866120a0565b612c3a60608301856120a0565b612c4760808301846120a0565b9695505050505050565b60008060008060008060c08789031215612c6e57612c6d6120d4565b5b6000612c7c89828a016120f5565b965050602087013567ffffffffffffffff811115612c9d57612c9c6120d9565b5b612ca989828a01612913565b955050604087013567ffffffffffffffff811115612cca57612cc96120d9565b5b612cd689828a01612913565b945050606087013567ffffffffffffffff811115612cf757612cf66120d9565b5b612d0389828a01612913565b9350506080612d1489828a016120f5565b92505060a0612d2589828a016120f5565b9150509295509295509295565b7f4e487b7100000000000000000000000000000000000000000000000000000000600052602260045260246000fd5b60006002820490506001821680612d7957607f821691505b602082108103612d8c57612d8b612d32565b5b50919050565b7f4e487b7100000000000000000000000000000000000000000000000000000000600052601160045260246000fd5b6000612dcc82612096565b9150612dd783612096565b9250828203905081811115612def57612dee612d92565b5b92915050565b6000612e0082612096565b9150612e0b83612096565b9250828201905080821115612e2357612e22612d92565b5b92915050565b7f4e487b7100000000000000000000000000000000000000000000000000000000600052603260045260246000fd5b6000612e6382612096565b91507fffffffffffffffffffffffffffffffffffffffffffffffffffffffffffffffff8203612e9557612e94612d92565b5b600182019050919050565b7f496e76616c69642063616d706169676e20494400000000000000000000000000600082015250565b6000612ed6601383612183565b9150612ee182612ea0565b602082019050919050565b60006020820190508181036000830152612f0581612ec9565b9050919050565b7f43616d706169676e20697320616c7265616479206f7665720000000000000000600082015250565b6000612f42601883612183565b9150612f4d82612f0c565b602082019050919050565b60006020820190508181036000830152612f7181612f35565b9050919050565b7f446f6e6174696f6e20616d6f756e742073686f756c64206265206d6f7265207460008201527f68616e2030000000000000000000000000000000000000000000000000000000602082015250565b6000612fd4602583612183565b9150612fdf82612f78565b604082019050919050565b6000602082019050818103600083015261300381612fc7565b9050919050565b60008190508160005260206000209050919050565b6000815461302c81612d61565b6130368186612183565b9450600182166000811461305157600181146130675761309a565b60ff19831686528115156020028601935061309a565b6130708561300a565b60005b8381101561309257815481890152600182019150602081019050613073565b808801955050505b50505092915050565b600060408201905081810360008301526130bd818561301f565b90506130cc60208301846120a0565b9392505050565b7f446174652073686f756c64206265206675747572652064617465000000000000600082015250565b6000613109601a83612183565b9150613114826130d3565b602082019050919050565b60006020820190508181036000830152613138816130fc565b9050919050565b7f476f616c20616d6f756e742073686f756c64206265206d6f7265207468616e2060008201527f3000000000000000000000000000000000000000000000000000000000000000602082015250565b600061319b602183612183565b91506131a68261313f565b604082019050919050565b600060208201905081810360008301526131ca8161318e565b9050919050565b7f46756c6c206e616d652063616e6e6f7420626520656d70747900000000000000600082015250565b6000613207601983612183565b9150613212826131d1565b602082019050919050565b60006020820190508181036000830152613236816131fa565b9050919050565b7f5469746c652063616e6e6f7420626520656d7074790000000000000000000000600082015250565b6000613273601583612183565b915061327e8261323d565b602082019050919050565b600060208201905081810360008301526132a281613266565b9050919050565b7f53746f72792063616e6e6f7420626520656d7074790000000000000000000000600082015250565b60006132df601583612183565b91506132ea826132a9565b602082019050919050565b6000602082019050818103600083015261330e816132d2565b9050919050565b60006020601f8301049050919050565b600082821b905092915050565b6000600883026133627fffffffffffffffffffffffffffffffffffffffffffffffffffffffffffffffff82613325565b61336c8683613325565b95508019841693508086168417925050509392505050565b6000819050919050565b60006133a96133a461339f84612096565b613384565b612096565b9050919050565b6000819050919050565b6133c38361338e565b6133d76133cf826133b0565b848454613332565b825550505050565b600090565b6133ec6133df565b6133f78184846133ba565b505050565b5b8181101561341b576134106000826133e4565b6001810190506133fd565b5050565b601f821115613460576134318161300a565b61343a84613315565b81016020851015613449578190505b61345d61345585613315565b8301826133fc565b50505b505050565b600082821c905092915050565b600061348360001984600802613465565b1980831691505092915050565b600061349c8383613472565b9150826002028217905092915050565b6134b582612178565b67ffffffffffffffff8111156134ce576134cd612816565b5b6134d88254612d61565b6134e382828561341f565b600060209050601f8311600181146135165760008415613504578287015190505b61350e8582613490565b865550613576565b601f1984166135248661300a565b60005b8281101561354c57848901518255600182019150602085019450602081019050613527565b868310156135695784890151613565601f891682613472565b8355505b6001600288020188555050505b505050505050565b6000602082019050818103600083015261359881846121cf565b905092915050565b7f596f7520617265206e6f74207468652063616d706169676e2063726561746f7260008201527f2100000000000000000000000000000000000000000000000000000000000000602082015250565b60006135fc602183612183565b9150613607826135a0565b604082019050919050565b6000602082019050818103600083015261362b816135ef565b9050919050565b6000602082019050818103600083015261364c818461301f565b905092915050565b7f506167652073697a652063616e6e6f7420626520300000000000000000000000600082015250565b600061368a601583612183565b915061369582613654565b602082019050919050565b600060208201905081810360008301526136b98161367d565b9050919050565b7f50616765206e756d6265722063616e6e6f742062652030000000000000000000600082015250565b60006136f6601783612183565b9150613701826136c0565b602082019050919050565b60006020820190508181036000830152613725816136e9565b9050919050565b7f4e487b7100000000000000000000000000000000000000000000000000000000600052601260045260246000fd5b600061376682612096565b915061377183612096565b9250826137815761378061372c565b5b828204905092915050565b600061379782612096565b91506137a283612096565b92508282026137b081612096565b915082820484148315176137c7576137c6612d92565b5b509291505056fea2646970667358221220e61f7c1940fa4d2816b39607331306669d40bf2bed7f4e6bcccf149a92c5174764736f6c63430008120033",
  "linkReferences": {},
  "deployedLinkReferences": {}
}