{
  "_format": "hh-sol-artifact-1",
  "contractName": "CrowdFunding",
  "sourceName": "contracts/CrowdFunding.sol",
  "abi": [
    {
      "inputs": [],
      "stateMutability": "payable",
      "type": "constructor"
    },
    {
      "anonymous": false,
      "inputs": [
        {
          "indexed": true,
          "internalType": "address",
          "name": "sender",
          "type": "address"
        },
        {
          "indexed": false,
          "internalType": "string",
          "name": "title",
          "type": "string"
        }
      ],
      "name": "CampaignCreated",
      "type": "event"
    },
    {
      "anonymous": false,
      "inputs": [
        {
          "indexed": true,
          "internalType": "address",
          "name": "sender",
          "type": "address"
        },
        {
          "indexed": false,
          "internalType": "string",
          "name": "title",
          "type": "string"
        }
      ],
      "name": "CampaignEdited",
      "type": "event"
    },
    {
      "anonymous": false,
      "inputs": [
        {
          "indexed": true,
          "internalType": "address",
          "name": "sender",
          "type": "address"
        },
        {
          "indexed": false,
          "internalType": "string",
          "name": "title",
          "type": "string"
        },
        {
          "indexed": false,
          "internalType": "uint256",
          "name": "amount",
          "type": "uint256"
        }
      ],
      "name": "DonationSent",
      "type": "event"
    },
    {
      "inputs": [
        {
          "internalType": "uint256",
          "name": "",
          "type": "uint256"
        }
      ],
      "name": "campaigns",
      "outputs": [
        {
          "internalType": "uint256",
          "name": "id",
          "type": "uint256"
        },
        {
          "internalType": "address",
          "name": "creator",
          "type": "address"
        },
        {
          "internalType": "string",
          "name": "fullname",
          "type": "string"
        },
        {
          "internalType": "string",
          "name": "title",
          "type": "string"
        },
        {
          "internalType": "string",
          "name": "story",
          "type": "string"
        },
        {
          "internalType": "string",
          "name": "imageUrl",
          "type": "string"
        },
        {
          "internalType": "uint256",
          "name": "goalAmount",
          "type": "uint256"
        },
        {
          "internalType": "uint256",
          "name": "currentAmount",
          "type": "uint256"
        },
        {
          "internalType": "uint256",
          "name": "deadline",
          "type": "uint256"
        },
        {
          "internalType": "uint256",
          "name": "totalDonations",
          "type": "uint256"
        }
      ],
      "stateMutability": "view",
      "type": "function"
    },
    {
      "inputs": [
        {
          "internalType": "string",
          "name": "_fullname",
          "type": "string"
        },
        {
          "internalType": "string",
          "name": "_title",
          "type": "string"
        },
        {
          "internalType": "string",
          "name": "_story",
          "type": "string"
        },
        {
          "internalType": "string",
          "name": "_imageUrl",
          "type": "string"
        },
        {
          "internalType": "uint256",
          "name": "_goalAmount",
          "type": "uint256"
        },
        {
          "internalType": "uint256",
          "name": "_deadline",
          "type": "uint256"
        }
      ],
      "name": "createCampaign",
      "outputs": [],
      "stateMutability": "nonpayable",
      "type": "function"
    },
    {
      "inputs": [
        {
          "internalType": "uint256",
          "name": "",
          "type": "uint256"
        }
      ],
      "name": "donationTransactions",
      "outputs": [
        {
          "internalType": "uint256",
          "name": "id",
          "type": "uint256"
        },
        {
          "internalType": "uint256",
          "name": "campaignId",
          "type": "uint256"
        },
        {
          "internalType": "address",
          "name": "donor",
          "type": "address"
        },
        {
          "internalType": "uint256",
          "name": "amount",
          "type": "uint256"
        },
        {
          "internalType": "uint256",
          "name": "timestamp",
          "type": "uint256"
        }
      ],
      "stateMutability": "view",
      "type": "function"
    },
    {
      "inputs": [
        {
          "internalType": "uint256",
          "name": "_campaignId",
          "type": "uint256"
        },
        {
          "internalType": "string",
          "name": "_fullname",
          "type": "string"
        },
        {
          "internalType": "string",
          "name": "_title",
          "type": "string"
        },
        {
          "internalType": "string",
          "name": "_story",
          "type": "string"
        },
        {
          "internalType": "string",
          "name": "_imageUrl",
          "type": "string"
        },
        {
          "internalType": "uint256",
          "name": "_goalAmount",
          "type": "uint256"
        },
        {
          "internalType": "uint256",
          "name": "_deadline",
          "type": "uint256"
        }
      ],
      "name": "editCampaign",
      "outputs": [],
      "stateMutability": "nonpayable",
      "type": "function"
    },
    {
      "inputs": [
        {
          "internalType": "uint256",
          "name": "_size",
          "type": "uint256"
        },
        {
          "internalType": "uint256",
          "name": "_startIndex",
          "type": "uint256"
        }
      ],
      "name": "getAllCampaigns",
      "outputs": [
        {
          "components": [
            {
              "internalType": "uint256",
              "name": "id",
              "type": "uint256"
            },
            {
              "internalType": "address",
              "name": "creator",
              "type": "address"
            },
            {
              "internalType": "string",
              "name": "fullname",
              "type": "string"
            },
            {
              "internalType": "string",
              "name": "title",
              "type": "string"
            },
            {
              "internalType": "string",
              "name": "story",
              "type": "string"
            },
            {
              "internalType": "string",
              "name": "imageUrl",
              "type": "string"
            },
            {
              "internalType": "uint256",
              "name": "goalAmount",
              "type": "uint256"
            },
            {
              "internalType": "uint256",
              "name": "currentAmount",
              "type": "uint256"
            },
            {
              "internalType": "uint256",
              "name": "deadline",
              "type": "uint256"
            },
            {
              "internalType": "uint256",
              "name": "totalDonations",
              "type": "uint256"
            }
          ],
          "internalType": "struct CrowdFunding.Campaign[]",
          "name": "allCampaigns",
          "type": "tuple[]"
        },
        {
          "components": [
            {
              "internalType": "bool",
              "name": "isLastPage",
              "type": "bool"
            },
            {
              "internalType": "uint256",
              "name": "nextIndex",
              "type": "uint256"
            }
          ],
          "internalType": "struct CrowdFunding.ResultIndexData",
          "name": "indexData",
          "type": "tuple"
        }
      ],
      "stateMutability": "view",
      "type": "function"
    },
    {
      "inputs": [
        {
          "internalType": "uint256",
          "name": "_campaignId",
          "type": "uint256"
        }
      ],
      "name": "getCampaign",
      "outputs": [
        {
          "components": [
            {
              "internalType": "uint256",
              "name": "id",
              "type": "uint256"
            },
            {
              "internalType": "address",
              "name": "creator",
              "type": "address"
            },
            {
              "internalType": "string",
              "name": "fullname",
              "type": "string"
            },
            {
              "internalType": "string",
              "name": "title",
              "type": "string"
            },
            {
              "internalType": "string",
              "name": "story",
              "type": "string"
            },
            {
              "internalType": "string",
              "name": "imageUrl",
              "type": "string"
            },
            {
              "internalType": "uint256",
              "name": "goalAmount",
              "type": "uint256"
            },
            {
              "internalType": "uint256",
              "name": "currentAmount",
              "type": "uint256"
            },
            {
              "internalType": "uint256",
              "name": "deadline",
              "type": "uint256"
            },
            {
              "internalType": "uint256",
              "name": "totalDonations",
              "type": "uint256"
            }
          ],
          "internalType": "struct CrowdFunding.Campaign",
          "name": "",
          "type": "tuple"
        }
      ],
      "stateMutability": "view",
      "type": "function"
    },
    {
      "inputs": [
        {
          "internalType": "uint256",
          "name": "_campaignId",
          "type": "uint256"
        }
      ],
      "name": "getCampaignDonations",
      "outputs": [
        {
          "components": [
            {
              "internalType": "uint256",
              "name": "id",
              "type": "uint256"
            },
            {
              "internalType": "uint256",
              "name": "campaignId",
              "type": "uint256"
            },
            {
              "internalType": "address",
              "name": "donor",
              "type": "address"
            },
            {
              "internalType": "uint256",
              "name": "amount",
              "type": "uint256"
            },
            {
              "internalType": "uint256",
              "name": "timestamp",
              "type": "uint256"
            }
          ],
          "internalType": "struct CrowdFunding.DonationTransaction[]",
          "name": "allDonations",
          "type": "tuple[]"
        },
        {
          "internalType": "uint256",
          "name": "totalCampaignDonations",
          "type": "uint256"
        }
      ],
      "stateMutability": "view",
      "type": "function"
    },
    {
      "inputs": [
        {
          "internalType": "address",
          "name": "_walletAddress",
          "type": "address"
        },
        {
          "internalType": "uint256",
          "name": "_pageSize",
          "type": "uint256"
        },
        {
          "internalType": "uint256",
          "name": "_pageNumber",
          "type": "uint256"
        }
      ],
      "name": "getDonatorsByWalletAddress",
      "outputs": [
        {
          "components": [
            {
              "internalType": "address",
              "name": "userAddress",
              "type": "address"
            },
            {
              "internalType": "string",
              "name": "campaignTitle",
              "type": "string"
            },
            {
              "internalType": "uint256",
              "name": "donationAmount",
              "type": "uint256"
            }
          ],
          "internalType": "struct CrowdFunding.DonationData[]",
          "name": "donations",
          "type": "tuple[]"
        },
        {
          "internalType": "uint256",
          "name": "donatorCount",
          "type": "uint256"
        },
        {
          "internalType": "uint256",
          "name": "totalPages",
          "type": "uint256"
        },
        {
          "internalType": "uint256",
          "name": "nextPage",
          "type": "uint256"
        },
        {
          "internalType": "uint256",
          "name": "previousPage",
          "type": "uint256"
        }
      ],
      "stateMutability": "view",
      "type": "function"
    },
    {
      "inputs": [
        {
          "internalType": "uint256",
          "name": "_size",
          "type": "uint256"
        }
      ],
      "name": "getRecentCampaigns",
      "outputs": [
        {
          "components": [
            {
              "internalType": "uint256",
              "name": "id",
              "type": "uint256"
            },
            {
              "internalType": "address",
              "name": "creator",
              "type": "address"
            },
            {
              "internalType": "string",
              "name": "fullname",
              "type": "string"
            },
            {
              "internalType": "string",
              "name": "title",
              "type": "string"
            },
            {
              "internalType": "string",
              "name": "story",
              "type": "string"
            },
            {
              "internalType": "string",
              "name": "imageUrl",
              "type": "string"
            },
            {
              "internalType": "uint256",
              "name": "goalAmount",
              "type": "uint256"
            },
            {
              "internalType": "uint256",
              "name": "currentAmount",
              "type": "uint256"
            },
            {
              "internalType": "uint256",
              "name": "deadline",
              "type": "uint256"
            },
            {
              "internalType": "uint256",
              "name": "totalDonations",
              "type": "uint256"
            }
          ],
          "internalType": "struct CrowdFunding.Campaign[]",
          "name": "recentCampaigns",
          "type": "tuple[]"
        },
        {
          "internalType": "uint256",
          "name": "totalFetchedCampaigns",
          "type": "uint256"
        },
        {
          "internalType": "uint256",
          "name": "totalAllCampaigns",
          "type": "uint256"
        }
      ],
      "stateMutability": "view",
      "type": "function"
    },
    {
      "inputs": [
        {
          "internalType": "uint256",
          "name": "_pageSize",
          "type": "uint256"
        },
        {
          "internalType": "uint256",
          "name": "_pageNumber",
          "type": "uint256"
        }
      ],
      "name": "getUserCampaigns",
      "outputs": [
        {
          "components": [
            {
              "internalType": "uint256",
              "name": "id",
              "type": "uint256"
            },
            {
              "internalType": "address",
              "name": "creator",
              "type": "address"
            },
            {
              "internalType": "string",
              "name": "fullname",
              "type": "string"
            },
            {
              "internalType": "string",
              "name": "title",
              "type": "string"
            },
            {
              "internalType": "string",
              "name": "story",
              "type": "string"
            },
            {
              "internalType": "string",
              "name": "imageUrl",
              "type": "string"
            },
            {
              "internalType": "uint256",
              "name": "goalAmount",
              "type": "uint256"
            },
            {
              "internalType": "uint256",
              "name": "currentAmount",
              "type": "uint256"
            },
            {
              "internalType": "uint256",
              "name": "deadline",
              "type": "uint256"
            },
            {
              "internalType": "uint256",
              "name": "totalDonations",
              "type": "uint256"
            }
          ],
          "internalType": "struct CrowdFunding.Campaign[]",
          "name": "allCampaigns",
          "type": "tuple[]"
        },
        {
          "internalType": "uint256",
          "name": "userTotalCampaigns",
          "type": "uint256"
        },
        {
          "internalType": "uint256",
          "name": "totalPages",
          "type": "uint256"
        },
        {
          "internalType": "uint256",
          "name": "nextPage",
          "type": "uint256"
        },
        {
          "internalType": "uint256",
          "name": "previousPage",
          "type": "uint256"
        }
      ],
      "stateMutability": "view",
      "type": "function"
    },
    {
      "inputs": [
        {
          "internalType": "address",
          "name": "_userAddress",
          "type": "address"
        },
        {
          "internalType": "uint256",
          "name": "_pageSize",
          "type": "uint256"
        },
        {
          "internalType": "uint256",
          "name": "_pageNumber",
          "type": "uint256"
        }
      ],
      "name": "getUserDonations",
      "outputs": [
        {
          "components": [
            {
              "internalType": "address",
              "name": "userAddress",
              "type": "address"
            },
            {
              "internalType": "string",
              "name": "campaignTitle",
              "type": "string"
            },
            {
              "internalType": "uint256",
              "name": "donationAmount",
              "type": "uint256"
            }
          ],
          "internalType": "struct CrowdFunding.DonationData[]",
          "name": "userDonations",
          "type": "tuple[]"
        },
        {
          "components": [
            {
              "internalType": "uint256",
              "name": "totalPages",
              "type": "uint256"
            },
            {
              "internalType": "uint256",
              "name": "nextPage",
              "type": "uint256"
            },
            {
              "internalType": "uint256",
              "name": "previousPage",
              "type": "uint256"
            },
            {
              "internalType": "uint256",
              "name": "startIndex",
              "type": "uint256"
            },
            {
              "internalType": "uint256",
              "name": "endIndex",
              "type": "uint256"
            }
          ],
          "internalType": "struct CrowdFunding.PaginationData",
          "name": "pagination",
          "type": "tuple"
        }
      ],
      "stateMutability": "view",
      "type": "function"
    },
    {
      "inputs": [],
      "name": "owner",
      "outputs": [
        {
          "internalType": "address payable",
          "name": "",
          "type": "address"
        }
      ],
      "stateMutability": "view",
      "type": "function"
    },
    {
      "inputs": [
        {
          "internalType": "string",
          "name": "searchTerm",
          "type": "string"
        },
        {
          "internalType": "uint256",
          "name": "pageSize",
          "type": "uint256"
        },
        {
          "internalType": "uint256",
          "name": "startIndex",
          "type": "uint256"
        }
      ],
      "name": "searchByTitle",
      "outputs": [
        {
          "components": [
            {
              "internalType": "uint256",
              "name": "id",
              "type": "uint256"
            },
            {
              "internalType": "address",
              "name": "creator",
              "type": "address"
            },
            {
              "internalType": "string",
              "name": "fullname",
              "type": "string"
            },
            {
              "internalType": "string",
              "name": "title",
              "type": "string"
            },
            {
              "internalType": "string",
              "name": "story",
              "type": "string"
            },
            {
              "internalType": "string",
              "name": "imageUrl",
              "type": "string"
            },
            {
              "internalType": "uint256",
              "name": "goalAmount",
              "type": "uint256"
            },
            {
              "internalType": "uint256",
              "name": "currentAmount",
              "type": "uint256"
            },
            {
              "internalType": "uint256",
              "name": "deadline",
              "type": "uint256"
            },
            {
              "internalType": "uint256",
              "name": "totalDonations",
              "type": "uint256"
            }
          ],
          "internalType": "struct CrowdFunding.Campaign[]",
          "name": "matchingCampaigns",
          "type": "tuple[]"
        },
        {
          "components": [
            {
              "internalType": "bool",
              "name": "isLastPage",
              "type": "bool"
            },
            {
              "internalType": "uint256",
              "name": "nextIndex",
              "type": "uint256"
            }
          ],
          "internalType": "struct CrowdFunding.ResultIndexData",
          "name": "searchIndexData",
          "type": "tuple"
        }
      ],
      "stateMutability": "view",
      "type": "function"
    },
    {
      "inputs": [
        {
          "internalType": "uint256",
          "name": "_campaignId",
          "type": "uint256"
        }
      ],
      "name": "sendDonation",
      "outputs": [],
      "stateMutability": "payable",
      "type": "function"
    },
    {
      "inputs": [],
      "name": "totalCampaigns",
      "outputs": [
        {
          "internalType": "uint256",
          "name": "",
          "type": "uint256"
        }
      ],
      "stateMutability": "view",
      "type": "function"
    },
    {
      "inputs": [],
      "name": "totalDonations",
      "outputs": [
        {
          "internalType": "uint256",
          "name": "",
          "type": "uint256"
        }
      ],
      "stateMutability": "view",
      "type": "function"
    },
    {
      "inputs": [
        {
          "internalType": "address",
          "name": "",
          "type": "address"
        }
      ],
      "name": "users",
      "outputs": [
        {
          "internalType": "uint256",
          "name": "totalCampaigns",
          "type": "uint256"
        },
        {
          "internalType": "uint256",
          "name": "totalDonations",
          "type": "uint256"
        }
      ],
      "stateMutability": "view",
      "type": "function"
    }
  ],
  "bytecode": "0x6080604052336000806101000a81548173ffffffffffffffffffffffffffffffffffffffff021916908373ffffffffffffffffffffffffffffffffffffffff16021790555060006004819055506158088061005b6000396000f3fe6080604052600436106100fe5760003560e01c80635598f8cc116100955780638da5cb5b116100645780638da5cb5b146103af578063a87430ba146103da578063a8aee94014610418578063b0445d6014610441578063de2ed89314610482576100fe565b80635598f8cc146102d6578063665588c91461031357806371b7baae1461032f5780638acd0bfc1461036e576100fe565b80632e5293f3116100d15780632e5293f3146101db5780633e3b66751461021957806345d0b60a1461025a5780635167642f14610298576100fe565b806302932f56146101035780631225ce251461012e578063141961bc14610157578063253343e71461019d575b600080fd5b34801561010f57600080fd5b506101186104ad565b6040516101259190613c2f565b60405180910390f35b34801561013a57600080fd5b5061015560048036038101906101509190613dd0565b6104b3565b005b34801561016357600080fd5b5061017e60048036038101906101799190613ee2565b610803565b6040516101949a99989796959493929190613fcf565b60405180910390f35b3480156101a957600080fd5b506101c460048036038101906101bf9190614087565b610a97565b6040516101d292919061432a565b60405180910390f35b3480156101e757600080fd5b5061020260048036038101906101fd919061435a565b610f81565b60405161021092919061432a565b60405180910390f35b34801561022557600080fd5b50610240600480360381019061023b9190614087565b611584565b6040516102519594939291906143c9565b60405180910390f35b34801561026657600080fd5b50610281600480360381019061027c919061444f565b611aab565b60405161028f92919061461c565b60405180910390f35b3480156102a457600080fd5b506102bf60048036038101906102ba9190613ee2565b611fc4565b6040516102cd929190614763565b60405180910390f35b3480156102e257600080fd5b506102fd60048036038101906102f89190613ee2565b61242b565b60405161030a9190614882565b60405180910390f35b61032d60048036038101906103289190613ee2565b612729565b005b34801561033b57600080fd5b5061035660048036038101906103519190613ee2565b612a19565b604051610365939291906148a4565b60405180910390f35b34801561037a57600080fd5b5061039560048036038101906103909190613ee2565b612e08565b6040516103a69594939291906148e2565b60405180910390f35b3480156103bb57600080fd5b506103c4612e5e565b6040516103d19190614956565b60405180910390f35b3480156103e657600080fd5b5061040160048036038101906103fc9190614971565b612e82565b60405161040f92919061499e565b60405180910390f35b34801561042457600080fd5b5061043f600480360381019061043a91906149c7565b612ea6565b005b34801561044d57600080fd5b506104686004803603810190610463919061444f565b613306565b604051610479959493929190614ac4565b60405180910390f35b34801561048e57600080fd5b506104976136d6565b6040516104a49190613c2f565b60405180910390f35b60045481565b8585858585854281116104fb576040517f08c379a00000000000000000000000000000000000000000000000000000000081526004016104f290614b6a565b60405180910390fd5b6000821161053e576040517f08c379a000000000000000000000000000000000000000000000000000000000815260040161053590614bfc565b60405180910390fd5b6000865111610582576040517f08c379a000000000000000000000000000000000000000000000000000000000815260040161057990614c68565b60405180910390fd5b60008551116105c6576040517f08c379a00000000000000000000000000000000000000000000000000000000081526004016105bd90614cd4565b60405180910390fd5b600084511161060a576040517f08c379a000000000000000000000000000000000000000000000000000000000815260040161060190614d40565b60405180910390fd5b600083511161064e576040517f08c379a000000000000000000000000000000000000000000000000000000000815260040161064590614dd2565b60405180910390fd5b6000600260008f8152602001908152602001600020905060008e1015801561067757506004548e105b6106b6576040517f08c379a00000000000000000000000000000000000000000000000000000000081526004016106ad90614e3e565b60405180910390fd5b3373ffffffffffffffffffffffffffffffffffffffff168160010160009054906101000a900473ffffffffffffffffffffffffffffffffffffffff1673ffffffffffffffffffffffffffffffffffffffff1614610748576040517f08c379a000000000000000000000000000000000000000000000000000000000815260040161073f90614ed0565b60405180910390fd5b8c81600201908161075991906150fc565b508b81600301908161076b91906150fc565b508a81600401908161077d91906150fc565b508981600501908161078f91906150fc565b508881600601819055508781600801819055503373ffffffffffffffffffffffffffffffffffffffff167fb961c338b427968a67f1a3560907d7075a0d1fca0c2d16dcb76da3a963cfe373826003016040516107eb9190615252565b60405180910390a25050505050505050505050505050565b60026020528060005260406000206000915090508060000154908060010160009054906101000a900473ffffffffffffffffffffffffffffffffffffffff169080600201805461085290614f1f565b80601f016020809104026020016040519081016040528092919081815260200182805461087e90614f1f565b80156108cb5780601f106108a0576101008083540402835291602001916108cb565b820191906000526020600020905b8154815290600101906020018083116108ae57829003601f168201915b5050505050908060030180546108e090614f1f565b80601f016020809104026020016040519081016040528092919081815260200182805461090c90614f1f565b80156109595780601f1061092e57610100808354040283529160200191610959565b820191906000526020600020905b81548152906001019060200180831161093c57829003601f168201915b50505050509080600401805461096e90614f1f565b80601f016020809104026020016040519081016040528092919081815260200182805461099a90614f1f565b80156109e75780601f106109bc576101008083540402835291602001916109e7565b820191906000526020600020905b8154815290600101906020018083116109ca57829003601f168201915b5050505050908060050180546109fc90614f1f565b80601f0160208091040260200160405190810160405280929190818152602001828054610a2890614f1f565b8015610a755780601f10610a4a57610100808354040283529160200191610a75565b820191906000526020600020905b815481529060010190602001808311610a5857829003601f168201915b505050505090806006015490806007015490806008015490806009015490508a565b6060610aa1613ae6565b60008411610ae4576040517f08c379a0000000000000000000000000000000000000000000000000000000008152600401610adb906152c0565b60405180910390fd5b600454831115610b29576040517f08c379a0000000000000000000000000000000000000000000000000000000008152600401610b209061532c565b60405180910390fd5b60008314610b485782841015610b40576000610b43565b60015b610b5d565b600454841015610b59576000610b5c565b60015b5b81600001901515908115158152505060008314610b895782841015610b825783610b84565b825b610b9d565b6004548411610b985783610b9c565b6004545b5b935060008314610bb8578383610bb3919061537b565b610bc7565b83600454610bc6919061537b565b5b8160200181815250508367ffffffffffffffff811115610bea57610be9613ca5565b5b604051908082528060200260200182016040528015610c2357816020015b610c10613b02565b815260200190600190039081610c085790505b5091506000808260200151905060008190505b8682610c4291906153af565b811015610f77576002600082815260200190815260200160002060405180610140016040529081600082015481526020016001820160009054906101000a900473ffffffffffffffffffffffffffffffffffffffff1673ffffffffffffffffffffffffffffffffffffffff1673ffffffffffffffffffffffffffffffffffffffff168152602001600282018054610cd890614f1f565b80601f0160208091040260200160405190810160405280929190818152602001828054610d0490614f1f565b8015610d515780601f10610d2657610100808354040283529160200191610d51565b820191906000526020600020905b815481529060010190602001808311610d3457829003601f168201915b50505050508152602001600382018054610d6a90614f1f565b80601f0160208091040260200160405190810160405280929190818152602001828054610d9690614f1f565b8015610de35780601f10610db857610100808354040283529160200191610de3565b820191906000526020600020905b815481529060010190602001808311610dc657829003601f168201915b50505050508152602001600482018054610dfc90614f1f565b80601f0160208091040260200160405190810160405280929190818152602001828054610e2890614f1f565b8015610e755780601f10610e4a57610100808354040283529160200191610e75565b820191906000526020600020905b815481529060010190602001808311610e5857829003601f168201915b50505050508152602001600582018054610e8e90614f1f565b80601f0160208091040260200160405190810160405280929190818152602001828054610eba90614f1f565b8015610f075780601f10610edc57610100808354040283529160200191610f07565b820191906000526020600020905b815481529060010190602001808311610eea57829003601f168201915b50505050508152602001600682015481526020016007820154815260200160088201548152602001600982015481525050858481518110610f4b57610f4a6153e3565b5b60200260200101819052508280610f6190615412565b9350508080610f6f90615412565b915050610c36565b5050509250929050565b6060610f8b613ae6565b60008411610fce576040517f08c379a0000000000000000000000000000000000000000000000000000000008152600401610fc5906154a6565b60405180910390fd5b6000808490505b60045481108015610fe65750858214155b1561111a576110a361109560026000848152602001908152602001600020600301805461101290614f1f565b80601f016020809104026020016040519081016040528092919081815260200182805461103e90614f1f565b801561108b5780601f106110605761010080835404028352916020019161108b565b820191906000526020600020905b81548152906001019060200180831161106e57829003601f168201915b50505050506136dc565b61109e896136dc565b6137c7565b156110b75781806110b390615412565b9250505b8582036110d5576001816110cb91906153af565b8360200181815250505b6004546001826110e591906153af565b0361110757600183600001901515908115158152505060008360200181815250505b808061111290615412565b915050610fd5565b508067ffffffffffffffff81111561113557611134613ca5565b5b60405190808252806020026020018201604052801561116e57816020015b61115b613b02565b8152602001906001900390816111535790505b5092506000808590505b6004548110801561118857508282105b15611579576112456112376002600084815260200190815260200160002060030180546111b490614f1f565b80601f01602080910402602001604051908101604052809291908181526020018280546111e090614f1f565b801561122d5780601f106112025761010080835404028352916020019161122d565b820191906000526020600020905b81548152906001019060200180831161121057829003601f168201915b50505050506136dc565b6112408a6136dc565b6137c7565b15611566576002600082815260200190815260200160002060405180610140016040529081600082015481526020016001820160009054906101000a900473ffffffffffffffffffffffffffffffffffffffff1673ffffffffffffffffffffffffffffffffffffffff1673ffffffffffffffffffffffffffffffffffffffff1681526020016002820180546112d990614f1f565b80601f016020809104026020016040519081016040528092919081815260200182805461130590614f1f565b80156113525780601f1061132757610100808354040283529160200191611352565b820191906000526020600020905b81548152906001019060200180831161133557829003601f168201915b5050505050815260200160038201805461136b90614f1f565b80601f016020809104026020016040519081016040528092919081815260200182805461139790614f1f565b80156113e45780601f106113b9576101008083540402835291602001916113e4565b820191906000526020600020905b8154815290600101906020018083116113c757829003601f168201915b505050505081526020016004820180546113fd90614f1f565b80601f016020809104026020016040519081016040528092919081815260200182805461142990614f1f565b80156114765780601f1061144b57610100808354040283529160200191611476565b820191906000526020600020905b81548152906001019060200180831161145957829003601f168201915b5050505050815260200160058201805461148f90614f1f565b80601f01602080910402602001604051908101604052809291908181526020018280546114bb90614f1f565b80156115085780601f106114dd57610100808354040283529160200191611508565b820191906000526020600020905b8154815290600101906020018083116114eb57829003601f168201915b5050505050815260200160068201548152602001600782015481526020016008820154815260200160098201548152505085838151811061154c5761154b6153e3565b5b6020026020010181905250818061156290615412565b9250505b808061157190615412565b915050611178565b505050935093915050565b60606000806000806000600160003373ffffffffffffffffffffffffffffffffffffffff1673ffffffffffffffffffffffffffffffffffffffff168152602001908152602001600020905060008160000154905060008960018b846115e991906153af565b6115f3919061537b565b6115fd91906154f5565b905060008911801561160f5750808911155b61164e576040517f08c379a000000000000000000000000000000000000000000000000000000000815260040161164590615572565b60405180910390fd5b60008a60018b61165e919061537b565b6116689190615592565b83611673919061537b565b905060008b8211611685576000611692565b8b82611691919061537b565b5b9050600081836116a2919061537b565b90508067ffffffffffffffff8111156116be576116bd613ca5565b5b6040519080825280602002602001820160405280156116f757816020015b6116e4613b02565b8152602001906001900390816116dc5790505b509a5060005b81811015611a57576000600260008960020160006001868a61171f919061537b565b611729919061537b565b815260200190815260200160002054815260200190815260200160002060405180610140016040529081600082015481526020016001820160009054906101000a900473ffffffffffffffffffffffffffffffffffffffff1673ffffffffffffffffffffffffffffffffffffffff1673ffffffffffffffffffffffffffffffffffffffff1681526020016002820180546117c290614f1f565b80601f01602080910402602001604051908101604052809291908181526020018280546117ee90614f1f565b801561183b5780601f106118105761010080835404028352916020019161183b565b820191906000526020600020905b81548152906001019060200180831161181e57829003601f168201915b5050505050815260200160038201805461185490614f1f565b80601f016020809104026020016040519081016040528092919081815260200182805461188090614f1f565b80156118cd5780601f106118a2576101008083540402835291602001916118cd565b820191906000526020600020905b8154815290600101906020018083116118b057829003601f168201915b505050505081526020016004820180546118e690614f1f565b80601f016020809104026020016040519081016040528092919081815260200182805461191290614f1f565b801561195f5780601f106119345761010080835404028352916020019161195f565b820191906000526020600020905b81548152906001019060200180831161194257829003601f168201915b5050505050815260200160058201805461197890614f1f565b80601f01602080910402602001604051908101604052809291908181526020018280546119a490614f1f565b80156119f15780601f106119c6576101008083540402835291602001916119f1565b820191906000526020600020905b8154815290600101906020018083116119d457829003601f168201915b505050505081526020016006820154815260200160078201548152602001600882015481526020016009820154815250509050808d8381518110611a3857611a376153e3565b5b6020026020010181905250508080611a4f90615412565b9150506116fd565b50849950839850838c10611a6c576000611a7a565b60018c611a7991906153af565b5b975060018c11611a8b576000611a99565b60018c611a98919061537b565b5b96505050505050509295509295909350565b6060611ab5613b6b565b600080600160008873ffffffffffffffffffffffffffffffffffffffff1673ffffffffffffffffffffffffffffffffffffffff1681526020019081526020016000209050611b08816001015487876138f2565b925082606001518360800151611b1e919061537b565b67ffffffffffffffff811115611b3757611b36613ca5565b5b604051908082528060200260200182016040528015611b7057816020015b611b5d613b9a565b815260200190600190039081611b555790505b5093506000836060015190505b8360800151811015611fb9576000600360008460030160008581526020019081526020016000205481526020019081526020016000206040518060a001604052908160008201548152602001600182015481526020016002820160009054906101000a900473ffffffffffffffffffffffffffffffffffffffff1673ffffffffffffffffffffffffffffffffffffffff1673ffffffffffffffffffffffffffffffffffffffff1681526020016003820154815260200160048201548152505090506000600260008360200151815260200190815260200160002060405180610140016040529081600082015481526020016001820160009054906101000a900473ffffffffffffffffffffffffffffffffffffffff1673ffffffffffffffffffffffffffffffffffffffff1673ffffffffffffffffffffffffffffffffffffffff168152602001600282018054611cd390614f1f565b80601f0160208091040260200160405190810160405280929190818152602001828054611cff90614f1f565b8015611d4c5780601f10611d2157610100808354040283529160200191611d4c565b820191906000526020600020905b815481529060010190602001808311611d2f57829003601f168201915b50505050508152602001600382018054611d6590614f1f565b80601f0160208091040260200160405190810160405280929190818152602001828054611d9190614f1f565b8015611dde5780601f10611db357610100808354040283529160200191611dde565b820191906000526020600020905b815481529060010190602001808311611dc157829003601f168201915b50505050508152602001600482018054611df790614f1f565b80601f0160208091040260200160405190810160405280929190818152602001828054611e2390614f1f565b8015611e705780601f10611e4557610100808354040283529160200191611e70565b820191906000526020600020905b815481529060010190602001808311611e5357829003601f168201915b50505050508152602001600582018054611e8990614f1f565b80601f0160208091040260200160405190810160405280929190818152602001828054611eb590614f1f565b8015611f025780601f10611ed757610100808354040283529160200191611f02565b820191906000526020600020905b815481529060010190602001808311611ee557829003601f168201915b50505050508152602001600682015481526020016007820154815260200160088201548152602001600982015481525050905060006040518060600160405280836020015173ffffffffffffffffffffffffffffffffffffffff168152602001836060015181526020018460600151815250905080888781518110611f8a57611f896153e3565b5b60200260200101819052508580611fa090615412565b9650505050508080611fb190615412565b915050611b7d565b505050935093915050565b60606000806002600085815260200190815260200160002060405180610140016040529081600082015481526020016001820160009054906101000a900473ffffffffffffffffffffffffffffffffffffffff1673ffffffffffffffffffffffffffffffffffffffff1673ffffffffffffffffffffffffffffffffffffffff16815260200160028201805461205890614f1f565b80601f016020809104026020016040519081016040528092919081815260200182805461208490614f1f565b80156120d15780601f106120a6576101008083540402835291602001916120d1565b820191906000526020600020905b8154815290600101906020018083116120b457829003601f168201915b505050505081526020016003820180546120ea90614f1f565b80601f016020809104026020016040519081016040528092919081815260200182805461211690614f1f565b80156121635780601f1061213857610100808354040283529160200191612163565b820191906000526020600020905b81548152906001019060200180831161214657829003601f168201915b5050505050815260200160048201805461217c90614f1f565b80601f01602080910402602001604051908101604052809291908181526020018280546121a890614f1f565b80156121f55780601f106121ca576101008083540402835291602001916121f5565b820191906000526020600020905b8154815290600101906020018083116121d857829003601f168201915b5050505050815260200160058201805461220e90614f1f565b80601f016020809104026020016040519081016040528092919081815260200182805461223a90614f1f565b80156122875780601f1061225c57610100808354040283529160200191612287565b820191906000526020600020905b81548152906001019060200180831161226a57829003601f168201915b50505050508152602001600682015481526020016007820154815260200160088201548152602001600982015481525050905080610120015191508167ffffffffffffffff8111156122dc576122db613ca5565b5b60405190808252806020026020018201604052801561231557816020015b612302613bd1565b8152602001906001900390816122fa5790505b5092506000805b60055481101561242357826000015160036000838152602001908152602001600020600101540361241057600360008281526020019081526020016000206040518060a001604052908160008201548152602001600182015481526020016002820160009054906101000a900473ffffffffffffffffffffffffffffffffffffffff1673ffffffffffffffffffffffffffffffffffffffff1673ffffffffffffffffffffffffffffffffffffffff168152602001600382015481526020016004820154815250508583815181106123f6576123f56153e3565b5b6020026020010181905250818061240c90615412565b9250505b808061241b90615412565b91505061231c565b505050915091565b612433613b02565b6002600083815260200190815260200160002060405180610140016040529081600082015481526020016001820160009054906101000a900473ffffffffffffffffffffffffffffffffffffffff1673ffffffffffffffffffffffffffffffffffffffff1673ffffffffffffffffffffffffffffffffffffffff1681526020016002820180546124c290614f1f565b80601f01602080910402602001604051908101604052809291908181526020018280546124ee90614f1f565b801561253b5780601f106125105761010080835404028352916020019161253b565b820191906000526020600020905b81548152906001019060200180831161251e57829003601f168201915b5050505050815260200160038201805461255490614f1f565b80601f016020809104026020016040519081016040528092919081815260200182805461258090614f1f565b80156125cd5780601f106125a2576101008083540402835291602001916125cd565b820191906000526020600020905b8154815290600101906020018083116125b057829003601f168201915b505050505081526020016004820180546125e690614f1f565b80601f016020809104026020016040519081016040528092919081815260200182805461261290614f1f565b801561265f5780601f106126345761010080835404028352916020019161265f565b820191906000526020600020905b81548152906001019060200180831161264257829003601f168201915b5050505050815260200160058201805461267890614f1f565b80601f01602080910402602001604051908101604052809291908181526020018280546126a490614f1f565b80156126f15780601f106126c6576101008083540402835291602001916126f1565b820191906000526020600020905b8154815290600101906020018083116126d457829003601f168201915b505050505081526020016006820154815260200160078201548152602001600882015481526020016009820154815250509050919050565b6000811015801561273b575060045481105b61277a576040517f08c379a000000000000000000000000000000000000000000000000000000000815260040161277190614e3e565b60405180910390fd5b600060026000838152602001908152602001600020905080600801544211156127d8576040517f08c379a00000000000000000000000000000000000000000000000000000000081526004016127cf90615620565b60405180910390fd5b6000341161281b576040517f08c379a0000000000000000000000000000000000000000000000000000000008152600401612812906156b2565b60405180910390fd5b6000600160003373ffffffffffffffffffffffffffffffffffffffff1673ffffffffffffffffffffffffffffffffffffffff168152602001908152602001600020905060008160010154905060006040518060a001604052806005548152602001856000015481526020013373ffffffffffffffffffffffffffffffffffffffff16815260200134815260200142815250905080600360006005548152602001908152602001600020600082015181600001556020820151816001015560408201518160020160006101000a81548173ffffffffffffffffffffffffffffffffffffffff021916908373ffffffffffffffffffffffffffffffffffffffff16021790555060608201518160030155608082015181600401559050508060000151836003016000848152602001908152602001600020819055503484600701600082825461296891906153af565b925050819055506005600081548092919061298290615412565b919050555082600101600081548092919061299c90615412565b91905055508360090160008154809291906129b690615412565b91905055503373ffffffffffffffffffffffffffffffffffffffff167f3b5443c59641f965c6df0836dbe11676fa8c79c3184392351bb19fd51de3d49a856003018660070154604051612a0a9291906156d2565b60405180910390a25050505050565b606060008060006004548510612a30576000612a3f565b84600454612a3e919061537b565b5b905060006004548610612a5457600454612a56565b855b90508067ffffffffffffffff811115612a7257612a71613ca5565b5b604051908082528060200260200182016040528015612aab57816020015b612a98613b02565b815260200190600190039081612a905790505b50945060005b81811015612de457600260008285612ac991906153af565b815260200190815260200160002060405180610140016040529081600082015481526020016001820160009054906101000a900473ffffffffffffffffffffffffffffffffffffffff1673ffffffffffffffffffffffffffffffffffffffff1673ffffffffffffffffffffffffffffffffffffffff168152602001600282018054612b5390614f1f565b80601f0160208091040260200160405190810160405280929190818152602001828054612b7f90614f1f565b8015612bcc5780601f10612ba157610100808354040283529160200191612bcc565b820191906000526020600020905b815481529060010190602001808311612baf57829003601f168201915b50505050508152602001600382018054612be590614f1f565b80601f0160208091040260200160405190810160405280929190818152602001828054612c1190614f1f565b8015612c5e5780601f10612c3357610100808354040283529160200191612c5e565b820191906000526020600020905b815481529060010190602001808311612c4157829003601f168201915b50505050508152602001600482018054612c7790614f1f565b80601f0160208091040260200160405190810160405280929190818152602001828054612ca390614f1f565b8015612cf05780601f10612cc557610100808354040283529160200191612cf0565b820191906000526020600020905b815481529060010190602001808311612cd357829003601f168201915b50505050508152602001600582018054612d0990614f1f565b80601f0160208091040260200160405190810160405280929190818152602001828054612d3590614f1f565b8015612d825780601f10612d5757610100808354040283529160200191612d82565b820191906000526020600020905b815481529060010190602001808311612d6557829003601f168201915b50505050508152602001600682015481526020016007820154815260200160088201548152602001600982015481525050868281518110612dc657612dc56153e3565b5b60200260200101819052508080612ddc90615412565b915050612ab1565b50600060045411612df6576000612df8565b805b9350600454925050509193909250565b60036020528060005260406000206000915090508060000154908060010154908060020160009054906101000a900473ffffffffffffffffffffffffffffffffffffffff16908060030154908060040154905085565b60008054906101000a900473ffffffffffffffffffffffffffffffffffffffff1681565b60016020528060005260406000206000915090508060000154908060010154905082565b858585858585428111612eee576040517f08c379a0000000000000000000000000000000000000000000000000000000008152600401612ee590614b6a565b60405180910390fd5b60008211612f31576040517f08c379a0000000000000000000000000000000000000000000000000000000008152600401612f2890614bfc565b60405180910390fd5b6000865111612f75576040517f08c379a0000000000000000000000000000000000000000000000000000000008152600401612f6c90614c68565b60405180910390fd5b6000855111612fb9576040517f08c379a0000000000000000000000000000000000000000000000000000000008152600401612fb090614cd4565b60405180910390fd5b6000845111612ffd576040517f08c379a0000000000000000000000000000000000000000000000000000000008152600401612ff490614d40565b60405180910390fd5b6000835111613041576040517f08c379a000000000000000000000000000000000000000000000000000000000815260040161303890614dd2565b60405180910390fd5b600060405180610140016040528060045481526020013373ffffffffffffffffffffffffffffffffffffffff1681526020018e81526020018d81526020018c81526020018b81526020018a81526020016000815260200189815260200160008152509050806002600060045481526020019081526020016000206000820151816000015560208201518160010160006101000a81548173ffffffffffffffffffffffffffffffffffffffff021916908373ffffffffffffffffffffffffffffffffffffffff160217905550604082015181600201908161312191906150fc565b50606082015181600301908161313791906150fc565b50608082015181600401908161314d91906150fc565b5060a082015181600501908161316391906150fc565b5060c0820151816006015560e08201518160070155610100820151816008015561012082015181600901559050506000600160003373ffffffffffffffffffffffffffffffffffffffff1673ffffffffffffffffffffffffffffffffffffffff1681526020019081526020016000206000015490508160000151600160003373ffffffffffffffffffffffffffffffffffffffff1673ffffffffffffffffffffffffffffffffffffffff168152602001908152602001600020600201600083815260200190815260200160002081905550600160003373ffffffffffffffffffffffffffffffffffffffff1673ffffffffffffffffffffffffffffffffffffffff168152602001908152602001600020600001600081548092919061328790615412565b91905055506004600081548092919061329f90615412565b91905055503373ffffffffffffffffffffffffffffffffffffffff167f17dd0b5f0975f4651b002ed3b016428bae979f5704d8b2473931b2312185c05a83606001516040516132ee9190615702565b60405180910390a25050505050505050505050505050565b60606000806000806000935061331a613b6b565b60005b6004548110156134015760006002600083815260200190815260200160002090508a73ffffffffffffffffffffffffffffffffffffffff168160010160009054906101000a900473ffffffffffffffffffffffffffffffffffffffff1673ffffffffffffffffffffffffffffffffffffffff16036133ed5760005b6005548110156133eb57600060036000838152602001908152602001600020905082600001548160010154036133d75788806133d390615412565b9950505b5080806133e390615412565b915050613398565b505b5080806133f990615412565b91505061331d565b5061340d8589896138f2565b905080606001518160800151613423919061537b565b67ffffffffffffffff81111561343c5761343b613ca5565b5b60405190808252806020026020018201604052801561347557816020015b613462613b9a565b81526020019060019003908161345a5790505b5095506000805b6004548110156136b35760006002600083815260200190815260200160002090508b73ffffffffffffffffffffffffffffffffffffffff168160010160009054906101000a900473ffffffffffffffffffffffffffffffffffffffff1673ffffffffffffffffffffffffffffffffffffffff160361369f5760005b60055481101561369d5760006003600083815260200190815260200160002090508260000154816001015403613689578560600151851015801561353e5750856080015185105b1561367a5761354b613b9a565b8160020160009054906101000a900473ffffffffffffffffffffffffffffffffffffffff16816000019073ffffffffffffffffffffffffffffffffffffffff16908173ffffffffffffffffffffffffffffffffffffffff16815250508360030180546135b690614f1f565b80601f01602080910402602001604051908101604052809291908181526020018280546135e290614f1f565b801561362f5780601f106136045761010080835404028352916020019161362f565b820191906000526020600020905b81548152906001019060200180831161361257829003601f168201915b505050505081602001819052508160030154816040018181525050808c88606001518861365c919061537b565b8151811061366d5761366c6153e3565b5b6020026020010181905250505b848061368590615412565b9550505b50808061369590615412565b9150506134f7565b505b5080806136ab90615412565b91505061347c565b508160000151945081602001519350816040015192505050939792965093509350565b60055481565b606060008290506000815167ffffffffffffffff811115613700576136ff613ca5565b5b6040519080825280601f01601f1916602001820160405280156137325781602001600182028036833780820191505090505b50905060005b82518110156137bc57613767838281518110613757576137566153e3565b5b602001015160f81c60f81b613a9e565b82828151811061377a576137796153e3565b5b60200101907effffffffffffffffffffffffffffffffffffffffffffffffffffffffffffff1916908160001a90535080806137b490615412565b915050613738565b508092505050919050565b60008083905060008390508051825110156137e7576000925050506138ec565b60005b815183516137f8919061537b565b81116138e45760006001905060005b83518110156138bc57838181518110613823576138226153e3565b5b602001015160f81c60f81b7effffffffffffffffffffffffffffffffffffffffffffffffffffffffffffff191685828561385d91906153af565b8151811061386e5761386d6153e3565b5b602001015160f81c60f81b7effffffffffffffffffffffffffffffffffffffffffffffffffffffffffffff1916146138a957600091506138bc565b80806138b490615412565b915050613807565b5080156138d05760019450505050506138ec565b5080806138dc90615412565b9150506137ea565b506000925050505b92915050565b6138fa613b6b565b6000831161393d576040517f08c379a0000000000000000000000000000000000000000000000000000000008152600401613934906154a6565b60405180910390fd5b60008211613980576040517f08c379a000000000000000000000000000000000000000000000000000000000815260040161397790615770565b60405180910390fd5b613988613b6b565b836001858761399791906153af565b6139a1919061537b565b6139ab91906154f5565b81600001818152505060008160000151116139c75760006139e0565b6001836139d4919061537b565b846139df9190615592565b5b816060018181525050848160600151856139fa91906153af565b11613a1457806060015184613a0f91906153af565b613a16565b845b81608001818152505080600001518310613a34578060000151613a42565b600183613a4191906153af565b5b81602001818152505060018311613a5a576001613a68565b600183613a67919061537b565b5b8160400181815250506000816000015111613a84576000613a8a565b80604001515b816040018181525050809150509392505050565b600060418260f81c60ff1610158015613abe5750605a8260f81c60ff1611155b15613add5760208260f81c613ad3919061579d565b60f81b9050613ae1565b8190505b919050565b6040518060400160405280600015158152602001600081525090565b60405180610140016040528060008152602001600073ffffffffffffffffffffffffffffffffffffffff16815260200160608152602001606081526020016060815260200160608152602001600081526020016000815260200160008152602001600081525090565b6040518060a0016040528060008152602001600081526020016000815260200160008152602001600081525090565b6040518060600160405280600073ffffffffffffffffffffffffffffffffffffffff16815260200160608152602001600081525090565b6040518060a001604052806000815260200160008152602001600073ffffffffffffffffffffffffffffffffffffffff16815260200160008152602001600081525090565b6000819050919050565b613c2981613c16565b82525050565b6000602082019050613c446000830184613c20565b92915050565b6000604051905090565b600080fd5b600080fd5b613c6781613c16565b8114613c7257600080fd5b50565b600081359050613c8481613c5e565b92915050565b600080fd5b600080fd5b6000601f19601f8301169050919050565b7f4e487b7100000000000000000000000000000000000000000000000000000000600052604160045260246000fd5b613cdd82613c94565b810181811067ffffffffffffffff82111715613cfc57613cfb613ca5565b5b80604052505050565b6000613d0f613c4a565b9050613d1b8282613cd4565b919050565b600067ffffffffffffffff821115613d3b57613d3a613ca5565b5b613d4482613c94565b9050602081019050919050565b82818337600083830152505050565b6000613d73613d6e84613d20565b613d05565b905082815260208101848484011115613d8f57613d8e613c8f565b5b613d9a848285613d51565b509392505050565b600082601f830112613db757613db6613c8a565b5b8135613dc7848260208601613d60565b91505092915050565b600080600080600080600060e0888a031215613def57613dee613c54565b5b6000613dfd8a828b01613c75565b975050602088013567ffffffffffffffff811115613e1e57613e1d613c59565b5b613e2a8a828b01613da2565b965050604088013567ffffffffffffffff811115613e4b57613e4a613c59565b5b613e578a828b01613da2565b955050606088013567ffffffffffffffff811115613e7857613e77613c59565b5b613e848a828b01613da2565b945050608088013567ffffffffffffffff811115613ea557613ea4613c59565b5b613eb18a828b01613da2565b93505060a0613ec28a828b01613c75565b92505060c0613ed38a828b01613c75565b91505092959891949750929550565b600060208284031215613ef857613ef7613c54565b5b6000613f0684828501613c75565b91505092915050565b600073ffffffffffffffffffffffffffffffffffffffff82169050919050565b6000613f3a82613f0f565b9050919050565b613f4a81613f2f565b82525050565b600081519050919050565b600082825260208201905092915050565b60005b83811015613f8a578082015181840152602081019050613f6f565b60008484015250505050565b6000613fa182613f50565b613fab8185613f5b565b9350613fbb818560208601613f6c565b613fc481613c94565b840191505092915050565b600061014082019050613fe5600083018d613c20565b613ff2602083018c613f41565b8181036040830152614004818b613f96565b90508181036060830152614018818a613f96565b9050818103608083015261402c8189613f96565b905081810360a08301526140408188613f96565b905061404f60c0830187613c20565b61405c60e0830186613c20565b61406a610100830185613c20565b614078610120830184613c20565b9b9a5050505050505050505050565b6000806040838503121561409e5761409d613c54565b5b60006140ac85828601613c75565b92505060206140bd85828601613c75565b9150509250929050565b600081519050919050565b600082825260208201905092915050565b6000819050602082019050919050565b6140fc81613c16565b82525050565b61410b81613f2f565b82525050565b600082825260208201905092915050565b600061412d82613f50565b6141378185614111565b9350614147818560208601613f6c565b61415081613c94565b840191505092915050565b60006101408301600083015161417460008601826140f3565b5060208301516141876020860182614102565b506040830151848203604086015261419f8282614122565b915050606083015184820360608601526141b98282614122565b915050608083015184820360808601526141d38282614122565b91505060a083015184820360a08601526141ed8282614122565b91505060c083015161420260c08601826140f3565b5060e083015161421560e08601826140f3565b5061010083015161422a6101008601826140f3565b5061012083015161423f6101208601826140f3565b508091505092915050565b6000614256838361415b565b905092915050565b6000602082019050919050565b6000614276826140c7565b61428081856140d2565b935083602082028501614292856140e3565b8060005b858110156142ce57848403895281516142af858261424a565b94506142ba8361425e565b925060208a01995050600181019050614296565b50829750879550505050505092915050565b60008115159050919050565b6142f5816142e0565b82525050565b60408201600082015161431160008501826142ec565b50602082015161432460208501826140f3565b50505050565b60006060820190508181036000830152614344818561426b565b905061435360208301846142fb565b9392505050565b60008060006060848603121561437357614372613c54565b5b600084013567ffffffffffffffff81111561439157614390613c59565b5b61439d86828701613da2565b93505060206143ae86828701613c75565b92505060406143bf86828701613c75565b9150509250925092565b600060a08201905081810360008301526143e3818861426b565b90506143f26020830187613c20565b6143ff6040830186613c20565b61440c6060830185613c20565b6144196080830184613c20565b9695505050505050565b61442c81613f2f565b811461443757600080fd5b50565b60008135905061444981614423565b92915050565b60008060006060848603121561446857614467613c54565b5b60006144768682870161443a565b935050602061448786828701613c75565b925050604061449886828701613c75565b9150509250925092565b600081519050919050565b600082825260208201905092915050565b6000819050602082019050919050565b60006060830160008301516144e66000860182614102565b50602083015184820360208601526144fe8282614122565b915050604083015161451360408601826140f3565b508091505092915050565b600061452a83836144ce565b905092915050565b6000602082019050919050565b600061454a826144a2565b61455481856144ad565b935083602082028501614566856144be565b8060005b858110156145a25784840389528151614583858261451e565b945061458e83614532565b925060208a0199505060018101905061456a565b50829750879550505050505092915050565b60a0820160008201516145ca60008501826140f3565b5060208201516145dd60208501826140f3565b5060408201516145f060408501826140f3565b50606082015161460360608501826140f3565b50608082015161461660808501826140f3565b50505050565b600060c0820190508181036000830152614636818561453f565b905061464560208301846145b4565b9392505050565b600081519050919050565b600082825260208201905092915050565b6000819050602082019050919050565b60a08201600082015161468e60008501826140f3565b5060208201516146a160208501826140f3565b5060408201516146b46040850182614102565b5060608201516146c760608501826140f3565b5060808201516146da60808501826140f3565b50505050565b60006146ec8383614678565b60a08301905092915050565b6000602082019050919050565b60006147108261464c565b61471a8185614657565b935061472583614668565b8060005b8381101561475657815161473d88826146e0565b9750614748836146f8565b925050600181019050614729565b5085935050505092915050565b6000604082019050818103600083015261477d8185614705565b905061478c6020830184613c20565b9392505050565b6000610140830160008301516147ac60008601826140f3565b5060208301516147bf6020860182614102565b50604083015184820360408601526147d78282614122565b915050606083015184820360608601526147f18282614122565b9150506080830151848203608086015261480b8282614122565b91505060a083015184820360a08601526148258282614122565b91505060c083015161483a60c08601826140f3565b5060e083015161484d60e08601826140f3565b506101008301516148626101008601826140f3565b506101208301516148776101208601826140f3565b508091505092915050565b6000602082019050818103600083015261489c8184614793565b905092915050565b600060608201905081810360008301526148be818661426b565b90506148cd6020830185613c20565b6148da6040830184613c20565b949350505050565b600060a0820190506148f76000830188613c20565b6149046020830187613c20565b6149116040830186613f41565b61491e6060830185613c20565b61492b6080830184613c20565b9695505050505050565b600061494082613f0f565b9050919050565b61495081614935565b82525050565b600060208201905061496b6000830184614947565b92915050565b60006020828403121561498757614986613c54565b5b60006149958482850161443a565b91505092915050565b60006040820190506149b36000830185613c20565b6149c06020830184613c20565b9392505050565b60008060008060008060c087890312156149e4576149e3613c54565b5b600087013567ffffffffffffffff811115614a0257614a01613c59565b5b614a0e89828a01613da2565b965050602087013567ffffffffffffffff811115614a2f57614a2e613c59565b5b614a3b89828a01613da2565b955050604087013567ffffffffffffffff811115614a5c57614a5b613c59565b5b614a6889828a01613da2565b945050606087013567ffffffffffffffff811115614a8957614a88613c59565b5b614a9589828a01613da2565b9350506080614aa689828a01613c75565b92505060a0614ab789828a01613c75565b9150509295509295509295565b600060a0820190508181036000830152614ade818861453f565b9050614aed6020830187613c20565b614afa6040830186613c20565b614b076060830185613c20565b614b146080830184613c20565b9695505050505050565b7f446174652073686f756c64206265206675747572652064617465000000000000600082015250565b6000614b54601a83613f5b565b9150614b5f82614b1e565b602082019050919050565b60006020820190508181036000830152614b8381614b47565b9050919050565b7f476f616c20616d6f756e742073686f756c64206265206d6f7265207468616e2060008201527f3000000000000000000000000000000000000000000000000000000000000000602082015250565b6000614be6602183613f5b565b9150614bf182614b8a565b604082019050919050565b60006020820190508181036000830152614c1581614bd9565b9050919050565b7f46756c6c206e616d652063616e6e6f7420626520656d70747900000000000000600082015250565b6000614c52601983613f5b565b9150614c5d82614c1c565b602082019050919050565b60006020820190508181036000830152614c8181614c45565b9050919050565b7f5469746c652063616e6e6f7420626520656d7074790000000000000000000000600082015250565b6000614cbe601583613f5b565b9150614cc982614c88565b602082019050919050565b60006020820190508181036000830152614ced81614cb1565b9050919050565b7f53746f72792063616e6e6f7420626520656d7074790000000000000000000000600082015250565b6000614d2a601583613f5b565b9150614d3582614cf4565b602082019050919050565b60006020820190508181036000830152614d5981614d1d565b9050919050565b7f43616d706169676e20696d6167652075726c2063616e6e6f7420626520656d7060008201527f7479000000000000000000000000000000000000000000000000000000000000602082015250565b6000614dbc602283613f5b565b9150614dc782614d60565b604082019050919050565b60006020820190508181036000830152614deb81614daf565b9050919050565b7f496e76616c69642063616d706169676e20494400000000000000000000000000600082015250565b6000614e28601383613f5b565b9150614e3382614df2565b602082019050919050565b60006020820190508181036000830152614e5781614e1b565b9050919050565b7f596f7520617265206e6f74207468652063616d706169676e2063726561746f7260008201527f2100000000000000000000000000000000000000000000000000000000000000602082015250565b6000614eba602183613f5b565b9150614ec582614e5e565b604082019050919050565b60006020820190508181036000830152614ee981614ead565b9050919050565b7f4e487b7100000000000000000000000000000000000000000000000000000000600052602260045260246000fd5b60006002820490506001821680614f3757607f821691505b602082108103614f4a57614f49614ef0565b5b50919050565b60008190508160005260206000209050919050565b60006020601f8301049050919050565b600082821b905092915050565b600060088302614fb27fffffffffffffffffffffffffffffffffffffffffffffffffffffffffffffffff82614f75565b614fbc8683614f75565b95508019841693508086168417925050509392505050565b6000819050919050565b6000614ff9614ff4614fef84613c16565b614fd4565b613c16565b9050919050565b6000819050919050565b61501383614fde565b61502761501f82615000565b848454614f82565b825550505050565b600090565b61503c61502f565b61504781848461500a565b505050565b5b8181101561506b57615060600082615034565b60018101905061504d565b5050565b601f8211156150b05761508181614f50565b61508a84614f65565b81016020851015615099578190505b6150ad6150a585614f65565b83018261504c565b50505b505050565b600082821c905092915050565b60006150d3600019846008026150b5565b1980831691505092915050565b60006150ec83836150c2565b9150826002028217905092915050565b61510582613f50565b67ffffffffffffffff81111561511e5761511d613ca5565b5b6151288254614f1f565b61513382828561506f565b600060209050601f8311600181146151665760008415615154578287015190505b61515e85826150e0565b8655506151c6565b601f19841661517486614f50565b60005b8281101561519c57848901518255600182019150602085019450602081019050615177565b868310156151b957848901516151b5601f8916826150c2565b8355505b6001600288020188555050505b505050505050565b600081546151db81614f1f565b6151e58186613f5b565b94506001821660008114615200576001811461521657615249565b60ff198316865281151560200286019350615249565b61521f85614f50565b60005b8381101561524157815481890152600182019150602081019050615222565b808801955050505b50505092915050565b6000602082019050818103600083015261526c81846151ce565b905092915050565b7f53697a652063616e6e6f74206265203000000000000000000000000000000000600082015250565b60006152aa601083613f5b565b91506152b582615274565b602082019050919050565b600060208201905081810360008301526152d98161529d565b9050919050565b7f496e76616c696420737461727420696e64657800000000000000000000000000600082015250565b6000615316601383613f5b565b9150615321826152e0565b602082019050919050565b6000602082019050818103600083015261534581615309565b9050919050565b7f4e487b7100000000000000000000000000000000000000000000000000000000600052601160045260246000fd5b600061538682613c16565b915061539183613c16565b92508282039050818111156153a9576153a861534c565b5b92915050565b60006153ba82613c16565b91506153c583613c16565b92508282019050808211156153dd576153dc61534c565b5b92915050565b7f4e487b7100000000000000000000000000000000000000000000000000000000600052603260045260246000fd5b600061541d82613c16565b91507fffffffffffffffffffffffffffffffffffffffffffffffffffffffffffffffff820361544f5761544e61534c565b5b600182019050919050565b7f506167652073697a652063616e6e6f7420626520300000000000000000000000600082015250565b6000615490601583613f5b565b915061549b8261545a565b602082019050919050565b600060208201905081810360008301526154bf81615483565b9050919050565b7f4e487b7100000000000000000000000000000000000000000000000000000000600052601260045260246000fd5b600061550082613c16565b915061550b83613c16565b92508261551b5761551a6154c6565b5b828204905092915050565b7f496e76616c69642070616765206e756d62657200000000000000000000000000600082015250565b600061555c601383613f5b565b915061556782615526565b602082019050919050565b6000602082019050818103600083015261558b8161554f565b9050919050565b600061559d82613c16565b91506155a883613c16565b92508282026155b681613c16565b915082820484148315176155cd576155cc61534c565b5b5092915050565b7f43616d706169676e20697320616c7265616479206f7665720000000000000000600082015250565b600061560a601883613f5b565b9150615615826155d4565b602082019050919050565b60006020820190508181036000830152615639816155fd565b9050919050565b7f446f6e6174696f6e20616d6f756e742073686f756c64206265206d6f7265207460008201527f68616e2030000000000000000000000000000000000000000000000000000000602082015250565b600061569c602583613f5b565b91506156a782615640565b604082019050919050565b600060208201905081810360008301526156cb8161568f565b9050919050565b600060408201905081810360008301526156ec81856151ce565b90506156fb6020830184613c20565b9392505050565b6000602082019050818103600083015261571c8184613f96565b905092915050565b7f50616765206e756d6265722063616e6e6f742062652030000000000000000000600082015250565b600061575a601783613f5b565b915061576582615724565b602082019050919050565b600060208201905081810360008301526157898161574d565b9050919050565b600060ff82169050919050565b60006157a882615790565b91506157b383615790565b9250828201905060ff8111156157cc576157cb61534c565b5b9291505056fea26469706673582212204b5136b86398e3df15880b5b6146a1bd85e63ac116502d62643cb5a1ff0eaec264736f6c63430008120033",
  "linkReferences": {},
  "deployedLinkReferences": {}
}