{
  "_format": "hh-sol-artifact-1",
  "contractName": "CrowdFunding",
  "sourceName": "contracts/CrowdFunding.sol",
  "abi": [
    {
      "inputs": [],
      "stateMutability": "payable",
      "type": "constructor"
    },
    {
      "anonymous": false,
      "inputs": [
        {
          "indexed": true,
          "internalType": "address",
          "name": "sender",
          "type": "address"
        },
        {
          "indexed": false,
          "internalType": "string",
          "name": "title",
          "type": "string"
        }
      ],
      "name": "CampaignCreated",
      "type": "event"
    },
    {
      "anonymous": false,
      "inputs": [
        {
          "indexed": true,
          "internalType": "address",
          "name": "sender",
          "type": "address"
        },
        {
          "indexed": false,
          "internalType": "string",
          "name": "title",
          "type": "string"
        }
      ],
      "name": "CampaignEdited",
      "type": "event"
    },
    {
      "anonymous": false,
      "inputs": [
        {
          "indexed": true,
          "internalType": "address",
          "name": "sender",
          "type": "address"
        },
        {
          "indexed": false,
          "internalType": "string",
          "name": "title",
          "type": "string"
        },
        {
          "indexed": false,
          "internalType": "uint256",
          "name": "amount",
          "type": "uint256"
        }
      ],
      "name": "DonationSent",
      "type": "event"
    },
    {
      "inputs": [
        {
          "internalType": "uint256",
          "name": "",
          "type": "uint256"
        }
      ],
      "name": "campaigns",
      "outputs": [
        {
          "internalType": "uint256",
          "name": "id",
          "type": "uint256"
        },
        {
          "internalType": "address",
          "name": "creator",
          "type": "address"
        },
        {
          "internalType": "string",
          "name": "fullname",
          "type": "string"
        },
        {
          "internalType": "string",
          "name": "title",
          "type": "string"
        },
        {
          "internalType": "string",
          "name": "story",
          "type": "string"
        },
        {
          "internalType": "uint256",
          "name": "goalAmount",
          "type": "uint256"
        },
        {
          "internalType": "uint256",
          "name": "currentAmount",
          "type": "uint256"
        },
        {
          "internalType": "uint256",
          "name": "deadline",
          "type": "uint256"
        },
        {
          "internalType": "uint256",
          "name": "totalDonations",
          "type": "uint256"
        }
      ],
      "stateMutability": "view",
      "type": "function"
    },
    {
      "inputs": [
        {
          "internalType": "string",
          "name": "_fullname",
          "type": "string"
        },
        {
          "internalType": "string",
          "name": "_title",
          "type": "string"
        },
        {
          "internalType": "string",
          "name": "_story",
          "type": "string"
        },
        {
          "internalType": "uint256",
          "name": "_goalAmount",
          "type": "uint256"
        },
        {
          "internalType": "uint256",
          "name": "_deadline",
          "type": "uint256"
        }
      ],
      "name": "createCampaign",
      "outputs": [],
      "stateMutability": "nonpayable",
      "type": "function"
    },
    {
      "inputs": [
        {
          "internalType": "uint256",
          "name": "",
          "type": "uint256"
        }
      ],
      "name": "donationTransactions",
      "outputs": [
        {
          "internalType": "uint256",
          "name": "id",
          "type": "uint256"
        },
        {
          "internalType": "uint256",
          "name": "campaignId",
          "type": "uint256"
        },
        {
          "internalType": "address",
          "name": "donor",
          "type": "address"
        },
        {
          "internalType": "uint256",
          "name": "amount",
          "type": "uint256"
        },
        {
          "internalType": "uint256",
          "name": "timestamp",
          "type": "uint256"
        }
      ],
      "stateMutability": "view",
      "type": "function"
    },
    {
      "inputs": [
        {
          "internalType": "uint256",
          "name": "_campaignId",
          "type": "uint256"
        },
        {
          "internalType": "string",
          "name": "_fullname",
          "type": "string"
        },
        {
          "internalType": "string",
          "name": "_title",
          "type": "string"
        },
        {
          "internalType": "string",
          "name": "_story",
          "type": "string"
        },
        {
          "internalType": "uint256",
          "name": "_goalAmount",
          "type": "uint256"
        },
        {
          "internalType": "uint256",
          "name": "_deadline",
          "type": "uint256"
        }
      ],
      "name": "editCampaign",
      "outputs": [],
      "stateMutability": "nonpayable",
      "type": "function"
    },
    {
      "inputs": [
        {
          "internalType": "uint256",
          "name": "_campaignId",
          "type": "uint256"
        }
      ],
      "name": "getCampaign",
      "outputs": [
        {
          "components": [
            {
              "internalType": "uint256",
              "name": "id",
              "type": "uint256"
            },
            {
              "internalType": "address",
              "name": "creator",
              "type": "address"
            },
            {
              "internalType": "string",
              "name": "fullname",
              "type": "string"
            },
            {
              "internalType": "string",
              "name": "title",
              "type": "string"
            },
            {
              "internalType": "string",
              "name": "story",
              "type": "string"
            },
            {
              "internalType": "uint256",
              "name": "goalAmount",
              "type": "uint256"
            },
            {
              "internalType": "uint256",
              "name": "currentAmount",
              "type": "uint256"
            },
            {
              "internalType": "uint256",
              "name": "deadline",
              "type": "uint256"
            },
            {
              "internalType": "uint256",
              "name": "totalDonations",
              "type": "uint256"
            }
          ],
          "internalType": "struct CrowdFunding.Campaign",
          "name": "campaign",
          "type": "tuple"
        },
        {
          "components": [
            {
              "internalType": "uint256",
              "name": "id",
              "type": "uint256"
            },
            {
              "internalType": "uint256",
              "name": "campaignId",
              "type": "uint256"
            },
            {
              "internalType": "address",
              "name": "donor",
              "type": "address"
            },
            {
              "internalType": "uint256",
              "name": "amount",
              "type": "uint256"
            },
            {
              "internalType": "uint256",
              "name": "timestamp",
              "type": "uint256"
            }
          ],
          "internalType": "struct CrowdFunding.DonationTransaction[]",
          "name": "allDonations",
          "type": "tuple[]"
        }
      ],
      "stateMutability": "view",
      "type": "function"
    },
    {
      "inputs": [
        {
          "internalType": "uint256",
          "name": "_campaignId",
          "type": "uint256"
        }
      ],
      "name": "getCampaignDonations",
      "outputs": [
        {
          "components": [
            {
              "internalType": "uint256",
              "name": "id",
              "type": "uint256"
            },
            {
              "internalType": "uint256",
              "name": "campaignId",
              "type": "uint256"
            },
            {
              "internalType": "address",
              "name": "donor",
              "type": "address"
            },
            {
              "internalType": "uint256",
              "name": "amount",
              "type": "uint256"
            },
            {
              "internalType": "uint256",
              "name": "timestamp",
              "type": "uint256"
            }
          ],
          "internalType": "struct CrowdFunding.DonationTransaction[]",
          "name": "allDonations",
          "type": "tuple[]"
        },
        {
          "internalType": "uint256",
          "name": "totalCampaignDonations",
          "type": "uint256"
        }
      ],
      "stateMutability": "view",
      "type": "function"
    },
    {
      "inputs": [
        {
          "internalType": "address",
          "name": "_walletAddress",
          "type": "address"
        },
        {
          "internalType": "uint256",
          "name": "_pageSize",
          "type": "uint256"
        },
        {
          "internalType": "uint256",
          "name": "_pageNumber",
          "type": "uint256"
        }
      ],
      "name": "getDonatorsByWalletAddress",
      "outputs": [
        {
          "components": [
            {
              "internalType": "address",
              "name": "userAddress",
              "type": "address"
            },
            {
              "internalType": "string",
              "name": "campaignTitle",
              "type": "string"
            },
            {
              "internalType": "uint256",
              "name": "donationAmount",
              "type": "uint256"
            }
          ],
          "internalType": "struct CrowdFunding.DonationData[]",
          "name": "donations",
          "type": "tuple[]"
        },
        {
          "internalType": "uint256",
          "name": "donatorCount",
          "type": "uint256"
        },
        {
          "internalType": "uint256",
          "name": "totalPages",
          "type": "uint256"
        },
        {
          "internalType": "uint256",
          "name": "nextPage",
          "type": "uint256"
        },
        {
          "internalType": "uint256",
          "name": "previousPage",
          "type": "uint256"
        }
      ],
      "stateMutability": "view",
      "type": "function"
    },
    {
      "inputs": [
        {
          "internalType": "uint256",
          "name": "_pageSize",
          "type": "uint256"
        },
        {
          "internalType": "uint256",
          "name": "_pageNumber",
          "type": "uint256"
        }
      ],
      "name": "getUserCampaigns",
      "outputs": [
        {
          "components": [
            {
              "internalType": "uint256",
              "name": "id",
              "type": "uint256"
            },
            {
              "internalType": "address",
              "name": "creator",
              "type": "address"
            },
            {
              "internalType": "string",
              "name": "fullname",
              "type": "string"
            },
            {
              "internalType": "string",
              "name": "title",
              "type": "string"
            },
            {
              "internalType": "string",
              "name": "story",
              "type": "string"
            },
            {
              "internalType": "uint256",
              "name": "goalAmount",
              "type": "uint256"
            },
            {
              "internalType": "uint256",
              "name": "currentAmount",
              "type": "uint256"
            },
            {
              "internalType": "uint256",
              "name": "deadline",
              "type": "uint256"
            },
            {
              "internalType": "uint256",
              "name": "totalDonations",
              "type": "uint256"
            }
          ],
          "internalType": "struct CrowdFunding.Campaign[]",
          "name": "allCampaigns",
          "type": "tuple[]"
        },
        {
          "internalType": "uint256",
          "name": "userTotalCampaigns",
          "type": "uint256"
        },
        {
          "internalType": "uint256",
          "name": "totalPages",
          "type": "uint256"
        },
        {
          "internalType": "uint256",
          "name": "nextPage",
          "type": "uint256"
        },
        {
          "internalType": "uint256",
          "name": "previousPage",
          "type": "uint256"
        }
      ],
      "stateMutability": "view",
      "type": "function"
    },
    {
      "inputs": [
        {
          "internalType": "address",
          "name": "_userAddress",
          "type": "address"
        },
        {
          "internalType": "uint256",
          "name": "_pageSize",
          "type": "uint256"
        },
        {
          "internalType": "uint256",
          "name": "_pageNumber",
          "type": "uint256"
        }
      ],
      "name": "getUserDonations",
      "outputs": [
        {
          "components": [
            {
              "internalType": "address",
              "name": "userAddress",
              "type": "address"
            },
            {
              "internalType": "string",
              "name": "campaignTitle",
              "type": "string"
            },
            {
              "internalType": "uint256",
              "name": "donationAmount",
              "type": "uint256"
            }
          ],
          "internalType": "struct CrowdFunding.DonationData[]",
          "name": "userDonations",
          "type": "tuple[]"
        },
        {
          "components": [
            {
              "internalType": "uint256",
              "name": "totalPages",
              "type": "uint256"
            },
            {
              "internalType": "uint256",
              "name": "nextPage",
              "type": "uint256"
            },
            {
              "internalType": "uint256",
              "name": "previousPage",
              "type": "uint256"
            },
            {
              "internalType": "uint256",
              "name": "startIndex",
              "type": "uint256"
            },
            {
              "internalType": "uint256",
              "name": "endIndex",
              "type": "uint256"
            }
          ],
          "internalType": "struct CrowdFunding.PaginationData",
          "name": "pagination",
          "type": "tuple"
        }
      ],
      "stateMutability": "view",
      "type": "function"
    },
    {
      "inputs": [],
      "name": "owner",
      "outputs": [
        {
          "internalType": "address payable",
          "name": "",
          "type": "address"
        }
      ],
      "stateMutability": "view",
      "type": "function"
    },
    {
      "inputs": [
        {
          "internalType": "uint256",
          "name": "_campaignId",
          "type": "uint256"
        }
      ],
      "name": "sendDonation",
      "outputs": [],
      "stateMutability": "payable",
      "type": "function"
    },
    {
      "inputs": [],
      "name": "totalCampaigns",
      "outputs": [
        {
          "internalType": "uint256",
          "name": "",
          "type": "uint256"
        }
      ],
      "stateMutability": "view",
      "type": "function"
    },
    {
      "inputs": [],
      "name": "totalDonations",
      "outputs": [
        {
          "internalType": "uint256",
          "name": "",
          "type": "uint256"
        }
      ],
      "stateMutability": "view",
      "type": "function"
    },
    {
      "inputs": [
        {
          "internalType": "address",
          "name": "",
          "type": "address"
        }
      ],
      "name": "users",
      "outputs": [
        {
          "internalType": "uint256",
          "name": "totalCampaigns",
          "type": "uint256"
        },
        {
          "internalType": "uint256",
          "name": "totalDonations",
          "type": "uint256"
        }
      ],
      "stateMutability": "view",
      "type": "function"
    }
  ],
  "bytecode": "0x6080604052336000806101000a81548173ffffffffffffffffffffffffffffffffffffffff021916908373ffffffffffffffffffffffffffffffffffffffff1602179055506000600481905550613d948061005b6000396000f3fe6080604052600436106100dd5760003560e01c80638acd0bfc1161007f578063a87430ba11610059578063a87430ba146102fe578063b0445d601461033c578063de2ed8931461037d578063e1a783a0146103a8576100dd565b80638acd0bfc146102695780638da5cb5b146102aa578063980f2e66146102d5576100dd565b806345d0b60a116100bb57806345d0b60a146101935780635167642f146101d15780635598f8cc1461020f578063665588c91461024d576100dd565b806302932f56146100e2578063141961bc1461010d5780633e3b667514610152575b600080fd5b3480156100ee57600080fd5b506100f76103d1565b6040516101049190612592565b60405180910390f35b34801561011957600080fd5b50610134600480360381019061012f91906125ed565b6103d7565b604051610149999897969594939291906126eb565b60405180910390f35b34801561015e57600080fd5b506101796004803603810190610174919061278d565b6105dd565b60405161018a9594939291906129ca565b60405180910390f35b34801561019f57600080fd5b506101ba60048036038101906101b59190612a50565b610991565b6040516101c8929190612c1d565b60405180910390f35b3480156101dd57600080fd5b506101f860048036038101906101f391906125ed565b610e18565b604051610206929190612d64565b60405180910390f35b34801561021b57600080fd5b50610236600480360381019061023191906125ed565b6111ed565b604051610244929190612e67565b60405180910390f35b610267600480360381019061026291906125ed565b611469565b005b34801561027557600080fd5b50610290600480360381019061028b91906125ed565b611759565b6040516102a1959493929190612e9e565b60405180910390f35b3480156102b657600080fd5b506102bf6117af565b6040516102cc9190612f12565b60405180910390f35b3480156102e157600080fd5b506102fc60048036038101906102f79190613062565b6117d3565b005b34801561030a57600080fd5b5061032560048036038101906103209190613131565b611bcf565b60405161033392919061315e565b60405180910390f35b34801561034857600080fd5b50610363600480360381019061035e9190612a50565b611bf3565b604051610374959493929190613187565b60405180910390f35b34801561038957600080fd5b50610392611fc3565b60405161039f9190612592565b60405180910390f35b3480156103b457600080fd5b506103cf60048036038101906103ca91906131e1565b611fc9565b005b60045481565b60026020528060005260406000206000915090508060000154908060010160009054906101000a900473ffffffffffffffffffffffffffffffffffffffff1690806002018054610426906132f1565b80601f0160208091040260200160405190810160405280929190818152602001828054610452906132f1565b801561049f5780601f106104745761010080835404028352916020019161049f565b820191906000526020600020905b81548152906001019060200180831161048257829003601f168201915b5050505050908060030180546104b4906132f1565b80601f01602080910402602001604051908101604052809291908181526020018280546104e0906132f1565b801561052d5780601f106105025761010080835404028352916020019161052d565b820191906000526020600020905b81548152906001019060200180831161051057829003601f168201915b505050505090806004018054610542906132f1565b80601f016020809104026020016040519081016040528092919081815260200182805461056e906132f1565b80156105bb5780601f10610590576101008083540402835291602001916105bb565b820191906000526020600020905b81548152906001019060200180831161059e57829003601f168201915b5050505050908060050154908060060154908060070154908060080154905089565b60606000806000806000600160003373ffffffffffffffffffffffffffffffffffffffff1673ffffffffffffffffffffffffffffffffffffffff1681526020019081526020016000209050600061063982600001548a8a6122c0565b90508060600151816080015161064f9190613351565b67ffffffffffffffff81111561066857610667612f37565b5b6040519080825280602002602001820160405280156106a157816020015b61068e61246c565b8152602001906001900390816106865790505b50965060005b8751811015610968576000600260008560020160008587606001516106cc9190613385565b815260200190815260200160002054815260200190815260200160002060405180610120016040529081600082015481526020016001820160009054906101000a900473ffffffffffffffffffffffffffffffffffffffff1673ffffffffffffffffffffffffffffffffffffffff1673ffffffffffffffffffffffffffffffffffffffff168152602001600282018054610765906132f1565b80601f0160208091040260200160405190810160405280929190818152602001828054610791906132f1565b80156107de5780601f106107b3576101008083540402835291602001916107de565b820191906000526020600020905b8154815290600101906020018083116107c157829003601f168201915b505050505081526020016003820180546107f7906132f1565b80601f0160208091040260200160405190810160405280929190818152602001828054610823906132f1565b80156108705780601f1061084557610100808354040283529160200191610870565b820191906000526020600020905b81548152906001019060200180831161085357829003601f168201915b50505050508152602001600482018054610889906132f1565b80601f01602080910402602001604051908101604052809291908181526020018280546108b5906132f1565b80156109025780601f106108d757610100808354040283529160200191610902565b820191906000526020600020905b8154815290600101906020018083116108e557829003601f168201915b50505050508152602001600582015481526020016006820154815260200160078201548152602001600882015481525050905080898381518110610949576109486133b9565b5b6020026020010181905250508080610960906133e8565b9150506106a7565b508160000154955080600001519450806020015193508060400151925050509295509295909350565b606061099b6124ce565b600080600160008873ffffffffffffffffffffffffffffffffffffffff1673ffffffffffffffffffffffffffffffffffffffff16815260200190815260200160002090506109ee816001015487876122c0565b925082606001518360800151610a049190613351565b67ffffffffffffffff811115610a1d57610a1c612f37565b5b604051908082528060200260200182016040528015610a5657816020015b610a436124fd565b815260200190600190039081610a3b5790505b5093506000836060015190505b8360800151811015610e0d576000600360008460030160008581526020019081526020016000205481526020019081526020016000206040518060a001604052908160008201548152602001600182015481526020016002820160009054906101000a900473ffffffffffffffffffffffffffffffffffffffff1673ffffffffffffffffffffffffffffffffffffffff1673ffffffffffffffffffffffffffffffffffffffff1681526020016003820154815260200160048201548152505090506000600260008360200151815260200190815260200160002060405180610120016040529081600082015481526020016001820160009054906101000a900473ffffffffffffffffffffffffffffffffffffffff1673ffffffffffffffffffffffffffffffffffffffff1673ffffffffffffffffffffffffffffffffffffffff168152602001600282018054610bb9906132f1565b80601f0160208091040260200160405190810160405280929190818152602001828054610be5906132f1565b8015610c325780601f10610c0757610100808354040283529160200191610c32565b820191906000526020600020905b815481529060010190602001808311610c1557829003601f168201915b50505050508152602001600382018054610c4b906132f1565b80601f0160208091040260200160405190810160405280929190818152602001828054610c77906132f1565b8015610cc45780601f10610c9957610100808354040283529160200191610cc4565b820191906000526020600020905b815481529060010190602001808311610ca757829003601f168201915b50505050508152602001600482018054610cdd906132f1565b80601f0160208091040260200160405190810160405280929190818152602001828054610d09906132f1565b8015610d565780601f10610d2b57610100808354040283529160200191610d56565b820191906000526020600020905b815481529060010190602001808311610d3957829003601f168201915b50505050508152602001600582015481526020016006820154815260200160078201548152602001600882015481525050905060006040518060600160405280836020015173ffffffffffffffffffffffffffffffffffffffff168152602001836060015181526020018460600151815250905080888781518110610dde57610ddd6133b9565b5b60200260200101819052508580610df4906133e8565b9650505050508080610e05906133e8565b915050610a63565b505050935093915050565b60606000806002600085815260200190815260200160002060405180610120016040529081600082015481526020016001820160009054906101000a900473ffffffffffffffffffffffffffffffffffffffff1673ffffffffffffffffffffffffffffffffffffffff1673ffffffffffffffffffffffffffffffffffffffff168152602001600282018054610eac906132f1565b80601f0160208091040260200160405190810160405280929190818152602001828054610ed8906132f1565b8015610f255780601f10610efa57610100808354040283529160200191610f25565b820191906000526020600020905b815481529060010190602001808311610f0857829003601f168201915b50505050508152602001600382018054610f3e906132f1565b80601f0160208091040260200160405190810160405280929190818152602001828054610f6a906132f1565b8015610fb75780601f10610f8c57610100808354040283529160200191610fb7565b820191906000526020600020905b815481529060010190602001808311610f9a57829003601f168201915b50505050508152602001600482018054610fd0906132f1565b80601f0160208091040260200160405190810160405280929190818152602001828054610ffc906132f1565b80156110495780601f1061101e57610100808354040283529160200191611049565b820191906000526020600020905b81548152906001019060200180831161102c57829003601f168201915b50505050508152602001600582015481526020016006820154815260200160078201548152602001600882015481525050905080610100015191508167ffffffffffffffff81111561109e5761109d612f37565b5b6040519080825280602002602001820160405280156110d757816020015b6110c4612534565b8152602001906001900390816110bc5790505b5092506000805b6005548110156111e55782600001516003600083815260200190815260200160002060010154036111d257600360008281526020019081526020016000206040518060a001604052908160008201548152602001600182015481526020016002820160009054906101000a900473ffffffffffffffffffffffffffffffffffffffff1673ffffffffffffffffffffffffffffffffffffffff1673ffffffffffffffffffffffffffffffffffffffff168152602001600382015481526020016004820154815250508583815181106111b8576111b76133b9565b5b602002602001018190525081806111ce906133e8565b9250505b80806111dd906133e8565b9150506110de565b505050915091565b6111f561246c565b60606002600084815260200190815260200160002060405180610120016040529081600082015481526020016001820160009054906101000a900473ffffffffffffffffffffffffffffffffffffffff1673ffffffffffffffffffffffffffffffffffffffff1673ffffffffffffffffffffffffffffffffffffffff168152602001600282018054611286906132f1565b80601f01602080910402602001604051908101604052809291908181526020018280546112b2906132f1565b80156112ff5780601f106112d4576101008083540402835291602001916112ff565b820191906000526020600020905b8154815290600101906020018083116112e257829003601f168201915b50505050508152602001600382018054611318906132f1565b80601f0160208091040260200160405190810160405280929190818152602001828054611344906132f1565b80156113915780601f1061136657610100808354040283529160200191611391565b820191906000526020600020905b81548152906001019060200180831161137457829003601f168201915b505050505081526020016004820180546113aa906132f1565b80601f01602080910402602001604051908101604052809291908181526020018280546113d6906132f1565b80156114235780601f106113f857610100808354040283529160200191611423565b820191906000526020600020905b81548152906001019060200180831161140657829003601f168201915b50505050508152602001600582015481526020016006820154815260200160078201548152602001600882015481525050915061145f83610e18565b5080915050915091565b6000811015801561147b575060045481105b6114ba576040517f08c379a00000000000000000000000000000000000000000000000000000000081526004016114b19061347c565b60405180910390fd5b60006002600083815260200190815260200160002090508060070154421115611518576040517f08c379a000000000000000000000000000000000000000000000000000000000815260040161150f906134e8565b60405180910390fd5b6000341161155b576040517f08c379a00000000000000000000000000000000000000000000000000000000081526004016115529061357a565b60405180910390fd5b6000600160003373ffffffffffffffffffffffffffffffffffffffff1673ffffffffffffffffffffffffffffffffffffffff168152602001908152602001600020905060008160010154905060006040518060a001604052806005548152602001856000015481526020013373ffffffffffffffffffffffffffffffffffffffff16815260200134815260200142815250905080600360006005548152602001908152602001600020600082015181600001556020820151816001015560408201518160020160006101000a81548173ffffffffffffffffffffffffffffffffffffffff021916908373ffffffffffffffffffffffffffffffffffffffff1602179055506060820151816003015560808201518160040155905050806000015183600301600084815260200190815260200160002081905550348460060160008282546116a89190613385565b92505081905550600560008154809291906116c2906133e8565b91905055508260010160008154809291906116dc906133e8565b91905055508360080160008154809291906116f6906133e8565b91905055503373ffffffffffffffffffffffffffffffffffffffff167f3b5443c59641f965c6df0836dbe11676fa8c79c3184392351bb19fd51de3d49a85600301866006015460405161174a929190613633565b60405180910390a25050505050565b60036020528060005260406000206000915090508060000154908060010154908060020160009054906101000a900473ffffffffffffffffffffffffffffffffffffffff16908060030154908060040154905085565b60008054906101000a900473ffffffffffffffffffffffffffffffffffffffff1681565b848484848442811161181a576040517f08c379a0000000000000000000000000000000000000000000000000000000008152600401611811906136af565b60405180910390fd5b6000821161185d576040517f08c379a000000000000000000000000000000000000000000000000000000000815260040161185490613741565b60405180910390fd5b60008551116118a1576040517f08c379a0000000000000000000000000000000000000000000000000000000008152600401611898906137ad565b60405180910390fd5b60008451116118e5576040517f08c379a00000000000000000000000000000000000000000000000000000000081526004016118dc90613819565b60405180910390fd5b6000835111611929576040517f08c379a000000000000000000000000000000000000000000000000000000000815260040161192090613885565b60405180910390fd5b600060405180610120016040528060045481526020013373ffffffffffffffffffffffffffffffffffffffff1681526020018c81526020018b81526020018a81526020018981526020016000815260200188815260200160008152509050806002600060045481526020019081526020016000206000820151816000015560208201518160010160006101000a81548173ffffffffffffffffffffffffffffffffffffffff021916908373ffffffffffffffffffffffffffffffffffffffff1602179055506040820151816002019081611a039190613a3c565b506060820151816003019081611a199190613a3c565b506080820151816004019081611a2f9190613a3c565b5060a0820151816005015560c0820151816006015560e0820151816007015561010082015181600801559050506000600160003373ffffffffffffffffffffffffffffffffffffffff1673ffffffffffffffffffffffffffffffffffffffff1681526020019081526020016000206000015490508160000151600160003373ffffffffffffffffffffffffffffffffffffffff1673ffffffffffffffffffffffffffffffffffffffff168152602001908152602001600020600201600083815260200190815260200160002081905550600160003373ffffffffffffffffffffffffffffffffffffffff1673ffffffffffffffffffffffffffffffffffffffff1681526020019081526020016000206000016000815480929190611b52906133e8565b919050555060046000815480929190611b6a906133e8565b91905055503373ffffffffffffffffffffffffffffffffffffffff167f17dd0b5f0975f4651b002ed3b016428bae979f5704d8b2473931b2312185c05a8360600151604051611bb99190613b0e565b60405180910390a2505050505050505050505050565b60016020528060005260406000206000915090508060000154908060010154905082565b606060008060008060009350611c076124ce565b60005b600454811015611cee5760006002600083815260200190815260200160002090508a73ffffffffffffffffffffffffffffffffffffffff168160010160009054906101000a900473ffffffffffffffffffffffffffffffffffffffff1673ffffffffffffffffffffffffffffffffffffffff1603611cda5760005b600554811015611cd85760006003600083815260200190815260200160002090508260000154816001015403611cc4578880611cc0906133e8565b9950505b508080611cd0906133e8565b915050611c85565b505b508080611ce6906133e8565b915050611c0a565b50611cfa8589896122c0565b905080606001518160800151611d109190613351565b67ffffffffffffffff811115611d2957611d28612f37565b5b604051908082528060200260200182016040528015611d6257816020015b611d4f6124fd565b815260200190600190039081611d475790505b5095506000805b600454811015611fa05760006002600083815260200190815260200160002090508b73ffffffffffffffffffffffffffffffffffffffff168160010160009054906101000a900473ffffffffffffffffffffffffffffffffffffffff1673ffffffffffffffffffffffffffffffffffffffff1603611f8c5760005b600554811015611f8a5760006003600083815260200190815260200160002090508260000154816001015403611f765785606001518510158015611e2b5750856080015185105b15611f6757611e386124fd565b8160020160009054906101000a900473ffffffffffffffffffffffffffffffffffffffff16816000019073ffffffffffffffffffffffffffffffffffffffff16908173ffffffffffffffffffffffffffffffffffffffff1681525050836003018054611ea3906132f1565b80601f0160208091040260200160405190810160405280929190818152602001828054611ecf906132f1565b8015611f1c5780601f10611ef157610100808354040283529160200191611f1c565b820191906000526020600020905b815481529060010190602001808311611eff57829003601f168201915b505050505081602001819052508160030154816040018181525050808c886060015188611f499190613351565b81518110611f5a57611f596133b9565b5b6020026020010181905250505b8480611f72906133e8565b9550505b508080611f82906133e8565b915050611de4565b505b508080611f98906133e8565b915050611d69565b508160000151945081602001519350816040015192505050939792965093509350565b60055481565b8484848484428111612010576040517f08c379a0000000000000000000000000000000000000000000000000000000008152600401612007906136af565b60405180910390fd5b60008211612053576040517f08c379a000000000000000000000000000000000000000000000000000000000815260040161204a90613741565b60405180910390fd5b6000855111612097576040517f08c379a000000000000000000000000000000000000000000000000000000000815260040161208e906137ad565b60405180910390fd5b60008451116120db576040517f08c379a00000000000000000000000000000000000000000000000000000000081526004016120d290613819565b60405180910390fd5b600083511161211f576040517f08c379a000000000000000000000000000000000000000000000000000000000815260040161211690613885565b60405180910390fd5b6000600260008d8152602001908152602001600020905060008c1015801561214857506004548c105b612187576040517f08c379a000000000000000000000000000000000000000000000000000000000815260040161217e9061347c565b60405180910390fd5b3373ffffffffffffffffffffffffffffffffffffffff168160010160009054906101000a900473ffffffffffffffffffffffffffffffffffffffff1673ffffffffffffffffffffffffffffffffffffffff1614612219576040517f08c379a000000000000000000000000000000000000000000000000000000000815260040161221090613ba2565b60405180910390fd5b8a81600201908161222a9190613a3c565b508981600301908161223c9190613a3c565b508881600401908161224e9190613a3c565b508781600501819055508681600701819055503373ffffffffffffffffffffffffffffffffffffffff167fb961c338b427968a67f1a3560907d7075a0d1fca0c2d16dcb76da3a963cfe373826003016040516122aa9190613bc2565b60405180910390a2505050505050505050505050565b6122c86124ce565b6000831161230b576040517f08c379a000000000000000000000000000000000000000000000000000000000815260040161230290613c30565b60405180910390fd5b6000821161234e576040517f08c379a000000000000000000000000000000000000000000000000000000000815260040161234590613c9c565b60405180910390fd5b6123566124ce565b83600185876123659190613385565b61236f9190613351565b6123799190613ceb565b81600001818152505060008160000151116123955760006123ae565b6001836123a29190613351565b846123ad9190613d1c565b5b816060018181525050848160600151856123c89190613385565b116123e2578060600151846123dd9190613385565b6123e4565b845b81608001818152505080600001518310612402578060000151612410565b60018361240f9190613385565b5b81602001818152505060018311612428576001612436565b6001836124359190613351565b5b8160400181815250506000816000015111612452576000612458565b80604001515b816040018181525050809150509392505050565b60405180610120016040528060008152602001600073ffffffffffffffffffffffffffffffffffffffff168152602001606081526020016060815260200160608152602001600081526020016000815260200160008152602001600081525090565b6040518060a0016040528060008152602001600081526020016000815260200160008152602001600081525090565b6040518060600160405280600073ffffffffffffffffffffffffffffffffffffffff16815260200160608152602001600081525090565b6040518060a001604052806000815260200160008152602001600073ffffffffffffffffffffffffffffffffffffffff16815260200160008152602001600081525090565b6000819050919050565b61258c81612579565b82525050565b60006020820190506125a76000830184612583565b92915050565b6000604051905090565b600080fd5b600080fd5b6125ca81612579565b81146125d557600080fd5b50565b6000813590506125e7816125c1565b92915050565b600060208284031215612603576126026125b7565b5b6000612611848285016125d8565b91505092915050565b600073ffffffffffffffffffffffffffffffffffffffff82169050919050565b60006126458261261a565b9050919050565b6126558161263a565b82525050565b600081519050919050565b600082825260208201905092915050565b60005b8381101561269557808201518184015260208101905061267a565b60008484015250505050565b6000601f19601f8301169050919050565b60006126bd8261265b565b6126c78185612666565b93506126d7818560208601612677565b6126e0816126a1565b840191505092915050565b600061012082019050612701600083018c612583565b61270e602083018b61264c565b8181036040830152612720818a6126b2565b9050818103606083015261273481896126b2565b9050818103608083015261274881886126b2565b905061275760a0830187612583565b61276460c0830186612583565b61277160e0830185612583565b61277f610100830184612583565b9a9950505050505050505050565b600080604083850312156127a4576127a36125b7565b5b60006127b2858286016125d8565b92505060206127c3858286016125d8565b9150509250929050565b600081519050919050565b600082825260208201905092915050565b6000819050602082019050919050565b61280281612579565b82525050565b6128118161263a565b82525050565b600082825260208201905092915050565b60006128338261265b565b61283d8185612817565b935061284d818560208601612677565b612856816126a1565b840191505092915050565b60006101208301600083015161287a60008601826127f9565b50602083015161288d6020860182612808565b50604083015184820360408601526128a58282612828565b915050606083015184820360608601526128bf8282612828565b915050608083015184820360808601526128d98282612828565b91505060a08301516128ee60a08601826127f9565b5060c083015161290160c08601826127f9565b5060e083015161291460e08601826127f9565b506101008301516129296101008601826127f9565b508091505092915050565b60006129408383612861565b905092915050565b6000602082019050919050565b6000612960826127cd565b61296a81856127d8565b93508360208202850161297c856127e9565b8060005b858110156129b857848403895281516129998582612934565b94506129a483612948565b925060208a01995050600181019050612980565b50829750879550505050505092915050565b600060a08201905081810360008301526129e48188612955565b90506129f36020830187612583565b612a006040830186612583565b612a0d6060830185612583565b612a1a6080830184612583565b9695505050505050565b612a2d8161263a565b8114612a3857600080fd5b50565b600081359050612a4a81612a24565b92915050565b600080600060608486031215612a6957612a686125b7565b5b6000612a7786828701612a3b565b9350506020612a88868287016125d8565b9250506040612a99868287016125d8565b9150509250925092565b600081519050919050565b600082825260208201905092915050565b6000819050602082019050919050565b6000606083016000830151612ae76000860182612808565b5060208301518482036020860152612aff8282612828565b9150506040830151612b1460408601826127f9565b508091505092915050565b6000612b2b8383612acf565b905092915050565b6000602082019050919050565b6000612b4b82612aa3565b612b558185612aae565b935083602082028501612b6785612abf565b8060005b85811015612ba35784840389528151612b848582612b1f565b9450612b8f83612b33565b925060208a01995050600181019050612b6b565b50829750879550505050505092915050565b60a082016000820151612bcb60008501826127f9565b506020820151612bde60208501826127f9565b506040820151612bf160408501826127f9565b506060820151612c0460608501826127f9565b506080820151612c1760808501826127f9565b50505050565b600060c0820190508181036000830152612c378185612b40565b9050612c466020830184612bb5565b9392505050565b600081519050919050565b600082825260208201905092915050565b6000819050602082019050919050565b60a082016000820151612c8f60008501826127f9565b506020820151612ca260208501826127f9565b506040820151612cb56040850182612808565b506060820151612cc860608501826127f9565b506080820151612cdb60808501826127f9565b50505050565b6000612ced8383612c79565b60a08301905092915050565b6000602082019050919050565b6000612d1182612c4d565b612d1b8185612c58565b9350612d2683612c69565b8060005b83811015612d57578151612d3e8882612ce1565b9750612d4983612cf9565b925050600181019050612d2a565b5085935050505092915050565b60006040820190508181036000830152612d7e8185612d06565b9050612d8d6020830184612583565b9392505050565b600061012083016000830151612dad60008601826127f9565b506020830151612dc06020860182612808565b5060408301518482036040860152612dd88282612828565b91505060608301518482036060860152612df28282612828565b91505060808301518482036080860152612e0c8282612828565b91505060a0830151612e2160a08601826127f9565b5060c0830151612e3460c08601826127f9565b5060e0830151612e4760e08601826127f9565b50610100830151612e5c6101008601826127f9565b508091505092915050565b60006040820190508181036000830152612e818185612d94565b90508181036020830152612e958184612d06565b90509392505050565b600060a082019050612eb36000830188612583565b612ec06020830187612583565b612ecd604083018661264c565b612eda6060830185612583565b612ee76080830184612583565b9695505050505050565b6000612efc8261261a565b9050919050565b612f0c81612ef1565b82525050565b6000602082019050612f276000830184612f03565b92915050565b600080fd5b600080fd5b7f4e487b7100000000000000000000000000000000000000000000000000000000600052604160045260246000fd5b612f6f826126a1565b810181811067ffffffffffffffff82111715612f8e57612f8d612f37565b5b80604052505050565b6000612fa16125ad565b9050612fad8282612f66565b919050565b600067ffffffffffffffff821115612fcd57612fcc612f37565b5b612fd6826126a1565b9050602081019050919050565b82818337600083830152505050565b600061300561300084612fb2565b612f97565b90508281526020810184848401111561302157613020612f32565b5b61302c848285612fe3565b509392505050565b600082601f83011261304957613048612f2d565b5b8135613059848260208601612ff2565b91505092915050565b600080600080600060a0868803121561307e5761307d6125b7565b5b600086013567ffffffffffffffff81111561309c5761309b6125bc565b5b6130a888828901613034565b955050602086013567ffffffffffffffff8111156130c9576130c86125bc565b5b6130d588828901613034565b945050604086013567ffffffffffffffff8111156130f6576130f56125bc565b5b61310288828901613034565b9350506060613113888289016125d8565b9250506080613124888289016125d8565b9150509295509295909350565b600060208284031215613147576131466125b7565b5b600061315584828501612a3b565b91505092915050565b60006040820190506131736000830185612583565b6131806020830184612583565b9392505050565b600060a08201905081810360008301526131a18188612b40565b90506131b06020830187612583565b6131bd6040830186612583565b6131ca6060830185612583565b6131d76080830184612583565b9695505050505050565b60008060008060008060c087890312156131fe576131fd6125b7565b5b600061320c89828a016125d8565b965050602087013567ffffffffffffffff81111561322d5761322c6125bc565b5b61323989828a01613034565b955050604087013567ffffffffffffffff81111561325a576132596125bc565b5b61326689828a01613034565b945050606087013567ffffffffffffffff811115613287576132866125bc565b5b61329389828a01613034565b93505060806132a489828a016125d8565b92505060a06132b589828a016125d8565b9150509295509295509295565b7f4e487b7100000000000000000000000000000000000000000000000000000000600052602260045260246000fd5b6000600282049050600182168061330957607f821691505b60208210810361331c5761331b6132c2565b5b50919050565b7f4e487b7100000000000000000000000000000000000000000000000000000000600052601160045260246000fd5b600061335c82612579565b915061336783612579565b925082820390508181111561337f5761337e613322565b5b92915050565b600061339082612579565b915061339b83612579565b92508282019050808211156133b3576133b2613322565b5b92915050565b7f4e487b7100000000000000000000000000000000000000000000000000000000600052603260045260246000fd5b60006133f382612579565b91507fffffffffffffffffffffffffffffffffffffffffffffffffffffffffffffffff820361342557613424613322565b5b600182019050919050565b7f496e76616c69642063616d706169676e20494400000000000000000000000000600082015250565b6000613466601383612666565b915061347182613430565b602082019050919050565b6000602082019050818103600083015261349581613459565b9050919050565b7f43616d706169676e20697320616c7265616479206f7665720000000000000000600082015250565b60006134d2601883612666565b91506134dd8261349c565b602082019050919050565b60006020820190508181036000830152613501816134c5565b9050919050565b7f446f6e6174696f6e20616d6f756e742073686f756c64206265206d6f7265207460008201527f68616e2030000000000000000000000000000000000000000000000000000000602082015250565b6000613564602583612666565b915061356f82613508565b604082019050919050565b6000602082019050818103600083015261359381613557565b9050919050565b60008190508160005260206000209050919050565b600081546135bc816132f1565b6135c68186612666565b945060018216600081146135e157600181146135f75761362a565b60ff19831686528115156020028601935061362a565b6136008561359a565b60005b8381101561362257815481890152600182019150602081019050613603565b808801955050505b50505092915050565b6000604082019050818103600083015261364d81856135af565b905061365c6020830184612583565b9392505050565b7f446174652073686f756c64206265206675747572652064617465000000000000600082015250565b6000613699601a83612666565b91506136a482613663565b602082019050919050565b600060208201905081810360008301526136c88161368c565b9050919050565b7f476f616c20616d6f756e742073686f756c64206265206d6f7265207468616e2060008201527f3000000000000000000000000000000000000000000000000000000000000000602082015250565b600061372b602183612666565b9150613736826136cf565b604082019050919050565b6000602082019050818103600083015261375a8161371e565b9050919050565b7f46756c6c206e616d652063616e6e6f7420626520656d70747900000000000000600082015250565b6000613797601983612666565b91506137a282613761565b602082019050919050565b600060208201905081810360008301526137c68161378a565b9050919050565b7f5469746c652063616e6e6f7420626520656d7074790000000000000000000000600082015250565b6000613803601583612666565b915061380e826137cd565b602082019050919050565b60006020820190508181036000830152613832816137f6565b9050919050565b7f53746f72792063616e6e6f7420626520656d7074790000000000000000000000600082015250565b600061386f601583612666565b915061387a82613839565b602082019050919050565b6000602082019050818103600083015261389e81613862565b9050919050565b60006020601f8301049050919050565b600082821b905092915050565b6000600883026138f27fffffffffffffffffffffffffffffffffffffffffffffffffffffffffffffffff826138b5565b6138fc86836138b5565b95508019841693508086168417925050509392505050565b6000819050919050565b600061393961393461392f84612579565b613914565b612579565b9050919050565b6000819050919050565b6139538361391e565b61396761395f82613940565b8484546138c2565b825550505050565b600090565b61397c61396f565b61398781848461394a565b505050565b5b818110156139ab576139a0600082613974565b60018101905061398d565b5050565b601f8211156139f0576139c18161359a565b6139ca846138a5565b810160208510156139d9578190505b6139ed6139e5856138a5565b83018261398c565b50505b505050565b600082821c905092915050565b6000613a13600019846008026139f5565b1980831691505092915050565b6000613a2c8383613a02565b9150826002028217905092915050565b613a458261265b565b67ffffffffffffffff811115613a5e57613a5d612f37565b5b613a6882546132f1565b613a738282856139af565b600060209050601f831160018114613aa65760008415613a94578287015190505b613a9e8582613a20565b865550613b06565b601f198416613ab48661359a565b60005b82811015613adc57848901518255600182019150602085019450602081019050613ab7565b86831015613af95784890151613af5601f891682613a02565b8355505b6001600288020188555050505b505050505050565b60006020820190508181036000830152613b2881846126b2565b905092915050565b7f596f7520617265206e6f74207468652063616d706169676e2063726561746f7260008201527f2100000000000000000000000000000000000000000000000000000000000000602082015250565b6000613b8c602183612666565b9150613b9782613b30565b604082019050919050565b60006020820190508181036000830152613bbb81613b7f565b9050919050565b60006020820190508181036000830152613bdc81846135af565b905092915050565b7f506167652073697a652063616e6e6f7420626520300000000000000000000000600082015250565b6000613c1a601583612666565b9150613c2582613be4565b602082019050919050565b60006020820190508181036000830152613c4981613c0d565b9050919050565b7f50616765206e756d6265722063616e6e6f742062652030000000000000000000600082015250565b6000613c86601783612666565b9150613c9182613c50565b602082019050919050565b60006020820190508181036000830152613cb581613c79565b9050919050565b7f4e487b7100000000000000000000000000000000000000000000000000000000600052601260045260246000fd5b6000613cf682612579565b9150613d0183612579565b925082613d1157613d10613cbc565b5b828204905092915050565b6000613d2782612579565b9150613d3283612579565b9250828202613d4081612579565b91508282048414831517613d5757613d56613322565b5b509291505056fea264697066735822122073e488ee0f1783e1cd66b9a1c699cfd29e13c65e43fb2edd83d0bd96f9e7b1b164736f6c63430008120033",
  "linkReferences": {},
  "deployedLinkReferences": {}
}