{
  "_format": "hh-sol-artifact-1",
  "contractName": "CrowdFunding",
  "sourceName": "contracts/CrowdFunding.sol",
  "abi": [
    {
      "inputs": [],
      "stateMutability": "payable",
      "type": "constructor"
    },
    {
      "anonymous": false,
      "inputs": [
        {
          "indexed": true,
          "internalType": "address",
          "name": "sender",
          "type": "address"
        },
        {
          "indexed": false,
          "internalType": "string",
          "name": "title",
          "type": "string"
        }
      ],
      "name": "CampaignCreated",
      "type": "event"
    },
    {
      "anonymous": false,
      "inputs": [
        {
          "indexed": true,
          "internalType": "address",
          "name": "sender",
          "type": "address"
        },
        {
          "indexed": false,
          "internalType": "string",
          "name": "title",
          "type": "string"
        }
      ],
      "name": "CampaignEdited",
      "type": "event"
    },
    {
      "anonymous": false,
      "inputs": [
        {
          "indexed": true,
          "internalType": "address",
          "name": "sender",
          "type": "address"
        },
        {
          "indexed": false,
          "internalType": "string",
          "name": "title",
          "type": "string"
        },
        {
          "indexed": false,
          "internalType": "uint256",
          "name": "amount",
          "type": "uint256"
        }
      ],
      "name": "DonationSent",
      "type": "event"
    },
    {
      "anonymous": false,
      "inputs": [
        {
          "indexed": true,
          "internalType": "address",
          "name": "sender",
          "type": "address"
        }
      ],
      "name": "Refunded",
      "type": "event"
    },
    {
      "inputs": [
        {
          "internalType": "uint256",
          "name": "",
          "type": "uint256"
        }
      ],
      "name": "campaigns",
      "outputs": [
        {
          "internalType": "uint256",
          "name": "id",
          "type": "uint256"
        },
        {
          "internalType": "address",
          "name": "creator",
          "type": "address"
        },
        {
          "internalType": "string",
          "name": "fullname",
          "type": "string"
        },
        {
          "internalType": "string",
          "name": "title",
          "type": "string"
        },
        {
          "internalType": "string",
          "name": "story",
          "type": "string"
        },
        {
          "internalType": "string",
          "name": "imageUrl",
          "type": "string"
        },
        {
          "internalType": "uint256",
          "name": "goalAmount",
          "type": "uint256"
        },
        {
          "internalType": "uint256",
          "name": "currentAmount",
          "type": "uint256"
        },
        {
          "internalType": "uint256",
          "name": "deadline",
          "type": "uint256"
        },
        {
          "internalType": "uint256",
          "name": "totalDonations",
          "type": "uint256"
        },
        {
          "internalType": "bool",
          "name": "fundsReturned",
          "type": "bool"
        },
        {
          "internalType": "bool",
          "name": "fundsCredited",
          "type": "bool"
        }
      ],
      "stateMutability": "view",
      "type": "function"
    },
    {
      "inputs": [
        {
          "internalType": "uint256",
          "name": "_campaignId",
          "type": "uint256"
        }
      ],
      "name": "checkGoalAndSendFunds",
      "outputs": [],
      "stateMutability": "nonpayable",
      "type": "function"
    },
    {
      "inputs": [
        {
          "internalType": "string",
          "name": "_fullname",
          "type": "string"
        },
        {
          "internalType": "string",
          "name": "_title",
          "type": "string"
        },
        {
          "internalType": "string",
          "name": "_story",
          "type": "string"
        },
        {
          "internalType": "string",
          "name": "_imageUrl",
          "type": "string"
        },
        {
          "internalType": "uint256",
          "name": "_goalAmount",
          "type": "uint256"
        },
        {
          "internalType": "uint256",
          "name": "_deadline",
          "type": "uint256"
        }
      ],
      "name": "createCampaign",
      "outputs": [],
      "stateMutability": "nonpayable",
      "type": "function"
    },
    {
      "inputs": [
        {
          "internalType": "uint256",
          "name": "",
          "type": "uint256"
        }
      ],
      "name": "donationTransactions",
      "outputs": [
        {
          "internalType": "uint256",
          "name": "id",
          "type": "uint256"
        },
        {
          "internalType": "uint256",
          "name": "campaignId",
          "type": "uint256"
        },
        {
          "internalType": "address",
          "name": "donor",
          "type": "address"
        },
        {
          "internalType": "uint256",
          "name": "amount",
          "type": "uint256"
        },
        {
          "internalType": "uint256",
          "name": "timestamp",
          "type": "uint256"
        }
      ],
      "stateMutability": "view",
      "type": "function"
    },
    {
      "inputs": [
        {
          "internalType": "uint256",
          "name": "_campaignId",
          "type": "uint256"
        },
        {
          "internalType": "string",
          "name": "_fullname",
          "type": "string"
        },
        {
          "internalType": "string",
          "name": "_title",
          "type": "string"
        },
        {
          "internalType": "string",
          "name": "_story",
          "type": "string"
        },
        {
          "internalType": "string",
          "name": "_imageUrl",
          "type": "string"
        },
        {
          "internalType": "uint256",
          "name": "_goalAmount",
          "type": "uint256"
        },
        {
          "internalType": "uint256",
          "name": "_deadline",
          "type": "uint256"
        }
      ],
      "name": "editCampaign",
      "outputs": [],
      "stateMutability": "nonpayable",
      "type": "function"
    },
    {
      "inputs": [
        {
          "internalType": "uint256",
          "name": "_size",
          "type": "uint256"
        },
        {
          "internalType": "uint256",
          "name": "_startIndex",
          "type": "uint256"
        }
      ],
      "name": "getAllCampaigns",
      "outputs": [
        {
          "components": [
            {
              "internalType": "uint256",
              "name": "id",
              "type": "uint256"
            },
            {
              "internalType": "address",
              "name": "creator",
              "type": "address"
            },
            {
              "internalType": "string",
              "name": "fullname",
              "type": "string"
            },
            {
              "internalType": "string",
              "name": "title",
              "type": "string"
            },
            {
              "internalType": "string",
              "name": "story",
              "type": "string"
            },
            {
              "internalType": "string",
              "name": "imageUrl",
              "type": "string"
            },
            {
              "internalType": "uint256",
              "name": "goalAmount",
              "type": "uint256"
            },
            {
              "internalType": "uint256",
              "name": "currentAmount",
              "type": "uint256"
            },
            {
              "internalType": "uint256",
              "name": "deadline",
              "type": "uint256"
            },
            {
              "internalType": "uint256",
              "name": "totalDonations",
              "type": "uint256"
            },
            {
              "internalType": "bool",
              "name": "fundsReturned",
              "type": "bool"
            },
            {
              "internalType": "bool",
              "name": "fundsCredited",
              "type": "bool"
            }
          ],
          "internalType": "struct CrowdFunding.Campaign[]",
          "name": "allCampaigns",
          "type": "tuple[]"
        },
        {
          "components": [
            {
              "internalType": "bool",
              "name": "isLastPage",
              "type": "bool"
            },
            {
              "internalType": "uint256",
              "name": "nextIndex",
              "type": "uint256"
            }
          ],
          "internalType": "struct CrowdFunding.ResultIndexData",
          "name": "indexData",
          "type": "tuple"
        }
      ],
      "stateMutability": "view",
      "type": "function"
    },
    {
      "inputs": [
        {
          "internalType": "uint256",
          "name": "_campaignId",
          "type": "uint256"
        }
      ],
      "name": "getCampaign",
      "outputs": [
        {
          "components": [
            {
              "internalType": "uint256",
              "name": "id",
              "type": "uint256"
            },
            {
              "internalType": "address",
              "name": "creator",
              "type": "address"
            },
            {
              "internalType": "string",
              "name": "fullname",
              "type": "string"
            },
            {
              "internalType": "string",
              "name": "title",
              "type": "string"
            },
            {
              "internalType": "string",
              "name": "story",
              "type": "string"
            },
            {
              "internalType": "string",
              "name": "imageUrl",
              "type": "string"
            },
            {
              "internalType": "uint256",
              "name": "goalAmount",
              "type": "uint256"
            },
            {
              "internalType": "uint256",
              "name": "currentAmount",
              "type": "uint256"
            },
            {
              "internalType": "uint256",
              "name": "deadline",
              "type": "uint256"
            },
            {
              "internalType": "uint256",
              "name": "totalDonations",
              "type": "uint256"
            },
            {
              "internalType": "bool",
              "name": "fundsReturned",
              "type": "bool"
            },
            {
              "internalType": "bool",
              "name": "fundsCredited",
              "type": "bool"
            }
          ],
          "internalType": "struct CrowdFunding.Campaign",
          "name": "",
          "type": "tuple"
        }
      ],
      "stateMutability": "view",
      "type": "function"
    },
    {
      "inputs": [
        {
          "internalType": "uint256",
          "name": "_campaignId",
          "type": "uint256"
        }
      ],
      "name": "getCampaignDonations",
      "outputs": [
        {
          "components": [
            {
              "internalType": "uint256",
              "name": "id",
              "type": "uint256"
            },
            {
              "internalType": "uint256",
              "name": "campaignId",
              "type": "uint256"
            },
            {
              "internalType": "address",
              "name": "donor",
              "type": "address"
            },
            {
              "internalType": "uint256",
              "name": "amount",
              "type": "uint256"
            },
            {
              "internalType": "uint256",
              "name": "timestamp",
              "type": "uint256"
            }
          ],
          "internalType": "struct CrowdFunding.DonationTransaction[]",
          "name": "allDonations",
          "type": "tuple[]"
        },
        {
          "internalType": "uint256",
          "name": "totalCampaignDonations",
          "type": "uint256"
        }
      ],
      "stateMutability": "view",
      "type": "function"
    },
    {
      "inputs": [
        {
          "internalType": "address",
          "name": "_walletAddress",
          "type": "address"
        },
        {
          "internalType": "uint256",
          "name": "_pageSize",
          "type": "uint256"
        },
        {
          "internalType": "uint256",
          "name": "_pageNumber",
          "type": "uint256"
        }
      ],
      "name": "getDonatorsByWalletAddress",
      "outputs": [
        {
          "components": [
            {
              "internalType": "uint256",
              "name": "id",
              "type": "uint256"
            },
            {
              "internalType": "address",
              "name": "userAddress",
              "type": "address"
            },
            {
              "internalType": "string",
              "name": "campaignTitle",
              "type": "string"
            },
            {
              "internalType": "uint256",
              "name": "donationAmount",
              "type": "uint256"
            },
            {
              "internalType": "string",
              "name": "status",
              "type": "string"
            },
            {
              "internalType": "bool",
              "name": "fundsReturned",
              "type": "bool"
            }
          ],
          "internalType": "struct CrowdFunding.DonationData[]",
          "name": "donations",
          "type": "tuple[]"
        },
        {
          "internalType": "uint256",
          "name": "donatorCount",
          "type": "uint256"
        },
        {
          "internalType": "uint256",
          "name": "totalPages",
          "type": "uint256"
        },
        {
          "internalType": "uint256",
          "name": "nextPage",
          "type": "uint256"
        },
        {
          "internalType": "uint256",
          "name": "previousPage",
          "type": "uint256"
        }
      ],
      "stateMutability": "view",
      "type": "function"
    },
    {
      "inputs": [
        {
          "internalType": "uint256",
          "name": "_size",
          "type": "uint256"
        }
      ],
      "name": "getRecentCampaigns",
      "outputs": [
        {
          "components": [
            {
              "internalType": "uint256",
              "name": "id",
              "type": "uint256"
            },
            {
              "internalType": "address",
              "name": "creator",
              "type": "address"
            },
            {
              "internalType": "string",
              "name": "fullname",
              "type": "string"
            },
            {
              "internalType": "string",
              "name": "title",
              "type": "string"
            },
            {
              "internalType": "string",
              "name": "story",
              "type": "string"
            },
            {
              "internalType": "string",
              "name": "imageUrl",
              "type": "string"
            },
            {
              "internalType": "uint256",
              "name": "goalAmount",
              "type": "uint256"
            },
            {
              "internalType": "uint256",
              "name": "currentAmount",
              "type": "uint256"
            },
            {
              "internalType": "uint256",
              "name": "deadline",
              "type": "uint256"
            },
            {
              "internalType": "uint256",
              "name": "totalDonations",
              "type": "uint256"
            },
            {
              "internalType": "bool",
              "name": "fundsReturned",
              "type": "bool"
            },
            {
              "internalType": "bool",
              "name": "fundsCredited",
              "type": "bool"
            }
          ],
          "internalType": "struct CrowdFunding.Campaign[]",
          "name": "recentCampaigns",
          "type": "tuple[]"
        },
        {
          "internalType": "uint256",
          "name": "totalFetchedCampaigns",
          "type": "uint256"
        },
        {
          "internalType": "uint256",
          "name": "totalAllCampaigns",
          "type": "uint256"
        }
      ],
      "stateMutability": "view",
      "type": "function"
    },
    {
      "inputs": [
        {
          "internalType": "uint256",
          "name": "_pageSize",
          "type": "uint256"
        },
        {
          "internalType": "uint256",
          "name": "_pageNumber",
          "type": "uint256"
        }
      ],
      "name": "getUserCampaigns",
      "outputs": [
        {
          "components": [
            {
              "internalType": "uint256",
              "name": "id",
              "type": "uint256"
            },
            {
              "internalType": "address",
              "name": "creator",
              "type": "address"
            },
            {
              "internalType": "string",
              "name": "fullname",
              "type": "string"
            },
            {
              "internalType": "string",
              "name": "title",
              "type": "string"
            },
            {
              "internalType": "string",
              "name": "story",
              "type": "string"
            },
            {
              "internalType": "string",
              "name": "imageUrl",
              "type": "string"
            },
            {
              "internalType": "uint256",
              "name": "goalAmount",
              "type": "uint256"
            },
            {
              "internalType": "uint256",
              "name": "currentAmount",
              "type": "uint256"
            },
            {
              "internalType": "uint256",
              "name": "deadline",
              "type": "uint256"
            },
            {
              "internalType": "uint256",
              "name": "totalDonations",
              "type": "uint256"
            },
            {
              "internalType": "bool",
              "name": "fundsReturned",
              "type": "bool"
            },
            {
              "internalType": "bool",
              "name": "fundsCredited",
              "type": "bool"
            }
          ],
          "internalType": "struct CrowdFunding.Campaign[]",
          "name": "allCampaigns",
          "type": "tuple[]"
        },
        {
          "internalType": "uint256",
          "name": "userTotalCampaigns",
          "type": "uint256"
        },
        {
          "internalType": "uint256",
          "name": "totalPages",
          "type": "uint256"
        },
        {
          "internalType": "uint256",
          "name": "nextPage",
          "type": "uint256"
        },
        {
          "internalType": "uint256",
          "name": "previousPage",
          "type": "uint256"
        }
      ],
      "stateMutability": "view",
      "type": "function"
    },
    {
      "inputs": [
        {
          "internalType": "address",
          "name": "_userAddress",
          "type": "address"
        },
        {
          "internalType": "uint256",
          "name": "_pageSize",
          "type": "uint256"
        },
        {
          "internalType": "uint256",
          "name": "_pageNumber",
          "type": "uint256"
        }
      ],
      "name": "getUserDonations",
      "outputs": [
        {
          "components": [
            {
              "internalType": "uint256",
              "name": "id",
              "type": "uint256"
            },
            {
              "internalType": "address",
              "name": "userAddress",
              "type": "address"
            },
            {
              "internalType": "string",
              "name": "campaignTitle",
              "type": "string"
            },
            {
              "internalType": "uint256",
              "name": "donationAmount",
              "type": "uint256"
            },
            {
              "internalType": "string",
              "name": "status",
              "type": "string"
            },
            {
              "internalType": "bool",
              "name": "fundsReturned",
              "type": "bool"
            }
          ],
          "internalType": "struct CrowdFunding.DonationData[]",
          "name": "userDonations",
          "type": "tuple[]"
        },
        {
          "components": [
            {
              "internalType": "uint256",
              "name": "totalPages",
              "type": "uint256"
            },
            {
              "internalType": "uint256",
              "name": "nextPage",
              "type": "uint256"
            },
            {
              "internalType": "uint256",
              "name": "previousPage",
              "type": "uint256"
            },
            {
              "internalType": "uint256",
              "name": "startIndex",
              "type": "uint256"
            },
            {
              "internalType": "uint256",
              "name": "endIndex",
              "type": "uint256"
            }
          ],
          "internalType": "struct CrowdFunding.PaginationData",
          "name": "pagination",
          "type": "tuple"
        }
      ],
      "stateMutability": "view",
      "type": "function"
    },
    {
      "inputs": [],
      "name": "owner",
      "outputs": [
        {
          "internalType": "address payable",
          "name": "",
          "type": "address"
        }
      ],
      "stateMutability": "view",
      "type": "function"
    },
    {
      "inputs": [
        {
          "internalType": "uint256",
          "name": "_campaignId",
          "type": "uint256"
        }
      ],
      "name": "returnDonationsIfExpired",
      "outputs": [],
      "stateMutability": "nonpayable",
      "type": "function"
    },
    {
      "inputs": [
        {
          "internalType": "string",
          "name": "searchTerm",
          "type": "string"
        },
        {
          "internalType": "uint256",
          "name": "pageSize",
          "type": "uint256"
        },
        {
          "internalType": "uint256",
          "name": "startIndex",
          "type": "uint256"
        }
      ],
      "name": "searchByTitle",
      "outputs": [
        {
          "components": [
            {
              "internalType": "uint256",
              "name": "id",
              "type": "uint256"
            },
            {
              "internalType": "address",
              "name": "creator",
              "type": "address"
            },
            {
              "internalType": "string",
              "name": "fullname",
              "type": "string"
            },
            {
              "internalType": "string",
              "name": "title",
              "type": "string"
            },
            {
              "internalType": "string",
              "name": "story",
              "type": "string"
            },
            {
              "internalType": "string",
              "name": "imageUrl",
              "type": "string"
            },
            {
              "internalType": "uint256",
              "name": "goalAmount",
              "type": "uint256"
            },
            {
              "internalType": "uint256",
              "name": "currentAmount",
              "type": "uint256"
            },
            {
              "internalType": "uint256",
              "name": "deadline",
              "type": "uint256"
            },
            {
              "internalType": "uint256",
              "name": "totalDonations",
              "type": "uint256"
            },
            {
              "internalType": "bool",
              "name": "fundsReturned",
              "type": "bool"
            },
            {
              "internalType": "bool",
              "name": "fundsCredited",
              "type": "bool"
            }
          ],
          "internalType": "struct CrowdFunding.Campaign[]",
          "name": "matchingCampaigns",
          "type": "tuple[]"
        },
        {
          "components": [
            {
              "internalType": "bool",
              "name": "isLastPage",
              "type": "bool"
            },
            {
              "internalType": "uint256",
              "name": "nextIndex",
              "type": "uint256"
            }
          ],
          "internalType": "struct CrowdFunding.ResultIndexData",
          "name": "searchIndexData",
          "type": "tuple"
        }
      ],
      "stateMutability": "view",
      "type": "function"
    },
    {
      "inputs": [
        {
          "internalType": "uint256",
          "name": "_campaignId",
          "type": "uint256"
        }
      ],
      "name": "sendDonation",
      "outputs": [],
      "stateMutability": "payable",
      "type": "function"
    },
    {
      "inputs": [],
      "name": "totalCampaigns",
      "outputs": [
        {
          "internalType": "uint256",
          "name": "",
          "type": "uint256"
        }
      ],
      "stateMutability": "view",
      "type": "function"
    },
    {
      "inputs": [],
      "name": "totalDonations",
      "outputs": [
        {
          "internalType": "uint256",
          "name": "",
          "type": "uint256"
        }
      ],
      "stateMutability": "view",
      "type": "function"
    },
    {
      "inputs": [
        {
          "internalType": "address",
          "name": "",
          "type": "address"
        }
      ],
      "name": "users",
      "outputs": [
        {
          "internalType": "uint256",
          "name": "totalCampaigns",
          "type": "uint256"
        },
        {
          "internalType": "uint256",
          "name": "totalDonations",
          "type": "uint256"
        }
      ],
      "stateMutability": "view",
      "type": "function"
    }
  ],
  "bytecode": "0x6080604052336000806101000a81548173ffffffffffffffffffffffffffffffffffffffff021916908373ffffffffffffffffffffffffffffffffffffffff1602179055506000600481905550615ff78061005b6000396000f3fe6080604052600436106101145760003560e01c80635598f8cc116100a05780639da6ef74116100645780639da6ef741461041b578063a87430ba14610444578063a8aee94014610482578063b0445d60146104ab578063de2ed893146104ec57610114565b80635598f8cc14610317578063665588c91461035457806371b7baae146103705780638acd0bfc146103af5780638da5cb5b146103f057610114565b8063253343e7116100e7578063253343e7146101de5780632e5293f31461021c5780633e3b66751461025a57806345d0b60a1461029b5780635167642f146102d957610114565b806302932f56146101195780631225ce2514610144578063141961bc1461016d578063247a012c146101b5575b600080fd5b34801561012557600080fd5b5061012e610517565b60405161013b91906143c9565b60405180910390f35b34801561015057600080fd5b5061016b6004803603810190610166919061456a565b61051d565b005b34801561017957600080fd5b50610194600480360381019061018f919061467c565b61082b565b6040516101ac9c9b9a99989796959493929190614784565b60405180910390f35b3480156101c157600080fd5b506101dc60048036038101906101d7919061467c565b610ae5565b005b3480156101ea57600080fd5b506102056004803603810190610200919061485a565b610bf6565b604051610213929190614b1b565b60405180910390f35b34801561022857600080fd5b50610243600480360381019061023e9190614b4b565b611209565b604051610251929190614b1b565b60405180910390f35b34801561026657600080fd5b50610281600480360381019061027c919061485a565b61188f565b604051610292959493929190614bba565b60405180910390f35b3480156102a757600080fd5b506102c260048036038101906102bd9190614c40565b611df6565b6040516102d0929190614e4d565b60405180910390f35b3480156102e557600080fd5b5061030060048036038101906102fb919061467c565b61244e565b60405161030e929190614f94565b60405180910390f35b34801561032357600080fd5b5061033e6004803603810190610339919061467c565b6128eb565b60405161034b91906150dd565b60405180910390f35b61036e6004803603810190610369919061467c565b612c1f565b005b34801561037c57600080fd5b506103976004803603810190610392919061467c565b612f45565b6040516103a6939291906150ff565b60405180910390f35b3480156103bb57600080fd5b506103d660048036038101906103d1919061467c565b61345b565b6040516103e795949392919061513d565b60405180910390f35b3480156103fc57600080fd5b506104056134b1565b60405161041291906151b1565b60405180910390f35b34801561042757600080fd5b50610442600480360381019061043d919061467c565b6134d5565b005b34801561045057600080fd5b5061046b600480360381019061046691906151cc565b6135d3565b6040516104799291906151f9565b60405180910390f35b34801561048e57600080fd5b506104a960048036038101906104a49190615222565b6135f7565b005b3480156104b757600080fd5b506104d260048036038101906104cd9190614c40565b613a69565b6040516104e395949392919061531f565b60405180910390f35b3480156104f857600080fd5b50610501613e47565b60405161050e91906143c9565b60405180910390f35b60045481565b85858585858560008211610566576040517f08c379a000000000000000000000000000000000000000000000000000000000815260040161055d906153eb565b60405180910390fd5b60008651116105aa576040517f08c379a00000000000000000000000000000000000000000000000000000000081526004016105a190615457565b60405180910390fd5b60008551116105ee576040517f08c379a00000000000000000000000000000000000000000000000000000000081526004016105e5906154c3565b60405180910390fd5b6000845111610632576040517f08c379a00000000000000000000000000000000000000000000000000000000081526004016106299061552f565b60405180910390fd5b6000835111610676576040517f08c379a000000000000000000000000000000000000000000000000000000000815260040161066d906155c1565b60405180910390fd5b6000600260008f8152602001908152602001600020905060008e1015801561069f57506004548e105b6106de576040517f08c379a00000000000000000000000000000000000000000000000000000000081526004016106d59061562d565b60405180910390fd5b3373ffffffffffffffffffffffffffffffffffffffff168160010160009054906101000a900473ffffffffffffffffffffffffffffffffffffffff1673ffffffffffffffffffffffffffffffffffffffff1614610770576040517f08c379a0000000000000000000000000000000000000000000000000000000008152600401610767906156bf565b60405180910390fd5b8c81600201908161078191906158eb565b508b81600301908161079391906158eb565b508a8160040190816107a591906158eb565b50898160050190816107b791906158eb565b508881600601819055508781600801819055503373ffffffffffffffffffffffffffffffffffffffff167fb961c338b427968a67f1a3560907d7075a0d1fca0c2d16dcb76da3a963cfe373826003016040516108139190615a41565b60405180910390a25050505050505050505050505050565b60026020528060005260406000206000915090508060000154908060010160009054906101000a900473ffffffffffffffffffffffffffffffffffffffff169080600201805461087a9061570e565b80601f01602080910402602001604051908101604052809291908181526020018280546108a69061570e565b80156108f35780601f106108c8576101008083540402835291602001916108f3565b820191906000526020600020905b8154815290600101906020018083116108d657829003601f168201915b5050505050908060030180546109089061570e565b80601f01602080910402602001604051908101604052809291908181526020018280546109349061570e565b80156109815780601f1061095657610100808354040283529160200191610981565b820191906000526020600020905b81548152906001019060200180831161096457829003601f168201915b5050505050908060040180546109969061570e565b80601f01602080910402602001604051908101604052809291908181526020018280546109c29061570e565b8015610a0f5780601f106109e457610100808354040283529160200191610a0f565b820191906000526020600020905b8154815290600101906020018083116109f257829003601f168201915b505050505090806005018054610a249061570e565b80601f0160208091040260200160405190810160405280929190818152602001828054610a509061570e565b8015610a9d5780601f10610a7257610100808354040283529160200191610a9d565b820191906000526020600020905b815481529060010190602001808311610a8057829003601f168201915b50505050509080600601549080600701549080600801549080600901549080600a0160009054906101000a900460ff169080600a0160019054906101000a900460ff1690508c565b600060026000838152602001908152602001600020905060005b600554811015610bd457600060036000838152602001908152602001600020905083816001015403610bc05760008160020160009054906101000a900473ffffffffffffffffffffffffffffffffffffffff1690508073ffffffffffffffffffffffffffffffffffffffff166108fc83600301549081150290604051600060405180830381858888f19350505050158015610b9e573d6000803e3d6000fd5b508160030154846007016000828254610bb79190615a92565b92505081905550505b508080610bcc90615ac6565b915050610aff565b50600181600a0160006101000a81548160ff0219169083151502179055505050565b6060610c00614257565b60008411610c43576040517f08c379a0000000000000000000000000000000000000000000000000000000008152600401610c3a90615b5a565b60405180910390fd5b600454831115610c88576040517f08c379a0000000000000000000000000000000000000000000000000000000008152600401610c7f90615bc6565b60405180910390fd5b60008314610ca75782841015610c9f576000610ca2565b60015b610cbc565b600454841015610cb8576000610cbb565b60015b5b81600001901515908115158152505060008314610ce85782841015610ce15783610ce3565b825b610cfc565b6004548411610cf75783610cfb565b6004545b5b935060008314610d17578383610d129190615a92565b610d26565b83600454610d259190615a92565b5b81602001818152505060008467ffffffffffffffff811115610d4b57610d4a61443f565b5b604051908082528060200260200182016040528015610d8457816020015b610d71614273565b815260200190600190039081610d695790505b5090506000808360200151905060008190505b8782610da39190615be6565b81101561115057600060026000838152602001908152602001600020905080600801544211158015610ddc575080600601548160070154105b8015610df7575080600a0160019054906101000a900460ff16155b1561113c578060405180610180016040529081600082015481526020016001820160009054906101000a900473ffffffffffffffffffffffffffffffffffffffff1673ffffffffffffffffffffffffffffffffffffffff1673ffffffffffffffffffffffffffffffffffffffff168152602001600282018054610e799061570e565b80601f0160208091040260200160405190810160405280929190818152602001828054610ea59061570e565b8015610ef25780601f10610ec757610100808354040283529160200191610ef2565b820191906000526020600020905b815481529060010190602001808311610ed557829003601f168201915b50505050508152602001600382018054610f0b9061570e565b80601f0160208091040260200160405190810160405280929190818152602001828054610f379061570e565b8015610f845780601f10610f5957610100808354040283529160200191610f84565b820191906000526020600020905b815481529060010190602001808311610f6757829003601f168201915b50505050508152602001600482018054610f9d9061570e565b80601f0160208091040260200160405190810160405280929190818152602001828054610fc99061570e565b80156110165780601f10610feb57610100808354040283529160200191611016565b820191906000526020600020905b815481529060010190602001808311610ff957829003601f168201915b5050505050815260200160058201805461102f9061570e565b80601f016020809104026020016040519081016040528092919081815260200182805461105b9061570e565b80156110a85780601f1061107d576101008083540402835291602001916110a8565b820191906000526020600020905b81548152906001019060200180831161108b57829003601f168201915b5050505050815260200160068201548152602001600782015481526020016008820154815260200160098201548152602001600a820160009054906101000a900460ff16151515158152602001600a820160019054906101000a900460ff16151515158152505085858151811061112257611121615c1a565b5b6020026020010181905250838061113890615ac6565b9450505b50808061114890615ac6565b915050610d97565b508167ffffffffffffffff81111561116b5761116a61443f565b5b6040519080825280602002602001820160405280156111a457816020015b611191614273565b8152602001906001900390816111895790505b50945060005b828110156111fe578381815181106111c5576111c4615c1a565b5b60200260200101518682815181106111e0576111df615c1a565b5b602002602001018190525080806111f690615ac6565b9150506111aa565b505050509250929050565b6060611213614257565b60008411611256576040517f08c379a000000000000000000000000000000000000000000000000000000000815260040161124d90615c95565b60405180910390fd5b6000806004540361127e57600182600001901515908115158152505060008260200181815250505b6000600454036112a557600182600001901515908115158152505060008260200181815250505b60008490505b600454811080156112bb57508582105b156113ef5761137861136a6002600084815260200190815260200160002060030180546112e79061570e565b80601f01602080910402602001604051908101604052809291908181526020018280546113139061570e565b80156113605780601f1061133557610100808354040283529160200191611360565b820191906000526020600020905b81548152906001019060200180831161134357829003601f168201915b5050505050613e4d565b61137389613e4d565b613f38565b1561138c57818061138890615ac6565b9250505b8582036113aa576001816113a09190615be6565b8360200181815250505b6004546001826113ba9190615be6565b036113dc57600183600001901515908115158152505060008360200181815250505b80806113e790615ac6565b9150506112ab565b508067ffffffffffffffff81111561140a5761140961443f565b5b60405190808252806020026020018201604052801561144357816020015b611430614273565b8152602001906001900390816114285790505b5092506000808590505b6004548110801561145d57508282105b156118845761151a61150c6002600084815260200190815260200160002060030180546114899061570e565b80601f01602080910402602001604051908101604052809291908181526020018280546114b59061570e565b80156115025780601f106114d757610100808354040283529160200191611502565b820191906000526020600020905b8154815290600101906020018083116114e557829003601f168201915b5050505050613e4d565b6115158a613e4d565b613f38565b15611871576002600082815260200190815260200160002060405180610180016040529081600082015481526020016001820160009054906101000a900473ffffffffffffffffffffffffffffffffffffffff1673ffffffffffffffffffffffffffffffffffffffff1673ffffffffffffffffffffffffffffffffffffffff1681526020016002820180546115ae9061570e565b80601f01602080910402602001604051908101604052809291908181526020018280546115da9061570e565b80156116275780601f106115fc57610100808354040283529160200191611627565b820191906000526020600020905b81548152906001019060200180831161160a57829003601f168201915b505050505081526020016003820180546116409061570e565b80601f016020809104026020016040519081016040528092919081815260200182805461166c9061570e565b80156116b95780601f1061168e576101008083540402835291602001916116b9565b820191906000526020600020905b81548152906001019060200180831161169c57829003601f168201915b505050505081526020016004820180546116d29061570e565b80601f01602080910402602001604051908101604052809291908181526020018280546116fe9061570e565b801561174b5780601f106117205761010080835404028352916020019161174b565b820191906000526020600020905b81548152906001019060200180831161172e57829003601f168201915b505050505081526020016005820180546117649061570e565b80601f01602080910402602001604051908101604052809291908181526020018280546117909061570e565b80156117dd5780601f106117b2576101008083540402835291602001916117dd565b820191906000526020600020905b8154815290600101906020018083116117c057829003601f168201915b5050505050815260200160068201548152602001600782015481526020016008820154815260200160098201548152602001600a820160009054906101000a900460ff16151515158152602001600a820160019054906101000a900460ff16151515158152505085838151811061185757611856615c1a565b5b6020026020010181905250818061186d90615ac6565b9250505b808061187c90615ac6565b91505061144d565b505050935093915050565b60606000806000806000600160003373ffffffffffffffffffffffffffffffffffffffff1673ffffffffffffffffffffffffffffffffffffffff168152602001908152602001600020905060008160000154905060008960018b846118f49190615be6565b6118fe9190615a92565b6119089190615ce4565b90506000821115611963576000891180156119235750808911155b611962576040517f08c379a000000000000000000000000000000000000000000000000000000000815260040161195990615d61565b60405180910390fd5b5b60008a60018b6119739190615a92565b61197d9190615d81565b836119889190615a92565b905060008b821161199a5760006119a7565b8b826119a69190615a92565b5b9050600081836119b79190615a92565b90508067ffffffffffffffff8111156119d3576119d261443f565b5b604051908082528060200260200182016040528015611a0c57816020015b6119f9614273565b8152602001906001900390816119f15790505b509a5060005b81811015611da2576000600260008960020160006001868a611a349190615a92565b611a3e9190615a92565b815260200190815260200160002054815260200190815260200160002060405180610180016040529081600082015481526020016001820160009054906101000a900473ffffffffffffffffffffffffffffffffffffffff1673ffffffffffffffffffffffffffffffffffffffff1673ffffffffffffffffffffffffffffffffffffffff168152602001600282018054611ad79061570e565b80601f0160208091040260200160405190810160405280929190818152602001828054611b039061570e565b8015611b505780601f10611b2557610100808354040283529160200191611b50565b820191906000526020600020905b815481529060010190602001808311611b3357829003601f168201915b50505050508152602001600382018054611b699061570e565b80601f0160208091040260200160405190810160405280929190818152602001828054611b959061570e565b8015611be25780601f10611bb757610100808354040283529160200191611be2565b820191906000526020600020905b815481529060010190602001808311611bc557829003601f168201915b50505050508152602001600482018054611bfb9061570e565b80601f0160208091040260200160405190810160405280929190818152602001828054611c279061570e565b8015611c745780601f10611c4957610100808354040283529160200191611c74565b820191906000526020600020905b815481529060010190602001808311611c5757829003601f168201915b50505050508152602001600582018054611c8d9061570e565b80601f0160208091040260200160405190810160405280929190818152602001828054611cb99061570e565b8015611d065780601f10611cdb57610100808354040283529160200191611d06565b820191906000526020600020905b815481529060010190602001808311611ce957829003601f168201915b5050505050815260200160068201548152602001600782015481526020016008820154815260200160098201548152602001600a820160009054906101000a900460ff16151515158152602001600a820160019054906101000a900460ff1615151515815250509050808d8381518110611d8357611d82615c1a565b5b6020026020010181905250508080611d9a90615ac6565b915050611a12565b50849950839850838c10611db7576000611dc5565b60018c611dc49190615be6565b5b975060018c11611dd6576000611de4565b60018c611de39190615a92565b5b96505050505050509295509295909350565b6060611e006142ee565b600080600160008873ffffffffffffffffffffffffffffffffffffffff1673ffffffffffffffffffffffffffffffffffffffff1681526020019081526020016000209050611e5381600101548787614063565b925082606001518360800151611e699190615a92565b67ffffffffffffffff811115611e8257611e8161443f565b5b604051908082528060200260200182016040528015611ebb57816020015b611ea861431d565b815260200190600190039081611ea05790505b5093506000836060015190505b8360800151811015612443576000600360008460030160008581526020019081526020016000205481526020019081526020016000206040518060a001604052908160008201548152602001600182015481526020016002820160009054906101000a900473ffffffffffffffffffffffffffffffffffffffff1673ffffffffffffffffffffffffffffffffffffffff1673ffffffffffffffffffffffffffffffffffffffff1681526020016003820154815260200160048201548152505090506000600260008360200151815260200190815260200160002060405180610180016040529081600082015481526020016001820160009054906101000a900473ffffffffffffffffffffffffffffffffffffffff1673ffffffffffffffffffffffffffffffffffffffff1673ffffffffffffffffffffffffffffffffffffffff16815260200160028201805461201e9061570e565b80601f016020809104026020016040519081016040528092919081815260200182805461204a9061570e565b80156120975780601f1061206c57610100808354040283529160200191612097565b820191906000526020600020905b81548152906001019060200180831161207a57829003601f168201915b505050505081526020016003820180546120b09061570e565b80601f01602080910402602001604051908101604052809291908181526020018280546120dc9061570e565b80156121295780601f106120fe57610100808354040283529160200191612129565b820191906000526020600020905b81548152906001019060200180831161210c57829003601f168201915b505050505081526020016004820180546121429061570e565b80601f016020809104026020016040519081016040528092919081815260200182805461216e9061570e565b80156121bb5780601f10612190576101008083540402835291602001916121bb565b820191906000526020600020905b81548152906001019060200180831161219e57829003601f168201915b505050505081526020016005820180546121d49061570e565b80601f01602080910402602001604051908101604052809291908181526020018280546122009061570e565b801561224d5780601f106122225761010080835404028352916020019161224d565b820191906000526020600020905b81548152906001019060200180831161223057829003601f168201915b5050505050815260200160068201548152602001600782015481526020016008820154815260200160098201548152602001600a820160009054906101000a900460ff16151515158152602001600a820160019054906101000a900460ff161515151581525050905060008160c001518260e0015110159050600082610100015142101580156122e05750826101400151155b905060006040518060400160405280600781526020017f70656e64696e67000000000000000000000000000000000000000000000000008152509050821561235f576040518060400160405280600881526020017f6163686965766564000000000000000000000000000000000000000000000000815250905061239f565b811561239e576040518060400160405280600781526020017f657870697265640000000000000000000000000000000000000000000000000081525090505b5b60006040518060c0016040528086600001518152602001866020015173ffffffffffffffffffffffffffffffffffffffff168152602001866060015181526020018760600151815260200183815260200186610140015115158152509050808b8a8151811061241157612410615c1a565b5b6020026020010181905250888061242790615ac6565b995050505050505050808061243b90615ac6565b915050611ec8565b505050935093915050565b60606000806002600085815260200190815260200160002060405180610180016040529081600082015481526020016001820160009054906101000a900473ffffffffffffffffffffffffffffffffffffffff1673ffffffffffffffffffffffffffffffffffffffff1673ffffffffffffffffffffffffffffffffffffffff1681526020016002820180546124e29061570e565b80601f016020809104026020016040519081016040528092919081815260200182805461250e9061570e565b801561255b5780601f106125305761010080835404028352916020019161255b565b820191906000526020600020905b81548152906001019060200180831161253e57829003601f168201915b505050505081526020016003820180546125749061570e565b80601f01602080910402602001604051908101604052809291908181526020018280546125a09061570e565b80156125ed5780601f106125c2576101008083540402835291602001916125ed565b820191906000526020600020905b8154815290600101906020018083116125d057829003601f168201915b505050505081526020016004820180546126069061570e565b80601f01602080910402602001604051908101604052809291908181526020018280546126329061570e565b801561267f5780601f106126545761010080835404028352916020019161267f565b820191906000526020600020905b81548152906001019060200180831161266257829003601f168201915b505050505081526020016005820180546126989061570e565b80601f01602080910402602001604051908101604052809291908181526020018280546126c49061570e565b80156127115780601f106126e657610100808354040283529160200191612711565b820191906000526020600020905b8154815290600101906020018083116126f457829003601f168201915b5050505050815260200160068201548152602001600782015481526020016008820154815260200160098201548152602001600a820160009054906101000a900460ff16151515158152602001600a820160019054906101000a900460ff161515151581525050905080610120015191508167ffffffffffffffff81111561279c5761279b61443f565b5b6040519080825280602002602001820160405280156127d557816020015b6127c261436b565b8152602001906001900390816127ba5790505b5092506000805b6005548110156128e35782600001516003600083815260200190815260200160002060010154036128d057600360008281526020019081526020016000206040518060a001604052908160008201548152602001600182015481526020016002820160009054906101000a900473ffffffffffffffffffffffffffffffffffffffff1673ffffffffffffffffffffffffffffffffffffffff1673ffffffffffffffffffffffffffffffffffffffff168152602001600382015481526020016004820154815250508583815181106128b6576128b5615c1a565b5b602002602001018190525081806128cc90615ac6565b9250505b80806128db90615ac6565b9150506127dc565b505050915091565b6128f3614273565b6002600083815260200190815260200160002060405180610180016040529081600082015481526020016001820160009054906101000a900473ffffffffffffffffffffffffffffffffffffffff1673ffffffffffffffffffffffffffffffffffffffff1673ffffffffffffffffffffffffffffffffffffffff1681526020016002820180546129829061570e565b80601f01602080910402602001604051908101604052809291908181526020018280546129ae9061570e565b80156129fb5780601f106129d0576101008083540402835291602001916129fb565b820191906000526020600020905b8154815290600101906020018083116129de57829003601f168201915b50505050508152602001600382018054612a149061570e565b80601f0160208091040260200160405190810160405280929190818152602001828054612a409061570e565b8015612a8d5780601f10612a6257610100808354040283529160200191612a8d565b820191906000526020600020905b815481529060010190602001808311612a7057829003601f168201915b50505050508152602001600482018054612aa69061570e565b80601f0160208091040260200160405190810160405280929190818152602001828054612ad29061570e565b8015612b1f5780601f10612af457610100808354040283529160200191612b1f565b820191906000526020600020905b815481529060010190602001808311612b0257829003601f168201915b50505050508152602001600582018054612b389061570e565b80601f0160208091040260200160405190810160405280929190818152602001828054612b649061570e565b8015612bb15780601f10612b8657610100808354040283529160200191612bb1565b820191906000526020600020905b815481529060010190602001808311612b9457829003601f168201915b5050505050815260200160068201548152602001600782015481526020016008820154815260200160098201548152602001600a820160009054906101000a900460ff16151515158152602001600a820160019054906101000a900460ff1615151515815250509050919050565b60008110158015612c31575060045481105b612c70576040517f08c379a0000000000000000000000000000000000000000000000000000000008152600401612c679061562d565b60405180910390fd5b60006002600083815260200190815260200160002090508060080154421115612cce576040517f08c379a0000000000000000000000000000000000000000000000000000000008152600401612cc590615e0f565b60405180910390fd5b60003411612d11576040517f08c379a0000000000000000000000000000000000000000000000000000000008152600401612d0890615ea1565b60405180910390fd5b6000600160003373ffffffffffffffffffffffffffffffffffffffff1673ffffffffffffffffffffffffffffffffffffffff168152602001908152602001600020905060008160010154905060006040518060a001604052806005548152602001856000015481526020013373ffffffffffffffffffffffffffffffffffffffff16815260200134815260200142815250905080600360006005548152602001908152602001600020600082015181600001556020820151816001015560408201518160020160006101000a81548173ffffffffffffffffffffffffffffffffffffffff021916908373ffffffffffffffffffffffffffffffffffffffff160217905550606082015181600301556080820151816004015590505080600001518360030160008481526020019081526020016000208190555034846007016000828254612e5e9190615be6565b9250508190555060056000815480929190612e7890615ac6565b9190505550826001016000815480929190612e9290615ac6565b9190505550836009016000815480929190612eac90615ac6565b91905055508360060154846007015410158015612ed8575083600a0160019054906101000a900460ff16155b15612ee757612ee6856134d5565b5b3373ffffffffffffffffffffffffffffffffffffffff167f3b5443c59641f965c6df0836dbe11676fa8c79c3184392351bb19fd51de3d49a856003018660070154604051612f36929190615ec1565b60405180910390a25050505050565b606060008060006004548510612f5c576000612f6b565b84600454612f6a9190615a92565b5b905060006004548610612f8057600454612f82565b855b905060008167ffffffffffffffff811115612fa057612f9f61443f565b5b604051908082528060200260200182016040528015612fd957816020015b612fc6614273565b815260200190600190039081612fbe5790505b5090506000805b83811015613399576000600260008388612ffa9190615be6565b8152602001908152602001600020905080600801544211158015613025575080600601548160070154105b8015613040575080600a0160019054906101000a900460ff16155b15613385578060405180610180016040529081600082015481526020016001820160009054906101000a900473ffffffffffffffffffffffffffffffffffffffff1673ffffffffffffffffffffffffffffffffffffffff1673ffffffffffffffffffffffffffffffffffffffff1681526020016002820180546130c29061570e565b80601f01602080910402602001604051908101604052809291908181526020018280546130ee9061570e565b801561313b5780601f106131105761010080835404028352916020019161313b565b820191906000526020600020905b81548152906001019060200180831161311e57829003601f168201915b505050505081526020016003820180546131549061570e565b80601f01602080910402602001604051908101604052809291908181526020018280546131809061570e565b80156131cd5780601f106131a2576101008083540402835291602001916131cd565b820191906000526020600020905b8154815290600101906020018083116131b057829003601f168201915b505050505081526020016004820180546131e69061570e565b80601f01602080910402602001604051908101604052809291908181526020018280546132129061570e565b801561325f5780601f106132345761010080835404028352916020019161325f565b820191906000526020600020905b81548152906001019060200180831161324257829003601f168201915b505050505081526020016005820180546132789061570e565b80601f01602080910402602001604051908101604052809291908181526020018280546132a49061570e565b80156132f15780601f106132c6576101008083540402835291602001916132f1565b820191906000526020600020905b8154815290600101906020018083116132d457829003601f168201915b5050505050815260200160068201548152602001600782015481526020016008820154815260200160098201548152602001600a820160009054906101000a900460ff16151515158152602001600a820160019054906101000a900460ff16151515158152505084848151811061336b5761336a615c1a565b5b6020026020010181905250828061338190615ac6565b9350505b50808061339190615ac6565b915050612fe0565b508067ffffffffffffffff8111156133b4576133b361443f565b5b6040519080825280602002602001820160405280156133ed57816020015b6133da614273565b8152602001906001900390816133d25790505b50965060005b818110156134475782818151811061340e5761340d615c1a565b5b602002602001015188828151811061342957613428615c1a565b5b6020026020010181905250808061343f90615ac6565b9150506133f3565b508095506004549450505050509193909250565b60036020528060005260406000206000915090508060000154908060010154908060020160009054906101000a900473ffffffffffffffffffffffffffffffffffffffff16908060030154908060040154905085565b60008054906101000a900473ffffffffffffffffffffffffffffffffffffffff1681565b6000600260008381526020019081526020016000209050600082101580156134fe575060045482105b61353d576040517f08c379a00000000000000000000000000000000000000000000000000000000081526004016135349061562d565b60405180910390fd5b60008160010160009054906101000a900473ffffffffffffffffffffffffffffffffffffffff1690508073ffffffffffffffffffffffffffffffffffffffff166108fc83600701549081150290604051600060405180830381858888f193505050501580156135b0573d6000803e3d6000fd5b50600182600a0160016101000a81548160ff021916908315150217905550505050565b60016020528060005260406000206000915090508060000154908060010154905082565b85858585858560008211613640576040517f08c379a0000000000000000000000000000000000000000000000000000000008152600401613637906153eb565b60405180910390fd5b6000865111613684576040517f08c379a000000000000000000000000000000000000000000000000000000000815260040161367b90615457565b60405180910390fd5b60008551116136c8576040517f08c379a00000000000000000000000000000000000000000000000000000000081526004016136bf906154c3565b60405180910390fd5b600084511161370c576040517f08c379a00000000000000000000000000000000000000000000000000000000081526004016137039061552f565b60405180910390fd5b6000835111613750576040517f08c379a0000000000000000000000000000000000000000000000000000000008152600401613747906155c1565b60405180910390fd5b600060405180610180016040528060045481526020013373ffffffffffffffffffffffffffffffffffffffff1681526020018e81526020018d81526020018c81526020018b81526020018a81526020016000815260200189815260200160008152602001600015158152602001600015158152509050806002600060045481526020019081526020016000206000820151816000015560208201518160010160006101000a81548173ffffffffffffffffffffffffffffffffffffffff021916908373ffffffffffffffffffffffffffffffffffffffff160217905550604082015181600201908161384291906158eb565b50606082015181600301908161385891906158eb565b50608082015181600401908161386e91906158eb565b5060a082015181600501908161388491906158eb565b5060c0820151816006015560e082015181600701556101008201518160080155610120820151816009015561014082015181600a0160006101000a81548160ff02191690831515021790555061016082015181600a0160016101000a81548160ff0219169083151502179055509050506000600160003373ffffffffffffffffffffffffffffffffffffffff1673ffffffffffffffffffffffffffffffffffffffff1681526020019081526020016000206000015490508160000151600160003373ffffffffffffffffffffffffffffffffffffffff1673ffffffffffffffffffffffffffffffffffffffff168152602001908152602001600020600201600083815260200190815260200160002081905550600160003373ffffffffffffffffffffffffffffffffffffffff1673ffffffffffffffffffffffffffffffffffffffff16815260200190815260200160002060000160008154809291906139ea90615ac6565b919050555060046000815480929190613a0290615ac6565b91905055503373ffffffffffffffffffffffffffffffffffffffff167f17dd0b5f0975f4651b002ed3b016428bae979f5704d8b2473931b2312185c05a8360600151604051613a519190615ef1565b60405180910390a25050505050505050505050505050565b606060008060008060009350613a7d6142ee565b60005b600454811015613b645760006002600083815260200190815260200160002090508a73ffffffffffffffffffffffffffffffffffffffff168160010160009054906101000a900473ffffffffffffffffffffffffffffffffffffffff1673ffffffffffffffffffffffffffffffffffffffff1603613b505760005b600554811015613b4e5760006003600083815260200190815260200160002090508260000154816001015403613b3a578880613b3690615ac6565b9950505b508080613b4690615ac6565b915050613afb565b505b508080613b5c90615ac6565b915050613a80565b50613b70858989614063565b905080606001518160800151613b869190615a92565b67ffffffffffffffff811115613b9f57613b9e61443f565b5b604051908082528060200260200182016040528015613bd857816020015b613bc561431d565b815260200190600190039081613bbd5790505b5095506000805b600454811015613e245760006002600083815260200190815260200160002090508b73ffffffffffffffffffffffffffffffffffffffff168160010160009054906101000a900473ffffffffffffffffffffffffffffffffffffffff1673ffffffffffffffffffffffffffffffffffffffff1603613e105760005b600554811015613e0e5760006003600083815260200190815260200160002090508260000154816001015403613dfa5785606001518510158015613ca15750856080015185105b15613deb57613cae61431d565b83600001548160000181815250508160020160009054906101000a900473ffffffffffffffffffffffffffffffffffffffff16816020019073ffffffffffffffffffffffffffffffffffffffff16908173ffffffffffffffffffffffffffffffffffffffff1681525050836003018054613d279061570e565b80601f0160208091040260200160405190810160405280929190818152602001828054613d539061570e565b8015613da05780601f10613d7557610100808354040283529160200191613da0565b820191906000526020600020905b815481529060010190602001808311613d8357829003601f168201915b505050505081604001819052508160030154816060018181525050808c886060015188613dcd9190615a92565b81518110613dde57613ddd615c1a565b5b6020026020010181905250505b8480613df690615ac6565b9550505b508080613e0690615ac6565b915050613c5a565b505b508080613e1c90615ac6565b915050613bdf565b508160000151945081602001519350816040015192505050939792965093509350565b60055481565b606060008290506000815167ffffffffffffffff811115613e7157613e7061443f565b5b6040519080825280601f01601f191660200182016040528015613ea35781602001600182028036833780820191505090505b50905060005b8251811015613f2d57613ed8838281518110613ec857613ec7615c1a565b5b602001015160f81c60f81b61420f565b828281518110613eeb57613eea615c1a565b5b60200101907effffffffffffffffffffffffffffffffffffffffffffffffffffffffffffff1916908160001a9053508080613f2590615ac6565b915050613ea9565b508092505050919050565b6000808390506000839050805182511015613f585760009250505061405d565b60005b81518351613f699190615a92565b81116140555760006001905060005b835181101561402d57838181518110613f9457613f93615c1a565b5b602001015160f81c60f81b7effffffffffffffffffffffffffffffffffffffffffffffffffffffffffffff1916858285613fce9190615be6565b81518110613fdf57613fde615c1a565b5b602001015160f81c60f81b7effffffffffffffffffffffffffffffffffffffffffffffffffffffffffffff19161461401a576000915061402d565b808061402590615ac6565b915050613f78565b50801561404157600194505050505061405d565b50808061404d90615ac6565b915050613f5b565b506000925050505b92915050565b61406b6142ee565b600083116140ae576040517f08c379a00000000000000000000000000000000000000000000000000000000081526004016140a590615c95565b60405180910390fd5b600082116140f1576040517f08c379a00000000000000000000000000000000000000000000000000000000081526004016140e890615f5f565b60405180910390fd5b6140f96142ee565b83600185876141089190615be6565b6141129190615a92565b61411c9190615ce4565b8160000181815250506000816000015111614138576000614151565b6001836141459190615a92565b846141509190615d81565b5b8160600181815250508481606001518561416b9190615be6565b11614185578060600151846141809190615be6565b614187565b845b816080018181525050806000015183106141a55780600001516141b3565b6001836141b29190615be6565b5b816020018181525050600183116141cb5760016141d9565b6001836141d89190615a92565b5b81604001818152505060008160000151116141f55760006141fb565b80604001515b816040018181525050809150509392505050565b600060418260f81c60ff161015801561422f5750605a8260f81c60ff1611155b1561424e5760208260f81c6142449190615f8c565b60f81b9050614252565b8190505b919050565b6040518060400160405280600015158152602001600081525090565b60405180610180016040528060008152602001600073ffffffffffffffffffffffffffffffffffffffff16815260200160608152602001606081526020016060815260200160608152602001600081526020016000815260200160008152602001600081526020016000151581526020016000151581525090565b6040518060a0016040528060008152602001600081526020016000815260200160008152602001600081525090565b6040518060c0016040528060008152602001600073ffffffffffffffffffffffffffffffffffffffff1681526020016060815260200160008152602001606081526020016000151581525090565b6040518060a001604052806000815260200160008152602001600073ffffffffffffffffffffffffffffffffffffffff16815260200160008152602001600081525090565b6000819050919050565b6143c3816143b0565b82525050565b60006020820190506143de60008301846143ba565b92915050565b6000604051905090565b600080fd5b600080fd5b614401816143b0565b811461440c57600080fd5b50565b60008135905061441e816143f8565b92915050565b600080fd5b600080fd5b6000601f19601f8301169050919050565b7f4e487b7100000000000000000000000000000000000000000000000000000000600052604160045260246000fd5b6144778261442e565b810181811067ffffffffffffffff821117156144965761449561443f565b5b80604052505050565b60006144a96143e4565b90506144b5828261446e565b919050565b600067ffffffffffffffff8211156144d5576144d461443f565b5b6144de8261442e565b9050602081019050919050565b82818337600083830152505050565b600061450d614508846144ba565b61449f565b90508281526020810184848401111561452957614528614429565b5b6145348482856144eb565b509392505050565b600082601f83011261455157614550614424565b5b81356145618482602086016144fa565b91505092915050565b600080600080600080600060e0888a031215614589576145886143ee565b5b60006145978a828b0161440f565b975050602088013567ffffffffffffffff8111156145b8576145b76143f3565b5b6145c48a828b0161453c565b965050604088013567ffffffffffffffff8111156145e5576145e46143f3565b5b6145f18a828b0161453c565b955050606088013567ffffffffffffffff811115614612576146116143f3565b5b61461e8a828b0161453c565b945050608088013567ffffffffffffffff81111561463f5761463e6143f3565b5b61464b8a828b0161453c565b93505060a061465c8a828b0161440f565b92505060c061466d8a828b0161440f565b91505092959891949750929550565b600060208284031215614692576146916143ee565b5b60006146a08482850161440f565b91505092915050565b600073ffffffffffffffffffffffffffffffffffffffff82169050919050565b60006146d4826146a9565b9050919050565b6146e4816146c9565b82525050565b600081519050919050565b600082825260208201905092915050565b60005b83811015614724578082015181840152602081019050614709565b60008484015250505050565b600061473b826146ea565b61474581856146f5565b9350614755818560208601614706565b61475e8161442e565b840191505092915050565b60008115159050919050565b61477e81614769565b82525050565b60006101808201905061479a600083018f6143ba565b6147a7602083018e6146db565b81810360408301526147b9818d614730565b905081810360608301526147cd818c614730565b905081810360808301526147e1818b614730565b905081810360a08301526147f5818a614730565b905061480460c08301896143ba565b61481160e08301886143ba565b61481f6101008301876143ba565b61482d6101208301866143ba565b61483b610140830185614775565b614849610160830184614775565b9d9c50505050505050505050505050565b60008060408385031215614871576148706143ee565b5b600061487f8582860161440f565b92505060206148908582860161440f565b9150509250929050565b600081519050919050565b600082825260208201905092915050565b6000819050602082019050919050565b6148cf816143b0565b82525050565b6148de816146c9565b82525050565b600082825260208201905092915050565b6000614900826146ea565b61490a81856148e4565b935061491a818560208601614706565b6149238161442e565b840191505092915050565b61493781614769565b82525050565b60006101808301600083015161495660008601826148c6565b50602083015161496960208601826148d5565b506040830151848203604086015261498182826148f5565b9150506060830151848203606086015261499b82826148f5565b915050608083015184820360808601526149b582826148f5565b91505060a083015184820360a08601526149cf82826148f5565b91505060c08301516149e460c08601826148c6565b5060e08301516149f760e08601826148c6565b50610100830151614a0c6101008601826148c6565b50610120830151614a216101208601826148c6565b50610140830151614a3661014086018261492e565b50610160830151614a4b61016086018261492e565b508091505092915050565b6000614a62838361493d565b905092915050565b6000602082019050919050565b6000614a828261489a565b614a8c81856148a5565b935083602082028501614a9e856148b6565b8060005b85811015614ada5784840389528151614abb8582614a56565b9450614ac683614a6a565b925060208a01995050600181019050614aa2565b50829750879550505050505092915050565b604082016000820151614b02600085018261492e565b506020820151614b1560208501826148c6565b50505050565b60006060820190508181036000830152614b358185614a77565b9050614b446020830184614aec565b9392505050565b600080600060608486031215614b6457614b636143ee565b5b600084013567ffffffffffffffff811115614b8257614b816143f3565b5b614b8e8682870161453c565b9350506020614b9f8682870161440f565b9250506040614bb08682870161440f565b9150509250925092565b600060a0820190508181036000830152614bd48188614a77565b9050614be360208301876143ba565b614bf060408301866143ba565b614bfd60608301856143ba565b614c0a60808301846143ba565b9695505050505050565b614c1d816146c9565b8114614c2857600080fd5b50565b600081359050614c3a81614c14565b92915050565b600080600060608486031215614c5957614c586143ee565b5b6000614c6786828701614c2b565b9350506020614c788682870161440f565b9250506040614c898682870161440f565b9150509250925092565b600081519050919050565b600082825260208201905092915050565b6000819050602082019050919050565b600060c083016000830151614cd760008601826148c6565b506020830151614cea60208601826148d5565b5060408301518482036040860152614d0282826148f5565b9150506060830151614d1760608601826148c6565b5060808301518482036080860152614d2f82826148f5565b91505060a0830151614d4460a086018261492e565b508091505092915050565b6000614d5b8383614cbf565b905092915050565b6000602082019050919050565b6000614d7b82614c93565b614d858185614c9e565b935083602082028501614d9785614caf565b8060005b85811015614dd35784840389528151614db48582614d4f565b9450614dbf83614d63565b925060208a01995050600181019050614d9b565b50829750879550505050505092915050565b60a082016000820151614dfb60008501826148c6565b506020820151614e0e60208501826148c6565b506040820151614e2160408501826148c6565b506060820151614e3460608501826148c6565b506080820151614e4760808501826148c6565b50505050565b600060c0820190508181036000830152614e678185614d70565b9050614e766020830184614de5565b9392505050565b600081519050919050565b600082825260208201905092915050565b6000819050602082019050919050565b60a082016000820151614ebf60008501826148c6565b506020820151614ed260208501826148c6565b506040820151614ee560408501826148d5565b506060820151614ef860608501826148c6565b506080820151614f0b60808501826148c6565b50505050565b6000614f1d8383614ea9565b60a08301905092915050565b6000602082019050919050565b6000614f4182614e7d565b614f4b8185614e88565b9350614f5683614e99565b8060005b83811015614f87578151614f6e8882614f11565b9750614f7983614f29565b925050600181019050614f5a565b5085935050505092915050565b60006040820190508181036000830152614fae8185614f36565b9050614fbd60208301846143ba565b9392505050565b600061018083016000830151614fdd60008601826148c6565b506020830151614ff060208601826148d5565b506040830151848203604086015261500882826148f5565b9150506060830151848203606086015261502282826148f5565b9150506080830151848203608086015261503c82826148f5565b91505060a083015184820360a086015261505682826148f5565b91505060c083015161506b60c08601826148c6565b5060e083015161507e60e08601826148c6565b506101008301516150936101008601826148c6565b506101208301516150a86101208601826148c6565b506101408301516150bd61014086018261492e565b506101608301516150d261016086018261492e565b508091505092915050565b600060208201905081810360008301526150f78184614fc4565b905092915050565b600060608201905081810360008301526151198186614a77565b905061512860208301856143ba565b61513560408301846143ba565b949350505050565b600060a08201905061515260008301886143ba565b61515f60208301876143ba565b61516c60408301866146db565b61517960608301856143ba565b61518660808301846143ba565b9695505050505050565b600061519b826146a9565b9050919050565b6151ab81615190565b82525050565b60006020820190506151c660008301846151a2565b92915050565b6000602082840312156151e2576151e16143ee565b5b60006151f084828501614c2b565b91505092915050565b600060408201905061520e60008301856143ba565b61521b60208301846143ba565b9392505050565b60008060008060008060c0878903121561523f5761523e6143ee565b5b600087013567ffffffffffffffff81111561525d5761525c6143f3565b5b61526989828a0161453c565b965050602087013567ffffffffffffffff81111561528a576152896143f3565b5b61529689828a0161453c565b955050604087013567ffffffffffffffff8111156152b7576152b66143f3565b5b6152c389828a0161453c565b945050606087013567ffffffffffffffff8111156152e4576152e36143f3565b5b6152f089828a0161453c565b935050608061530189828a0161440f565b92505060a061531289828a0161440f565b9150509295509295509295565b600060a08201905081810360008301526153398188614d70565b905061534860208301876143ba565b61535560408301866143ba565b61536260608301856143ba565b61536f60808301846143ba565b9695505050505050565b7f476f616c20616d6f756e742073686f756c64206265206d6f7265207468616e2060008201527f3000000000000000000000000000000000000000000000000000000000000000602082015250565b60006153d56021836146f5565b91506153e082615379565b604082019050919050565b60006020820190508181036000830152615404816153c8565b9050919050565b7f46756c6c206e616d652063616e6e6f7420626520656d70747900000000000000600082015250565b60006154416019836146f5565b915061544c8261540b565b602082019050919050565b6000602082019050818103600083015261547081615434565b9050919050565b7f5469746c652063616e6e6f7420626520656d7074790000000000000000000000600082015250565b60006154ad6015836146f5565b91506154b882615477565b602082019050919050565b600060208201905081810360008301526154dc816154a0565b9050919050565b7f53746f72792063616e6e6f7420626520656d7074790000000000000000000000600082015250565b60006155196015836146f5565b9150615524826154e3565b602082019050919050565b600060208201905081810360008301526155488161550c565b9050919050565b7f43616d706169676e20696d6167652075726c2063616e6e6f7420626520656d7060008201527f7479000000000000000000000000000000000000000000000000000000000000602082015250565b60006155ab6022836146f5565b91506155b68261554f565b604082019050919050565b600060208201905081810360008301526155da8161559e565b9050919050565b7f496e76616c69642063616d706169676e20494400000000000000000000000000600082015250565b60006156176013836146f5565b9150615622826155e1565b602082019050919050565b600060208201905081810360008301526156468161560a565b9050919050565b7f596f7520617265206e6f74207468652063616d706169676e2063726561746f7260008201527f2100000000000000000000000000000000000000000000000000000000000000602082015250565b60006156a96021836146f5565b91506156b48261564d565b604082019050919050565b600060208201905081810360008301526156d88161569c565b9050919050565b7f4e487b7100000000000000000000000000000000000000000000000000000000600052602260045260246000fd5b6000600282049050600182168061572657607f821691505b602082108103615739576157386156df565b5b50919050565b60008190508160005260206000209050919050565b60006020601f8301049050919050565b600082821b905092915050565b6000600883026157a17fffffffffffffffffffffffffffffffffffffffffffffffffffffffffffffffff82615764565b6157ab8683615764565b95508019841693508086168417925050509392505050565b6000819050919050565b60006157e86157e36157de846143b0565b6157c3565b6143b0565b9050919050565b6000819050919050565b615802836157cd565b61581661580e826157ef565b848454615771565b825550505050565b600090565b61582b61581e565b6158368184846157f9565b505050565b5b8181101561585a5761584f600082615823565b60018101905061583c565b5050565b601f82111561589f576158708161573f565b61587984615754565b81016020851015615888578190505b61589c61589485615754565b83018261583b565b50505b505050565b600082821c905092915050565b60006158c2600019846008026158a4565b1980831691505092915050565b60006158db83836158b1565b9150826002028217905092915050565b6158f4826146ea565b67ffffffffffffffff81111561590d5761590c61443f565b5b615917825461570e565b61592282828561585e565b600060209050601f8311600181146159555760008415615943578287015190505b61594d85826158cf565b8655506159b5565b601f1984166159638661573f565b60005b8281101561598b57848901518255600182019150602085019450602081019050615966565b868310156159a857848901516159a4601f8916826158b1565b8355505b6001600288020188555050505b505050505050565b600081546159ca8161570e565b6159d481866146f5565b945060018216600081146159ef5760018114615a0557615a38565b60ff198316865281151560200286019350615a38565b615a0e8561573f565b60005b83811015615a3057815481890152600182019150602081019050615a11565b808801955050505b50505092915050565b60006020820190508181036000830152615a5b81846159bd565b905092915050565b7f4e487b7100000000000000000000000000000000000000000000000000000000600052601160045260246000fd5b6000615a9d826143b0565b9150615aa8836143b0565b9250828203905081811115615ac057615abf615a63565b5b92915050565b6000615ad1826143b0565b91507fffffffffffffffffffffffffffffffffffffffffffffffffffffffffffffffff8203615b0357615b02615a63565b5b600182019050919050565b7f53697a652063616e6e6f74206265203000000000000000000000000000000000600082015250565b6000615b446010836146f5565b9150615b4f82615b0e565b602082019050919050565b60006020820190508181036000830152615b7381615b37565b9050919050565b7f496e76616c696420737461727420696e64657800000000000000000000000000600082015250565b6000615bb06013836146f5565b9150615bbb82615b7a565b602082019050919050565b60006020820190508181036000830152615bdf81615ba3565b9050919050565b6000615bf1826143b0565b9150615bfc836143b0565b9250828201905080821115615c1457615c13615a63565b5b92915050565b7f4e487b7100000000000000000000000000000000000000000000000000000000600052603260045260246000fd5b7f506167652073697a652063616e6e6f7420626520300000000000000000000000600082015250565b6000615c7f6015836146f5565b9150615c8a82615c49565b602082019050919050565b60006020820190508181036000830152615cae81615c72565b9050919050565b7f4e487b7100000000000000000000000000000000000000000000000000000000600052601260045260246000fd5b6000615cef826143b0565b9150615cfa836143b0565b925082615d0a57615d09615cb5565b5b828204905092915050565b7f496e76616c69642070616765206e756d62657200000000000000000000000000600082015250565b6000615d4b6013836146f5565b9150615d5682615d15565b602082019050919050565b60006020820190508181036000830152615d7a81615d3e565b9050919050565b6000615d8c826143b0565b9150615d97836143b0565b9250828202615da5816143b0565b91508282048414831517615dbc57615dbb615a63565b5b5092915050565b7f43616d706169676e20697320616c7265616479206f7665720000000000000000600082015250565b6000615df96018836146f5565b9150615e0482615dc3565b602082019050919050565b60006020820190508181036000830152615e2881615dec565b9050919050565b7f446f6e6174696f6e20616d6f756e742073686f756c64206265206d6f7265207460008201527f68616e2030000000000000000000000000000000000000000000000000000000602082015250565b6000615e8b6025836146f5565b9150615e9682615e2f565b604082019050919050565b60006020820190508181036000830152615eba81615e7e565b9050919050565b60006040820190508181036000830152615edb81856159bd565b9050615eea60208301846143ba565b9392505050565b60006020820190508181036000830152615f0b8184614730565b905092915050565b7f50616765206e756d6265722063616e6e6f742062652030000000000000000000600082015250565b6000615f496017836146f5565b9150615f5482615f13565b602082019050919050565b60006020820190508181036000830152615f7881615f3c565b9050919050565b600060ff82169050919050565b6000615f9782615f7f565b9150615fa283615f7f565b9250828201905060ff811115615fbb57615fba615a63565b5b9291505056fea2646970667358221220ad8538293aab3016f90dcd7a9d30004c95c9858b93946fce475772e05b82767564736f6c63430008120033",
  "linkReferences": {},
  "deployedLinkReferences": {}
}