{
  "_format": "hh-sol-artifact-1",
  "contractName": "CrowdFunding",
  "sourceName": "contracts/CrowdFunding.sol",
  "abi": [
    {
      "inputs": [],
      "stateMutability": "payable",
      "type": "constructor"
    },
    {
      "anonymous": false,
      "inputs": [
        {
          "indexed": true,
          "internalType": "address",
          "name": "sender",
          "type": "address"
        },
        {
          "indexed": false,
          "internalType": "string",
          "name": "title",
          "type": "string"
        }
      ],
      "name": "CampaignCreated",
      "type": "event"
    },
    {
      "anonymous": false,
      "inputs": [
        {
          "indexed": true,
          "internalType": "address",
          "name": "sender",
          "type": "address"
        },
        {
          "indexed": false,
          "internalType": "string",
          "name": "title",
          "type": "string"
        }
      ],
      "name": "CampaignEdited",
      "type": "event"
    },
    {
      "anonymous": false,
      "inputs": [
        {
          "indexed": true,
          "internalType": "address",
          "name": "sender",
          "type": "address"
        },
        {
          "indexed": false,
          "internalType": "string",
          "name": "title",
          "type": "string"
        },
        {
          "indexed": false,
          "internalType": "uint256",
          "name": "amount",
          "type": "uint256"
        }
      ],
      "name": "DonationSent",
      "type": "event"
    },
    {
      "inputs": [
        {
          "internalType": "uint256",
          "name": "",
          "type": "uint256"
        }
      ],
      "name": "campaigns",
      "outputs": [
        {
          "internalType": "uint256",
          "name": "id",
          "type": "uint256"
        },
        {
          "internalType": "address",
          "name": "creator",
          "type": "address"
        },
        {
          "internalType": "string",
          "name": "fullname",
          "type": "string"
        },
        {
          "internalType": "string",
          "name": "title",
          "type": "string"
        },
        {
          "internalType": "string",
          "name": "story",
          "type": "string"
        },
        {
          "internalType": "uint256",
          "name": "goalAmount",
          "type": "uint256"
        },
        {
          "internalType": "uint256",
          "name": "currentAmount",
          "type": "uint256"
        },
        {
          "internalType": "uint256",
          "name": "deadline",
          "type": "uint256"
        },
        {
          "internalType": "uint256",
          "name": "totalDonations",
          "type": "uint256"
        }
      ],
      "stateMutability": "view",
      "type": "function"
    },
    {
      "inputs": [
        {
          "internalType": "string",
          "name": "_fullname",
          "type": "string"
        },
        {
          "internalType": "string",
          "name": "_title",
          "type": "string"
        },
        {
          "internalType": "string",
          "name": "_story",
          "type": "string"
        },
        {
          "internalType": "uint256",
          "name": "_goalAmount",
          "type": "uint256"
        },
        {
          "internalType": "uint256",
          "name": "_deadline",
          "type": "uint256"
        }
      ],
      "name": "createCampaign",
      "outputs": [],
      "stateMutability": "nonpayable",
      "type": "function"
    },
    {
      "inputs": [
        {
          "internalType": "uint256",
          "name": "",
          "type": "uint256"
        }
      ],
      "name": "donationTransactions",
      "outputs": [
        {
          "internalType": "uint256",
          "name": "id",
          "type": "uint256"
        },
        {
          "internalType": "uint256",
          "name": "campaignId",
          "type": "uint256"
        },
        {
          "internalType": "address",
          "name": "donor",
          "type": "address"
        },
        {
          "internalType": "uint256",
          "name": "amount",
          "type": "uint256"
        },
        {
          "internalType": "uint256",
          "name": "timestamp",
          "type": "uint256"
        }
      ],
      "stateMutability": "view",
      "type": "function"
    },
    {
      "inputs": [
        {
          "internalType": "uint256",
          "name": "_campaignId",
          "type": "uint256"
        },
        {
          "internalType": "string",
          "name": "_fullname",
          "type": "string"
        },
        {
          "internalType": "string",
          "name": "_title",
          "type": "string"
        },
        {
          "internalType": "string",
          "name": "_story",
          "type": "string"
        },
        {
          "internalType": "uint256",
          "name": "_goalAmount",
          "type": "uint256"
        },
        {
          "internalType": "uint256",
          "name": "_deadline",
          "type": "uint256"
        }
      ],
      "name": "editCampaign",
      "outputs": [],
      "stateMutability": "nonpayable",
      "type": "function"
    },
    {
      "inputs": [
        {
          "internalType": "uint256",
          "name": "_campaignId",
          "type": "uint256"
        }
      ],
      "name": "getCampaign",
      "outputs": [
        {
          "components": [
            {
              "internalType": "uint256",
              "name": "id",
              "type": "uint256"
            },
            {
              "internalType": "address",
              "name": "creator",
              "type": "address"
            },
            {
              "internalType": "string",
              "name": "fullname",
              "type": "string"
            },
            {
              "internalType": "string",
              "name": "title",
              "type": "string"
            },
            {
              "internalType": "string",
              "name": "story",
              "type": "string"
            },
            {
              "internalType": "uint256",
              "name": "goalAmount",
              "type": "uint256"
            },
            {
              "internalType": "uint256",
              "name": "currentAmount",
              "type": "uint256"
            },
            {
              "internalType": "uint256",
              "name": "deadline",
              "type": "uint256"
            },
            {
              "internalType": "uint256",
              "name": "totalDonations",
              "type": "uint256"
            }
          ],
          "internalType": "struct CrowdFunding.Campaign",
          "name": "",
          "type": "tuple"
        }
      ],
      "stateMutability": "view",
      "type": "function"
    },
    {
      "inputs": [
        {
          "internalType": "uint256",
          "name": "_campaignId",
          "type": "uint256"
        }
      ],
      "name": "getCampaignDonations",
      "outputs": [
        {
          "components": [
            {
              "internalType": "uint256",
              "name": "id",
              "type": "uint256"
            },
            {
              "internalType": "uint256",
              "name": "campaignId",
              "type": "uint256"
            },
            {
              "internalType": "address",
              "name": "donor",
              "type": "address"
            },
            {
              "internalType": "uint256",
              "name": "amount",
              "type": "uint256"
            },
            {
              "internalType": "uint256",
              "name": "timestamp",
              "type": "uint256"
            }
          ],
          "internalType": "struct CrowdFunding.DonationTransaction[]",
          "name": "allDonations",
          "type": "tuple[]"
        },
        {
          "internalType": "uint256",
          "name": "totalCampaignDonations",
          "type": "uint256"
        }
      ],
      "stateMutability": "view",
      "type": "function"
    },
    {
      "inputs": [
        {
          "internalType": "address",
          "name": "_walletAddress",
          "type": "address"
        }
      ],
      "name": "getDonatorsByWalletAddress",
      "outputs": [
        {
          "components": [
            {
              "internalType": "address",
              "name": "donator",
              "type": "address"
            },
            {
              "internalType": "string",
              "name": "campaignTitle",
              "type": "string"
            },
            {
              "internalType": "uint256",
              "name": "donationAmount",
              "type": "uint256"
            }
          ],
          "internalType": "struct CrowdFunding.DonationData[]",
          "name": "",
          "type": "tuple[]"
        }
      ],
      "stateMutability": "view",
      "type": "function"
    },
    {
      "inputs": [
        {
          "internalType": "uint256",
          "name": "_pageSize",
          "type": "uint256"
        },
        {
          "internalType": "uint256",
          "name": "_pageNumber",
          "type": "uint256"
        }
      ],
      "name": "getUserCampaigns",
      "outputs": [
        {
          "components": [
            {
              "internalType": "uint256",
              "name": "id",
              "type": "uint256"
            },
            {
              "internalType": "address",
              "name": "creator",
              "type": "address"
            },
            {
              "internalType": "string",
              "name": "fullname",
              "type": "string"
            },
            {
              "internalType": "string",
              "name": "title",
              "type": "string"
            },
            {
              "internalType": "string",
              "name": "story",
              "type": "string"
            },
            {
              "internalType": "uint256",
              "name": "goalAmount",
              "type": "uint256"
            },
            {
              "internalType": "uint256",
              "name": "currentAmount",
              "type": "uint256"
            },
            {
              "internalType": "uint256",
              "name": "deadline",
              "type": "uint256"
            },
            {
              "internalType": "uint256",
              "name": "totalDonations",
              "type": "uint256"
            }
          ],
          "internalType": "struct CrowdFunding.Campaign[]",
          "name": "",
          "type": "tuple[]"
        },
        {
          "internalType": "uint256",
          "name": "",
          "type": "uint256"
        },
        {
          "internalType": "uint256",
          "name": "",
          "type": "uint256"
        },
        {
          "internalType": "uint256",
          "name": "",
          "type": "uint256"
        },
        {
          "internalType": "uint256",
          "name": "",
          "type": "uint256"
        }
      ],
      "stateMutability": "view",
      "type": "function"
    },
    {
      "inputs": [],
      "name": "owner",
      "outputs": [
        {
          "internalType": "address payable",
          "name": "",
          "type": "address"
        }
      ],
      "stateMutability": "view",
      "type": "function"
    },
    {
      "inputs": [
        {
          "internalType": "uint256",
          "name": "_campaignId",
          "type": "uint256"
        }
      ],
      "name": "sendDonation",
      "outputs": [],
      "stateMutability": "payable",
      "type": "function"
    },
    {
      "inputs": [],
      "name": "totalCampaigns",
      "outputs": [
        {
          "internalType": "uint256",
          "name": "",
          "type": "uint256"
        }
      ],
      "stateMutability": "view",
      "type": "function"
    },
    {
      "inputs": [],
      "name": "totalDonations",
      "outputs": [
        {
          "internalType": "uint256",
          "name": "",
          "type": "uint256"
        }
      ],
      "stateMutability": "view",
      "type": "function"
    },
    {
      "inputs": [
        {
          "internalType": "address",
          "name": "",
          "type": "address"
        }
      ],
      "name": "users",
      "outputs": [
        {
          "internalType": "uint256",
          "name": "totalCampaigns",
          "type": "uint256"
        },
        {
          "internalType": "uint256",
          "name": "totalDonations",
          "type": "uint256"
        }
      ],
      "stateMutability": "view",
      "type": "function"
    }
  ],
  "bytecode": "0x6080604052336000806101000a81548173ffffffffffffffffffffffffffffffffffffffff021916908373ffffffffffffffffffffffffffffffffffffffff16021790555060006004819055506136598061005b6000396000f3fe6080604052600436106100c25760003560e01c8063665588c91161007f578063980f2e6611610059578063980f2e66146102b8578063a87430ba146102e1578063de2ed8931461031f578063e1a783a01461034a576100c2565b8063665588c9146102305780638acd0bfc1461024c5780638da5cb5b1461028d576100c2565b806302932f56146100c7578063141961bc146100f25780633871dd3c146101375780633e3b6675146101745780635167642f146101b55780635598f8cc146101f3575b600080fd5b3480156100d357600080fd5b506100dc610373565b6040516100e99190611f8f565b60405180910390f35b3480156100fe57600080fd5b5061011960048036038101906101149190611fea565b610379565b60405161012e999897969594939291906120e8565b60405180910390f35b34801561014357600080fd5b5061015e600480360381019061015991906121b6565b61057f565b60405161016b919061235d565b60405180910390f35b34801561018057600080fd5b5061019b6004803603810190610196919061237f565b6108dd565b6040516101ac959493929190612554565b60405180910390f35b3480156101c157600080fd5b506101dc60048036038101906101d79190611fea565b610dd0565b6040516101ea9291906126c5565b60405180910390f35b3480156101ff57600080fd5b5061021a60048036038101906102159190611fea565b6111a5565b60405161022791906127c8565b60405180910390f35b61024a60048036038101906102459190611fea565b611411565b005b34801561025857600080fd5b50610273600480360381019061026e9190611fea565b611701565b6040516102849594939291906127ea565b60405180910390f35b34801561029957600080fd5b506102a2611757565b6040516102af919061285e565b60405180910390f35b3480156102c457600080fd5b506102df60048036038101906102da91906129ae565b61177b565b005b3480156102ed57600080fd5b50610308600480360381019061030391906121b6565b611b77565b604051610316929190612a7d565b60405180910390f35b34801561032b57600080fd5b50610334611b9b565b6040516103419190611f8f565b60405180910390f35b34801561035657600080fd5b50610371600480360381019061036c9190612aa6565b611ba1565b005b60045481565b60026020528060005260406000206000915090508060000154908060010160009054906101000a900473ffffffffffffffffffffffffffffffffffffffff16908060020180546103c890612bb6565b80601f01602080910402602001604051908101604052809291908181526020018280546103f490612bb6565b80156104415780601f1061041657610100808354040283529160200191610441565b820191906000526020600020905b81548152906001019060200180831161042457829003601f168201915b50505050509080600301805461045690612bb6565b80601f016020809104026020016040519081016040528092919081815260200182805461048290612bb6565b80156104cf5780601f106104a4576101008083540402835291602001916104cf565b820191906000526020600020905b8154815290600101906020018083116104b257829003601f168201915b5050505050908060040180546104e490612bb6565b80601f016020809104026020016040519081016040528092919081815260200182805461051090612bb6565b801561055d5780601f106105325761010080835404028352916020019161055d565b820191906000526020600020905b81548152906001019060200180831161054057829003601f168201915b5050505050908060050154908060060154908060070154908060080154905089565b60606000805b6004548110156106695760006002600083815260200190815260200160002090508473ffffffffffffffffffffffffffffffffffffffff168160010160009054906101000a900473ffffffffffffffffffffffffffffffffffffffff1673ffffffffffffffffffffffffffffffffffffffff16036106555760005b600554811015610653576000600360008381526020019081526020016000209050826000015481600101540361063f57848061063b90612c16565b9550505b50808061064b90612c16565b915050610600565b505b50808061066190612c16565b915050610585565b5060008167ffffffffffffffff81111561068657610685612883565b5b6040519080825280602002602001820160405280156106bf57816020015b6106ac611e98565b8152602001906001900390816106a45790505b5090506000805b6004548110156108d15760006002600083815260200190815260200160002090508673ffffffffffffffffffffffffffffffffffffffff168160010160009054906101000a900473ffffffffffffffffffffffffffffffffffffffff1673ffffffffffffffffffffffffffffffffffffffff16036108bd5760005b6005548110156108bb57600060036000838152602001908152602001600020905082600001548160010154036108a757610779611e98565b8160020160009054906101000a900473ffffffffffffffffffffffffffffffffffffffff16816000019073ffffffffffffffffffffffffffffffffffffffff16908173ffffffffffffffffffffffffffffffffffffffff16815250508360030180546107e490612bb6565b80601f016020809104026020016040519081016040528092919081815260200182805461081090612bb6565b801561085d5780601f106108325761010080835404028352916020019161085d565b820191906000526020600020905b81548152906001019060200180831161084057829003601f168201915b5050505050816020018190525081600301548160400181815250508087878151811061088c5761088b612c5e565b5b602002602001018190525085806108a290612c16565b965050505b5080806108b390612c16565b915050610741565b505b5080806108c990612c16565b9150506106c6565b50819350505050919050565b606060008060008060008711610928576040517f08c379a000000000000000000000000000000000000000000000000000000000815260040161091f90612cd9565b60405180910390fd5b6000861161096b576040517f08c379a000000000000000000000000000000000000000000000000000000000815260040161096290612d45565b60405180910390fd5b6000600160003373ffffffffffffffffffffffffffffffffffffffff1673ffffffffffffffffffffffffffffffffffffffff168152602001908152602001600020905060008860018a84600001546109c39190612d65565b6109cd9190612d99565b6109d79190612dfc565b905060008082116109e9576000610a02565b6001896109f69190612d99565b8a610a019190612e2d565b5b905060008360000154828c610a179190612d65565b11610a2d57818b610a289190612d65565b610a33565b83600001545b905060008282610a439190612d99565b67ffffffffffffffff811115610a5c57610a5b612883565b5b604051908082528060200260200182016040528015610a9557816020015b610a82611ecf565b815260200190600190039081610a7a5790505b50905060005b8151811015610d58576000600260008860020160008589610abc9190612d65565b815260200190815260200160002054815260200190815260200160002060405180610120016040529081600082015481526020016001820160009054906101000a900473ffffffffffffffffffffffffffffffffffffffff1673ffffffffffffffffffffffffffffffffffffffff1673ffffffffffffffffffffffffffffffffffffffff168152602001600282018054610b5590612bb6565b80601f0160208091040260200160405190810160405280929190818152602001828054610b8190612bb6565b8015610bce5780601f10610ba357610100808354040283529160200191610bce565b820191906000526020600020905b815481529060010190602001808311610bb157829003601f168201915b50505050508152602001600382018054610be790612bb6565b80601f0160208091040260200160405190810160405280929190818152602001828054610c1390612bb6565b8015610c605780601f10610c3557610100808354040283529160200191610c60565b820191906000526020600020905b815481529060010190602001808311610c4357829003601f168201915b50505050508152602001600482018054610c7990612bb6565b80601f0160208091040260200160405190810160405280929190818152602001828054610ca590612bb6565b8015610cf25780601f10610cc757610100808354040283529160200191610cf2565b820191906000526020600020905b815481529060010190602001808311610cd557829003601f168201915b50505050508152602001600582015481526020016006820154815260200160078201548152602001600882015481525050905080838381518110610d3957610d38612c5e565b5b6020026020010181905250508080610d5090612c16565b915050610a9b565b506000848c10610d685784610d76565b60018c610d759190612d65565b5b9050600060018d11610d89576001610d97565b60018d610d969190612d99565b5b905060008611610da8576000610daa565b805b90508287600001548784849b509b509b509b509b50505050505050509295509295909350565b60606000806002600085815260200190815260200160002060405180610120016040529081600082015481526020016001820160009054906101000a900473ffffffffffffffffffffffffffffffffffffffff1673ffffffffffffffffffffffffffffffffffffffff1673ffffffffffffffffffffffffffffffffffffffff168152602001600282018054610e6490612bb6565b80601f0160208091040260200160405190810160405280929190818152602001828054610e9090612bb6565b8015610edd5780601f10610eb257610100808354040283529160200191610edd565b820191906000526020600020905b815481529060010190602001808311610ec057829003601f168201915b50505050508152602001600382018054610ef690612bb6565b80601f0160208091040260200160405190810160405280929190818152602001828054610f2290612bb6565b8015610f6f5780601f10610f4457610100808354040283529160200191610f6f565b820191906000526020600020905b815481529060010190602001808311610f5257829003601f168201915b50505050508152602001600482018054610f8890612bb6565b80601f0160208091040260200160405190810160405280929190818152602001828054610fb490612bb6565b80156110015780601f10610fd657610100808354040283529160200191611001565b820191906000526020600020905b815481529060010190602001808311610fe457829003601f168201915b50505050508152602001600582015481526020016006820154815260200160078201548152602001600882015481525050905080610100015191508167ffffffffffffffff81111561105657611055612883565b5b60405190808252806020026020018201604052801561108f57816020015b61107c611f31565b8152602001906001900390816110745790505b5092506000805b60055481101561119d57826000015160036000838152602001908152602001600020600101540361118a57600360008281526020019081526020016000206040518060a001604052908160008201548152602001600182015481526020016002820160009054906101000a900473ffffffffffffffffffffffffffffffffffffffff1673ffffffffffffffffffffffffffffffffffffffff1673ffffffffffffffffffffffffffffffffffffffff168152602001600382015481526020016004820154815250508583815181106111705761116f612c5e565b5b6020026020010181905250818061118690612c16565b9250505b808061119590612c16565b915050611096565b505050915091565b6111ad611ecf565b6002600083815260200190815260200160002060405180610120016040529081600082015481526020016001820160009054906101000a900473ffffffffffffffffffffffffffffffffffffffff1673ffffffffffffffffffffffffffffffffffffffff1673ffffffffffffffffffffffffffffffffffffffff16815260200160028201805461123c90612bb6565b80601f016020809104026020016040519081016040528092919081815260200182805461126890612bb6565b80156112b55780601f1061128a576101008083540402835291602001916112b5565b820191906000526020600020905b81548152906001019060200180831161129857829003601f168201915b505050505081526020016003820180546112ce90612bb6565b80601f01602080910402602001604051908101604052809291908181526020018280546112fa90612bb6565b80156113475780601f1061131c57610100808354040283529160200191611347565b820191906000526020600020905b81548152906001019060200180831161132a57829003601f168201915b5050505050815260200160048201805461136090612bb6565b80601f016020809104026020016040519081016040528092919081815260200182805461138c90612bb6565b80156113d95780601f106113ae576101008083540402835291602001916113d9565b820191906000526020600020905b8154815290600101906020018083116113bc57829003601f168201915b505050505081526020016005820154815260200160068201548152602001600782015481526020016008820154815250509050919050565b60008110158015611423575060045481105b611462576040517f08c379a000000000000000000000000000000000000000000000000000000000815260040161145990612ebb565b60405180910390fd5b600060026000838152602001908152602001600020905080600701544211156114c0576040517f08c379a00000000000000000000000000000000000000000000000000000000081526004016114b790612f27565b60405180910390fd5b60003411611503576040517f08c379a00000000000000000000000000000000000000000000000000000000081526004016114fa90612fb9565b60405180910390fd5b6000600160003373ffffffffffffffffffffffffffffffffffffffff1673ffffffffffffffffffffffffffffffffffffffff168152602001908152602001600020905060008160010154905060006040518060a001604052806005548152602001856000015481526020013373ffffffffffffffffffffffffffffffffffffffff16815260200134815260200142815250905080600360006005548152602001908152602001600020600082015181600001556020820151816001015560408201518160020160006101000a81548173ffffffffffffffffffffffffffffffffffffffff021916908373ffffffffffffffffffffffffffffffffffffffff1602179055506060820151816003015560808201518160040155905050806000015183600301600084815260200190815260200160002081905550348460060160008282546116509190612d65565b925050819055506005600081548092919061166a90612c16565b919050555082600101600081548092919061168490612c16565b919050555083600801600081548092919061169e90612c16565b91905055503373ffffffffffffffffffffffffffffffffffffffff167f3b5443c59641f965c6df0836dbe11676fa8c79c3184392351bb19fd51de3d49a8560030186600601546040516116f2929190613072565b60405180910390a25050505050565b60036020528060005260406000206000915090508060000154908060010154908060020160009054906101000a900473ffffffffffffffffffffffffffffffffffffffff16908060030154908060040154905085565b60008054906101000a900473ffffffffffffffffffffffffffffffffffffffff1681565b84848484844281116117c2576040517f08c379a00000000000000000000000000000000000000000000000000000000081526004016117b9906130ee565b60405180910390fd5b60008211611805576040517f08c379a00000000000000000000000000000000000000000000000000000000081526004016117fc90613180565b60405180910390fd5b6000855111611849576040517f08c379a0000000000000000000000000000000000000000000000000000000008152600401611840906131ec565b60405180910390fd5b600084511161188d576040517f08c379a000000000000000000000000000000000000000000000000000000000815260040161188490613258565b60405180910390fd5b60008351116118d1576040517f08c379a00000000000000000000000000000000000000000000000000000000081526004016118c8906132c4565b60405180910390fd5b600060405180610120016040528060045481526020013373ffffffffffffffffffffffffffffffffffffffff1681526020018c81526020018b81526020018a81526020018981526020016000815260200188815260200160008152509050806002600060045481526020019081526020016000206000820151816000015560208201518160010160006101000a81548173ffffffffffffffffffffffffffffffffffffffff021916908373ffffffffffffffffffffffffffffffffffffffff16021790555060408201518160020190816119ab919061347b565b5060608201518160030190816119c1919061347b565b5060808201518160040190816119d7919061347b565b5060a0820151816005015560c0820151816006015560e0820151816007015561010082015181600801559050506000600160003373ffffffffffffffffffffffffffffffffffffffff1673ffffffffffffffffffffffffffffffffffffffff1681526020019081526020016000206000015490508160000151600160003373ffffffffffffffffffffffffffffffffffffffff1673ffffffffffffffffffffffffffffffffffffffff168152602001908152602001600020600201600083815260200190815260200160002081905550600160003373ffffffffffffffffffffffffffffffffffffffff1673ffffffffffffffffffffffffffffffffffffffff1681526020019081526020016000206000016000815480929190611afa90612c16565b919050555060046000815480929190611b1290612c16565b91905055503373ffffffffffffffffffffffffffffffffffffffff167f17dd0b5f0975f4651b002ed3b016428bae979f5704d8b2473931b2312185c05a8360600151604051611b61919061354d565b60405180910390a2505050505050505050505050565b60016020528060005260406000206000915090508060000154908060010154905082565b60055481565b8484848484428111611be8576040517f08c379a0000000000000000000000000000000000000000000000000000000008152600401611bdf906130ee565b60405180910390fd5b60008211611c2b576040517f08c379a0000000000000000000000000000000000000000000000000000000008152600401611c2290613180565b60405180910390fd5b6000855111611c6f576040517f08c379a0000000000000000000000000000000000000000000000000000000008152600401611c66906131ec565b60405180910390fd5b6000845111611cb3576040517f08c379a0000000000000000000000000000000000000000000000000000000008152600401611caa90613258565b60405180910390fd5b6000835111611cf7576040517f08c379a0000000000000000000000000000000000000000000000000000000008152600401611cee906132c4565b60405180910390fd5b6000600260008d8152602001908152602001600020905060008c10158015611d2057506004548c105b611d5f576040517f08c379a0000000000000000000000000000000000000000000000000000000008152600401611d5690612ebb565b60405180910390fd5b3373ffffffffffffffffffffffffffffffffffffffff168160010160009054906101000a900473ffffffffffffffffffffffffffffffffffffffff1673ffffffffffffffffffffffffffffffffffffffff1614611df1576040517f08c379a0000000000000000000000000000000000000000000000000000000008152600401611de8906135e1565b60405180910390fd5b8a816002019081611e02919061347b565b5089816003019081611e14919061347b565b5088816004019081611e26919061347b565b508781600501819055508681600701819055503373ffffffffffffffffffffffffffffffffffffffff167fb961c338b427968a67f1a3560907d7075a0d1fca0c2d16dcb76da3a963cfe37382600301604051611e829190613601565b60405180910390a2505050505050505050505050565b6040518060600160405280600073ffffffffffffffffffffffffffffffffffffffff16815260200160608152602001600081525090565b60405180610120016040528060008152602001600073ffffffffffffffffffffffffffffffffffffffff168152602001606081526020016060815260200160608152602001600081526020016000815260200160008152602001600081525090565b6040518060a001604052806000815260200160008152602001600073ffffffffffffffffffffffffffffffffffffffff16815260200160008152602001600081525090565b6000819050919050565b611f8981611f76565b82525050565b6000602082019050611fa46000830184611f80565b92915050565b6000604051905090565b600080fd5b600080fd5b611fc781611f76565b8114611fd257600080fd5b50565b600081359050611fe481611fbe565b92915050565b60006020828403121561200057611fff611fb4565b5b600061200e84828501611fd5565b91505092915050565b600073ffffffffffffffffffffffffffffffffffffffff82169050919050565b600061204282612017565b9050919050565b61205281612037565b82525050565b600081519050919050565b600082825260208201905092915050565b60005b83811015612092578082015181840152602081019050612077565b60008484015250505050565b6000601f19601f8301169050919050565b60006120ba82612058565b6120c48185612063565b93506120d4818560208601612074565b6120dd8161209e565b840191505092915050565b6000610120820190506120fe600083018c611f80565b61210b602083018b612049565b818103604083015261211d818a6120af565b9050818103606083015261213181896120af565b9050818103608083015261214581886120af565b905061215460a0830187611f80565b61216160c0830186611f80565b61216e60e0830185611f80565b61217c610100830184611f80565b9a9950505050505050505050565b61219381612037565b811461219e57600080fd5b50565b6000813590506121b08161218a565b92915050565b6000602082840312156121cc576121cb611fb4565b5b60006121da848285016121a1565b91505092915050565b600081519050919050565b600082825260208201905092915050565b6000819050602082019050919050565b61221881612037565b82525050565b600082825260208201905092915050565b600061223a82612058565b612244818561221e565b9350612254818560208601612074565b61225d8161209e565b840191505092915050565b61227181611f76565b82525050565b600060608301600083015161228f600086018261220f565b50602083015184820360208601526122a7828261222f565b91505060408301516122bc6040860182612268565b508091505092915050565b60006122d38383612277565b905092915050565b6000602082019050919050565b60006122f3826121e3565b6122fd81856121ee565b93508360208202850161230f856121ff565b8060005b8581101561234b578484038952815161232c85826122c7565b9450612337836122db565b925060208a01995050600181019050612313565b50829750879550505050505092915050565b6000602082019050818103600083015261237781846122e8565b905092915050565b6000806040838503121561239657612395611fb4565b5b60006123a485828601611fd5565b92505060206123b585828601611fd5565b9150509250929050565b600081519050919050565b600082825260208201905092915050565b6000819050602082019050919050565b6000610120830160008301516124046000860182612268565b506020830151612417602086018261220f565b506040830151848203604086015261242f828261222f565b91505060608301518482036060860152612449828261222f565b91505060808301518482036080860152612463828261222f565b91505060a083015161247860a0860182612268565b5060c083015161248b60c0860182612268565b5060e083015161249e60e0860182612268565b506101008301516124b3610100860182612268565b508091505092915050565b60006124ca83836123eb565b905092915050565b6000602082019050919050565b60006124ea826123bf565b6124f481856123ca565b935083602082028501612506856123db565b8060005b85811015612542578484038952815161252385826124be565b945061252e836124d2565b925060208a0199505060018101905061250a565b50829750879550505050505092915050565b600060a082019050818103600083015261256e81886124df565b905061257d6020830187611f80565b61258a6040830186611f80565b6125976060830185611f80565b6125a46080830184611f80565b9695505050505050565b600081519050919050565b600082825260208201905092915050565b6000819050602082019050919050565b60a0820160008201516125f06000850182612268565b5060208201516126036020850182612268565b506040820151612616604085018261220f565b5060608201516126296060850182612268565b50608082015161263c6080850182612268565b50505050565b600061264e83836125da565b60a08301905092915050565b6000602082019050919050565b6000612672826125ae565b61267c81856125b9565b9350612687836125ca565b8060005b838110156126b857815161269f8882612642565b97506126aa8361265a565b92505060018101905061268b565b5085935050505092915050565b600060408201905081810360008301526126df8185612667565b90506126ee6020830184611f80565b9392505050565b60006101208301600083015161270e6000860182612268565b506020830151612721602086018261220f565b5060408301518482036040860152612739828261222f565b91505060608301518482036060860152612753828261222f565b9150506080830151848203608086015261276d828261222f565b91505060a083015161278260a0860182612268565b5060c083015161279560c0860182612268565b5060e08301516127a860e0860182612268565b506101008301516127bd610100860182612268565b508091505092915050565b600060208201905081810360008301526127e281846126f5565b905092915050565b600060a0820190506127ff6000830188611f80565b61280c6020830187611f80565b6128196040830186612049565b6128266060830185611f80565b6128336080830184611f80565b9695505050505050565b600061284882612017565b9050919050565b6128588161283d565b82525050565b6000602082019050612873600083018461284f565b92915050565b600080fd5b600080fd5b7f4e487b7100000000000000000000000000000000000000000000000000000000600052604160045260246000fd5b6128bb8261209e565b810181811067ffffffffffffffff821117156128da576128d9612883565b5b80604052505050565b60006128ed611faa565b90506128f982826128b2565b919050565b600067ffffffffffffffff82111561291957612918612883565b5b6129228261209e565b9050602081019050919050565b82818337600083830152505050565b600061295161294c846128fe565b6128e3565b90508281526020810184848401111561296d5761296c61287e565b5b61297884828561292f565b509392505050565b600082601f83011261299557612994612879565b5b81356129a584826020860161293e565b91505092915050565b600080600080600060a086880312156129ca576129c9611fb4565b5b600086013567ffffffffffffffff8111156129e8576129e7611fb9565b5b6129f488828901612980565b955050602086013567ffffffffffffffff811115612a1557612a14611fb9565b5b612a2188828901612980565b945050604086013567ffffffffffffffff811115612a4257612a41611fb9565b5b612a4e88828901612980565b9350506060612a5f88828901611fd5565b9250506080612a7088828901611fd5565b9150509295509295909350565b6000604082019050612a926000830185611f80565b612a9f6020830184611f80565b9392505050565b60008060008060008060c08789031215612ac357612ac2611fb4565b5b6000612ad189828a01611fd5565b965050602087013567ffffffffffffffff811115612af257612af1611fb9565b5b612afe89828a01612980565b955050604087013567ffffffffffffffff811115612b1f57612b1e611fb9565b5b612b2b89828a01612980565b945050606087013567ffffffffffffffff811115612b4c57612b4b611fb9565b5b612b5889828a01612980565b9350506080612b6989828a01611fd5565b92505060a0612b7a89828a01611fd5565b9150509295509295509295565b7f4e487b7100000000000000000000000000000000000000000000000000000000600052602260045260246000fd5b60006002820490506001821680612bce57607f821691505b602082108103612be157612be0612b87565b5b50919050565b7f4e487b7100000000000000000000000000000000000000000000000000000000600052601160045260246000fd5b6000612c2182611f76565b91507fffffffffffffffffffffffffffffffffffffffffffffffffffffffffffffffff8203612c5357612c52612be7565b5b600182019050919050565b7f4e487b7100000000000000000000000000000000000000000000000000000000600052603260045260246000fd5b7f506167652073697a652063616e6e6f7420626520300000000000000000000000600082015250565b6000612cc3601583612063565b9150612cce82612c8d565b602082019050919050565b60006020820190508181036000830152612cf281612cb6565b9050919050565b7f50616765206e756d6265722063616e6e6f742062652030000000000000000000600082015250565b6000612d2f601783612063565b9150612d3a82612cf9565b602082019050919050565b60006020820190508181036000830152612d5e81612d22565b9050919050565b6000612d7082611f76565b9150612d7b83611f76565b9250828201905080821115612d9357612d92612be7565b5b92915050565b6000612da482611f76565b9150612daf83611f76565b9250828203905081811115612dc757612dc6612be7565b5b92915050565b7f4e487b7100000000000000000000000000000000000000000000000000000000600052601260045260246000fd5b6000612e0782611f76565b9150612e1283611f76565b925082612e2257612e21612dcd565b5b828204905092915050565b6000612e3882611f76565b9150612e4383611f76565b9250828202612e5181611f76565b91508282048414831517612e6857612e67612be7565b5b5092915050565b7f496e76616c69642063616d706169676e20494400000000000000000000000000600082015250565b6000612ea5601383612063565b9150612eb082612e6f565b602082019050919050565b60006020820190508181036000830152612ed481612e98565b9050919050565b7f43616d706169676e20697320616c7265616479206f7665720000000000000000600082015250565b6000612f11601883612063565b9150612f1c82612edb565b602082019050919050565b60006020820190508181036000830152612f4081612f04565b9050919050565b7f446f6e6174696f6e20616d6f756e742073686f756c64206265206d6f7265207460008201527f68616e2030000000000000000000000000000000000000000000000000000000602082015250565b6000612fa3602583612063565b9150612fae82612f47565b604082019050919050565b60006020820190508181036000830152612fd281612f96565b9050919050565b60008190508160005260206000209050919050565b60008154612ffb81612bb6565b6130058186612063565b94506001821660008114613020576001811461303657613069565b60ff198316865281151560200286019350613069565b61303f85612fd9565b60005b8381101561306157815481890152600182019150602081019050613042565b808801955050505b50505092915050565b6000604082019050818103600083015261308c8185612fee565b905061309b6020830184611f80565b9392505050565b7f446174652073686f756c64206265206675747572652064617465000000000000600082015250565b60006130d8601a83612063565b91506130e3826130a2565b602082019050919050565b60006020820190508181036000830152613107816130cb565b9050919050565b7f476f616c20616d6f756e742073686f756c64206265206d6f7265207468616e2060008201527f3000000000000000000000000000000000000000000000000000000000000000602082015250565b600061316a602183612063565b91506131758261310e565b604082019050919050565b600060208201905081810360008301526131998161315d565b9050919050565b7f46756c6c206e616d652063616e6e6f7420626520656d70747900000000000000600082015250565b60006131d6601983612063565b91506131e1826131a0565b602082019050919050565b60006020820190508181036000830152613205816131c9565b9050919050565b7f5469746c652063616e6e6f7420626520656d7074790000000000000000000000600082015250565b6000613242601583612063565b915061324d8261320c565b602082019050919050565b6000602082019050818103600083015261327181613235565b9050919050565b7f53746f72792063616e6e6f7420626520656d7074790000000000000000000000600082015250565b60006132ae601583612063565b91506132b982613278565b602082019050919050565b600060208201905081810360008301526132dd816132a1565b9050919050565b60006020601f8301049050919050565b600082821b905092915050565b6000600883026133317fffffffffffffffffffffffffffffffffffffffffffffffffffffffffffffffff826132f4565b61333b86836132f4565b95508019841693508086168417925050509392505050565b6000819050919050565b600061337861337361336e84611f76565b613353565b611f76565b9050919050565b6000819050919050565b6133928361335d565b6133a661339e8261337f565b848454613301565b825550505050565b600090565b6133bb6133ae565b6133c6818484613389565b505050565b5b818110156133ea576133df6000826133b3565b6001810190506133cc565b5050565b601f82111561342f5761340081612fd9565b613409846132e4565b81016020851015613418578190505b61342c613424856132e4565b8301826133cb565b50505b505050565b600082821c905092915050565b600061345260001984600802613434565b1980831691505092915050565b600061346b8383613441565b9150826002028217905092915050565b61348482612058565b67ffffffffffffffff81111561349d5761349c612883565b5b6134a78254612bb6565b6134b28282856133ee565b600060209050601f8311600181146134e557600084156134d3578287015190505b6134dd858261345f565b865550613545565b601f1984166134f386612fd9565b60005b8281101561351b578489015182556001820191506020850194506020810190506134f6565b868310156135385784890151613534601f891682613441565b8355505b6001600288020188555050505b505050505050565b6000602082019050818103600083015261356781846120af565b905092915050565b7f596f7520617265206e6f74207468652063616d706169676e2063726561746f7260008201527f2100000000000000000000000000000000000000000000000000000000000000602082015250565b60006135cb602183612063565b91506135d68261356f565b604082019050919050565b600060208201905081810360008301526135fa816135be565b9050919050565b6000602082019050818103600083015261361b8184612fee565b90509291505056fea2646970667358221220c76eb21292f3eaba55b0030ccf38a777c3ed1c0795eed2d31dc5e7eea2f6d3a164736f6c63430008120033",
  "linkReferences": {},
  "deployedLinkReferences": {}
}