{
  "_format": "hh-sol-artifact-1",
  "contractName": "CrowdFunding",
  "sourceName": "contracts/CrowdFunding.sol",
  "abi": [
    {
      "inputs": [],
      "stateMutability": "payable",
      "type": "constructor"
    },
    {
      "anonymous": false,
      "inputs": [
        {
          "indexed": true,
          "internalType": "address",
          "name": "sender",
          "type": "address"
        },
        {
          "indexed": false,
          "internalType": "string",
          "name": "title",
          "type": "string"
        }
      ],
      "name": "CampaignCreated",
      "type": "event"
    },
    {
      "anonymous": false,
      "inputs": [
        {
          "indexed": true,
          "internalType": "address",
          "name": "sender",
          "type": "address"
        },
        {
          "indexed": false,
          "internalType": "string",
          "name": "title",
          "type": "string"
        }
      ],
      "name": "CampaignEdited",
      "type": "event"
    },
    {
      "anonymous": false,
      "inputs": [
        {
          "indexed": true,
          "internalType": "address",
          "name": "sender",
          "type": "address"
        },
        {
          "indexed": false,
          "internalType": "string",
          "name": "title",
          "type": "string"
        },
        {
          "indexed": false,
          "internalType": "uint256",
          "name": "amount",
          "type": "uint256"
        }
      ],
      "name": "DonationSent",
      "type": "event"
    },
    {
      "inputs": [
        {
          "internalType": "uint256",
          "name": "",
          "type": "uint256"
        }
      ],
      "name": "campaigns",
      "outputs": [
        {
          "internalType": "uint256",
          "name": "id",
          "type": "uint256"
        },
        {
          "internalType": "address",
          "name": "creator",
          "type": "address"
        },
        {
          "internalType": "string",
          "name": "fullname",
          "type": "string"
        },
        {
          "internalType": "string",
          "name": "title",
          "type": "string"
        },
        {
          "internalType": "string",
          "name": "story",
          "type": "string"
        },
        {
          "internalType": "uint256",
          "name": "goalAmount",
          "type": "uint256"
        },
        {
          "internalType": "uint256",
          "name": "currentAmount",
          "type": "uint256"
        },
        {
          "internalType": "uint256",
          "name": "deadline",
          "type": "uint256"
        },
        {
          "internalType": "uint256",
          "name": "totalDonations",
          "type": "uint256"
        }
      ],
      "stateMutability": "view",
      "type": "function"
    },
    {
      "inputs": [
        {
          "internalType": "string",
          "name": "_fullname",
          "type": "string"
        },
        {
          "internalType": "string",
          "name": "_title",
          "type": "string"
        },
        {
          "internalType": "string",
          "name": "_story",
          "type": "string"
        },
        {
          "internalType": "uint256",
          "name": "_goalAmount",
          "type": "uint256"
        },
        {
          "internalType": "uint256",
          "name": "_deadline",
          "type": "uint256"
        }
      ],
      "name": "createCampaign",
      "outputs": [],
      "stateMutability": "nonpayable",
      "type": "function"
    },
    {
      "inputs": [
        {
          "internalType": "uint256",
          "name": "",
          "type": "uint256"
        }
      ],
      "name": "donationTransactions",
      "outputs": [
        {
          "internalType": "uint256",
          "name": "id",
          "type": "uint256"
        },
        {
          "internalType": "uint256",
          "name": "campaignId",
          "type": "uint256"
        },
        {
          "internalType": "address",
          "name": "donor",
          "type": "address"
        },
        {
          "internalType": "uint256",
          "name": "amount",
          "type": "uint256"
        },
        {
          "internalType": "uint256",
          "name": "timestamp",
          "type": "uint256"
        }
      ],
      "stateMutability": "view",
      "type": "function"
    },
    {
      "inputs": [
        {
          "internalType": "uint256",
          "name": "_campaignId",
          "type": "uint256"
        },
        {
          "internalType": "string",
          "name": "_fullname",
          "type": "string"
        },
        {
          "internalType": "string",
          "name": "_title",
          "type": "string"
        },
        {
          "internalType": "string",
          "name": "_story",
          "type": "string"
        },
        {
          "internalType": "uint256",
          "name": "_goalAmount",
          "type": "uint256"
        },
        {
          "internalType": "uint256",
          "name": "_deadline",
          "type": "uint256"
        }
      ],
      "name": "editCampaign",
      "outputs": [],
      "stateMutability": "nonpayable",
      "type": "function"
    },
    {
      "inputs": [
        {
          "internalType": "uint256",
          "name": "_campaignId",
          "type": "uint256"
        }
      ],
      "name": "getCampaign",
      "outputs": [
        {
          "components": [
            {
              "internalType": "uint256",
              "name": "id",
              "type": "uint256"
            },
            {
              "internalType": "address",
              "name": "creator",
              "type": "address"
            },
            {
              "internalType": "string",
              "name": "fullname",
              "type": "string"
            },
            {
              "internalType": "string",
              "name": "title",
              "type": "string"
            },
            {
              "internalType": "string",
              "name": "story",
              "type": "string"
            },
            {
              "internalType": "uint256",
              "name": "goalAmount",
              "type": "uint256"
            },
            {
              "internalType": "uint256",
              "name": "currentAmount",
              "type": "uint256"
            },
            {
              "internalType": "uint256",
              "name": "deadline",
              "type": "uint256"
            },
            {
              "internalType": "uint256",
              "name": "totalDonations",
              "type": "uint256"
            }
          ],
          "internalType": "struct CrowdFunding.Campaign",
          "name": "",
          "type": "tuple"
        }
      ],
      "stateMutability": "view",
      "type": "function"
    },
    {
      "inputs": [
        {
          "internalType": "uint256",
          "name": "_campaignId",
          "type": "uint256"
        }
      ],
      "name": "getCampaignDonations",
      "outputs": [
        {
          "components": [
            {
              "internalType": "uint256",
              "name": "id",
              "type": "uint256"
            },
            {
              "internalType": "uint256",
              "name": "campaignId",
              "type": "uint256"
            },
            {
              "internalType": "address",
              "name": "donor",
              "type": "address"
            },
            {
              "internalType": "uint256",
              "name": "amount",
              "type": "uint256"
            },
            {
              "internalType": "uint256",
              "name": "timestamp",
              "type": "uint256"
            }
          ],
          "internalType": "struct CrowdFunding.DonationTransaction[]",
          "name": "allDonations",
          "type": "tuple[]"
        },
        {
          "internalType": "uint256",
          "name": "totalCampaignDonations",
          "type": "uint256"
        }
      ],
      "stateMutability": "view",
      "type": "function"
    },
    {
      "inputs": [
        {
          "internalType": "address",
          "name": "_walletAddress",
          "type": "address"
        },
        {
          "internalType": "uint256",
          "name": "_pageSize",
          "type": "uint256"
        },
        {
          "internalType": "uint256",
          "name": "_pageNumber",
          "type": "uint256"
        }
      ],
      "name": "getDonatorsByWalletAddress",
      "outputs": [
        {
          "components": [
            {
              "internalType": "address",
              "name": "userAddress",
              "type": "address"
            },
            {
              "internalType": "string",
              "name": "campaignTitle",
              "type": "string"
            },
            {
              "internalType": "uint256",
              "name": "donationAmount",
              "type": "uint256"
            }
          ],
          "internalType": "struct CrowdFunding.DonationData[]",
          "name": "donations",
          "type": "tuple[]"
        },
        {
          "internalType": "uint256",
          "name": "donatorCount",
          "type": "uint256"
        },
        {
          "internalType": "uint256",
          "name": "totalPages",
          "type": "uint256"
        },
        {
          "internalType": "uint256",
          "name": "nextPage",
          "type": "uint256"
        },
        {
          "internalType": "uint256",
          "name": "previousPage",
          "type": "uint256"
        }
      ],
      "stateMutability": "view",
      "type": "function"
    },
    {
      "inputs": [
        {
          "internalType": "uint256",
          "name": "_size",
          "type": "uint256"
        }
      ],
      "name": "getRecentCampaigns",
      "outputs": [
        {
          "components": [
            {
              "internalType": "uint256",
              "name": "id",
              "type": "uint256"
            },
            {
              "internalType": "address",
              "name": "creator",
              "type": "address"
            },
            {
              "internalType": "string",
              "name": "fullname",
              "type": "string"
            },
            {
              "internalType": "string",
              "name": "title",
              "type": "string"
            },
            {
              "internalType": "string",
              "name": "story",
              "type": "string"
            },
            {
              "internalType": "uint256",
              "name": "goalAmount",
              "type": "uint256"
            },
            {
              "internalType": "uint256",
              "name": "currentAmount",
              "type": "uint256"
            },
            {
              "internalType": "uint256",
              "name": "deadline",
              "type": "uint256"
            },
            {
              "internalType": "uint256",
              "name": "totalDonations",
              "type": "uint256"
            }
          ],
          "internalType": "struct CrowdFunding.Campaign[]",
          "name": "recentCampaigns",
          "type": "tuple[]"
        },
        {
          "internalType": "uint256",
          "name": "totalFetchedCampaigns",
          "type": "uint256"
        },
        {
          "internalType": "uint256",
          "name": "totalAllCampaigns",
          "type": "uint256"
        }
      ],
      "stateMutability": "view",
      "type": "function"
    },
    {
      "inputs": [
        {
          "internalType": "uint256",
          "name": "_pageSize",
          "type": "uint256"
        },
        {
          "internalType": "uint256",
          "name": "_pageNumber",
          "type": "uint256"
        }
      ],
      "name": "getUserCampaigns",
      "outputs": [
        {
          "components": [
            {
              "internalType": "uint256",
              "name": "id",
              "type": "uint256"
            },
            {
              "internalType": "address",
              "name": "creator",
              "type": "address"
            },
            {
              "internalType": "string",
              "name": "fullname",
              "type": "string"
            },
            {
              "internalType": "string",
              "name": "title",
              "type": "string"
            },
            {
              "internalType": "string",
              "name": "story",
              "type": "string"
            },
            {
              "internalType": "uint256",
              "name": "goalAmount",
              "type": "uint256"
            },
            {
              "internalType": "uint256",
              "name": "currentAmount",
              "type": "uint256"
            },
            {
              "internalType": "uint256",
              "name": "deadline",
              "type": "uint256"
            },
            {
              "internalType": "uint256",
              "name": "totalDonations",
              "type": "uint256"
            }
          ],
          "internalType": "struct CrowdFunding.Campaign[]",
          "name": "allCampaigns",
          "type": "tuple[]"
        },
        {
          "internalType": "uint256",
          "name": "userTotalCampaigns",
          "type": "uint256"
        },
        {
          "internalType": "uint256",
          "name": "totalPages",
          "type": "uint256"
        },
        {
          "internalType": "uint256",
          "name": "nextPage",
          "type": "uint256"
        },
        {
          "internalType": "uint256",
          "name": "previousPage",
          "type": "uint256"
        }
      ],
      "stateMutability": "view",
      "type": "function"
    },
    {
      "inputs": [
        {
          "internalType": "address",
          "name": "_userAddress",
          "type": "address"
        },
        {
          "internalType": "uint256",
          "name": "_pageSize",
          "type": "uint256"
        },
        {
          "internalType": "uint256",
          "name": "_pageNumber",
          "type": "uint256"
        }
      ],
      "name": "getUserDonations",
      "outputs": [
        {
          "components": [
            {
              "internalType": "address",
              "name": "userAddress",
              "type": "address"
            },
            {
              "internalType": "string",
              "name": "campaignTitle",
              "type": "string"
            },
            {
              "internalType": "uint256",
              "name": "donationAmount",
              "type": "uint256"
            }
          ],
          "internalType": "struct CrowdFunding.DonationData[]",
          "name": "userDonations",
          "type": "tuple[]"
        },
        {
          "components": [
            {
              "internalType": "uint256",
              "name": "totalPages",
              "type": "uint256"
            },
            {
              "internalType": "uint256",
              "name": "nextPage",
              "type": "uint256"
            },
            {
              "internalType": "uint256",
              "name": "previousPage",
              "type": "uint256"
            },
            {
              "internalType": "uint256",
              "name": "startIndex",
              "type": "uint256"
            },
            {
              "internalType": "uint256",
              "name": "endIndex",
              "type": "uint256"
            }
          ],
          "internalType": "struct CrowdFunding.PaginationData",
          "name": "pagination",
          "type": "tuple"
        }
      ],
      "stateMutability": "view",
      "type": "function"
    },
    {
      "inputs": [],
      "name": "owner",
      "outputs": [
        {
          "internalType": "address payable",
          "name": "",
          "type": "address"
        }
      ],
      "stateMutability": "view",
      "type": "function"
    },
    {
      "inputs": [
        {
          "internalType": "uint256",
          "name": "_campaignId",
          "type": "uint256"
        }
      ],
      "name": "sendDonation",
      "outputs": [],
      "stateMutability": "payable",
      "type": "function"
    },
    {
      "inputs": [],
      "name": "totalCampaigns",
      "outputs": [
        {
          "internalType": "uint256",
          "name": "",
          "type": "uint256"
        }
      ],
      "stateMutability": "view",
      "type": "function"
    },
    {
      "inputs": [],
      "name": "totalDonations",
      "outputs": [
        {
          "internalType": "uint256",
          "name": "",
          "type": "uint256"
        }
      ],
      "stateMutability": "view",
      "type": "function"
    },
    {
      "inputs": [
        {
          "internalType": "address",
          "name": "",
          "type": "address"
        }
      ],
      "name": "users",
      "outputs": [
        {
          "internalType": "uint256",
          "name": "totalCampaigns",
          "type": "uint256"
        },
        {
          "internalType": "uint256",
          "name": "totalDonations",
          "type": "uint256"
        }
      ],
      "stateMutability": "view",
      "type": "function"
    }
  ],
  "bytecode": "0x6080604052336000806101000a81548173ffffffffffffffffffffffffffffffffffffffff021916908373ffffffffffffffffffffffffffffffffffffffff16021790555060006004819055506141538061005b6000396000f3fe6080604052600436106100e85760003560e01c806371b7baae1161008a578063a87430ba11610059578063a87430ba14610347578063b0445d6014610385578063de2ed893146103c6578063e1a783a0146103f1576100e8565b806371b7baae146102735780638acd0bfc146102b25780638da5cb5b146102f3578063980f2e661461031e576100e8565b806345d0b60a116100c657806345d0b60a1461019e5780635167642f146101dc5780635598f8cc1461021a578063665588c914610257576100e8565b806302932f56146100ed578063141961bc146101185780633e3b66751461015d575b600080fd5b3480156100f957600080fd5b5061010261041a565b60405161010f9190612928565b60405180910390f35b34801561012457600080fd5b5061013f600480360381019061013a9190612983565b610420565b60405161015499989796959493929190612a81565b60405180910390f35b34801561016957600080fd5b50610184600480360381019061017f9190612b23565b610626565b604051610195959493929190612d60565b60405180910390f35b3480156101aa57600080fd5b506101c560048036038101906101c09190612de6565b6109da565b6040516101d3929190612fb3565b60405180910390f35b3480156101e857600080fd5b5061020360048036038101906101fe9190612983565b610e61565b6040516102119291906130fa565b60405180910390f35b34801561022657600080fd5b50610241600480360381019061023c9190612983565b611236565b60405161024e91906131fd565b60405180910390f35b610271600480360381019061026c9190612983565b6114a2565b005b34801561027f57600080fd5b5061029a60048036038101906102959190612983565b611792565b6040516102a99392919061321f565b60405180910390f35b3480156102be57600080fd5b506102d960048036038101906102d49190612983565b611aef565b6040516102ea95949392919061325d565b60405180910390f35b3480156102ff57600080fd5b50610308611b45565b60405161031591906132d1565b60405180910390f35b34801561032a57600080fd5b5061034560048036038101906103409190613421565b611b69565b005b34801561035357600080fd5b5061036e600480360381019061036991906134f0565b611f65565b60405161037c92919061351d565b60405180910390f35b34801561039157600080fd5b506103ac60048036038101906103a79190612de6565b611f89565b6040516103bd959493929190613546565b60405180910390f35b3480156103d257600080fd5b506103db612359565b6040516103e89190612928565b60405180910390f35b3480156103fd57600080fd5b50610418600480360381019061041391906135a0565b61235f565b005b60045481565b60026020528060005260406000206000915090508060000154908060010160009054906101000a900473ffffffffffffffffffffffffffffffffffffffff169080600201805461046f906136b0565b80601f016020809104026020016040519081016040528092919081815260200182805461049b906136b0565b80156104e85780601f106104bd576101008083540402835291602001916104e8565b820191906000526020600020905b8154815290600101906020018083116104cb57829003601f168201915b5050505050908060030180546104fd906136b0565b80601f0160208091040260200160405190810160405280929190818152602001828054610529906136b0565b80156105765780601f1061054b57610100808354040283529160200191610576565b820191906000526020600020905b81548152906001019060200180831161055957829003601f168201915b50505050509080600401805461058b906136b0565b80601f01602080910402602001604051908101604052809291908181526020018280546105b7906136b0565b80156106045780601f106105d957610100808354040283529160200191610604565b820191906000526020600020905b8154815290600101906020018083116105e757829003601f168201915b5050505050908060050154908060060154908060070154908060080154905089565b60606000806000806000600160003373ffffffffffffffffffffffffffffffffffffffff1673ffffffffffffffffffffffffffffffffffffffff1681526020019081526020016000209050600061068282600001548a8a612656565b9050806060015181608001516106989190613710565b67ffffffffffffffff8111156106b1576106b06132f6565b5b6040519080825280602002602001820160405280156106ea57816020015b6106d7612802565b8152602001906001900390816106cf5790505b50965060005b87518110156109b1576000600260008560020160008587606001516107159190613744565b815260200190815260200160002054815260200190815260200160002060405180610120016040529081600082015481526020016001820160009054906101000a900473ffffffffffffffffffffffffffffffffffffffff1673ffffffffffffffffffffffffffffffffffffffff1673ffffffffffffffffffffffffffffffffffffffff1681526020016002820180546107ae906136b0565b80601f01602080910402602001604051908101604052809291908181526020018280546107da906136b0565b80156108275780601f106107fc57610100808354040283529160200191610827565b820191906000526020600020905b81548152906001019060200180831161080a57829003601f168201915b50505050508152602001600382018054610840906136b0565b80601f016020809104026020016040519081016040528092919081815260200182805461086c906136b0565b80156108b95780601f1061088e576101008083540402835291602001916108b9565b820191906000526020600020905b81548152906001019060200180831161089c57829003601f168201915b505050505081526020016004820180546108d2906136b0565b80601f01602080910402602001604051908101604052809291908181526020018280546108fe906136b0565b801561094b5780601f106109205761010080835404028352916020019161094b565b820191906000526020600020905b81548152906001019060200180831161092e57829003601f168201915b5050505050815260200160058201548152602001600682015481526020016007820154815260200160088201548152505090508089838151811061099257610991613778565b5b60200260200101819052505080806109a9906137a7565b9150506106f0565b508160000154955080600001519450806020015193508060400151925050509295509295909350565b60606109e4612864565b600080600160008873ffffffffffffffffffffffffffffffffffffffff1673ffffffffffffffffffffffffffffffffffffffff1681526020019081526020016000209050610a3781600101548787612656565b925082606001518360800151610a4d9190613710565b67ffffffffffffffff811115610a6657610a656132f6565b5b604051908082528060200260200182016040528015610a9f57816020015b610a8c612893565b815260200190600190039081610a845790505b5093506000836060015190505b8360800151811015610e56576000600360008460030160008581526020019081526020016000205481526020019081526020016000206040518060a001604052908160008201548152602001600182015481526020016002820160009054906101000a900473ffffffffffffffffffffffffffffffffffffffff1673ffffffffffffffffffffffffffffffffffffffff1673ffffffffffffffffffffffffffffffffffffffff1681526020016003820154815260200160048201548152505090506000600260008360200151815260200190815260200160002060405180610120016040529081600082015481526020016001820160009054906101000a900473ffffffffffffffffffffffffffffffffffffffff1673ffffffffffffffffffffffffffffffffffffffff1673ffffffffffffffffffffffffffffffffffffffff168152602001600282018054610c02906136b0565b80601f0160208091040260200160405190810160405280929190818152602001828054610c2e906136b0565b8015610c7b5780601f10610c5057610100808354040283529160200191610c7b565b820191906000526020600020905b815481529060010190602001808311610c5e57829003601f168201915b50505050508152602001600382018054610c94906136b0565b80601f0160208091040260200160405190810160405280929190818152602001828054610cc0906136b0565b8015610d0d5780601f10610ce257610100808354040283529160200191610d0d565b820191906000526020600020905b815481529060010190602001808311610cf057829003601f168201915b50505050508152602001600482018054610d26906136b0565b80601f0160208091040260200160405190810160405280929190818152602001828054610d52906136b0565b8015610d9f5780601f10610d7457610100808354040283529160200191610d9f565b820191906000526020600020905b815481529060010190602001808311610d8257829003601f168201915b50505050508152602001600582015481526020016006820154815260200160078201548152602001600882015481525050905060006040518060600160405280836020015173ffffffffffffffffffffffffffffffffffffffff168152602001836060015181526020018460600151815250905080888781518110610e2757610e26613778565b5b60200260200101819052508580610e3d906137a7565b9650505050508080610e4e906137a7565b915050610aac565b505050935093915050565b60606000806002600085815260200190815260200160002060405180610120016040529081600082015481526020016001820160009054906101000a900473ffffffffffffffffffffffffffffffffffffffff1673ffffffffffffffffffffffffffffffffffffffff1673ffffffffffffffffffffffffffffffffffffffff168152602001600282018054610ef5906136b0565b80601f0160208091040260200160405190810160405280929190818152602001828054610f21906136b0565b8015610f6e5780601f10610f4357610100808354040283529160200191610f6e565b820191906000526020600020905b815481529060010190602001808311610f5157829003601f168201915b50505050508152602001600382018054610f87906136b0565b80601f0160208091040260200160405190810160405280929190818152602001828054610fb3906136b0565b80156110005780601f10610fd557610100808354040283529160200191611000565b820191906000526020600020905b815481529060010190602001808311610fe357829003601f168201915b50505050508152602001600482018054611019906136b0565b80601f0160208091040260200160405190810160405280929190818152602001828054611045906136b0565b80156110925780601f1061106757610100808354040283529160200191611092565b820191906000526020600020905b81548152906001019060200180831161107557829003601f168201915b50505050508152602001600582015481526020016006820154815260200160078201548152602001600882015481525050905080610100015191508167ffffffffffffffff8111156110e7576110e66132f6565b5b60405190808252806020026020018201604052801561112057816020015b61110d6128ca565b8152602001906001900390816111055790505b5092506000805b60055481101561122e57826000015160036000838152602001908152602001600020600101540361121b57600360008281526020019081526020016000206040518060a001604052908160008201548152602001600182015481526020016002820160009054906101000a900473ffffffffffffffffffffffffffffffffffffffff1673ffffffffffffffffffffffffffffffffffffffff1673ffffffffffffffffffffffffffffffffffffffff1681526020016003820154815260200160048201548152505085838151811061120157611200613778565b5b60200260200101819052508180611217906137a7565b9250505b8080611226906137a7565b915050611127565b505050915091565b61123e612802565b6002600083815260200190815260200160002060405180610120016040529081600082015481526020016001820160009054906101000a900473ffffffffffffffffffffffffffffffffffffffff1673ffffffffffffffffffffffffffffffffffffffff1673ffffffffffffffffffffffffffffffffffffffff1681526020016002820180546112cd906136b0565b80601f01602080910402602001604051908101604052809291908181526020018280546112f9906136b0565b80156113465780601f1061131b57610100808354040283529160200191611346565b820191906000526020600020905b81548152906001019060200180831161132957829003601f168201915b5050505050815260200160038201805461135f906136b0565b80601f016020809104026020016040519081016040528092919081815260200182805461138b906136b0565b80156113d85780601f106113ad576101008083540402835291602001916113d8565b820191906000526020600020905b8154815290600101906020018083116113bb57829003601f168201915b505050505081526020016004820180546113f1906136b0565b80601f016020809104026020016040519081016040528092919081815260200182805461141d906136b0565b801561146a5780601f1061143f5761010080835404028352916020019161146a565b820191906000526020600020905b81548152906001019060200180831161144d57829003601f168201915b505050505081526020016005820154815260200160068201548152602001600782015481526020016008820154815250509050919050565b600081101580156114b4575060045481105b6114f3576040517f08c379a00000000000000000000000000000000000000000000000000000000081526004016114ea9061383b565b60405180910390fd5b60006002600083815260200190815260200160002090508060070154421115611551576040517f08c379a0000000000000000000000000000000000000000000000000000000008152600401611548906138a7565b60405180910390fd5b60003411611594576040517f08c379a000000000000000000000000000000000000000000000000000000000815260040161158b90613939565b60405180910390fd5b6000600160003373ffffffffffffffffffffffffffffffffffffffff1673ffffffffffffffffffffffffffffffffffffffff168152602001908152602001600020905060008160010154905060006040518060a001604052806005548152602001856000015481526020013373ffffffffffffffffffffffffffffffffffffffff16815260200134815260200142815250905080600360006005548152602001908152602001600020600082015181600001556020820151816001015560408201518160020160006101000a81548173ffffffffffffffffffffffffffffffffffffffff021916908373ffffffffffffffffffffffffffffffffffffffff1602179055506060820151816003015560808201518160040155905050806000015183600301600084815260200190815260200160002081905550348460060160008282546116e19190613744565b92505081905550600560008154809291906116fb906137a7565b9190505550826001016000815480929190611715906137a7565b919050555083600801600081548092919061172f906137a7565b91905055503373ffffffffffffffffffffffffffffffffffffffff167f3b5443c59641f965c6df0836dbe11676fa8c79c3184392351bb19fd51de3d49a8560030186600601546040516117839291906139f2565b60405180910390a25050505050565b6060600080600060045485106117a95760006117b8565b846004546117b79190613710565b5b9050600060045486106117cd576004546117cf565b855b90508067ffffffffffffffff8111156117eb576117ea6132f6565b5b60405190808252806020026020018201604052801561182457816020015b611811612802565b8152602001906001900390816118095790505b50945060005b81811015611acb576002600082856118429190613744565b815260200190815260200160002060405180610120016040529081600082015481526020016001820160009054906101000a900473ffffffffffffffffffffffffffffffffffffffff1673ffffffffffffffffffffffffffffffffffffffff1673ffffffffffffffffffffffffffffffffffffffff1681526020016002820180546118cc906136b0565b80601f01602080910402602001604051908101604052809291908181526020018280546118f8906136b0565b80156119455780601f1061191a57610100808354040283529160200191611945565b820191906000526020600020905b81548152906001019060200180831161192857829003601f168201915b5050505050815260200160038201805461195e906136b0565b80601f016020809104026020016040519081016040528092919081815260200182805461198a906136b0565b80156119d75780601f106119ac576101008083540402835291602001916119d7565b820191906000526020600020905b8154815290600101906020018083116119ba57829003601f168201915b505050505081526020016004820180546119f0906136b0565b80601f0160208091040260200160405190810160405280929190818152602001828054611a1c906136b0565b8015611a695780601f10611a3e57610100808354040283529160200191611a69565b820191906000526020600020905b815481529060010190602001808311611a4c57829003601f168201915b50505050508152602001600582015481526020016006820154815260200160078201548152602001600882015481525050868281518110611aad57611aac613778565b5b60200260200101819052508080611ac3906137a7565b91505061182a565b50600060045411611add576000611adf565b805b9350600454925050509193909250565b60036020528060005260406000206000915090508060000154908060010154908060020160009054906101000a900473ffffffffffffffffffffffffffffffffffffffff16908060030154908060040154905085565b60008054906101000a900473ffffffffffffffffffffffffffffffffffffffff1681565b8484848484428111611bb0576040517f08c379a0000000000000000000000000000000000000000000000000000000008152600401611ba790613a6e565b60405180910390fd5b60008211611bf3576040517f08c379a0000000000000000000000000000000000000000000000000000000008152600401611bea90613b00565b60405180910390fd5b6000855111611c37576040517f08c379a0000000000000000000000000000000000000000000000000000000008152600401611c2e90613b6c565b60405180910390fd5b6000845111611c7b576040517f08c379a0000000000000000000000000000000000000000000000000000000008152600401611c7290613bd8565b60405180910390fd5b6000835111611cbf576040517f08c379a0000000000000000000000000000000000000000000000000000000008152600401611cb690613c44565b60405180910390fd5b600060405180610120016040528060045481526020013373ffffffffffffffffffffffffffffffffffffffff1681526020018c81526020018b81526020018a81526020018981526020016000815260200188815260200160008152509050806002600060045481526020019081526020016000206000820151816000015560208201518160010160006101000a81548173ffffffffffffffffffffffffffffffffffffffff021916908373ffffffffffffffffffffffffffffffffffffffff1602179055506040820151816002019081611d999190613dfb565b506060820151816003019081611daf9190613dfb565b506080820151816004019081611dc59190613dfb565b5060a0820151816005015560c0820151816006015560e0820151816007015561010082015181600801559050506000600160003373ffffffffffffffffffffffffffffffffffffffff1673ffffffffffffffffffffffffffffffffffffffff1681526020019081526020016000206000015490508160000151600160003373ffffffffffffffffffffffffffffffffffffffff1673ffffffffffffffffffffffffffffffffffffffff168152602001908152602001600020600201600083815260200190815260200160002081905550600160003373ffffffffffffffffffffffffffffffffffffffff1673ffffffffffffffffffffffffffffffffffffffff1681526020019081526020016000206000016000815480929190611ee8906137a7565b919050555060046000815480929190611f00906137a7565b91905055503373ffffffffffffffffffffffffffffffffffffffff167f17dd0b5f0975f4651b002ed3b016428bae979f5704d8b2473931b2312185c05a8360600151604051611f4f9190613ecd565b60405180910390a2505050505050505050505050565b60016020528060005260406000206000915090508060000154908060010154905082565b606060008060008060009350611f9d612864565b60005b6004548110156120845760006002600083815260200190815260200160002090508a73ffffffffffffffffffffffffffffffffffffffff168160010160009054906101000a900473ffffffffffffffffffffffffffffffffffffffff1673ffffffffffffffffffffffffffffffffffffffff16036120705760005b60055481101561206e576000600360008381526020019081526020016000209050826000015481600101540361205a578880612056906137a7565b9950505b508080612066906137a7565b91505061201b565b505b50808061207c906137a7565b915050611fa0565b50612090858989612656565b9050806060015181608001516120a69190613710565b67ffffffffffffffff8111156120bf576120be6132f6565b5b6040519080825280602002602001820160405280156120f857816020015b6120e5612893565b8152602001906001900390816120dd5790505b5095506000805b6004548110156123365760006002600083815260200190815260200160002090508b73ffffffffffffffffffffffffffffffffffffffff168160010160009054906101000a900473ffffffffffffffffffffffffffffffffffffffff1673ffffffffffffffffffffffffffffffffffffffff16036123225760005b600554811015612320576000600360008381526020019081526020016000209050826000015481600101540361230c57856060015185101580156121c15750856080015185105b156122fd576121ce612893565b8160020160009054906101000a900473ffffffffffffffffffffffffffffffffffffffff16816000019073ffffffffffffffffffffffffffffffffffffffff16908173ffffffffffffffffffffffffffffffffffffffff1681525050836003018054612239906136b0565b80601f0160208091040260200160405190810160405280929190818152602001828054612265906136b0565b80156122b25780601f10612287576101008083540402835291602001916122b2565b820191906000526020600020905b81548152906001019060200180831161229557829003601f168201915b505050505081602001819052508160030154816040018181525050808c8860600151886122df9190613710565b815181106122f0576122ef613778565b5b6020026020010181905250505b8480612308906137a7565b9550505b508080612318906137a7565b91505061217a565b505b50808061232e906137a7565b9150506120ff565b508160000151945081602001519350816040015192505050939792965093509350565b60055481565b84848484844281116123a6576040517f08c379a000000000000000000000000000000000000000000000000000000000815260040161239d90613a6e565b60405180910390fd5b600082116123e9576040517f08c379a00000000000000000000000000000000000000000000000000000000081526004016123e090613b00565b60405180910390fd5b600085511161242d576040517f08c379a000000000000000000000000000000000000000000000000000000000815260040161242490613b6c565b60405180910390fd5b6000845111612471576040517f08c379a000000000000000000000000000000000000000000000000000000000815260040161246890613bd8565b60405180910390fd5b60008351116124b5576040517f08c379a00000000000000000000000000000000000000000000000000000000081526004016124ac90613c44565b60405180910390fd5b6000600260008d8152602001908152602001600020905060008c101580156124de57506004548c105b61251d576040517f08c379a00000000000000000000000000000000000000000000000000000000081526004016125149061383b565b60405180910390fd5b3373ffffffffffffffffffffffffffffffffffffffff168160010160009054906101000a900473ffffffffffffffffffffffffffffffffffffffff1673ffffffffffffffffffffffffffffffffffffffff16146125af576040517f08c379a00000000000000000000000000000000000000000000000000000000081526004016125a690613f61565b60405180910390fd5b8a8160020190816125c09190613dfb565b50898160030190816125d29190613dfb565b50888160040190816125e49190613dfb565b508781600501819055508681600701819055503373ffffffffffffffffffffffffffffffffffffffff167fb961c338b427968a67f1a3560907d7075a0d1fca0c2d16dcb76da3a963cfe373826003016040516126409190613f81565b60405180910390a2505050505050505050505050565b61265e612864565b600083116126a1576040517f08c379a000000000000000000000000000000000000000000000000000000000815260040161269890613fef565b60405180910390fd5b600082116126e4576040517f08c379a00000000000000000000000000000000000000000000000000000000081526004016126db9061405b565b60405180910390fd5b6126ec612864565b83600185876126fb9190613744565b6127059190613710565b61270f91906140aa565b816000018181525050600081600001511161272b576000612744565b6001836127389190613710565b8461274391906140db565b5b8160600181815250508481606001518561275e9190613744565b11612778578060600151846127739190613744565b61277a565b845b816080018181525050806000015183106127985780600001516127a6565b6001836127a59190613744565b5b816020018181525050600183116127be5760016127cc565b6001836127cb9190613710565b5b81604001818152505060008160000151116127e85760006127ee565b80604001515b816040018181525050809150509392505050565b60405180610120016040528060008152602001600073ffffffffffffffffffffffffffffffffffffffff168152602001606081526020016060815260200160608152602001600081526020016000815260200160008152602001600081525090565b6040518060a0016040528060008152602001600081526020016000815260200160008152602001600081525090565b6040518060600160405280600073ffffffffffffffffffffffffffffffffffffffff16815260200160608152602001600081525090565b6040518060a001604052806000815260200160008152602001600073ffffffffffffffffffffffffffffffffffffffff16815260200160008152602001600081525090565b6000819050919050565b6129228161290f565b82525050565b600060208201905061293d6000830184612919565b92915050565b6000604051905090565b600080fd5b600080fd5b6129608161290f565b811461296b57600080fd5b50565b60008135905061297d81612957565b92915050565b6000602082840312156129995761299861294d565b5b60006129a78482850161296e565b91505092915050565b600073ffffffffffffffffffffffffffffffffffffffff82169050919050565b60006129db826129b0565b9050919050565b6129eb816129d0565b82525050565b600081519050919050565b600082825260208201905092915050565b60005b83811015612a2b578082015181840152602081019050612a10565b60008484015250505050565b6000601f19601f8301169050919050565b6000612a53826129f1565b612a5d81856129fc565b9350612a6d818560208601612a0d565b612a7681612a37565b840191505092915050565b600061012082019050612a97600083018c612919565b612aa4602083018b6129e2565b8181036040830152612ab6818a612a48565b90508181036060830152612aca8189612a48565b90508181036080830152612ade8188612a48565b9050612aed60a0830187612919565b612afa60c0830186612919565b612b0760e0830185612919565b612b15610100830184612919565b9a9950505050505050505050565b60008060408385031215612b3a57612b3961294d565b5b6000612b488582860161296e565b9250506020612b598582860161296e565b9150509250929050565b600081519050919050565b600082825260208201905092915050565b6000819050602082019050919050565b612b988161290f565b82525050565b612ba7816129d0565b82525050565b600082825260208201905092915050565b6000612bc9826129f1565b612bd38185612bad565b9350612be3818560208601612a0d565b612bec81612a37565b840191505092915050565b600061012083016000830151612c106000860182612b8f565b506020830151612c236020860182612b9e565b5060408301518482036040860152612c3b8282612bbe565b91505060608301518482036060860152612c558282612bbe565b91505060808301518482036080860152612c6f8282612bbe565b91505060a0830151612c8460a0860182612b8f565b5060c0830151612c9760c0860182612b8f565b5060e0830151612caa60e0860182612b8f565b50610100830151612cbf610100860182612b8f565b508091505092915050565b6000612cd68383612bf7565b905092915050565b6000602082019050919050565b6000612cf682612b63565b612d008185612b6e565b935083602082028501612d1285612b7f565b8060005b85811015612d4e5784840389528151612d2f8582612cca565b9450612d3a83612cde565b925060208a01995050600181019050612d16565b50829750879550505050505092915050565b600060a0820190508181036000830152612d7a8188612ceb565b9050612d896020830187612919565b612d966040830186612919565b612da36060830185612919565b612db06080830184612919565b9695505050505050565b612dc3816129d0565b8114612dce57600080fd5b50565b600081359050612de081612dba565b92915050565b600080600060608486031215612dff57612dfe61294d565b5b6000612e0d86828701612dd1565b9350506020612e1e8682870161296e565b9250506040612e2f8682870161296e565b9150509250925092565b600081519050919050565b600082825260208201905092915050565b6000819050602082019050919050565b6000606083016000830151612e7d6000860182612b9e565b5060208301518482036020860152612e958282612bbe565b9150506040830151612eaa6040860182612b8f565b508091505092915050565b6000612ec18383612e65565b905092915050565b6000602082019050919050565b6000612ee182612e39565b612eeb8185612e44565b935083602082028501612efd85612e55565b8060005b85811015612f395784840389528151612f1a8582612eb5565b9450612f2583612ec9565b925060208a01995050600181019050612f01565b50829750879550505050505092915050565b60a082016000820151612f616000850182612b8f565b506020820151612f746020850182612b8f565b506040820151612f876040850182612b8f565b506060820151612f9a6060850182612b8f565b506080820151612fad6080850182612b8f565b50505050565b600060c0820190508181036000830152612fcd8185612ed6565b9050612fdc6020830184612f4b565b9392505050565b600081519050919050565b600082825260208201905092915050565b6000819050602082019050919050565b60a0820160008201516130256000850182612b8f565b5060208201516130386020850182612b8f565b50604082015161304b6040850182612b9e565b50606082015161305e6060850182612b8f565b5060808201516130716080850182612b8f565b50505050565b6000613083838361300f565b60a08301905092915050565b6000602082019050919050565b60006130a782612fe3565b6130b18185612fee565b93506130bc83612fff565b8060005b838110156130ed5781516130d48882613077565b97506130df8361308f565b9250506001810190506130c0565b5085935050505092915050565b60006040820190508181036000830152613114818561309c565b90506131236020830184612919565b9392505050565b6000610120830160008301516131436000860182612b8f565b5060208301516131566020860182612b9e565b506040830151848203604086015261316e8282612bbe565b915050606083015184820360608601526131888282612bbe565b915050608083015184820360808601526131a28282612bbe565b91505060a08301516131b760a0860182612b8f565b5060c08301516131ca60c0860182612b8f565b5060e08301516131dd60e0860182612b8f565b506101008301516131f2610100860182612b8f565b508091505092915050565b60006020820190508181036000830152613217818461312a565b905092915050565b600060608201905081810360008301526132398186612ceb565b90506132486020830185612919565b6132556040830184612919565b949350505050565b600060a0820190506132726000830188612919565b61327f6020830187612919565b61328c60408301866129e2565b6132996060830185612919565b6132a66080830184612919565b9695505050505050565b60006132bb826129b0565b9050919050565b6132cb816132b0565b82525050565b60006020820190506132e660008301846132c2565b92915050565b600080fd5b600080fd5b7f4e487b7100000000000000000000000000000000000000000000000000000000600052604160045260246000fd5b61332e82612a37565b810181811067ffffffffffffffff8211171561334d5761334c6132f6565b5b80604052505050565b6000613360612943565b905061336c8282613325565b919050565b600067ffffffffffffffff82111561338c5761338b6132f6565b5b61339582612a37565b9050602081019050919050565b82818337600083830152505050565b60006133c46133bf84613371565b613356565b9050828152602081018484840111156133e0576133df6132f1565b5b6133eb8482856133a2565b509392505050565b600082601f830112613408576134076132ec565b5b81356134188482602086016133b1565b91505092915050565b600080600080600060a0868803121561343d5761343c61294d565b5b600086013567ffffffffffffffff81111561345b5761345a612952565b5b613467888289016133f3565b955050602086013567ffffffffffffffff81111561348857613487612952565b5b613494888289016133f3565b945050604086013567ffffffffffffffff8111156134b5576134b4612952565b5b6134c1888289016133f3565b93505060606134d28882890161296e565b92505060806134e38882890161296e565b9150509295509295909350565b6000602082840312156135065761350561294d565b5b600061351484828501612dd1565b91505092915050565b60006040820190506135326000830185612919565b61353f6020830184612919565b9392505050565b600060a08201905081810360008301526135608188612ed6565b905061356f6020830187612919565b61357c6040830186612919565b6135896060830185612919565b6135966080830184612919565b9695505050505050565b60008060008060008060c087890312156135bd576135bc61294d565b5b60006135cb89828a0161296e565b965050602087013567ffffffffffffffff8111156135ec576135eb612952565b5b6135f889828a016133f3565b955050604087013567ffffffffffffffff81111561361957613618612952565b5b61362589828a016133f3565b945050606087013567ffffffffffffffff81111561364657613645612952565b5b61365289828a016133f3565b935050608061366389828a0161296e565b92505060a061367489828a0161296e565b9150509295509295509295565b7f4e487b7100000000000000000000000000000000000000000000000000000000600052602260045260246000fd5b600060028204905060018216806136c857607f821691505b6020821081036136db576136da613681565b5b50919050565b7f4e487b7100000000000000000000000000000000000000000000000000000000600052601160045260246000fd5b600061371b8261290f565b91506137268361290f565b925082820390508181111561373e5761373d6136e1565b5b92915050565b600061374f8261290f565b915061375a8361290f565b9250828201905080821115613772576137716136e1565b5b92915050565b7f4e487b7100000000000000000000000000000000000000000000000000000000600052603260045260246000fd5b60006137b28261290f565b91507fffffffffffffffffffffffffffffffffffffffffffffffffffffffffffffffff82036137e4576137e36136e1565b5b600182019050919050565b7f496e76616c69642063616d706169676e20494400000000000000000000000000600082015250565b60006138256013836129fc565b9150613830826137ef565b602082019050919050565b6000602082019050818103600083015261385481613818565b9050919050565b7f43616d706169676e20697320616c7265616479206f7665720000000000000000600082015250565b60006138916018836129fc565b915061389c8261385b565b602082019050919050565b600060208201905081810360008301526138c081613884565b9050919050565b7f446f6e6174696f6e20616d6f756e742073686f756c64206265206d6f7265207460008201527f68616e2030000000000000000000000000000000000000000000000000000000602082015250565b60006139236025836129fc565b915061392e826138c7565b604082019050919050565b6000602082019050818103600083015261395281613916565b9050919050565b60008190508160005260206000209050919050565b6000815461397b816136b0565b61398581866129fc565b945060018216600081146139a057600181146139b6576139e9565b60ff1983168652811515602002860193506139e9565b6139bf85613959565b60005b838110156139e1578154818901526001820191506020810190506139c2565b808801955050505b50505092915050565b60006040820190508181036000830152613a0c818561396e565b9050613a1b6020830184612919565b9392505050565b7f446174652073686f756c64206265206675747572652064617465000000000000600082015250565b6000613a58601a836129fc565b9150613a6382613a22565b602082019050919050565b60006020820190508181036000830152613a8781613a4b565b9050919050565b7f476f616c20616d6f756e742073686f756c64206265206d6f7265207468616e2060008201527f3000000000000000000000000000000000000000000000000000000000000000602082015250565b6000613aea6021836129fc565b9150613af582613a8e565b604082019050919050565b60006020820190508181036000830152613b1981613add565b9050919050565b7f46756c6c206e616d652063616e6e6f7420626520656d70747900000000000000600082015250565b6000613b566019836129fc565b9150613b6182613b20565b602082019050919050565b60006020820190508181036000830152613b8581613b49565b9050919050565b7f5469746c652063616e6e6f7420626520656d7074790000000000000000000000600082015250565b6000613bc26015836129fc565b9150613bcd82613b8c565b602082019050919050565b60006020820190508181036000830152613bf181613bb5565b9050919050565b7f53746f72792063616e6e6f7420626520656d7074790000000000000000000000600082015250565b6000613c2e6015836129fc565b9150613c3982613bf8565b602082019050919050565b60006020820190508181036000830152613c5d81613c21565b9050919050565b60006020601f8301049050919050565b600082821b905092915050565b600060088302613cb17fffffffffffffffffffffffffffffffffffffffffffffffffffffffffffffffff82613c74565b613cbb8683613c74565b95508019841693508086168417925050509392505050565b6000819050919050565b6000613cf8613cf3613cee8461290f565b613cd3565b61290f565b9050919050565b6000819050919050565b613d1283613cdd565b613d26613d1e82613cff565b848454613c81565b825550505050565b600090565b613d3b613d2e565b613d46818484613d09565b505050565b5b81811015613d6a57613d5f600082613d33565b600181019050613d4c565b5050565b601f821115613daf57613d8081613959565b613d8984613c64565b81016020851015613d98578190505b613dac613da485613c64565b830182613d4b565b50505b505050565b600082821c905092915050565b6000613dd260001984600802613db4565b1980831691505092915050565b6000613deb8383613dc1565b9150826002028217905092915050565b613e04826129f1565b67ffffffffffffffff811115613e1d57613e1c6132f6565b5b613e2782546136b0565b613e32828285613d6e565b600060209050601f831160018114613e655760008415613e53578287015190505b613e5d8582613ddf565b865550613ec5565b601f198416613e7386613959565b60005b82811015613e9b57848901518255600182019150602085019450602081019050613e76565b86831015613eb85784890151613eb4601f891682613dc1565b8355505b6001600288020188555050505b505050505050565b60006020820190508181036000830152613ee78184612a48565b905092915050565b7f596f7520617265206e6f74207468652063616d706169676e2063726561746f7260008201527f2100000000000000000000000000000000000000000000000000000000000000602082015250565b6000613f4b6021836129fc565b9150613f5682613eef565b604082019050919050565b60006020820190508181036000830152613f7a81613f3e565b9050919050565b60006020820190508181036000830152613f9b818461396e565b905092915050565b7f506167652073697a652063616e6e6f7420626520300000000000000000000000600082015250565b6000613fd96015836129fc565b9150613fe482613fa3565b602082019050919050565b6000602082019050818103600083015261400881613fcc565b9050919050565b7f50616765206e756d6265722063616e6e6f742062652030000000000000000000600082015250565b60006140456017836129fc565b91506140508261400f565b602082019050919050565b6000602082019050818103600083015261407481614038565b9050919050565b7f4e487b7100000000000000000000000000000000000000000000000000000000600052601260045260246000fd5b60006140b58261290f565b91506140c08361290f565b9250826140d0576140cf61407b565b5b828204905092915050565b60006140e68261290f565b91506140f18361290f565b92508282026140ff8161290f565b91508282048414831517614116576141156136e1565b5b509291505056fea2646970667358221220cd3178780ae9c3d9cde115ffb8c4de0e327195af1ec3c87df3c85c14b844b3e764736f6c63430008120033",
  "linkReferences": {},
  "deployedLinkReferences": {}
}