{
  "_format": "hh-sol-artifact-1",
  "contractName": "CrowdFunding",
  "sourceName": "contracts/CrowdFunding.sol",
  "abi": [
    {
      "inputs": [],
      "stateMutability": "payable",
      "type": "constructor"
    },
    {
      "anonymous": false,
      "inputs": [
        {
          "indexed": true,
          "internalType": "address",
          "name": "sender",
          "type": "address"
        },
        {
          "indexed": false,
          "internalType": "string",
          "name": "title",
          "type": "string"
        }
      ],
      "name": "CampaignCreated",
      "type": "event"
    },
    {
      "anonymous": false,
      "inputs": [
        {
          "indexed": true,
          "internalType": "address",
          "name": "sender",
          "type": "address"
        },
        {
          "indexed": false,
          "internalType": "string",
          "name": "title",
          "type": "string"
        }
      ],
      "name": "CampaignEdited",
      "type": "event"
    },
    {
      "anonymous": false,
      "inputs": [
        {
          "indexed": true,
          "internalType": "address",
          "name": "sender",
          "type": "address"
        },
        {
          "indexed": false,
          "internalType": "string",
          "name": "title",
          "type": "string"
        },
        {
          "indexed": false,
          "internalType": "uint256",
          "name": "amount",
          "type": "uint256"
        }
      ],
      "name": "DonationSent",
      "type": "event"
    },
    {
      "inputs": [
        {
          "internalType": "uint256",
          "name": "",
          "type": "uint256"
        }
      ],
      "name": "campaigns",
      "outputs": [
        {
          "internalType": "uint256",
          "name": "id",
          "type": "uint256"
        },
        {
          "internalType": "address",
          "name": "creator",
          "type": "address"
        },
        {
          "internalType": "string",
          "name": "fullname",
          "type": "string"
        },
        {
          "internalType": "string",
          "name": "title",
          "type": "string"
        },
        {
          "internalType": "string",
          "name": "story",
          "type": "string"
        },
        {
          "internalType": "uint256",
          "name": "goalAmount",
          "type": "uint256"
        },
        {
          "internalType": "uint256",
          "name": "currentAmount",
          "type": "uint256"
        },
        {
          "internalType": "uint256",
          "name": "deadline",
          "type": "uint256"
        },
        {
          "internalType": "uint256",
          "name": "totalDonations",
          "type": "uint256"
        }
      ],
      "stateMutability": "view",
      "type": "function"
    },
    {
      "inputs": [
        {
          "internalType": "string",
          "name": "_fullname",
          "type": "string"
        },
        {
          "internalType": "string",
          "name": "_title",
          "type": "string"
        },
        {
          "internalType": "string",
          "name": "_story",
          "type": "string"
        },
        {
          "internalType": "uint256",
          "name": "_goalAmount",
          "type": "uint256"
        },
        {
          "internalType": "uint256",
          "name": "_deadline",
          "type": "uint256"
        }
      ],
      "name": "createCampaign",
      "outputs": [],
      "stateMutability": "nonpayable",
      "type": "function"
    },
    {
      "inputs": [
        {
          "internalType": "uint256",
          "name": "",
          "type": "uint256"
        }
      ],
      "name": "donationTransactions",
      "outputs": [
        {
          "internalType": "uint256",
          "name": "id",
          "type": "uint256"
        },
        {
          "internalType": "uint256",
          "name": "campaignId",
          "type": "uint256"
        },
        {
          "internalType": "address",
          "name": "donor",
          "type": "address"
        },
        {
          "internalType": "uint256",
          "name": "amount",
          "type": "uint256"
        },
        {
          "internalType": "uint256",
          "name": "timestamp",
          "type": "uint256"
        }
      ],
      "stateMutability": "view",
      "type": "function"
    },
    {
      "inputs": [
        {
          "internalType": "uint256",
          "name": "_campaignId",
          "type": "uint256"
        },
        {
          "internalType": "string",
          "name": "_fullname",
          "type": "string"
        },
        {
          "internalType": "string",
          "name": "_title",
          "type": "string"
        },
        {
          "internalType": "string",
          "name": "_story",
          "type": "string"
        },
        {
          "internalType": "uint256",
          "name": "_goalAmount",
          "type": "uint256"
        },
        {
          "internalType": "uint256",
          "name": "_deadline",
          "type": "uint256"
        }
      ],
      "name": "editCampaign",
      "outputs": [],
      "stateMutability": "nonpayable",
      "type": "function"
    },
    {
      "inputs": [
        {
          "internalType": "uint256",
          "name": "_size",
          "type": "uint256"
        },
        {
          "internalType": "uint256",
          "name": "_startIndex",
          "type": "uint256"
        }
      ],
      "name": "getAllCampaigns",
      "outputs": [
        {
          "components": [
            {
              "internalType": "uint256",
              "name": "id",
              "type": "uint256"
            },
            {
              "internalType": "address",
              "name": "creator",
              "type": "address"
            },
            {
              "internalType": "string",
              "name": "fullname",
              "type": "string"
            },
            {
              "internalType": "string",
              "name": "title",
              "type": "string"
            },
            {
              "internalType": "string",
              "name": "story",
              "type": "string"
            },
            {
              "internalType": "uint256",
              "name": "goalAmount",
              "type": "uint256"
            },
            {
              "internalType": "uint256",
              "name": "currentAmount",
              "type": "uint256"
            },
            {
              "internalType": "uint256",
              "name": "deadline",
              "type": "uint256"
            },
            {
              "internalType": "uint256",
              "name": "totalDonations",
              "type": "uint256"
            }
          ],
          "internalType": "struct CrowdFunding.Campaign[]",
          "name": "allCampaigns",
          "type": "tuple[]"
        },
        {
          "components": [
            {
              "internalType": "bool",
              "name": "isLastPage",
              "type": "bool"
            },
            {
              "internalType": "uint256",
              "name": "nextIndex",
              "type": "uint256"
            }
          ],
          "internalType": "struct CrowdFunding.ResultIndexData",
          "name": "indexData",
          "type": "tuple"
        }
      ],
      "stateMutability": "view",
      "type": "function"
    },
    {
      "inputs": [
        {
          "internalType": "uint256",
          "name": "_campaignId",
          "type": "uint256"
        }
      ],
      "name": "getCampaign",
      "outputs": [
        {
          "components": [
            {
              "internalType": "uint256",
              "name": "id",
              "type": "uint256"
            },
            {
              "internalType": "address",
              "name": "creator",
              "type": "address"
            },
            {
              "internalType": "string",
              "name": "fullname",
              "type": "string"
            },
            {
              "internalType": "string",
              "name": "title",
              "type": "string"
            },
            {
              "internalType": "string",
              "name": "story",
              "type": "string"
            },
            {
              "internalType": "uint256",
              "name": "goalAmount",
              "type": "uint256"
            },
            {
              "internalType": "uint256",
              "name": "currentAmount",
              "type": "uint256"
            },
            {
              "internalType": "uint256",
              "name": "deadline",
              "type": "uint256"
            },
            {
              "internalType": "uint256",
              "name": "totalDonations",
              "type": "uint256"
            }
          ],
          "internalType": "struct CrowdFunding.Campaign",
          "name": "",
          "type": "tuple"
        }
      ],
      "stateMutability": "view",
      "type": "function"
    },
    {
      "inputs": [
        {
          "internalType": "uint256",
          "name": "_campaignId",
          "type": "uint256"
        }
      ],
      "name": "getCampaignDonations",
      "outputs": [
        {
          "components": [
            {
              "internalType": "uint256",
              "name": "id",
              "type": "uint256"
            },
            {
              "internalType": "uint256",
              "name": "campaignId",
              "type": "uint256"
            },
            {
              "internalType": "address",
              "name": "donor",
              "type": "address"
            },
            {
              "internalType": "uint256",
              "name": "amount",
              "type": "uint256"
            },
            {
              "internalType": "uint256",
              "name": "timestamp",
              "type": "uint256"
            }
          ],
          "internalType": "struct CrowdFunding.DonationTransaction[]",
          "name": "allDonations",
          "type": "tuple[]"
        },
        {
          "internalType": "uint256",
          "name": "totalCampaignDonations",
          "type": "uint256"
        }
      ],
      "stateMutability": "view",
      "type": "function"
    },
    {
      "inputs": [
        {
          "internalType": "address",
          "name": "_walletAddress",
          "type": "address"
        },
        {
          "internalType": "uint256",
          "name": "_pageSize",
          "type": "uint256"
        },
        {
          "internalType": "uint256",
          "name": "_pageNumber",
          "type": "uint256"
        }
      ],
      "name": "getDonatorsByWalletAddress",
      "outputs": [
        {
          "components": [
            {
              "internalType": "address",
              "name": "userAddress",
              "type": "address"
            },
            {
              "internalType": "string",
              "name": "campaignTitle",
              "type": "string"
            },
            {
              "internalType": "uint256",
              "name": "donationAmount",
              "type": "uint256"
            }
          ],
          "internalType": "struct CrowdFunding.DonationData[]",
          "name": "donations",
          "type": "tuple[]"
        },
        {
          "internalType": "uint256",
          "name": "donatorCount",
          "type": "uint256"
        },
        {
          "internalType": "uint256",
          "name": "totalPages",
          "type": "uint256"
        },
        {
          "internalType": "uint256",
          "name": "nextPage",
          "type": "uint256"
        },
        {
          "internalType": "uint256",
          "name": "previousPage",
          "type": "uint256"
        }
      ],
      "stateMutability": "view",
      "type": "function"
    },
    {
      "inputs": [
        {
          "internalType": "uint256",
          "name": "_size",
          "type": "uint256"
        }
      ],
      "name": "getRecentCampaigns",
      "outputs": [
        {
          "components": [
            {
              "internalType": "uint256",
              "name": "id",
              "type": "uint256"
            },
            {
              "internalType": "address",
              "name": "creator",
              "type": "address"
            },
            {
              "internalType": "string",
              "name": "fullname",
              "type": "string"
            },
            {
              "internalType": "string",
              "name": "title",
              "type": "string"
            },
            {
              "internalType": "string",
              "name": "story",
              "type": "string"
            },
            {
              "internalType": "uint256",
              "name": "goalAmount",
              "type": "uint256"
            },
            {
              "internalType": "uint256",
              "name": "currentAmount",
              "type": "uint256"
            },
            {
              "internalType": "uint256",
              "name": "deadline",
              "type": "uint256"
            },
            {
              "internalType": "uint256",
              "name": "totalDonations",
              "type": "uint256"
            }
          ],
          "internalType": "struct CrowdFunding.Campaign[]",
          "name": "recentCampaigns",
          "type": "tuple[]"
        },
        {
          "internalType": "uint256",
          "name": "totalFetchedCampaigns",
          "type": "uint256"
        },
        {
          "internalType": "uint256",
          "name": "totalAllCampaigns",
          "type": "uint256"
        }
      ],
      "stateMutability": "view",
      "type": "function"
    },
    {
      "inputs": [
        {
          "internalType": "uint256",
          "name": "_pageSize",
          "type": "uint256"
        },
        {
          "internalType": "uint256",
          "name": "_pageNumber",
          "type": "uint256"
        }
      ],
      "name": "getUserCampaigns",
      "outputs": [
        {
          "components": [
            {
              "internalType": "uint256",
              "name": "id",
              "type": "uint256"
            },
            {
              "internalType": "address",
              "name": "creator",
              "type": "address"
            },
            {
              "internalType": "string",
              "name": "fullname",
              "type": "string"
            },
            {
              "internalType": "string",
              "name": "title",
              "type": "string"
            },
            {
              "internalType": "string",
              "name": "story",
              "type": "string"
            },
            {
              "internalType": "uint256",
              "name": "goalAmount",
              "type": "uint256"
            },
            {
              "internalType": "uint256",
              "name": "currentAmount",
              "type": "uint256"
            },
            {
              "internalType": "uint256",
              "name": "deadline",
              "type": "uint256"
            },
            {
              "internalType": "uint256",
              "name": "totalDonations",
              "type": "uint256"
            }
          ],
          "internalType": "struct CrowdFunding.Campaign[]",
          "name": "allCampaigns",
          "type": "tuple[]"
        },
        {
          "internalType": "uint256",
          "name": "userTotalCampaigns",
          "type": "uint256"
        },
        {
          "internalType": "uint256",
          "name": "totalPages",
          "type": "uint256"
        },
        {
          "internalType": "uint256",
          "name": "nextPage",
          "type": "uint256"
        },
        {
          "internalType": "uint256",
          "name": "previousPage",
          "type": "uint256"
        }
      ],
      "stateMutability": "view",
      "type": "function"
    },
    {
      "inputs": [
        {
          "internalType": "address",
          "name": "_userAddress",
          "type": "address"
        },
        {
          "internalType": "uint256",
          "name": "_pageSize",
          "type": "uint256"
        },
        {
          "internalType": "uint256",
          "name": "_pageNumber",
          "type": "uint256"
        }
      ],
      "name": "getUserDonations",
      "outputs": [
        {
          "components": [
            {
              "internalType": "address",
              "name": "userAddress",
              "type": "address"
            },
            {
              "internalType": "string",
              "name": "campaignTitle",
              "type": "string"
            },
            {
              "internalType": "uint256",
              "name": "donationAmount",
              "type": "uint256"
            }
          ],
          "internalType": "struct CrowdFunding.DonationData[]",
          "name": "userDonations",
          "type": "tuple[]"
        },
        {
          "components": [
            {
              "internalType": "uint256",
              "name": "totalPages",
              "type": "uint256"
            },
            {
              "internalType": "uint256",
              "name": "nextPage",
              "type": "uint256"
            },
            {
              "internalType": "uint256",
              "name": "previousPage",
              "type": "uint256"
            },
            {
              "internalType": "uint256",
              "name": "startIndex",
              "type": "uint256"
            },
            {
              "internalType": "uint256",
              "name": "endIndex",
              "type": "uint256"
            }
          ],
          "internalType": "struct CrowdFunding.PaginationData",
          "name": "pagination",
          "type": "tuple"
        }
      ],
      "stateMutability": "view",
      "type": "function"
    },
    {
      "inputs": [],
      "name": "owner",
      "outputs": [
        {
          "internalType": "address payable",
          "name": "",
          "type": "address"
        }
      ],
      "stateMutability": "view",
      "type": "function"
    },
    {
      "inputs": [
        {
          "internalType": "string",
          "name": "searchTerm",
          "type": "string"
        },
        {
          "internalType": "uint256",
          "name": "pageSize",
          "type": "uint256"
        },
        {
          "internalType": "uint256",
          "name": "startIndex",
          "type": "uint256"
        }
      ],
      "name": "searchByTitle",
      "outputs": [
        {
          "components": [
            {
              "internalType": "uint256",
              "name": "id",
              "type": "uint256"
            },
            {
              "internalType": "address",
              "name": "creator",
              "type": "address"
            },
            {
              "internalType": "string",
              "name": "fullname",
              "type": "string"
            },
            {
              "internalType": "string",
              "name": "title",
              "type": "string"
            },
            {
              "internalType": "string",
              "name": "story",
              "type": "string"
            },
            {
              "internalType": "uint256",
              "name": "goalAmount",
              "type": "uint256"
            },
            {
              "internalType": "uint256",
              "name": "currentAmount",
              "type": "uint256"
            },
            {
              "internalType": "uint256",
              "name": "deadline",
              "type": "uint256"
            },
            {
              "internalType": "uint256",
              "name": "totalDonations",
              "type": "uint256"
            }
          ],
          "internalType": "struct CrowdFunding.Campaign[]",
          "name": "matchingCampaigns",
          "type": "tuple[]"
        },
        {
          "components": [
            {
              "internalType": "bool",
              "name": "isLastPage",
              "type": "bool"
            },
            {
              "internalType": "uint256",
              "name": "nextIndex",
              "type": "uint256"
            }
          ],
          "internalType": "struct CrowdFunding.ResultIndexData",
          "name": "searchIndexData",
          "type": "tuple"
        }
      ],
      "stateMutability": "view",
      "type": "function"
    },
    {
      "inputs": [
        {
          "internalType": "uint256",
          "name": "_campaignId",
          "type": "uint256"
        }
      ],
      "name": "sendDonation",
      "outputs": [],
      "stateMutability": "payable",
      "type": "function"
    },
    {
      "inputs": [],
      "name": "totalCampaigns",
      "outputs": [
        {
          "internalType": "uint256",
          "name": "",
          "type": "uint256"
        }
      ],
      "stateMutability": "view",
      "type": "function"
    },
    {
      "inputs": [],
      "name": "totalDonations",
      "outputs": [
        {
          "internalType": "uint256",
          "name": "",
          "type": "uint256"
        }
      ],
      "stateMutability": "view",
      "type": "function"
    },
    {
      "inputs": [
        {
          "internalType": "address",
          "name": "",
          "type": "address"
        }
      ],
      "name": "users",
      "outputs": [
        {
          "internalType": "uint256",
          "name": "totalCampaigns",
          "type": "uint256"
        },
        {
          "internalType": "uint256",
          "name": "totalDonations",
          "type": "uint256"
        }
      ],
      "stateMutability": "view",
      "type": "function"
    }
  ],
  "bytecode": "0x6080604052336000806101000a81548173ffffffffffffffffffffffffffffffffffffffff021916908373ffffffffffffffffffffffffffffffffffffffff1602179055506000600481905550614f208061005b6000396000f3fe6080604052600436106100fe5760003560e01c8063665588c911610095578063980f2e6611610064578063980f2e66146103b0578063a87430ba146103d9578063b0445d6014610417578063de2ed89314610458578063e1a783a014610483576100fe565b8063665588c9146102e957806371b7baae146103055780638acd0bfc146103445780638da5cb5b14610385576100fe565b80633e3b6675116100d15780633e3b6675146101ef57806345d0b60a146102305780635167642f1461026e5780635598f8cc146102ac576100fe565b806302932f5614610103578063141961bc1461012e578063253343e7146101735780632e5293f3146101b1575b600080fd5b34801561010f57600080fd5b506101186104ac565b604051610125919061355e565b60405180910390f35b34801561013a57600080fd5b50610155600480360381019061015091906135b9565b6104b2565b60405161016a999897969594939291906136b7565b60405180910390f35b34801561017f57600080fd5b5061019a60048036038101906101959190613759565b6106b8565b6040516101a89291906139e0565b60405180910390f35b3480156101bd57600080fd5b506101d860048036038101906101d39190613b45565b610a71565b6040516101e69291906139e0565b60405180910390f35b3480156101fb57600080fd5b5061021660048036038101906102119190613759565b610fe2565b604051610227959493929190613bb4565b60405180910390f35b34801561023c57600080fd5b5061025760048036038101906102529190613c3a565b611396565b604051610265929190613e07565b60405180910390f35b34801561027a57600080fd5b50610295600480360381019061029091906135b9565b61181d565b6040516102a3929190613f4e565b60405180910390f35b3480156102b857600080fd5b506102d360048036038101906102ce91906135b9565b611bf2565b6040516102e09190614051565b60405180910390f35b61030360048036038101906102fe91906135b9565b611e5e565b005b34801561031157600080fd5b5061032c600480360381019061032791906135b9565b61214e565b60405161033b93929190614073565b60405180910390f35b34801561035057600080fd5b5061036b600480360381019061036691906135b9565b6124ab565b60405161037c9594939291906140b1565b60405180910390f35b34801561039157600080fd5b5061039a612501565b6040516103a79190614125565b60405180910390f35b3480156103bc57600080fd5b506103d760048036038101906103d29190614140565b612525565b005b3480156103e557600080fd5b5061040060048036038101906103fb919061420f565b612921565b60405161040e92919061423c565b60405180910390f35b34801561042357600080fd5b5061043e60048036038101906104399190613c3a565b612945565b60405161044f959493929190614265565b60405180910390f35b34801561046457600080fd5b5061046d612d15565b60405161047a919061355e565b60405180910390f35b34801561048f57600080fd5b506104aa60048036038101906104a591906142bf565b612d1b565b005b60045481565b60026020528060005260406000206000915090508060000154908060010160009054906101000a900473ffffffffffffffffffffffffffffffffffffffff1690806002018054610501906143cf565b80601f016020809104026020016040519081016040528092919081815260200182805461052d906143cf565b801561057a5780601f1061054f5761010080835404028352916020019161057a565b820191906000526020600020905b81548152906001019060200180831161055d57829003601f168201915b50505050509080600301805461058f906143cf565b80601f01602080910402602001604051908101604052809291908181526020018280546105bb906143cf565b80156106085780601f106105dd57610100808354040283529160200191610608565b820191906000526020600020905b8154815290600101906020018083116105eb57829003601f168201915b50505050509080600401805461061d906143cf565b80601f0160208091040260200160405190810160405280929190818152602001828054610649906143cf565b80156106965780601f1061066b57610100808354040283529160200191610696565b820191906000526020600020905b81548152906001019060200180831161067957829003601f168201915b5050505050908060050154908060060154908060070154908060080154905089565b60606106c261341c565b60008411610705576040517f08c379a00000000000000000000000000000000000000000000000000000000081526004016106fc9061444c565b60405180910390fd5b8383610711919061449b565b8160200181815250508260045461072891906144cf565b841061075b578260045461073c91906144cf565b9350600181600001901515908115158152505060008160200181815250505b60008467ffffffffffffffff81111561077757610776613a1a565b5b6040519080825280602002602001820160405280156107b057816020015b61079d613438565b8152602001906001900390816107955790505b50925060008490505b85856107c5919061449b565b811015610a68576002600082815260200190815260200160002060405180610120016040529081600082015481526020016001820160009054906101000a900473ffffffffffffffffffffffffffffffffffffffff1673ffffffffffffffffffffffffffffffffffffffff1673ffffffffffffffffffffffffffffffffffffffff16815260200160028201805461085b906143cf565b80601f0160208091040260200160405190810160405280929190818152602001828054610887906143cf565b80156108d45780601f106108a9576101008083540402835291602001916108d4565b820191906000526020600020905b8154815290600101906020018083116108b757829003601f168201915b505050505081526020016003820180546108ed906143cf565b80601f0160208091040260200160405190810160405280929190818152602001828054610919906143cf565b80156109665780601f1061093b57610100808354040283529160200191610966565b820191906000526020600020905b81548152906001019060200180831161094957829003601f168201915b5050505050815260200160048201805461097f906143cf565b80601f01602080910402602001604051908101604052809291908181526020018280546109ab906143cf565b80156109f85780601f106109cd576101008083540402835291602001916109f8565b820191906000526020600020905b8154815290600101906020018083116109db57829003601f168201915b50505050508152602001600582015481526020016006820154815260200160078201548152602001600882015481525050848381518110610a3c57610a3b614503565b5b60200260200101819052508180610a5290614532565b9250508080610a6090614532565b9150506107b9565b50509250929050565b6060610a7b61341c565b60008411610abe576040517f08c379a0000000000000000000000000000000000000000000000000000000008152600401610ab5906145c6565b60405180910390fd5b6000808490505b60045481108015610ad65750858214155b15610c0a57610b93610b85600260008481526020019081526020016000206003018054610b02906143cf565b80601f0160208091040260200160405190810160405280929190818152602001828054610b2e906143cf565b8015610b7b5780601f10610b5057610100808354040283529160200191610b7b565b820191906000526020600020905b815481529060010190602001808311610b5e57829003601f168201915b5050505050613012565b610b8e89613012565b6130fd565b15610ba7578180610ba390614532565b9250505b858203610bc557600181610bbb919061449b565b8360200181815250505b600454600182610bd5919061449b565b03610bf757600183600001901515908115158152505060008360200181815250505b8080610c0290614532565b915050610ac5565b508067ffffffffffffffff811115610c2557610c24613a1a565b5b604051908082528060200260200182016040528015610c5e57816020015b610c4b613438565b815260200190600190039081610c435790505b5092506000808590505b60045481108015610c7857508282105b15610fd757610d35610d27600260008481526020019081526020016000206003018054610ca4906143cf565b80601f0160208091040260200160405190810160405280929190818152602001828054610cd0906143cf565b8015610d1d5780601f10610cf257610100808354040283529160200191610d1d565b820191906000526020600020905b815481529060010190602001808311610d0057829003601f168201915b5050505050613012565b610d308a613012565b6130fd565b15610fc4576002600082815260200190815260200160002060405180610120016040529081600082015481526020016001820160009054906101000a900473ffffffffffffffffffffffffffffffffffffffff1673ffffffffffffffffffffffffffffffffffffffff1673ffffffffffffffffffffffffffffffffffffffff168152602001600282018054610dc9906143cf565b80601f0160208091040260200160405190810160405280929190818152602001828054610df5906143cf565b8015610e425780601f10610e1757610100808354040283529160200191610e42565b820191906000526020600020905b815481529060010190602001808311610e2557829003601f168201915b50505050508152602001600382018054610e5b906143cf565b80601f0160208091040260200160405190810160405280929190818152602001828054610e87906143cf565b8015610ed45780601f10610ea957610100808354040283529160200191610ed4565b820191906000526020600020905b815481529060010190602001808311610eb757829003601f168201915b50505050508152602001600482018054610eed906143cf565b80601f0160208091040260200160405190810160405280929190818152602001828054610f19906143cf565b8015610f665780601f10610f3b57610100808354040283529160200191610f66565b820191906000526020600020905b815481529060010190602001808311610f4957829003601f168201915b50505050508152602001600582015481526020016006820154815260200160078201548152602001600882015481525050858381518110610faa57610fa9614503565b5b60200260200101819052508180610fc090614532565b9250505b8080610fcf90614532565b915050610c68565b505050935093915050565b60606000806000806000600160003373ffffffffffffffffffffffffffffffffffffffff1673ffffffffffffffffffffffffffffffffffffffff1681526020019081526020016000209050600061103e82600001548a8a613228565b90508060600151816080015161105491906144cf565b67ffffffffffffffff81111561106d5761106c613a1a565b5b6040519080825280602002602001820160405280156110a657816020015b611093613438565b81526020019060019003908161108b5790505b50965060005b875181101561136d576000600260008560020160008587606001516110d1919061449b565b815260200190815260200160002054815260200190815260200160002060405180610120016040529081600082015481526020016001820160009054906101000a900473ffffffffffffffffffffffffffffffffffffffff1673ffffffffffffffffffffffffffffffffffffffff1673ffffffffffffffffffffffffffffffffffffffff16815260200160028201805461116a906143cf565b80601f0160208091040260200160405190810160405280929190818152602001828054611196906143cf565b80156111e35780601f106111b8576101008083540402835291602001916111e3565b820191906000526020600020905b8154815290600101906020018083116111c657829003601f168201915b505050505081526020016003820180546111fc906143cf565b80601f0160208091040260200160405190810160405280929190818152602001828054611228906143cf565b80156112755780601f1061124a57610100808354040283529160200191611275565b820191906000526020600020905b81548152906001019060200180831161125857829003601f168201915b5050505050815260200160048201805461128e906143cf565b80601f01602080910402602001604051908101604052809291908181526020018280546112ba906143cf565b80156113075780601f106112dc57610100808354040283529160200191611307565b820191906000526020600020905b8154815290600101906020018083116112ea57829003601f168201915b5050505050815260200160058201548152602001600682015481526020016007820154815260200160088201548152505090508089838151811061134e5761134d614503565b5b602002602001018190525050808061136590614532565b9150506110ac565b508160000154955080600001519450806020015193508060400151925050509295509295909350565b60606113a061349a565b600080600160008873ffffffffffffffffffffffffffffffffffffffff1673ffffffffffffffffffffffffffffffffffffffff16815260200190815260200160002090506113f381600101548787613228565b92508260600151836080015161140991906144cf565b67ffffffffffffffff81111561142257611421613a1a565b5b60405190808252806020026020018201604052801561145b57816020015b6114486134c9565b8152602001906001900390816114405790505b5093506000836060015190505b8360800151811015611812576000600360008460030160008581526020019081526020016000205481526020019081526020016000206040518060a001604052908160008201548152602001600182015481526020016002820160009054906101000a900473ffffffffffffffffffffffffffffffffffffffff1673ffffffffffffffffffffffffffffffffffffffff1673ffffffffffffffffffffffffffffffffffffffff1681526020016003820154815260200160048201548152505090506000600260008360200151815260200190815260200160002060405180610120016040529081600082015481526020016001820160009054906101000a900473ffffffffffffffffffffffffffffffffffffffff1673ffffffffffffffffffffffffffffffffffffffff1673ffffffffffffffffffffffffffffffffffffffff1681526020016002820180546115be906143cf565b80601f01602080910402602001604051908101604052809291908181526020018280546115ea906143cf565b80156116375780601f1061160c57610100808354040283529160200191611637565b820191906000526020600020905b81548152906001019060200180831161161a57829003601f168201915b50505050508152602001600382018054611650906143cf565b80601f016020809104026020016040519081016040528092919081815260200182805461167c906143cf565b80156116c95780601f1061169e576101008083540402835291602001916116c9565b820191906000526020600020905b8154815290600101906020018083116116ac57829003601f168201915b505050505081526020016004820180546116e2906143cf565b80601f016020809104026020016040519081016040528092919081815260200182805461170e906143cf565b801561175b5780601f106117305761010080835404028352916020019161175b565b820191906000526020600020905b81548152906001019060200180831161173e57829003601f168201915b50505050508152602001600582015481526020016006820154815260200160078201548152602001600882015481525050905060006040518060600160405280836020015173ffffffffffffffffffffffffffffffffffffffff1681526020018360600151815260200184606001518152509050808887815181106117e3576117e2614503565b5b602002602001018190525085806117f990614532565b965050505050808061180a90614532565b915050611468565b505050935093915050565b60606000806002600085815260200190815260200160002060405180610120016040529081600082015481526020016001820160009054906101000a900473ffffffffffffffffffffffffffffffffffffffff1673ffffffffffffffffffffffffffffffffffffffff1673ffffffffffffffffffffffffffffffffffffffff1681526020016002820180546118b1906143cf565b80601f01602080910402602001604051908101604052809291908181526020018280546118dd906143cf565b801561192a5780601f106118ff5761010080835404028352916020019161192a565b820191906000526020600020905b81548152906001019060200180831161190d57829003601f168201915b50505050508152602001600382018054611943906143cf565b80601f016020809104026020016040519081016040528092919081815260200182805461196f906143cf565b80156119bc5780601f10611991576101008083540402835291602001916119bc565b820191906000526020600020905b81548152906001019060200180831161199f57829003601f168201915b505050505081526020016004820180546119d5906143cf565b80601f0160208091040260200160405190810160405280929190818152602001828054611a01906143cf565b8015611a4e5780601f10611a2357610100808354040283529160200191611a4e565b820191906000526020600020905b815481529060010190602001808311611a3157829003601f168201915b50505050508152602001600582015481526020016006820154815260200160078201548152602001600882015481525050905080610100015191508167ffffffffffffffff811115611aa357611aa2613a1a565b5b604051908082528060200260200182016040528015611adc57816020015b611ac9613500565b815260200190600190039081611ac15790505b5092506000805b600554811015611bea578260000151600360008381526020019081526020016000206001015403611bd757600360008281526020019081526020016000206040518060a001604052908160008201548152602001600182015481526020016002820160009054906101000a900473ffffffffffffffffffffffffffffffffffffffff1673ffffffffffffffffffffffffffffffffffffffff1673ffffffffffffffffffffffffffffffffffffffff16815260200160038201548152602001600482015481525050858381518110611bbd57611bbc614503565b5b60200260200101819052508180611bd390614532565b9250505b8080611be290614532565b915050611ae3565b505050915091565b611bfa613438565b6002600083815260200190815260200160002060405180610120016040529081600082015481526020016001820160009054906101000a900473ffffffffffffffffffffffffffffffffffffffff1673ffffffffffffffffffffffffffffffffffffffff1673ffffffffffffffffffffffffffffffffffffffff168152602001600282018054611c89906143cf565b80601f0160208091040260200160405190810160405280929190818152602001828054611cb5906143cf565b8015611d025780601f10611cd757610100808354040283529160200191611d02565b820191906000526020600020905b815481529060010190602001808311611ce557829003601f168201915b50505050508152602001600382018054611d1b906143cf565b80601f0160208091040260200160405190810160405280929190818152602001828054611d47906143cf565b8015611d945780601f10611d6957610100808354040283529160200191611d94565b820191906000526020600020905b815481529060010190602001808311611d7757829003601f168201915b50505050508152602001600482018054611dad906143cf565b80601f0160208091040260200160405190810160405280929190818152602001828054611dd9906143cf565b8015611e265780601f10611dfb57610100808354040283529160200191611e26565b820191906000526020600020905b815481529060010190602001808311611e0957829003601f168201915b505050505081526020016005820154815260200160068201548152602001600782015481526020016008820154815250509050919050565b60008110158015611e70575060045481105b611eaf576040517f08c379a0000000000000000000000000000000000000000000000000000000008152600401611ea690614632565b60405180910390fd5b60006002600083815260200190815260200160002090508060070154421115611f0d576040517f08c379a0000000000000000000000000000000000000000000000000000000008152600401611f049061469e565b60405180910390fd5b60003411611f50576040517f08c379a0000000000000000000000000000000000000000000000000000000008152600401611f4790614730565b60405180910390fd5b6000600160003373ffffffffffffffffffffffffffffffffffffffff1673ffffffffffffffffffffffffffffffffffffffff168152602001908152602001600020905060008160010154905060006040518060a001604052806005548152602001856000015481526020013373ffffffffffffffffffffffffffffffffffffffff16815260200134815260200142815250905080600360006005548152602001908152602001600020600082015181600001556020820151816001015560408201518160020160006101000a81548173ffffffffffffffffffffffffffffffffffffffff021916908373ffffffffffffffffffffffffffffffffffffffff16021790555060608201518160030155608082015181600401559050508060000151836003016000848152602001908152602001600020819055503484600601600082825461209d919061449b565b92505081905550600560008154809291906120b790614532565b91905055508260010160008154809291906120d190614532565b91905055508360080160008154809291906120eb90614532565b91905055503373ffffffffffffffffffffffffffffffffffffffff167f3b5443c59641f965c6df0836dbe11676fa8c79c3184392351bb19fd51de3d49a85600301866006015460405161213f9291906147e9565b60405180910390a25050505050565b606060008060006004548510612165576000612174565b8460045461217391906144cf565b5b9050600060045486106121895760045461218b565b855b90508067ffffffffffffffff8111156121a7576121a6613a1a565b5b6040519080825280602002602001820160405280156121e057816020015b6121cd613438565b8152602001906001900390816121c55790505b50945060005b81811015612487576002600082856121fe919061449b565b815260200190815260200160002060405180610120016040529081600082015481526020016001820160009054906101000a900473ffffffffffffffffffffffffffffffffffffffff1673ffffffffffffffffffffffffffffffffffffffff1673ffffffffffffffffffffffffffffffffffffffff168152602001600282018054612288906143cf565b80601f01602080910402602001604051908101604052809291908181526020018280546122b4906143cf565b80156123015780601f106122d657610100808354040283529160200191612301565b820191906000526020600020905b8154815290600101906020018083116122e457829003601f168201915b5050505050815260200160038201805461231a906143cf565b80601f0160208091040260200160405190810160405280929190818152602001828054612346906143cf565b80156123935780601f1061236857610100808354040283529160200191612393565b820191906000526020600020905b81548152906001019060200180831161237657829003601f168201915b505050505081526020016004820180546123ac906143cf565b80601f01602080910402602001604051908101604052809291908181526020018280546123d8906143cf565b80156124255780601f106123fa57610100808354040283529160200191612425565b820191906000526020600020905b81548152906001019060200180831161240857829003601f168201915b5050505050815260200160058201548152602001600682015481526020016007820154815260200160088201548152505086828151811061246957612468614503565b5b6020026020010181905250808061247f90614532565b9150506121e6565b5060006004541161249957600061249b565b805b9350600454925050509193909250565b60036020528060005260406000206000915090508060000154908060010154908060020160009054906101000a900473ffffffffffffffffffffffffffffffffffffffff16908060030154908060040154905085565b60008054906101000a900473ffffffffffffffffffffffffffffffffffffffff1681565b848484848442811161256c576040517f08c379a000000000000000000000000000000000000000000000000000000000815260040161256390614865565b60405180910390fd5b600082116125af576040517f08c379a00000000000000000000000000000000000000000000000000000000081526004016125a6906148f7565b60405180910390fd5b60008551116125f3576040517f08c379a00000000000000000000000000000000000000000000000000000000081526004016125ea90614963565b60405180910390fd5b6000845111612637576040517f08c379a000000000000000000000000000000000000000000000000000000000815260040161262e906149cf565b60405180910390fd5b600083511161267b576040517f08c379a000000000000000000000000000000000000000000000000000000000815260040161267290614a3b565b60405180910390fd5b600060405180610120016040528060045481526020013373ffffffffffffffffffffffffffffffffffffffff1681526020018c81526020018b81526020018a81526020018981526020016000815260200188815260200160008152509050806002600060045481526020019081526020016000206000820151816000015560208201518160010160006101000a81548173ffffffffffffffffffffffffffffffffffffffff021916908373ffffffffffffffffffffffffffffffffffffffff16021790555060408201518160020190816127559190614bf2565b50606082015181600301908161276b9190614bf2565b5060808201518160040190816127819190614bf2565b5060a0820151816005015560c0820151816006015560e0820151816007015561010082015181600801559050506000600160003373ffffffffffffffffffffffffffffffffffffffff1673ffffffffffffffffffffffffffffffffffffffff1681526020019081526020016000206000015490508160000151600160003373ffffffffffffffffffffffffffffffffffffffff1673ffffffffffffffffffffffffffffffffffffffff168152602001908152602001600020600201600083815260200190815260200160002081905550600160003373ffffffffffffffffffffffffffffffffffffffff1673ffffffffffffffffffffffffffffffffffffffff16815260200190815260200160002060000160008154809291906128a490614532565b9190505550600460008154809291906128bc90614532565b91905055503373ffffffffffffffffffffffffffffffffffffffff167f17dd0b5f0975f4651b002ed3b016428bae979f5704d8b2473931b2312185c05a836060015160405161290b9190614cc4565b60405180910390a2505050505050505050505050565b60016020528060005260406000206000915090508060000154908060010154905082565b60606000806000806000935061295961349a565b60005b600454811015612a405760006002600083815260200190815260200160002090508a73ffffffffffffffffffffffffffffffffffffffff168160010160009054906101000a900473ffffffffffffffffffffffffffffffffffffffff1673ffffffffffffffffffffffffffffffffffffffff1603612a2c5760005b600554811015612a2a5760006003600083815260200190815260200160002090508260000154816001015403612a16578880612a1290614532565b9950505b508080612a2290614532565b9150506129d7565b505b508080612a3890614532565b91505061295c565b50612a4c858989613228565b905080606001518160800151612a6291906144cf565b67ffffffffffffffff811115612a7b57612a7a613a1a565b5b604051908082528060200260200182016040528015612ab457816020015b612aa16134c9565b815260200190600190039081612a995790505b5095506000805b600454811015612cf25760006002600083815260200190815260200160002090508b73ffffffffffffffffffffffffffffffffffffffff168160010160009054906101000a900473ffffffffffffffffffffffffffffffffffffffff1673ffffffffffffffffffffffffffffffffffffffff1603612cde5760005b600554811015612cdc5760006003600083815260200190815260200160002090508260000154816001015403612cc85785606001518510158015612b7d5750856080015185105b15612cb957612b8a6134c9565b8160020160009054906101000a900473ffffffffffffffffffffffffffffffffffffffff16816000019073ffffffffffffffffffffffffffffffffffffffff16908173ffffffffffffffffffffffffffffffffffffffff1681525050836003018054612bf5906143cf565b80601f0160208091040260200160405190810160405280929190818152602001828054612c21906143cf565b8015612c6e5780601f10612c4357610100808354040283529160200191612c6e565b820191906000526020600020905b815481529060010190602001808311612c5157829003601f168201915b505050505081602001819052508160030154816040018181525050808c886060015188612c9b91906144cf565b81518110612cac57612cab614503565b5b6020026020010181905250505b8480612cc490614532565b9550505b508080612cd490614532565b915050612b36565b505b508080612cea90614532565b915050612abb565b508160000151945081602001519350816040015192505050939792965093509350565b60055481565b8484848484428111612d62576040517f08c379a0000000000000000000000000000000000000000000000000000000008152600401612d5990614865565b60405180910390fd5b60008211612da5576040517f08c379a0000000000000000000000000000000000000000000000000000000008152600401612d9c906148f7565b60405180910390fd5b6000855111612de9576040517f08c379a0000000000000000000000000000000000000000000000000000000008152600401612de090614963565b60405180910390fd5b6000845111612e2d576040517f08c379a0000000000000000000000000000000000000000000000000000000008152600401612e24906149cf565b60405180910390fd5b6000835111612e71576040517f08c379a0000000000000000000000000000000000000000000000000000000008152600401612e6890614a3b565b60405180910390fd5b6000600260008d8152602001908152602001600020905060008c10158015612e9a57506004548c105b612ed9576040517f08c379a0000000000000000000000000000000000000000000000000000000008152600401612ed090614632565b60405180910390fd5b3373ffffffffffffffffffffffffffffffffffffffff168160010160009054906101000a900473ffffffffffffffffffffffffffffffffffffffff1673ffffffffffffffffffffffffffffffffffffffff1614612f6b576040517f08c379a0000000000000000000000000000000000000000000000000000000008152600401612f6290614d58565b60405180910390fd5b8a816002019081612f7c9190614bf2565b5089816003019081612f8e9190614bf2565b5088816004019081612fa09190614bf2565b508781600501819055508681600701819055503373ffffffffffffffffffffffffffffffffffffffff167fb961c338b427968a67f1a3560907d7075a0d1fca0c2d16dcb76da3a963cfe37382600301604051612ffc9190614d78565b60405180910390a2505050505050505050505050565b606060008290506000815167ffffffffffffffff81111561303657613035613a1a565b5b6040519080825280601f01601f1916602001820160405280156130685781602001600182028036833780820191505090505b50905060005b82518110156130f25761309d83828151811061308d5761308c614503565b5b602001015160f81c60f81b6133d4565b8282815181106130b0576130af614503565b5b60200101907effffffffffffffffffffffffffffffffffffffffffffffffffffffffffffff1916908160001a90535080806130ea90614532565b91505061306e565b508092505050919050565b600080839050600083905080518251101561311d57600092505050613222565b60005b8151835161312e91906144cf565b811161321a5760006001905060005b83518110156131f25783818151811061315957613158614503565b5b602001015160f81c60f81b7effffffffffffffffffffffffffffffffffffffffffffffffffffffffffffff1916858285613193919061449b565b815181106131a4576131a3614503565b5b602001015160f81c60f81b7effffffffffffffffffffffffffffffffffffffffffffffffffffffffffffff1916146131df57600091506131f2565b80806131ea90614532565b91505061313d565b508015613206576001945050505050613222565b50808061321290614532565b915050613120565b506000925050505b92915050565b61323061349a565b60008311613273576040517f08c379a000000000000000000000000000000000000000000000000000000000815260040161326a906145c6565b60405180910390fd5b600082116132b6576040517f08c379a00000000000000000000000000000000000000000000000000000000081526004016132ad90614de6565b60405180910390fd5b6132be61349a565b83600185876132cd919061449b565b6132d791906144cf565b6132e19190614e35565b81600001818152505060008160000151116132fd576000613316565b60018361330a91906144cf565b846133159190614e66565b5b81606001818152505084816060015185613330919061449b565b1161334a57806060015184613345919061449b565b61334c565b845b8160800181815250508060000151831061336a578060000151613378565b600183613377919061449b565b5b8160200181815250506001831161339057600161339e565b60018361339d91906144cf565b5b81604001818152505060008160000151116133ba5760006133c0565b80604001515b816040018181525050809150509392505050565b600060418260f81c60ff16101580156133f45750605a8260f81c60ff1611155b156134135760208260f81c6134099190614eb5565b60f81b9050613417565b8190505b919050565b6040518060400160405280600015158152602001600081525090565b60405180610120016040528060008152602001600073ffffffffffffffffffffffffffffffffffffffff168152602001606081526020016060815260200160608152602001600081526020016000815260200160008152602001600081525090565b6040518060a0016040528060008152602001600081526020016000815260200160008152602001600081525090565b6040518060600160405280600073ffffffffffffffffffffffffffffffffffffffff16815260200160608152602001600081525090565b6040518060a001604052806000815260200160008152602001600073ffffffffffffffffffffffffffffffffffffffff16815260200160008152602001600081525090565b6000819050919050565b61355881613545565b82525050565b6000602082019050613573600083018461354f565b92915050565b6000604051905090565b600080fd5b600080fd5b61359681613545565b81146135a157600080fd5b50565b6000813590506135b38161358d565b92915050565b6000602082840312156135cf576135ce613583565b5b60006135dd848285016135a4565b91505092915050565b600073ffffffffffffffffffffffffffffffffffffffff82169050919050565b6000613611826135e6565b9050919050565b61362181613606565b82525050565b600081519050919050565b600082825260208201905092915050565b60005b83811015613661578082015181840152602081019050613646565b60008484015250505050565b6000601f19601f8301169050919050565b600061368982613627565b6136938185613632565b93506136a3818560208601613643565b6136ac8161366d565b840191505092915050565b6000610120820190506136cd600083018c61354f565b6136da602083018b613618565b81810360408301526136ec818a61367e565b90508181036060830152613700818961367e565b90508181036080830152613714818861367e565b905061372360a083018761354f565b61373060c083018661354f565b61373d60e083018561354f565b61374b61010083018461354f565b9a9950505050505050505050565b600080604083850312156137705761376f613583565b5b600061377e858286016135a4565b925050602061378f858286016135a4565b9150509250929050565b600081519050919050565b600082825260208201905092915050565b6000819050602082019050919050565b6137ce81613545565b82525050565b6137dd81613606565b82525050565b600082825260208201905092915050565b60006137ff82613627565b61380981856137e3565b9350613819818560208601613643565b6138228161366d565b840191505092915050565b60006101208301600083015161384660008601826137c5565b50602083015161385960208601826137d4565b506040830151848203604086015261387182826137f4565b9150506060830151848203606086015261388b82826137f4565b915050608083015184820360808601526138a582826137f4565b91505060a08301516138ba60a08601826137c5565b5060c08301516138cd60c08601826137c5565b5060e08301516138e060e08601826137c5565b506101008301516138f56101008601826137c5565b508091505092915050565b600061390c838361382d565b905092915050565b6000602082019050919050565b600061392c82613799565b61393681856137a4565b935083602082028501613948856137b5565b8060005b8581101561398457848403895281516139658582613900565b945061397083613914565b925060208a0199505060018101905061394c565b50829750879550505050505092915050565b60008115159050919050565b6139ab81613996565b82525050565b6040820160008201516139c760008501826139a2565b5060208201516139da60208501826137c5565b50505050565b600060608201905081810360008301526139fa8185613921565b9050613a0960208301846139b1565b9392505050565b600080fd5b600080fd5b7f4e487b7100000000000000000000000000000000000000000000000000000000600052604160045260246000fd5b613a528261366d565b810181811067ffffffffffffffff82111715613a7157613a70613a1a565b5b80604052505050565b6000613a84613579565b9050613a908282613a49565b919050565b600067ffffffffffffffff821115613ab057613aaf613a1a565b5b613ab98261366d565b9050602081019050919050565b82818337600083830152505050565b6000613ae8613ae384613a95565b613a7a565b905082815260208101848484011115613b0457613b03613a15565b5b613b0f848285613ac6565b509392505050565b600082601f830112613b2c57613b2b613a10565b5b8135613b3c848260208601613ad5565b91505092915050565b600080600060608486031215613b5e57613b5d613583565b5b600084013567ffffffffffffffff811115613b7c57613b7b613588565b5b613b8886828701613b17565b9350506020613b99868287016135a4565b9250506040613baa868287016135a4565b9150509250925092565b600060a0820190508181036000830152613bce8188613921565b9050613bdd602083018761354f565b613bea604083018661354f565b613bf7606083018561354f565b613c04608083018461354f565b9695505050505050565b613c1781613606565b8114613c2257600080fd5b50565b600081359050613c3481613c0e565b92915050565b600080600060608486031215613c5357613c52613583565b5b6000613c6186828701613c25565b9350506020613c72868287016135a4565b9250506040613c83868287016135a4565b9150509250925092565b600081519050919050565b600082825260208201905092915050565b6000819050602082019050919050565b6000606083016000830151613cd160008601826137d4565b5060208301518482036020860152613ce982826137f4565b9150506040830151613cfe60408601826137c5565b508091505092915050565b6000613d158383613cb9565b905092915050565b6000602082019050919050565b6000613d3582613c8d565b613d3f8185613c98565b935083602082028501613d5185613ca9565b8060005b85811015613d8d5784840389528151613d6e8582613d09565b9450613d7983613d1d565b925060208a01995050600181019050613d55565b50829750879550505050505092915050565b60a082016000820151613db560008501826137c5565b506020820151613dc860208501826137c5565b506040820151613ddb60408501826137c5565b506060820151613dee60608501826137c5565b506080820151613e0160808501826137c5565b50505050565b600060c0820190508181036000830152613e218185613d2a565b9050613e306020830184613d9f565b9392505050565b600081519050919050565b600082825260208201905092915050565b6000819050602082019050919050565b60a082016000820151613e7960008501826137c5565b506020820151613e8c60208501826137c5565b506040820151613e9f60408501826137d4565b506060820151613eb260608501826137c5565b506080820151613ec560808501826137c5565b50505050565b6000613ed78383613e63565b60a08301905092915050565b6000602082019050919050565b6000613efb82613e37565b613f058185613e42565b9350613f1083613e53565b8060005b83811015613f41578151613f288882613ecb565b9750613f3383613ee3565b925050600181019050613f14565b5085935050505092915050565b60006040820190508181036000830152613f688185613ef0565b9050613f77602083018461354f565b9392505050565b600061012083016000830151613f9760008601826137c5565b506020830151613faa60208601826137d4565b5060408301518482036040860152613fc282826137f4565b91505060608301518482036060860152613fdc82826137f4565b91505060808301518482036080860152613ff682826137f4565b91505060a083015161400b60a08601826137c5565b5060c083015161401e60c08601826137c5565b5060e083015161403160e08601826137c5565b506101008301516140466101008601826137c5565b508091505092915050565b6000602082019050818103600083015261406b8184613f7e565b905092915050565b6000606082019050818103600083015261408d8186613921565b905061409c602083018561354f565b6140a9604083018461354f565b949350505050565b600060a0820190506140c6600083018861354f565b6140d3602083018761354f565b6140e06040830186613618565b6140ed606083018561354f565b6140fa608083018461354f565b9695505050505050565b600061410f826135e6565b9050919050565b61411f81614104565b82525050565b600060208201905061413a6000830184614116565b92915050565b600080600080600060a0868803121561415c5761415b613583565b5b600086013567ffffffffffffffff81111561417a57614179613588565b5b61418688828901613b17565b955050602086013567ffffffffffffffff8111156141a7576141a6613588565b5b6141b388828901613b17565b945050604086013567ffffffffffffffff8111156141d4576141d3613588565b5b6141e088828901613b17565b93505060606141f1888289016135a4565b9250506080614202888289016135a4565b9150509295509295909350565b60006020828403121561422557614224613583565b5b600061423384828501613c25565b91505092915050565b6000604082019050614251600083018561354f565b61425e602083018461354f565b9392505050565b600060a082019050818103600083015261427f8188613d2a565b905061428e602083018761354f565b61429b604083018661354f565b6142a8606083018561354f565b6142b5608083018461354f565b9695505050505050565b60008060008060008060c087890312156142dc576142db613583565b5b60006142ea89828a016135a4565b965050602087013567ffffffffffffffff81111561430b5761430a613588565b5b61431789828a01613b17565b955050604087013567ffffffffffffffff81111561433857614337613588565b5b61434489828a01613b17565b945050606087013567ffffffffffffffff81111561436557614364613588565b5b61437189828a01613b17565b935050608061438289828a016135a4565b92505060a061439389828a016135a4565b9150509295509295509295565b7f4e487b7100000000000000000000000000000000000000000000000000000000600052602260045260246000fd5b600060028204905060018216806143e757607f821691505b6020821081036143fa576143f96143a0565b5b50919050565b7f53697a652063616e6e6f74206265203000000000000000000000000000000000600082015250565b6000614436601083613632565b915061444182614400565b602082019050919050565b6000602082019050818103600083015261446581614429565b9050919050565b7f4e487b7100000000000000000000000000000000000000000000000000000000600052601160045260246000fd5b60006144a682613545565b91506144b183613545565b92508282019050808211156144c9576144c861446c565b5b92915050565b60006144da82613545565b91506144e583613545565b92508282039050818111156144fd576144fc61446c565b5b92915050565b7f4e487b7100000000000000000000000000000000000000000000000000000000600052603260045260246000fd5b600061453d82613545565b91507fffffffffffffffffffffffffffffffffffffffffffffffffffffffffffffffff820361456f5761456e61446c565b5b600182019050919050565b7f506167652073697a652063616e6e6f7420626520300000000000000000000000600082015250565b60006145b0601583613632565b91506145bb8261457a565b602082019050919050565b600060208201905081810360008301526145df816145a3565b9050919050565b7f496e76616c69642063616d706169676e20494400000000000000000000000000600082015250565b600061461c601383613632565b9150614627826145e6565b602082019050919050565b6000602082019050818103600083015261464b8161460f565b9050919050565b7f43616d706169676e20697320616c7265616479206f7665720000000000000000600082015250565b6000614688601883613632565b915061469382614652565b602082019050919050565b600060208201905081810360008301526146b78161467b565b9050919050565b7f446f6e6174696f6e20616d6f756e742073686f756c64206265206d6f7265207460008201527f68616e2030000000000000000000000000000000000000000000000000000000602082015250565b600061471a602583613632565b9150614725826146be565b604082019050919050565b600060208201905081810360008301526147498161470d565b9050919050565b60008190508160005260206000209050919050565b60008154614772816143cf565b61477c8186613632565b9450600182166000811461479757600181146147ad576147e0565b60ff1983168652811515602002860193506147e0565b6147b685614750565b60005b838110156147d8578154818901526001820191506020810190506147b9565b808801955050505b50505092915050565b600060408201905081810360008301526148038185614765565b9050614812602083018461354f565b9392505050565b7f446174652073686f756c64206265206675747572652064617465000000000000600082015250565b600061484f601a83613632565b915061485a82614819565b602082019050919050565b6000602082019050818103600083015261487e81614842565b9050919050565b7f476f616c20616d6f756e742073686f756c64206265206d6f7265207468616e2060008201527f3000000000000000000000000000000000000000000000000000000000000000602082015250565b60006148e1602183613632565b91506148ec82614885565b604082019050919050565b60006020820190508181036000830152614910816148d4565b9050919050565b7f46756c6c206e616d652063616e6e6f7420626520656d70747900000000000000600082015250565b600061494d601983613632565b915061495882614917565b602082019050919050565b6000602082019050818103600083015261497c81614940565b9050919050565b7f5469746c652063616e6e6f7420626520656d7074790000000000000000000000600082015250565b60006149b9601583613632565b91506149c482614983565b602082019050919050565b600060208201905081810360008301526149e8816149ac565b9050919050565b7f53746f72792063616e6e6f7420626520656d7074790000000000000000000000600082015250565b6000614a25601583613632565b9150614a30826149ef565b602082019050919050565b60006020820190508181036000830152614a5481614a18565b9050919050565b60006020601f8301049050919050565b600082821b905092915050565b600060088302614aa87fffffffffffffffffffffffffffffffffffffffffffffffffffffffffffffffff82614a6b565b614ab28683614a6b565b95508019841693508086168417925050509392505050565b6000819050919050565b6000614aef614aea614ae584613545565b614aca565b613545565b9050919050565b6000819050919050565b614b0983614ad4565b614b1d614b1582614af6565b848454614a78565b825550505050565b600090565b614b32614b25565b614b3d818484614b00565b505050565b5b81811015614b6157614b56600082614b2a565b600181019050614b43565b5050565b601f821115614ba657614b7781614750565b614b8084614a5b565b81016020851015614b8f578190505b614ba3614b9b85614a5b565b830182614b42565b50505b505050565b600082821c905092915050565b6000614bc960001984600802614bab565b1980831691505092915050565b6000614be28383614bb8565b9150826002028217905092915050565b614bfb82613627565b67ffffffffffffffff811115614c1457614c13613a1a565b5b614c1e82546143cf565b614c29828285614b65565b600060209050601f831160018114614c5c5760008415614c4a578287015190505b614c548582614bd6565b865550614cbc565b601f198416614c6a86614750565b60005b82811015614c9257848901518255600182019150602085019450602081019050614c6d565b86831015614caf5784890151614cab601f891682614bb8565b8355505b6001600288020188555050505b505050505050565b60006020820190508181036000830152614cde818461367e565b905092915050565b7f596f7520617265206e6f74207468652063616d706169676e2063726561746f7260008201527f2100000000000000000000000000000000000000000000000000000000000000602082015250565b6000614d42602183613632565b9150614d4d82614ce6565b604082019050919050565b60006020820190508181036000830152614d7181614d35565b9050919050565b60006020820190508181036000830152614d928184614765565b905092915050565b7f50616765206e756d6265722063616e6e6f742062652030000000000000000000600082015250565b6000614dd0601783613632565b9150614ddb82614d9a565b602082019050919050565b60006020820190508181036000830152614dff81614dc3565b9050919050565b7f4e487b7100000000000000000000000000000000000000000000000000000000600052601260045260246000fd5b6000614e4082613545565b9150614e4b83613545565b925082614e5b57614e5a614e06565b5b828204905092915050565b6000614e7182613545565b9150614e7c83613545565b9250828202614e8a81613545565b91508282048414831517614ea157614ea061446c565b5b5092915050565b600060ff82169050919050565b6000614ec082614ea8565b9150614ecb83614ea8565b9250828201905060ff811115614ee457614ee361446c565b5b9291505056fea264697066735822122087005476c95e63a4694d6ea831f635fe88cac1dd67093e68aef9d5844e61b45d64736f6c63430008120033",
  "linkReferences": {},
  "deployedLinkReferences": {}
}