{
  "_format": "hh-sol-artifact-1",
  "contractName": "CrowdFunding",
  "sourceName": "contracts/CrowdFunding.sol",
  "abi": [
    {
      "inputs": [],
      "stateMutability": "payable",
      "type": "constructor"
    },
    {
      "anonymous": false,
      "inputs": [
        {
          "indexed": true,
          "internalType": "address",
          "name": "sender",
          "type": "address"
        },
        {
          "indexed": false,
          "internalType": "string",
          "name": "title",
          "type": "string"
        }
      ],
      "name": "CampaignCreated",
      "type": "event"
    },
    {
      "anonymous": false,
      "inputs": [
        {
          "indexed": true,
          "internalType": "address",
          "name": "sender",
          "type": "address"
        },
        {
          "indexed": false,
          "internalType": "string",
          "name": "title",
          "type": "string"
        }
      ],
      "name": "CampaignEdited",
      "type": "event"
    },
    {
      "anonymous": false,
      "inputs": [
        {
          "indexed": true,
          "internalType": "address",
          "name": "sender",
          "type": "address"
        },
        {
          "indexed": false,
          "internalType": "string",
          "name": "title",
          "type": "string"
        },
        {
          "indexed": false,
          "internalType": "uint256",
          "name": "amount",
          "type": "uint256"
        }
      ],
      "name": "DonationSent",
      "type": "event"
    },
    {
      "anonymous": false,
      "inputs": [],
      "name": "Refunded",
      "type": "event"
    },
    {
      "inputs": [
        {
          "internalType": "uint256",
          "name": "",
          "type": "uint256"
        }
      ],
      "name": "campaigns",
      "outputs": [
        {
          "internalType": "uint256",
          "name": "id",
          "type": "uint256"
        },
        {
          "internalType": "address",
          "name": "creator",
          "type": "address"
        },
        {
          "internalType": "string",
          "name": "fullname",
          "type": "string"
        },
        {
          "internalType": "string",
          "name": "title",
          "type": "string"
        },
        {
          "internalType": "string",
          "name": "story",
          "type": "string"
        },
        {
          "internalType": "string",
          "name": "imageUrl",
          "type": "string"
        },
        {
          "internalType": "uint256",
          "name": "goalAmount",
          "type": "uint256"
        },
        {
          "internalType": "uint256",
          "name": "currentAmount",
          "type": "uint256"
        },
        {
          "internalType": "uint256",
          "name": "deadline",
          "type": "uint256"
        },
        {
          "internalType": "uint256",
          "name": "totalDonations",
          "type": "uint256"
        },
        {
          "internalType": "bool",
          "name": "fundsReturned",
          "type": "bool"
        },
        {
          "internalType": "bool",
          "name": "fundsCredited",
          "type": "bool"
        }
      ],
      "stateMutability": "view",
      "type": "function"
    },
    {
      "inputs": [
        {
          "internalType": "uint256",
          "name": "_campaignId",
          "type": "uint256"
        }
      ],
      "name": "checkGoalAndSendFunds",
      "outputs": [],
      "stateMutability": "nonpayable",
      "type": "function"
    },
    {
      "inputs": [
        {
          "internalType": "string",
          "name": "_fullname",
          "type": "string"
        },
        {
          "internalType": "string",
          "name": "_title",
          "type": "string"
        },
        {
          "internalType": "string",
          "name": "_story",
          "type": "string"
        },
        {
          "internalType": "string",
          "name": "_imageUrl",
          "type": "string"
        },
        {
          "internalType": "uint256",
          "name": "_goalAmount",
          "type": "uint256"
        },
        {
          "internalType": "uint256",
          "name": "_deadline",
          "type": "uint256"
        }
      ],
      "name": "createCampaign",
      "outputs": [],
      "stateMutability": "nonpayable",
      "type": "function"
    },
    {
      "inputs": [
        {
          "internalType": "uint256",
          "name": "",
          "type": "uint256"
        }
      ],
      "name": "donationTransactions",
      "outputs": [
        {
          "internalType": "uint256",
          "name": "id",
          "type": "uint256"
        },
        {
          "internalType": "uint256",
          "name": "campaignId",
          "type": "uint256"
        },
        {
          "internalType": "address",
          "name": "donor",
          "type": "address"
        },
        {
          "internalType": "uint256",
          "name": "amount",
          "type": "uint256"
        },
        {
          "internalType": "uint256",
          "name": "timestamp",
          "type": "uint256"
        }
      ],
      "stateMutability": "view",
      "type": "function"
    },
    {
      "inputs": [
        {
          "internalType": "uint256",
          "name": "_campaignId",
          "type": "uint256"
        },
        {
          "internalType": "string",
          "name": "_fullname",
          "type": "string"
        },
        {
          "internalType": "string",
          "name": "_title",
          "type": "string"
        },
        {
          "internalType": "string",
          "name": "_story",
          "type": "string"
        },
        {
          "internalType": "string",
          "name": "_imageUrl",
          "type": "string"
        },
        {
          "internalType": "uint256",
          "name": "_goalAmount",
          "type": "uint256"
        },
        {
          "internalType": "uint256",
          "name": "_deadline",
          "type": "uint256"
        }
      ],
      "name": "editCampaign",
      "outputs": [],
      "stateMutability": "nonpayable",
      "type": "function"
    },
    {
      "inputs": [
        {
          "internalType": "uint256",
          "name": "_size",
          "type": "uint256"
        },
        {
          "internalType": "uint256",
          "name": "_startIndex",
          "type": "uint256"
        }
      ],
      "name": "getAllCampaigns",
      "outputs": [
        {
          "components": [
            {
              "internalType": "uint256",
              "name": "id",
              "type": "uint256"
            },
            {
              "internalType": "address",
              "name": "creator",
              "type": "address"
            },
            {
              "internalType": "string",
              "name": "fullname",
              "type": "string"
            },
            {
              "internalType": "string",
              "name": "title",
              "type": "string"
            },
            {
              "internalType": "string",
              "name": "story",
              "type": "string"
            },
            {
              "internalType": "string",
              "name": "imageUrl",
              "type": "string"
            },
            {
              "internalType": "uint256",
              "name": "goalAmount",
              "type": "uint256"
            },
            {
              "internalType": "uint256",
              "name": "currentAmount",
              "type": "uint256"
            },
            {
              "internalType": "uint256",
              "name": "deadline",
              "type": "uint256"
            },
            {
              "internalType": "uint256",
              "name": "totalDonations",
              "type": "uint256"
            },
            {
              "internalType": "bool",
              "name": "fundsReturned",
              "type": "bool"
            },
            {
              "internalType": "bool",
              "name": "fundsCredited",
              "type": "bool"
            }
          ],
          "internalType": "struct CrowdFunding.Campaign[]",
          "name": "allCampaigns",
          "type": "tuple[]"
        },
        {
          "components": [
            {
              "internalType": "bool",
              "name": "isLastPage",
              "type": "bool"
            },
            {
              "internalType": "uint256",
              "name": "nextIndex",
              "type": "uint256"
            }
          ],
          "internalType": "struct CrowdFunding.ResultIndexData",
          "name": "indexData",
          "type": "tuple"
        }
      ],
      "stateMutability": "view",
      "type": "function"
    },
    {
      "inputs": [
        {
          "internalType": "uint256",
          "name": "_campaignId",
          "type": "uint256"
        }
      ],
      "name": "getCampaign",
      "outputs": [
        {
          "components": [
            {
              "internalType": "uint256",
              "name": "id",
              "type": "uint256"
            },
            {
              "internalType": "address",
              "name": "creator",
              "type": "address"
            },
            {
              "internalType": "string",
              "name": "fullname",
              "type": "string"
            },
            {
              "internalType": "string",
              "name": "title",
              "type": "string"
            },
            {
              "internalType": "string",
              "name": "story",
              "type": "string"
            },
            {
              "internalType": "string",
              "name": "imageUrl",
              "type": "string"
            },
            {
              "internalType": "uint256",
              "name": "goalAmount",
              "type": "uint256"
            },
            {
              "internalType": "uint256",
              "name": "currentAmount",
              "type": "uint256"
            },
            {
              "internalType": "uint256",
              "name": "deadline",
              "type": "uint256"
            },
            {
              "internalType": "uint256",
              "name": "totalDonations",
              "type": "uint256"
            },
            {
              "internalType": "bool",
              "name": "fundsReturned",
              "type": "bool"
            },
            {
              "internalType": "bool",
              "name": "fundsCredited",
              "type": "bool"
            }
          ],
          "internalType": "struct CrowdFunding.Campaign",
          "name": "",
          "type": "tuple"
        }
      ],
      "stateMutability": "view",
      "type": "function"
    },
    {
      "inputs": [
        {
          "internalType": "uint256",
          "name": "_campaignId",
          "type": "uint256"
        }
      ],
      "name": "getCampaignDonations",
      "outputs": [
        {
          "components": [
            {
              "internalType": "uint256",
              "name": "id",
              "type": "uint256"
            },
            {
              "internalType": "uint256",
              "name": "campaignId",
              "type": "uint256"
            },
            {
              "internalType": "address",
              "name": "donor",
              "type": "address"
            },
            {
              "internalType": "uint256",
              "name": "amount",
              "type": "uint256"
            },
            {
              "internalType": "uint256",
              "name": "timestamp",
              "type": "uint256"
            }
          ],
          "internalType": "struct CrowdFunding.DonationTransaction[]",
          "name": "allDonations",
          "type": "tuple[]"
        },
        {
          "internalType": "uint256",
          "name": "totalCampaignDonations",
          "type": "uint256"
        }
      ],
      "stateMutability": "view",
      "type": "function"
    },
    {
      "inputs": [
        {
          "internalType": "address",
          "name": "_walletAddress",
          "type": "address"
        },
        {
          "internalType": "uint256",
          "name": "_pageSize",
          "type": "uint256"
        },
        {
          "internalType": "uint256",
          "name": "_pageNumber",
          "type": "uint256"
        }
      ],
      "name": "getDonatorsByWalletAddress",
      "outputs": [
        {
          "components": [
            {
              "internalType": "uint256",
              "name": "id",
              "type": "uint256"
            },
            {
              "internalType": "address",
              "name": "userAddress",
              "type": "address"
            },
            {
              "internalType": "string",
              "name": "campaignTitle",
              "type": "string"
            },
            {
              "internalType": "uint256",
              "name": "donationAmount",
              "type": "uint256"
            },
            {
              "internalType": "string",
              "name": "status",
              "type": "string"
            },
            {
              "internalType": "bool",
              "name": "fundsReturned",
              "type": "bool"
            }
          ],
          "internalType": "struct CrowdFunding.DonationData[]",
          "name": "donations",
          "type": "tuple[]"
        },
        {
          "internalType": "uint256",
          "name": "donatorCount",
          "type": "uint256"
        },
        {
          "internalType": "uint256",
          "name": "totalPages",
          "type": "uint256"
        },
        {
          "internalType": "uint256",
          "name": "nextPage",
          "type": "uint256"
        },
        {
          "internalType": "uint256",
          "name": "previousPage",
          "type": "uint256"
        }
      ],
      "stateMutability": "view",
      "type": "function"
    },
    {
      "inputs": [
        {
          "internalType": "uint256",
          "name": "_size",
          "type": "uint256"
        }
      ],
      "name": "getRecentCampaigns",
      "outputs": [
        {
          "components": [
            {
              "internalType": "uint256",
              "name": "id",
              "type": "uint256"
            },
            {
              "internalType": "address",
              "name": "creator",
              "type": "address"
            },
            {
              "internalType": "string",
              "name": "fullname",
              "type": "string"
            },
            {
              "internalType": "string",
              "name": "title",
              "type": "string"
            },
            {
              "internalType": "string",
              "name": "story",
              "type": "string"
            },
            {
              "internalType": "string",
              "name": "imageUrl",
              "type": "string"
            },
            {
              "internalType": "uint256",
              "name": "goalAmount",
              "type": "uint256"
            },
            {
              "internalType": "uint256",
              "name": "currentAmount",
              "type": "uint256"
            },
            {
              "internalType": "uint256",
              "name": "deadline",
              "type": "uint256"
            },
            {
              "internalType": "uint256",
              "name": "totalDonations",
              "type": "uint256"
            },
            {
              "internalType": "bool",
              "name": "fundsReturned",
              "type": "bool"
            },
            {
              "internalType": "bool",
              "name": "fundsCredited",
              "type": "bool"
            }
          ],
          "internalType": "struct CrowdFunding.Campaign[]",
          "name": "recentCampaigns",
          "type": "tuple[]"
        },
        {
          "internalType": "uint256",
          "name": "totalFetchedCampaigns",
          "type": "uint256"
        },
        {
          "internalType": "uint256",
          "name": "totalAllCampaigns",
          "type": "uint256"
        }
      ],
      "stateMutability": "view",
      "type": "function"
    },
    {
      "inputs": [
        {
          "internalType": "uint256",
          "name": "_pageSize",
          "type": "uint256"
        },
        {
          "internalType": "uint256",
          "name": "_pageNumber",
          "type": "uint256"
        }
      ],
      "name": "getUserCampaigns",
      "outputs": [
        {
          "components": [
            {
              "internalType": "uint256",
              "name": "id",
              "type": "uint256"
            },
            {
              "internalType": "address",
              "name": "creator",
              "type": "address"
            },
            {
              "internalType": "string",
              "name": "fullname",
              "type": "string"
            },
            {
              "internalType": "string",
              "name": "title",
              "type": "string"
            },
            {
              "internalType": "string",
              "name": "story",
              "type": "string"
            },
            {
              "internalType": "string",
              "name": "imageUrl",
              "type": "string"
            },
            {
              "internalType": "uint256",
              "name": "goalAmount",
              "type": "uint256"
            },
            {
              "internalType": "uint256",
              "name": "currentAmount",
              "type": "uint256"
            },
            {
              "internalType": "uint256",
              "name": "deadline",
              "type": "uint256"
            },
            {
              "internalType": "uint256",
              "name": "totalDonations",
              "type": "uint256"
            },
            {
              "internalType": "bool",
              "name": "fundsReturned",
              "type": "bool"
            },
            {
              "internalType": "bool",
              "name": "fundsCredited",
              "type": "bool"
            }
          ],
          "internalType": "struct CrowdFunding.Campaign[]",
          "name": "allCampaigns",
          "type": "tuple[]"
        },
        {
          "internalType": "uint256",
          "name": "userTotalCampaigns",
          "type": "uint256"
        },
        {
          "internalType": "uint256",
          "name": "totalPages",
          "type": "uint256"
        },
        {
          "internalType": "uint256",
          "name": "nextPage",
          "type": "uint256"
        },
        {
          "internalType": "uint256",
          "name": "previousPage",
          "type": "uint256"
        }
      ],
      "stateMutability": "view",
      "type": "function"
    },
    {
      "inputs": [
        {
          "internalType": "address",
          "name": "_userAddress",
          "type": "address"
        },
        {
          "internalType": "uint256",
          "name": "_pageSize",
          "type": "uint256"
        },
        {
          "internalType": "uint256",
          "name": "_pageNumber",
          "type": "uint256"
        }
      ],
      "name": "getUserDonations",
      "outputs": [
        {
          "components": [
            {
              "internalType": "uint256",
              "name": "id",
              "type": "uint256"
            },
            {
              "internalType": "address",
              "name": "userAddress",
              "type": "address"
            },
            {
              "internalType": "string",
              "name": "campaignTitle",
              "type": "string"
            },
            {
              "internalType": "uint256",
              "name": "donationAmount",
              "type": "uint256"
            },
            {
              "internalType": "string",
              "name": "status",
              "type": "string"
            },
            {
              "internalType": "bool",
              "name": "fundsReturned",
              "type": "bool"
            }
          ],
          "internalType": "struct CrowdFunding.DonationData[]",
          "name": "userDonations",
          "type": "tuple[]"
        },
        {
          "components": [
            {
              "internalType": "uint256",
              "name": "totalPages",
              "type": "uint256"
            },
            {
              "internalType": "uint256",
              "name": "nextPage",
              "type": "uint256"
            },
            {
              "internalType": "uint256",
              "name": "previousPage",
              "type": "uint256"
            },
            {
              "internalType": "uint256",
              "name": "startIndex",
              "type": "uint256"
            },
            {
              "internalType": "uint256",
              "name": "endIndex",
              "type": "uint256"
            }
          ],
          "internalType": "struct CrowdFunding.PaginationData",
          "name": "pagination",
          "type": "tuple"
        }
      ],
      "stateMutability": "view",
      "type": "function"
    },
    {
      "inputs": [],
      "name": "owner",
      "outputs": [
        {
          "internalType": "address payable",
          "name": "",
          "type": "address"
        }
      ],
      "stateMutability": "view",
      "type": "function"
    },
    {
      "inputs": [
        {
          "internalType": "uint256",
          "name": "_campaignId",
          "type": "uint256"
        },
        {
          "internalType": "address",
          "name": "_addressToRefund",
          "type": "address"
        }
      ],
      "name": "returnDonationsIfExpired",
      "outputs": [],
      "stateMutability": "nonpayable",
      "type": "function"
    },
    {
      "inputs": [
        {
          "internalType": "string",
          "name": "searchTerm",
          "type": "string"
        },
        {
          "internalType": "uint256",
          "name": "pageSize",
          "type": "uint256"
        },
        {
          "internalType": "uint256",
          "name": "startIndex",
          "type": "uint256"
        }
      ],
      "name": "searchByTitle",
      "outputs": [
        {
          "components": [
            {
              "internalType": "uint256",
              "name": "id",
              "type": "uint256"
            },
            {
              "internalType": "address",
              "name": "creator",
              "type": "address"
            },
            {
              "internalType": "string",
              "name": "fullname",
              "type": "string"
            },
            {
              "internalType": "string",
              "name": "title",
              "type": "string"
            },
            {
              "internalType": "string",
              "name": "story",
              "type": "string"
            },
            {
              "internalType": "string",
              "name": "imageUrl",
              "type": "string"
            },
            {
              "internalType": "uint256",
              "name": "goalAmount",
              "type": "uint256"
            },
            {
              "internalType": "uint256",
              "name": "currentAmount",
              "type": "uint256"
            },
            {
              "internalType": "uint256",
              "name": "deadline",
              "type": "uint256"
            },
            {
              "internalType": "uint256",
              "name": "totalDonations",
              "type": "uint256"
            },
            {
              "internalType": "bool",
              "name": "fundsReturned",
              "type": "bool"
            },
            {
              "internalType": "bool",
              "name": "fundsCredited",
              "type": "bool"
            }
          ],
          "internalType": "struct CrowdFunding.Campaign[]",
          "name": "matchingCampaigns",
          "type": "tuple[]"
        },
        {
          "components": [
            {
              "internalType": "bool",
              "name": "isLastPage",
              "type": "bool"
            },
            {
              "internalType": "uint256",
              "name": "nextIndex",
              "type": "uint256"
            }
          ],
          "internalType": "struct CrowdFunding.ResultIndexData",
          "name": "searchIndexData",
          "type": "tuple"
        }
      ],
      "stateMutability": "view",
      "type": "function"
    },
    {
      "inputs": [
        {
          "internalType": "uint256",
          "name": "_campaignId",
          "type": "uint256"
        }
      ],
      "name": "sendDonation",
      "outputs": [],
      "stateMutability": "payable",
      "type": "function"
    },
    {
      "inputs": [],
      "name": "totalCampaigns",
      "outputs": [
        {
          "internalType": "uint256",
          "name": "",
          "type": "uint256"
        }
      ],
      "stateMutability": "view",
      "type": "function"
    },
    {
      "inputs": [],
      "name": "totalDonations",
      "outputs": [
        {
          "internalType": "uint256",
          "name": "",
          "type": "uint256"
        }
      ],
      "stateMutability": "view",
      "type": "function"
    },
    {
      "inputs": [
        {
          "internalType": "address",
          "name": "",
          "type": "address"
        }
      ],
      "name": "users",
      "outputs": [
        {
          "internalType": "uint256",
          "name": "totalCampaigns",
          "type": "uint256"
        },
        {
          "internalType": "uint256",
          "name": "totalDonations",
          "type": "uint256"
        }
      ],
      "stateMutability": "view",
      "type": "function"
    }
  ],
  "bytecode": "0x6080604052600080546001600160a01b03191633178155600455614318806100286000396000f3fe6080604052600436106101145760003560e01c806355fedbfe116100a05780639da6ef74116100645780639da6ef74146103c9578063a87430ba146103e9578063a8aee94014610432578063b0445d6014610452578063de2ed8931461048357600080fd5b806355fedbfe146102a4578063665588c9146102c457806371b7baae146102d75780638acd0bfc146103065780638da5cb5b1461039157600080fd5b80632e5293f3116100e75780632e5293f3146101ca5780633e3b6675146101ea57806345d0b60a1461021b5780635167642f146102495780635598f8cc1461027757600080fd5b806302932f56146101195780631225ce2514610142578063141961bc14610164578063253343e71461019c575b600080fd5b34801561012557600080fd5b5061012f60045481565b6040519081526020015b60405180910390f35b34801561014e57600080fd5b5061016261015d36600461386e565b610499565b005b34801561017057600080fd5b5061018461017f366004613937565b6106f2565b6040516101399c9b9a99989796959493929190613996565b3480156101a857600080fd5b506101bc6101b7366004613a43565b61097d565b604051610139929190613b9e565b3480156101d657600080fd5b506101bc6101e5366004613bcd565b610f10565b3480156101f657600080fd5b5061020a610205366004613a43565b611477565b604051610139959493929190613c1a565b34801561022757600080fd5b5061023b610236366004613c6d565b611954565b604051610139929190613d48565b34801561025557600080fd5b50610269610264366004613937565b611e4a565b604051610139929190613d93565b34801561028357600080fd5b50610297610292366004613937565b61226b565b6040516101399190613e11565b3480156102b057600080fd5b506101626102bf366004613e2b565b612540565b6101626102d2366004613937565b612618565b3480156102e357600080fd5b506102f76102f2366004613937565b612873565b60405161013993929190613e57565b34801561031257600080fd5b5061035b610321366004613937565b600360208190526000918252604090912080546001820154600283015493830154600490930154919390926001600160a01b039091169185565b6040805195865260208601949094526001600160a01b03909216928401929092526060830191909152608082015260a001610139565b34801561039d57600080fd5b506000546103b1906001600160a01b031681565b6040516001600160a01b039091168152602001610139565b3480156103d557600080fd5b506101626103e4366004613937565b612d1c565b3480156103f557600080fd5b5061041d610404366004613e7c565b6001602081905260009182526040909120805491015482565b60408051928352602083019190915201610139565b34801561043e57600080fd5b5061016261044d366004613e97565b612da1565b34801561045e57600080fd5b5061047261046d366004613c6d565b6130bf565b604051610139959493929190613f55565b34801561048f57600080fd5b5061012f60055481565b8585858585600081116104c75760405162461bcd60e51b81526004016104be90613f68565b60405180910390fd5b60008551116105145760405162461bcd60e51b815260206004820152601960248201527846756c6c206e616d652063616e6e6f7420626520656d70747960381b60448201526064016104be565b600084511161055d5760405162461bcd60e51b81526020600482015260156024820152745469746c652063616e6e6f7420626520656d70747960581b60448201526064016104be565b60008351116105a65760405162461bcd60e51b815260206004820152601560248201527453746f72792063616e6e6f7420626520656d70747960581b60448201526064016104be565b60008251116105c75760405162461bcd60e51b81526004016104be90613fa9565b60008c81526002602052604090206004548d106105f65760405162461bcd60e51b81526004016104be90613feb565b60018101546001600160a01b0316331461065c5760405162461bcd60e51b815260206004820152602160248201527f596f7520617265206e6f74207468652063616d706169676e2063726561746f726044820152602160f81b60648201526084016104be565b6002810161066a8d826140a1565b50600381016106798c826140a1565b50600481016106888b826140a1565b50600581016106978a826140a1565b50600681018890556008810187905560405133907fb961c338b427968a67f1a3560907d7075a0d1fca0c2d16dcb76da3a963cfe373906106db9060038501906141dd565b60405180910390a250505050505050505050505050565b600260208190526000918252604090912080546001820154928201805491936001600160a01b0316929161072590614018565b80601f016020809104026020016040519081016040528092919081815260200182805461075190614018565b801561079e5780601f106107735761010080835404028352916020019161079e565b820191906000526020600020905b81548152906001019060200180831161078157829003601f168201915b5050505050908060030180546107b390614018565b80601f01602080910402602001604051908101604052809291908181526020018280546107df90614018565b801561082c5780601f106108015761010080835404028352916020019161082c565b820191906000526020600020905b81548152906001019060200180831161080f57829003601f168201915b50505050509080600401805461084190614018565b80601f016020809104026020016040519081016040528092919081815260200182805461086d90614018565b80156108ba5780601f1061088f576101008083540402835291602001916108ba565b820191906000526020600020905b81548152906001019060200180831161089d57829003601f168201915b5050505050908060050180546108cf90614018565b80601f01602080910402602001604051908101604052809291908181526020018280546108fb90614018565b80156109485780601f1061091d57610100808354040283529160200191610948565b820191906000526020600020905b81548152906001019060200180831161092b57829003601f168201915b5050506006840154600785015460088601546009870154600a9097015495969295919450925060ff808216916101009004168c565b6040805180820190915260008082526020820152606090600084116109d75760405162461bcd60e51b815260206004820152601060248201526f053697a652063616e6e6f7420626520360841b60448201526064016104be565b600454831115610a1f5760405162461bcd60e51b8152602060048201526013602482015272092dcecc2d8d2c840e6e8c2e4e840d2dcc8caf606b1b60448201526064016104be565b8215610a3b5782841015610a34576000610a4f565b6001610a4f565b600454841015610a4c576000610a4f565b60015b151581528215610a6d5782841015610a675783610a80565b82610a80565b6004548411610a7c5783610a80565b6004545b93508215610a9757610a928484614206565b610aa5565b83600454610aa59190614206565b60208201526000846001600160401b03811115610ac457610ac46137cc565b604051908082528060200260200182016040528015610afd57816020015b610aea6136ee565b815260200190600190039081610ae25790505b506020830151909150600090805b610b158883614219565b811015610e5b57600081815260026020526040902060088101544211801590610b45575080600601548160070154105b8015610b5b5750600a810154610100900460ff16155b15610e485760408051610180810182528254815260018301546001600160a01b03166020820152600283018054919284929084019190610b9a90614018565b80601f0160208091040260200160405190810160405280929190818152602001828054610bc690614018565b8015610c135780601f10610be857610100808354040283529160200191610c13565b820191906000526020600020905b815481529060010190602001808311610bf657829003601f168201915b50505050508152602001600382018054610c2c90614018565b80601f0160208091040260200160405190810160405280929190818152602001828054610c5890614018565b8015610ca55780601f10610c7a57610100808354040283529160200191610ca5565b820191906000526020600020905b815481529060010190602001808311610c8857829003601f168201915b50505050508152602001600482018054610cbe90614018565b80601f0160208091040260200160405190810160405280929190818152602001828054610cea90614018565b8015610d375780601f10610d0c57610100808354040283529160200191610d37565b820191906000526020600020905b815481529060010190602001808311610d1a57829003601f168201915b50505050508152602001600582018054610d5090614018565b80601f0160208091040260200160405190810160405280929190818152602001828054610d7c90614018565b8015610dc95780601f10610d9e57610100808354040283529160200191610dc9565b820191906000526020600020905b815481529060010190602001808311610dac57829003601f168201915b505050918352505060068201546020820152600782015460408201526008820154606082015260098201546080820152600a9091015460ff808216151560a084015261010090910416151560c0909101528551869086908110610e2e57610e2e61422c565b60200260200101819052508380610e4490614242565b9450505b5080610e5381614242565b915050610b0b565b50816001600160401b03811115610e7457610e746137cc565b604051908082528060200260200182016040528015610ead57816020015b610e9a6136ee565b815260200190600190039081610e925790505b50945060005b82811015610f0557838181518110610ecd57610ecd61422c565b6020026020010151868281518110610ee757610ee761422c565b60200260200101819052508080610efd90614242565b915050610eb3565b505050509250929050565b604080518082019091526000808252602082015260609060008411610f6f5760405162461bcd60e51b81526020600482015260156024820152740506167652073697a652063616e6e6f74206265203605c1b60448201526064016104be565b6000600454600003610f875760018252600060208301525b600454600003610f9d5760018252600060208301525b835b60045481108015610faf57508582105b156110c557600081815260026020526040902060030180546110699161105b91610fd890614018565b80601f016020809104026020016040519081016040528092919081815260200182805461100490614018565b80156110515780601f1061102657610100808354040283529160200191611051565b820191906000526020600020905b81548152906001019060200180831161103457829003601f168201915b505050505061338c565b6110648961338c565b613453565b1561107c578161107881614242565b9250505b8582036110945761108e816001614219565b60208401525b6004546110a2826001614219565b036110b35760018352600060208401525b806110bd81614242565b915050610f9f565b50806001600160401b038111156110de576110de6137cc565b60405190808252806020026020018201604052801561111757816020015b6111046136ee565b8152602001906001900390816110fc5790505b5092506000845b6004548110801561112e57508282105b1561146c57600081815260026020526040902060030180546111609161115791610fd890614018565b6110648a61338c565b1561145a576000818152600260208181526040928390208351610180810185528154815260018201546001600160a01b031692810192909252918201805491938401916111ac90614018565b80601f01602080910402602001604051908101604052809291908181526020018280546111d890614018565b80156112255780601f106111fa57610100808354040283529160200191611225565b820191906000526020600020905b81548152906001019060200180831161120857829003601f168201915b5050505050815260200160038201805461123e90614018565b80601f016020809104026020016040519081016040528092919081815260200182805461126a90614018565b80156112b75780601f1061128c576101008083540402835291602001916112b7565b820191906000526020600020905b81548152906001019060200180831161129a57829003601f168201915b505050505081526020016004820180546112d090614018565b80601f01602080910402602001604051908101604052809291908181526020018280546112fc90614018565b80156113495780601f1061131e57610100808354040283529160200191611349565b820191906000526020600020905b81548152906001019060200180831161132c57829003601f168201915b5050505050815260200160058201805461136290614018565b80601f016020809104026020016040519081016040528092919081815260200182805461138e90614018565b80156113db5780601f106113b0576101008083540402835291602001916113db565b820191906000526020600020905b8154815290600101906020018083116113be57829003601f168201915b505050918352505060068201546020820152600782015460408201526008820154606082015260098201546080820152600a9091015460ff808216151560a084015261010090910416151560c09091015285518690849081106114405761144061422c565b6020026020010181905250818061145690614242565b9250505b8061146481614242565b91505061111e565b505050935093915050565b336000908152600160208190526040822080546060939283928392839283908a906114a28285614219565b6114ac9190614206565b6114b6919061425b565b90508115611510576000891180156114ce5750808911155b6115105760405162461bcd60e51b815260206004820152601360248201527224b73b30b634b2103830b3b290373ab6b132b960691b60448201526064016104be565b60008a61151e60018c614206565b611528919061427d565b6115329084614206565b905060008b821161154457600061154e565b61154e8c83614206565b9050600061155c8284614206565b9050806001600160401b03811115611576576115766137cc565b6040519080825280602002602001820160405280156115af57816020015b61159c6136ee565b8152602001906001900390816115945790505b509a5060005b818110156119065760006002818982018160016115d2878b614206565b6115dc9190614206565b815260200190815260200160002054815260200190815260200160002060405180610180016040529081600082015481526020016001820160009054906101000a90046001600160a01b03166001600160a01b03166001600160a01b0316815260200160028201805461164e90614018565b80601f016020809104026020016040519081016040528092919081815260200182805461167a90614018565b80156116c75780601f1061169c576101008083540402835291602001916116c7565b820191906000526020600020905b8154815290600101906020018083116116aa57829003601f168201915b505050505081526020016003820180546116e090614018565b80601f016020809104026020016040519081016040528092919081815260200182805461170c90614018565b80156117595780601f1061172e57610100808354040283529160200191611759565b820191906000526020600020905b81548152906001019060200180831161173c57829003601f168201915b5050505050815260200160048201805461177290614018565b80601f016020809104026020016040519081016040528092919081815260200182805461179e90614018565b80156117eb5780601f106117c0576101008083540402835291602001916117eb565b820191906000526020600020905b8154815290600101906020018083116117ce57829003601f168201915b5050505050815260200160058201805461180490614018565b80601f016020809104026020016040519081016040528092919081815260200182805461183090614018565b801561187d5780601f106118525761010080835404028352916020019161187d565b820191906000526020600020905b81548152906001019060200180831161186057829003601f168201915b505050918352505060068201546020820152600782015460408201526008820154606082015260098201546080820152600a9091015460ff808216151560a084015261010090910416151560c0909101528d5190915081908e90849081106118e7576118e761422c565b60200260200101819052505080806118fe90614242565b9150506115b5565b50849950839850838c1061191b576000611926565b6119268c6001614219565b975060018c11611937576000611942565b61194260018d614206565b96505050505050509295509295909350565b606061195e61375c565b6001600160a01b0385166000908152600160208190526040822090810154611987908787613534565b92508260600151836080015161199d9190614206565b6001600160401b038111156119b4576119b46137cc565b6040519080825280602002602001820160405280156119ed57816020015b6119da61378b565b8152602001906001900390816119d25790505b5060608401519094505b836080015181101561146c576000818152600383810160209081526040808420548452828252808420815160a081018352815481526001808301548286018190526002808501546001600160a01b039081168588015297850154606085015260049094015460808401528752828552838720845161018081018652815481529181015490961694810194909452908401805491959492840191611a9990614018565b80601f0160208091040260200160405190810160405280929190818152602001828054611ac590614018565b8015611b125780601f10611ae757610100808354040283529160200191611b12565b820191906000526020600020905b815481529060010190602001808311611af557829003601f168201915b50505050508152602001600382018054611b2b90614018565b80601f0160208091040260200160405190810160405280929190818152602001828054611b5790614018565b8015611ba45780601f10611b7957610100808354040283529160200191611ba4565b820191906000526020600020905b815481529060010190602001808311611b8757829003601f168201915b50505050508152602001600482018054611bbd90614018565b80601f0160208091040260200160405190810160405280929190818152602001828054611be990614018565b8015611c365780601f10611c0b57610100808354040283529160200191611c36565b820191906000526020600020905b815481529060010190602001808311611c1957829003601f168201915b50505050508152602001600582018054611c4f90614018565b80601f0160208091040260200160405190810160405280929190818152602001828054611c7b90614018565b8015611cc85780601f10611c9d57610100808354040283529160200191611cc8565b820191906000526020600020905b815481529060010190602001808311611cab57829003601f168201915b505050918352505060068201546020820152600782015460408201526008820154606082015260098201546080820152600a9091015460ff808216151560a08401526101009182900416151560c0928301529082015160e0830151918301519293501115906000904210801590611d425750826101400151155b60408051808201909152600781526670656e64696e6760c81b60208201529091508215611d8e57506040805180820190915260088152671858da1a595d995960c21b6020820152611db4565b8115611db45750604080518082019091526007815266195e1c1a5c995960ca1b60208201525b60006040518060c001604052808660000151815260200186602001516001600160a01b03168152602001866060015181526020018760600151815260200183815260200186610140015115158152509050808b8a81518110611e1857611e1861422c565b60200260200101819052508880611e2e90614242565b9950505050505050508080611e4290614242565b9150506119f7565b60008181526002602081815260408084208151610180810183528154815260018201546001600160a01b031693810193909352928301805460609594859493909290840191611e9890614018565b80601f0160208091040260200160405190810160405280929190818152602001828054611ec490614018565b8015611f115780601f10611ee657610100808354040283529160200191611f11565b820191906000526020600020905b815481529060010190602001808311611ef457829003601f168201915b50505050508152602001600382018054611f2a90614018565b80601f0160208091040260200160405190810160405280929190818152602001828054611f5690614018565b8015611fa35780601f10611f7857610100808354040283529160200191611fa3565b820191906000526020600020905b815481529060010190602001808311611f8657829003601f168201915b50505050508152602001600482018054611fbc90614018565b80601f0160208091040260200160405190810160405280929190818152602001828054611fe890614018565b80156120355780601f1061200a57610100808354040283529160200191612035565b820191906000526020600020905b81548152906001019060200180831161201857829003601f168201915b5050505050815260200160058201805461204e90614018565b80601f016020809104026020016040519081016040528092919081815260200182805461207a90614018565b80156120c75780601f1061209c576101008083540402835291602001916120c7565b820191906000526020600020905b8154815290600101906020018083116120aa57829003601f168201915b505050918352505060068201546020820152600782015460408201526008820154606082015260098201546080820152600a9091015460ff808216151560a084015261010090910416151560c09091015261012081015192509050816001600160401b0381111561213a5761213a6137cc565b6040519080825280602002602001820160405280156121a657816020015b6121936040518060a00160405280600081526020016000815260200160006001600160a01b0316815260200160008152602001600081525090565b8152602001906001900390816121585790505b5092506000805b6005548110156122635782516000828152600360205260409020600101540361225157600081815260036020818152604092839020835160a0810185528154815260018201549281019290925260028101546001600160a01b031693820193909352908201546060820152600490910154608082015285518690849081106122375761223761422c565b6020026020010181905250818061224d90614242565b9250505b8061225b81614242565b9150506121ad565b505050915091565b6122736136ee565b6000828152600260208181526040928390208351610180810185528154815260018201546001600160a01b031692810192909252918201805491938401916122ba90614018565b80601f01602080910402602001604051908101604052809291908181526020018280546122e690614018565b80156123335780601f1061230857610100808354040283529160200191612333565b820191906000526020600020905b81548152906001019060200180831161231657829003601f168201915b5050505050815260200160038201805461234c90614018565b80601f016020809104026020016040519081016040528092919081815260200182805461237890614018565b80156123c55780601f1061239a576101008083540402835291602001916123c5565b820191906000526020600020905b8154815290600101906020018083116123a857829003601f168201915b505050505081526020016004820180546123de90614018565b80601f016020809104026020016040519081016040528092919081815260200182805461240a90614018565b80156124575780601f1061242c57610100808354040283529160200191612457565b820191906000526020600020905b81548152906001019060200180831161243a57829003601f168201915b5050505050815260200160058201805461247090614018565b80601f016020809104026020016040519081016040528092919081815260200182805461249c90614018565b80156124e95780601f106124be576101008083540402835291602001916124e9565b820191906000526020600020905b8154815290600101906020018083116124cc57829003601f168201915b505050918352505060068201546020820152600782015460408201526008820154606082015260098201546080820152600a9091015460ff808216151560a084015261010090910416151560c09091015292915050565b6000828152600260205260408120905b60055481101561261257600081815260036020526040902060018101548514801561258a575060028101546001600160a01b038581169116145b156125ff57600281015460038201546040516001600160a01b0390921691829180156108fc02916000818181858888f193505050501580156125d0573d6000803e3d6000fd5b5081600301548460070160008282546125e99190614206565b909155505050600a8301805460ff191660011790555b508061260a81614242565b915050612550565b50505050565b60045481106126395760405162461bcd60e51b81526004016104be90613feb565b6000818152600260205260409020600881015442111561269b5760405162461bcd60e51b815260206004820152601860248201527f43616d706169676e20697320616c7265616479206f766572000000000000000060448201526064016104be565b600034116126f95760405162461bcd60e51b815260206004820152602560248201527f446f6e6174696f6e20616d6f756e742073686f756c64206265206d6f72652074604482015264068616e20360dc1b60648201526084016104be565b33600081815260016020818152604080842080840154825160a0810184526005548082528954828701908152828601998a5234606084018181524260808601908152938b526003808a52888c20865180825594519b81019b909b559b5160028b0180546001600160a01b0319166001600160a01b0390921691909117905551898c0155915160049098019790975582885297830190945291852093909355600786018054939591949293919290916127b2908490614219565b9091555050600580549060006127c783614242565b90915550506001830180549060006127de83614242565b90915550506009840180549060006127f583614242565b9190505550836006015484600701541015801561281c5750600a840154610100900460ff16155b1561282a5761282a85612d1c565b600784015460405133917f3b5443c59641f965c6df0836dbe11676fa8c79c3184392351bb19fd51de3d49a91612864916003890191614294565b60405180910390a25050505050565b60606000806000846001600160401b03811115612892576128926137cc565b6040519080825280602002602001820160405280156128cb57816020015b6128b86136ee565b8152602001906001900390816128b05790505b50905060008086600454116128e15760006128ef565b866004546128ef9190614206565b9050805b6004548110801561290357508783105b15612c6157600081815260026020526040902060088101544211801590612931575080600601548160070154105b80156129475750600a810154610100900460ff16155b15612c345760408051610180810182528254815260018301546001600160a01b0316602082015260028301805491928492908401919061298690614018565b80601f01602080910402602001604051908101604052809291908181526020018280546129b290614018565b80156129ff5780601f106129d4576101008083540402835291602001916129ff565b820191906000526020600020905b8154815290600101906020018083116129e257829003601f168201915b50505050508152602001600382018054612a1890614018565b80601f0160208091040260200160405190810160405280929190818152602001828054612a4490614018565b8015612a915780601f10612a6657610100808354040283529160200191612a91565b820191906000526020600020905b815481529060010190602001808311612a7457829003601f168201915b50505050508152602001600482018054612aaa90614018565b80601f0160208091040260200160405190810160405280929190818152602001828054612ad690614018565b8015612b235780601f10612af857610100808354040283529160200191612b23565b820191906000526020600020905b815481529060010190602001808311612b0657829003601f168201915b50505050508152602001600582018054612b3c90614018565b80601f0160208091040260200160405190810160405280929190818152602001828054612b6890614018565b8015612bb55780601f10612b8a57610100808354040283529160200191612bb5565b820191906000526020600020905b815481529060010190602001808311612b9857829003601f168201915b505050918352505060068201546020820152600782015460408201526008820154606082015260098201546080820152600a9091015460ff808216151560a084015261010090910416151560c0909101528551869086908110612c1a57612c1a61422c565b60200260200101819052508380612c3090614242565b9450505b81612c3e81614242565b92505060045482148015612c5157508884105b15612c5b57600091505b506128f3565b826001600160401b03811115612c7957612c796137cc565b604051908082528060200260200182016040528015612cb257816020015b612c9f6136ee565b815260200190600190039081612c975790505b50965060005b83811015612d0a57848181518110612cd257612cd261422c565b6020026020010151888281518110612cec57612cec61422c565b60200260200101819052508080612d0290614242565b915050612cb8565b50506004549597919650909350505050565b60008181526002602052604090206004548210612d4b5760405162461bcd60e51b81526004016104be90613feb565b600181015460078201546040516001600160a01b0390921691829180156108fc02916000818181858888f19350505050158015612d8c573d6000803e3d6000fd5b5050600a01805461ff00191661010017905550565b858585858560008111612dc65760405162461bcd60e51b81526004016104be90613f68565b6000855111612e135760405162461bcd60e51b815260206004820152601960248201527846756c6c206e616d652063616e6e6f7420626520656d70747960381b60448201526064016104be565b6000845111612e5c5760405162461bcd60e51b81526020600482015260156024820152745469746c652063616e6e6f7420626520656d70747960581b60448201526064016104be565b6000835111612ea55760405162461bcd60e51b815260206004820152601560248201527453746f72792063616e6e6f7420626520656d70747960581b60448201526064016104be565b6000825111612ec65760405162461bcd60e51b81526004016104be90613fa9565b60006040518061018001604052806004548152602001336001600160a01b031681526020018d81526020018c81526020018b81526020018a81526020018981526020016000815260200188815260200160008152602001600015158152602001600015158152509050806002600060045481526020019081526020016000206000820151816000015560208201518160010160006101000a8154816001600160a01b0302191690836001600160a01b031602179055506040820151816002019081612f9191906140a1565b5060608201516003820190612fa690826140a1565b5060808201516004820190612fbb90826140a1565b5060a08201516005820190612fd090826140a1565b5060c0820151600682015560e082015160078201556101008083015160088301556101208301516009830155610140830151600a90920180546101609094015161ffff1990941692151561ff0019169290921792151502919091179055336000818152600160208181526040808420805487518187526002830185529286209290925594845291905282549092909161306883614242565b90915550506004805490600061307d83614242565b9190505550336001600160a01b03167f17dd0b5f0975f4651b002ed3b016428bae979f5704d8b2473931b2312185c05a83606001516040516106db91906142b6565b606060008080806130ce61375c565b60005b60045481101561315d57600081815260026020526040902060018101546001600160a01b03808d1691160361314a5760005b6005548110156131485760008181526003602052604090208254600182015403613135578861313181614242565b9950505b508061314081614242565b915050613103565b505b508061315581614242565b9150506130d1565b50613169858989613534565b90508060600151816080015161317f9190614206565b6001600160401b03811115613196576131966137cc565b6040519080825280602002602001820160405280156131cf57816020015b6131bc61378b565b8152602001906001900390816131b45790505b5095506000805b60045481101561336f57600081815260026020526040902060018101546001600160a01b03808e1691160361335c5760005b60055481101561335a576000818152600360205260409020825460018201540361334757856060015185101580156132435750856080015185105b156133395761325061378b565b8354815260028201546001600160a01b0316602082015260038401805461327690614018565b80601f01602080910402602001604051908101604052809291908181526020018280546132a290614018565b80156132ef5780601f106132c4576101008083540402835291602001916132ef565b820191906000526020600020905b8154815290600101906020018083116132d257829003601f168201915b505050505081604001819052508160030154816060018181525050808c88606001518861331c9190614206565b8151811061332c5761332c61422c565b6020026020010181905250505b8461334381614242565b9550505b508061335281614242565b915050613208565b505b508061336781614242565b9150506131d6565b505080516020820151604090920151969a95995097509550505050565b60606000829050600081516001600160401b038111156133ae576133ae6137cc565b6040519080825280601f01601f1916602001820160405280156133d8576020820181803683370190505b50905060005b825181101561344b576134108382815181106133fc576133fc61422c565b01602001516001600160f81b0319166136b1565b8282815181106134225761342261422c565b60200101906001600160f81b031916908160001a9053508061344381614242565b9150506133de565b509392505050565b8051825160009184918491111561346f5760009250505061352e565b60005b815183516134809190614206565b811161352657600160005b83518110156134ff578381815181106134a6576134a661422c565b01602001516001600160f81b031916856134c08386614219565b815181106134d0576134d061422c565b01602001516001600160f81b031916146134ed57600091506134ff565b806134f781614242565b91505061348b565b50801561351357600194505050505061352e565b508061351e81614242565b915050613472565b506000925050505b92915050565b61353c61375c565b600083116135845760405162461bcd60e51b81526020600482015260156024820152740506167652073697a652063616e6e6f74206265203605c1b60448201526064016104be565b600082116135d45760405162461bcd60e51b815260206004820152601760248201527f50616765206e756d6265722063616e6e6f74206265203000000000000000000060448201526064016104be565b6135dc61375c565b8360016135e98288614219565b6135f39190614206565b6135fd919061425b565b80825261360b576000613620565b613616600184614206565b613620908561427d565b6060820181905285906136339086614219565b1161364c5760608101516136479085614219565b61364e565b845b60808201528051831061366257805161366d565b61366d836001614219565b60208201526001831161368157600161368c565b61368c600184614206565b6040820152805161369e5760006136a4565b80604001515b6040820152949350505050565b6000604160f883901c108015906136cd5750605a60f883901c11155b156136ea576136e160f883901c60206142c9565b60f81b92915050565b5090565b6040518061018001604052806000815260200160006001600160a01b0316815260200160608152602001606081526020016060815260200160608152602001600081526020016000815260200160008152602001600081526020016000151581526020016000151581525090565b6040518060a0016040528060008152602001600081526020016000815260200160008152602001600081525090565b6040518060c001604052806000815260200160006001600160a01b031681526020016060815260200160008152602001606081526020016000151581525090565b634e487b7160e01b600052604160045260246000fd5b600082601f8301126137f357600080fd5b81356001600160401b038082111561380d5761380d6137cc565b604051601f8301601f19908116603f01168101908282118183101715613835576138356137cc565b8160405283815286602085880101111561384e57600080fd5b836020870160208301376000602085830101528094505050505092915050565b600080600080600080600060e0888a03121561388957600080fd5b8735965060208801356001600160401b03808211156138a757600080fd5b6138b38b838c016137e2565b975060408a01359150808211156138c957600080fd5b6138d58b838c016137e2565b965060608a01359150808211156138eb57600080fd5b6138f78b838c016137e2565b955060808a013591508082111561390d57600080fd5b5061391a8a828b016137e2565b93505060a0880135915060c0880135905092959891949750929550565b60006020828403121561394957600080fd5b5035919050565b6000815180845260005b818110156139765760208185018101518683018201520161395a565b506000602082860101526020601f19601f83011685010191505092915050565b8c81526001600160a01b038c166020820152610180604082018190526000906139c18382018e613950565b905082810360608401526139d5818d613950565b905082810360808401526139e9818c613950565b905082810360a08401526139fd818b613950565b9150508760c08301528660e08301528561010083015284610120830152831515610140830152613a3261016083018415159052565b9d9c50505050505050505050505050565b60008060408385031215613a5657600080fd5b50508035926020909101359150565b6000610180825184526020830151613a8860208601826001600160a01b03169052565b506040830151816040860152613aa082860182613950565b91505060608301518482036060860152613aba8282613950565b91505060808301518482036080860152613ad48282613950565b91505060a083015184820360a0860152613aee8282613950565b91505060c083015160c085015260e083015160e085015261010080840151818601525061012080840151818601525061014080840151613b318287018215159052565b50506101609283015115159390920192909252919050565b600081518084526020808501808196508360051b8101915082860160005b85811015613b91578284038952613b7f848351613a65565b98850198935090840190600101613b67565b5091979650505050505050565b606081526000613bb16060830185613b49565b9050825115156020830152602083015160408301529392505050565b600080600060608486031215613be257600080fd5b83356001600160401b03811115613bf857600080fd5b613c04868287016137e2565b9660208601359650604090950135949350505050565b60a081526000613c2d60a0830188613b49565b90508560208301528460408301528360608301528260808301529695505050505050565b80356001600160a01b0381168114613c6857600080fd5b919050565b600080600060608486031215613c8257600080fd5b613c8b84613c51565b95602085013595506040909401359392505050565b600081518084526020808501808196508360051b8101915082860160005b85811015613b91578284038952815180518552858101516001600160a01b03168686015260408082015160c08288018190529190613cfe83890182613950565b92505050606080830151818801525060808083015187830382890152613d248382613950565b60a09485015115159890940197909752505098850198935090840190600101613cbe565b60c081526000613d5b60c0830185613ca0565b905082516020830152602083015160408301526040830151606083015260608301516080830152608083015160a08301529392505050565b6040808252835182820181905260009190606090818501906020808901865b83811015613dfd578151805186528381015184870152878101516001600160a01b03168887015286810151878701526080908101519086015260a09094019390820190600101613db2565b505095909501959095525092949350505050565b602081526000613e246020830184613a65565b9392505050565b60008060408385031215613e3e57600080fd5b82359150613e4e60208401613c51565b90509250929050565b606081526000613e6a6060830186613b49565b60208301949094525060400152919050565b600060208284031215613e8e57600080fd5b613e2482613c51565b60008060008060008060c08789031215613eb057600080fd5b86356001600160401b0380821115613ec757600080fd5b613ed38a838b016137e2565b97506020890135915080821115613ee957600080fd5b613ef58a838b016137e2565b96506040890135915080821115613f0b57600080fd5b613f178a838b016137e2565b95506060890135915080821115613f2d57600080fd5b50613f3a89828a016137e2565b9350506080870135915060a087013590509295509295509295565b60a081526000613c2d60a0830188613ca0565b60208082526021908201527f476f616c20616d6f756e742073686f756c64206265206d6f7265207468616e206040820152600360fc1b606082015260800190565b60208082526022908201527f43616d706169676e20696d6167652075726c2063616e6e6f7420626520656d70604082015261747960f01b606082015260800190565b602080825260139082015272125b9d985b1a590818d85b5c185a59db881251606a1b604082015260600190565b600181811c9082168061402c57607f821691505b60208210810361404c57634e487b7160e01b600052602260045260246000fd5b50919050565b601f82111561409c57600081815260208120601f850160051c810160208610156140795750805b601f850160051c820191505b8181101561409857828155600101614085565b5050505b505050565b81516001600160401b038111156140ba576140ba6137cc565b6140ce816140c88454614018565b84614052565b602080601f83116001811461410357600084156140eb5750858301515b600019600386901b1c1916600185901b178555614098565b600085815260208120601f198616915b8281101561413257888601518255948401946001909101908401614113565b50858210156141505787850151600019600388901b60f8161c191681555b5050505050600190811b01905550565b6000815461416d81614018565b80855260206001838116801561418a57600181146141a4576141d2565b60ff1985168884015283151560051b8801830195506141d2565b866000528260002060005b858110156141ca5781548a82018601529083019084016141af565b890184019650505b505050505092915050565b602081526000613e246020830184614160565b634e487b7160e01b600052601160045260246000fd5b8181038181111561352e5761352e6141f0565b8082018082111561352e5761352e6141f0565b634e487b7160e01b600052603260045260246000fd5b600060018201614254576142546141f0565b5060010190565b60008261427857634e487b7160e01b600052601260045260246000fd5b500490565b808202811582820484141761352e5761352e6141f0565b6040815260006142a76040830185614160565b90508260208301529392505050565b602081526000613e246020830184613950565b60ff818116838216019081111561352e5761352e6141f056fea264697066735822122037492a97b9ab9df468d1ae41710351ba5b8f2f1ee437d6f1ec3d60bdf17a811a64736f6c63430008120033",
  "linkReferences": {},
  "deployedLinkReferences": {}
}