{
  "_format": "hh-sol-artifact-1",
  "contractName": "CrowdFunding",
  "sourceName": "contracts/CrowdFunding.sol",
  "abi": [
    {
      "inputs": [],
      "stateMutability": "payable",
      "type": "constructor"
    },
    {
      "anonymous": false,
      "inputs": [
        {
          "indexed": true,
          "internalType": "address",
          "name": "sender",
          "type": "address"
        },
        {
          "indexed": false,
          "internalType": "string",
          "name": "title",
          "type": "string"
        }
      ],
      "name": "CampaignCreated",
      "type": "event"
    },
    {
      "anonymous": false,
      "inputs": [
        {
          "indexed": true,
          "internalType": "address",
          "name": "sender",
          "type": "address"
        },
        {
          "indexed": false,
          "internalType": "string",
          "name": "title",
          "type": "string"
        }
      ],
      "name": "CampaignEdited",
      "type": "event"
    },
    {
      "anonymous": false,
      "inputs": [
        {
          "indexed": true,
          "internalType": "address",
          "name": "sender",
          "type": "address"
        },
        {
          "indexed": false,
          "internalType": "string",
          "name": "title",
          "type": "string"
        },
        {
          "indexed": false,
          "internalType": "uint256",
          "name": "amount",
          "type": "uint256"
        }
      ],
      "name": "DonationSent",
      "type": "event"
    },
    {
      "inputs": [
        {
          "internalType": "uint256",
          "name": "",
          "type": "uint256"
        }
      ],
      "name": "campaigns",
      "outputs": [
        {
          "internalType": "uint256",
          "name": "id",
          "type": "uint256"
        },
        {
          "internalType": "address",
          "name": "creator",
          "type": "address"
        },
        {
          "internalType": "string",
          "name": "fullname",
          "type": "string"
        },
        {
          "internalType": "string",
          "name": "title",
          "type": "string"
        },
        {
          "internalType": "string",
          "name": "story",
          "type": "string"
        },
        {
          "internalType": "string",
          "name": "imageUrl",
          "type": "string"
        },
        {
          "internalType": "uint256",
          "name": "goalAmount",
          "type": "uint256"
        },
        {
          "internalType": "uint256",
          "name": "currentAmount",
          "type": "uint256"
        },
        {
          "internalType": "uint256",
          "name": "deadline",
          "type": "uint256"
        },
        {
          "internalType": "uint256",
          "name": "totalDonations",
          "type": "uint256"
        }
      ],
      "stateMutability": "view",
      "type": "function"
    },
    {
      "inputs": [
        {
          "internalType": "string",
          "name": "_fullname",
          "type": "string"
        },
        {
          "internalType": "string",
          "name": "_title",
          "type": "string"
        },
        {
          "internalType": "string",
          "name": "_story",
          "type": "string"
        },
        {
          "internalType": "string",
          "name": "_imageUrl",
          "type": "string"
        },
        {
          "internalType": "uint256",
          "name": "_goalAmount",
          "type": "uint256"
        },
        {
          "internalType": "uint256",
          "name": "_deadline",
          "type": "uint256"
        }
      ],
      "name": "createCampaign",
      "outputs": [],
      "stateMutability": "nonpayable",
      "type": "function"
    },
    {
      "inputs": [
        {
          "internalType": "uint256",
          "name": "",
          "type": "uint256"
        }
      ],
      "name": "donationTransactions",
      "outputs": [
        {
          "internalType": "uint256",
          "name": "id",
          "type": "uint256"
        },
        {
          "internalType": "uint256",
          "name": "campaignId",
          "type": "uint256"
        },
        {
          "internalType": "address",
          "name": "donor",
          "type": "address"
        },
        {
          "internalType": "uint256",
          "name": "amount",
          "type": "uint256"
        },
        {
          "internalType": "uint256",
          "name": "timestamp",
          "type": "uint256"
        }
      ],
      "stateMutability": "view",
      "type": "function"
    },
    {
      "inputs": [
        {
          "internalType": "uint256",
          "name": "_campaignId",
          "type": "uint256"
        },
        {
          "internalType": "string",
          "name": "_fullname",
          "type": "string"
        },
        {
          "internalType": "string",
          "name": "_title",
          "type": "string"
        },
        {
          "internalType": "string",
          "name": "_story",
          "type": "string"
        },
        {
          "internalType": "string",
          "name": "_imageUrl",
          "type": "string"
        },
        {
          "internalType": "uint256",
          "name": "_goalAmount",
          "type": "uint256"
        },
        {
          "internalType": "uint256",
          "name": "_deadline",
          "type": "uint256"
        }
      ],
      "name": "editCampaign",
      "outputs": [],
      "stateMutability": "nonpayable",
      "type": "function"
    },
    {
      "inputs": [
        {
          "internalType": "uint256",
          "name": "_size",
          "type": "uint256"
        },
        {
          "internalType": "uint256",
          "name": "_startIndex",
          "type": "uint256"
        }
      ],
      "name": "getAllCampaigns",
      "outputs": [
        {
          "components": [
            {
              "internalType": "uint256",
              "name": "id",
              "type": "uint256"
            },
            {
              "internalType": "address",
              "name": "creator",
              "type": "address"
            },
            {
              "internalType": "string",
              "name": "fullname",
              "type": "string"
            },
            {
              "internalType": "string",
              "name": "title",
              "type": "string"
            },
            {
              "internalType": "string",
              "name": "story",
              "type": "string"
            },
            {
              "internalType": "string",
              "name": "imageUrl",
              "type": "string"
            },
            {
              "internalType": "uint256",
              "name": "goalAmount",
              "type": "uint256"
            },
            {
              "internalType": "uint256",
              "name": "currentAmount",
              "type": "uint256"
            },
            {
              "internalType": "uint256",
              "name": "deadline",
              "type": "uint256"
            },
            {
              "internalType": "uint256",
              "name": "totalDonations",
              "type": "uint256"
            }
          ],
          "internalType": "struct CrowdFunding.Campaign[]",
          "name": "allCampaigns",
          "type": "tuple[]"
        },
        {
          "components": [
            {
              "internalType": "bool",
              "name": "isLastPage",
              "type": "bool"
            },
            {
              "internalType": "uint256",
              "name": "nextIndex",
              "type": "uint256"
            }
          ],
          "internalType": "struct CrowdFunding.ResultIndexData",
          "name": "indexData",
          "type": "tuple"
        }
      ],
      "stateMutability": "view",
      "type": "function"
    },
    {
      "inputs": [
        {
          "internalType": "uint256",
          "name": "_campaignId",
          "type": "uint256"
        }
      ],
      "name": "getCampaign",
      "outputs": [
        {
          "components": [
            {
              "internalType": "uint256",
              "name": "id",
              "type": "uint256"
            },
            {
              "internalType": "address",
              "name": "creator",
              "type": "address"
            },
            {
              "internalType": "string",
              "name": "fullname",
              "type": "string"
            },
            {
              "internalType": "string",
              "name": "title",
              "type": "string"
            },
            {
              "internalType": "string",
              "name": "story",
              "type": "string"
            },
            {
              "internalType": "string",
              "name": "imageUrl",
              "type": "string"
            },
            {
              "internalType": "uint256",
              "name": "goalAmount",
              "type": "uint256"
            },
            {
              "internalType": "uint256",
              "name": "currentAmount",
              "type": "uint256"
            },
            {
              "internalType": "uint256",
              "name": "deadline",
              "type": "uint256"
            },
            {
              "internalType": "uint256",
              "name": "totalDonations",
              "type": "uint256"
            }
          ],
          "internalType": "struct CrowdFunding.Campaign",
          "name": "",
          "type": "tuple"
        }
      ],
      "stateMutability": "view",
      "type": "function"
    },
    {
      "inputs": [
        {
          "internalType": "uint256",
          "name": "_campaignId",
          "type": "uint256"
        }
      ],
      "name": "getCampaignDonations",
      "outputs": [
        {
          "components": [
            {
              "internalType": "uint256",
              "name": "id",
              "type": "uint256"
            },
            {
              "internalType": "uint256",
              "name": "campaignId",
              "type": "uint256"
            },
            {
              "internalType": "address",
              "name": "donor",
              "type": "address"
            },
            {
              "internalType": "uint256",
              "name": "amount",
              "type": "uint256"
            },
            {
              "internalType": "uint256",
              "name": "timestamp",
              "type": "uint256"
            }
          ],
          "internalType": "struct CrowdFunding.DonationTransaction[]",
          "name": "allDonations",
          "type": "tuple[]"
        },
        {
          "internalType": "uint256",
          "name": "totalCampaignDonations",
          "type": "uint256"
        }
      ],
      "stateMutability": "view",
      "type": "function"
    },
    {
      "inputs": [
        {
          "internalType": "address",
          "name": "_walletAddress",
          "type": "address"
        },
        {
          "internalType": "uint256",
          "name": "_pageSize",
          "type": "uint256"
        },
        {
          "internalType": "uint256",
          "name": "_pageNumber",
          "type": "uint256"
        }
      ],
      "name": "getDonatorsByWalletAddress",
      "outputs": [
        {
          "components": [
            {
              "internalType": "address",
              "name": "userAddress",
              "type": "address"
            },
            {
              "internalType": "string",
              "name": "campaignTitle",
              "type": "string"
            },
            {
              "internalType": "uint256",
              "name": "donationAmount",
              "type": "uint256"
            }
          ],
          "internalType": "struct CrowdFunding.DonationData[]",
          "name": "donations",
          "type": "tuple[]"
        },
        {
          "internalType": "uint256",
          "name": "donatorCount",
          "type": "uint256"
        },
        {
          "internalType": "uint256",
          "name": "totalPages",
          "type": "uint256"
        },
        {
          "internalType": "uint256",
          "name": "nextPage",
          "type": "uint256"
        },
        {
          "internalType": "uint256",
          "name": "previousPage",
          "type": "uint256"
        }
      ],
      "stateMutability": "view",
      "type": "function"
    },
    {
      "inputs": [
        {
          "internalType": "uint256",
          "name": "_size",
          "type": "uint256"
        }
      ],
      "name": "getRecentCampaigns",
      "outputs": [
        {
          "components": [
            {
              "internalType": "uint256",
              "name": "id",
              "type": "uint256"
            },
            {
              "internalType": "address",
              "name": "creator",
              "type": "address"
            },
            {
              "internalType": "string",
              "name": "fullname",
              "type": "string"
            },
            {
              "internalType": "string",
              "name": "title",
              "type": "string"
            },
            {
              "internalType": "string",
              "name": "story",
              "type": "string"
            },
            {
              "internalType": "string",
              "name": "imageUrl",
              "type": "string"
            },
            {
              "internalType": "uint256",
              "name": "goalAmount",
              "type": "uint256"
            },
            {
              "internalType": "uint256",
              "name": "currentAmount",
              "type": "uint256"
            },
            {
              "internalType": "uint256",
              "name": "deadline",
              "type": "uint256"
            },
            {
              "internalType": "uint256",
              "name": "totalDonations",
              "type": "uint256"
            }
          ],
          "internalType": "struct CrowdFunding.Campaign[]",
          "name": "recentCampaigns",
          "type": "tuple[]"
        },
        {
          "internalType": "uint256",
          "name": "totalFetchedCampaigns",
          "type": "uint256"
        },
        {
          "internalType": "uint256",
          "name": "totalAllCampaigns",
          "type": "uint256"
        }
      ],
      "stateMutability": "view",
      "type": "function"
    },
    {
      "inputs": [
        {
          "internalType": "uint256",
          "name": "_pageSize",
          "type": "uint256"
        },
        {
          "internalType": "uint256",
          "name": "_pageNumber",
          "type": "uint256"
        }
      ],
      "name": "getUserCampaigns",
      "outputs": [
        {
          "components": [
            {
              "internalType": "uint256",
              "name": "id",
              "type": "uint256"
            },
            {
              "internalType": "address",
              "name": "creator",
              "type": "address"
            },
            {
              "internalType": "string",
              "name": "fullname",
              "type": "string"
            },
            {
              "internalType": "string",
              "name": "title",
              "type": "string"
            },
            {
              "internalType": "string",
              "name": "story",
              "type": "string"
            },
            {
              "internalType": "string",
              "name": "imageUrl",
              "type": "string"
            },
            {
              "internalType": "uint256",
              "name": "goalAmount",
              "type": "uint256"
            },
            {
              "internalType": "uint256",
              "name": "currentAmount",
              "type": "uint256"
            },
            {
              "internalType": "uint256",
              "name": "deadline",
              "type": "uint256"
            },
            {
              "internalType": "uint256",
              "name": "totalDonations",
              "type": "uint256"
            }
          ],
          "internalType": "struct CrowdFunding.Campaign[]",
          "name": "allCampaigns",
          "type": "tuple[]"
        },
        {
          "internalType": "uint256",
          "name": "userTotalCampaigns",
          "type": "uint256"
        },
        {
          "internalType": "uint256",
          "name": "totalPages",
          "type": "uint256"
        },
        {
          "internalType": "uint256",
          "name": "nextPage",
          "type": "uint256"
        },
        {
          "internalType": "uint256",
          "name": "previousPage",
          "type": "uint256"
        }
      ],
      "stateMutability": "view",
      "type": "function"
    },
    {
      "inputs": [
        {
          "internalType": "address",
          "name": "_userAddress",
          "type": "address"
        },
        {
          "internalType": "uint256",
          "name": "_pageSize",
          "type": "uint256"
        },
        {
          "internalType": "uint256",
          "name": "_pageNumber",
          "type": "uint256"
        }
      ],
      "name": "getUserDonations",
      "outputs": [
        {
          "components": [
            {
              "internalType": "address",
              "name": "userAddress",
              "type": "address"
            },
            {
              "internalType": "string",
              "name": "campaignTitle",
              "type": "string"
            },
            {
              "internalType": "uint256",
              "name": "donationAmount",
              "type": "uint256"
            }
          ],
          "internalType": "struct CrowdFunding.DonationData[]",
          "name": "userDonations",
          "type": "tuple[]"
        },
        {
          "components": [
            {
              "internalType": "uint256",
              "name": "totalPages",
              "type": "uint256"
            },
            {
              "internalType": "uint256",
              "name": "nextPage",
              "type": "uint256"
            },
            {
              "internalType": "uint256",
              "name": "previousPage",
              "type": "uint256"
            },
            {
              "internalType": "uint256",
              "name": "startIndex",
              "type": "uint256"
            },
            {
              "internalType": "uint256",
              "name": "endIndex",
              "type": "uint256"
            }
          ],
          "internalType": "struct CrowdFunding.PaginationData",
          "name": "pagination",
          "type": "tuple"
        }
      ],
      "stateMutability": "view",
      "type": "function"
    },
    {
      "inputs": [],
      "name": "owner",
      "outputs": [
        {
          "internalType": "address payable",
          "name": "",
          "type": "address"
        }
      ],
      "stateMutability": "view",
      "type": "function"
    },
    {
      "inputs": [
        {
          "internalType": "string",
          "name": "searchTerm",
          "type": "string"
        },
        {
          "internalType": "uint256",
          "name": "pageSize",
          "type": "uint256"
        },
        {
          "internalType": "uint256",
          "name": "startIndex",
          "type": "uint256"
        }
      ],
      "name": "searchByTitle",
      "outputs": [
        {
          "components": [
            {
              "internalType": "uint256",
              "name": "id",
              "type": "uint256"
            },
            {
              "internalType": "address",
              "name": "creator",
              "type": "address"
            },
            {
              "internalType": "string",
              "name": "fullname",
              "type": "string"
            },
            {
              "internalType": "string",
              "name": "title",
              "type": "string"
            },
            {
              "internalType": "string",
              "name": "story",
              "type": "string"
            },
            {
              "internalType": "string",
              "name": "imageUrl",
              "type": "string"
            },
            {
              "internalType": "uint256",
              "name": "goalAmount",
              "type": "uint256"
            },
            {
              "internalType": "uint256",
              "name": "currentAmount",
              "type": "uint256"
            },
            {
              "internalType": "uint256",
              "name": "deadline",
              "type": "uint256"
            },
            {
              "internalType": "uint256",
              "name": "totalDonations",
              "type": "uint256"
            }
          ],
          "internalType": "struct CrowdFunding.Campaign[]",
          "name": "matchingCampaigns",
          "type": "tuple[]"
        },
        {
          "components": [
            {
              "internalType": "bool",
              "name": "isLastPage",
              "type": "bool"
            },
            {
              "internalType": "uint256",
              "name": "nextIndex",
              "type": "uint256"
            }
          ],
          "internalType": "struct CrowdFunding.ResultIndexData",
          "name": "searchIndexData",
          "type": "tuple"
        }
      ],
      "stateMutability": "view",
      "type": "function"
    },
    {
      "inputs": [
        {
          "internalType": "uint256",
          "name": "_campaignId",
          "type": "uint256"
        }
      ],
      "name": "sendDonation",
      "outputs": [],
      "stateMutability": "payable",
      "type": "function"
    },
    {
      "inputs": [],
      "name": "totalCampaigns",
      "outputs": [
        {
          "internalType": "uint256",
          "name": "",
          "type": "uint256"
        }
      ],
      "stateMutability": "view",
      "type": "function"
    },
    {
      "inputs": [],
      "name": "totalDonations",
      "outputs": [
        {
          "internalType": "uint256",
          "name": "",
          "type": "uint256"
        }
      ],
      "stateMutability": "view",
      "type": "function"
    },
    {
      "inputs": [
        {
          "internalType": "address",
          "name": "",
          "type": "address"
        }
      ],
      "name": "users",
      "outputs": [
        {
          "internalType": "uint256",
          "name": "totalCampaigns",
          "type": "uint256"
        },
        {
          "internalType": "uint256",
          "name": "totalDonations",
          "type": "uint256"
        }
      ],
      "stateMutability": "view",
      "type": "function"
    }
  ],
  "bytecode": "0x6080604052336000806101000a81548173ffffffffffffffffffffffffffffffffffffffff021916908373ffffffffffffffffffffffffffffffffffffffff16021790555060006004819055506155b08061005b6000396000f3fe6080604052600436106100fe5760003560e01c80635598f8cc116100955780638da5cb5b116100645780638da5cb5b146103af578063a87430ba146103da578063a8aee94014610418578063b0445d6014610441578063de2ed89314610482576100fe565b80635598f8cc146102d6578063665588c91461031357806371b7baae1461032f5780638acd0bfc1461036e576100fe565b80632e5293f3116100d15780632e5293f3146101db5780633e3b66751461021957806345d0b60a1461025a5780635167642f14610298576100fe565b806302932f56146101035780631225ce251461012e578063141961bc14610157578063253343e71461019d575b600080fd5b34801561010f57600080fd5b506101186104ad565b6040516101259190613aaf565b60405180910390f35b34801561013a57600080fd5b5061015560048036038101906101509190613c50565b6104b3565b005b34801561016357600080fd5b5061017e60048036038101906101799190613d62565b610803565b6040516101949a99989796959493929190613e4f565b60405180910390f35b3480156101a957600080fd5b506101c460048036038101906101bf9190613f07565b610a97565b6040516101d29291906141aa565b60405180910390f35b3480156101e757600080fd5b5061020260048036038101906101fd91906141da565b610ee2565b6040516102109291906141aa565b60405180910390f35b34801561022557600080fd5b50610240600480360381019061023b9190613f07565b6114e5565b604051610251959493929190614249565b60405180910390f35b34801561026657600080fd5b50610281600480360381019061027c91906142cf565b61192b565b60405161028f92919061449c565b60405180910390f35b3480156102a457600080fd5b506102bf60048036038101906102ba9190613d62565b611e44565b6040516102cd9291906145e3565b60405180910390f35b3480156102e257600080fd5b506102fd60048036038101906102f89190613d62565b6122ab565b60405161030a9190614702565b60405180910390f35b61032d60048036038101906103289190613d62565b6125a9565b005b34801561033b57600080fd5b5061035660048036038101906103519190613d62565b612899565b60405161036593929190614724565b60405180910390f35b34801561037a57600080fd5b5061039560048036038101906103909190613d62565b612c88565b6040516103a6959493929190614762565b60405180910390f35b3480156103bb57600080fd5b506103c4612cde565b6040516103d191906147d6565b60405180910390f35b3480156103e657600080fd5b5061040160048036038101906103fc91906147f1565b612d02565b60405161040f92919061481e565b60405180910390f35b34801561042457600080fd5b5061043f600480360381019061043a9190614847565b612d26565b005b34801561044d57600080fd5b50610468600480360381019061046391906142cf565b613186565b604051610479959493929190614944565b60405180910390f35b34801561048e57600080fd5b50610497613556565b6040516104a49190613aaf565b60405180910390f35b60045481565b8585858585854281116104fb576040517f08c379a00000000000000000000000000000000000000000000000000000000081526004016104f2906149ea565b60405180910390fd5b6000821161053e576040517f08c379a000000000000000000000000000000000000000000000000000000000815260040161053590614a7c565b60405180910390fd5b6000865111610582576040517f08c379a000000000000000000000000000000000000000000000000000000000815260040161057990614ae8565b60405180910390fd5b60008551116105c6576040517f08c379a00000000000000000000000000000000000000000000000000000000081526004016105bd90614b54565b60405180910390fd5b600084511161060a576040517f08c379a000000000000000000000000000000000000000000000000000000000815260040161060190614bc0565b60405180910390fd5b600083511161064e576040517f08c379a000000000000000000000000000000000000000000000000000000000815260040161064590614c52565b60405180910390fd5b6000600260008f8152602001908152602001600020905060008e1015801561067757506004548e105b6106b6576040517f08c379a00000000000000000000000000000000000000000000000000000000081526004016106ad90614cbe565b60405180910390fd5b3373ffffffffffffffffffffffffffffffffffffffff168160010160009054906101000a900473ffffffffffffffffffffffffffffffffffffffff1673ffffffffffffffffffffffffffffffffffffffff1614610748576040517f08c379a000000000000000000000000000000000000000000000000000000000815260040161073f90614d50565b60405180910390fd5b8c8160020190816107599190614f7c565b508b81600301908161076b9190614f7c565b508a81600401908161077d9190614f7c565b508981600501908161078f9190614f7c565b508881600601819055508781600801819055503373ffffffffffffffffffffffffffffffffffffffff167fb961c338b427968a67f1a3560907d7075a0d1fca0c2d16dcb76da3a963cfe373826003016040516107eb91906150d2565b60405180910390a25050505050505050505050505050565b60026020528060005260406000206000915090508060000154908060010160009054906101000a900473ffffffffffffffffffffffffffffffffffffffff169080600201805461085290614d9f565b80601f016020809104026020016040519081016040528092919081815260200182805461087e90614d9f565b80156108cb5780601f106108a0576101008083540402835291602001916108cb565b820191906000526020600020905b8154815290600101906020018083116108ae57829003601f168201915b5050505050908060030180546108e090614d9f565b80601f016020809104026020016040519081016040528092919081815260200182805461090c90614d9f565b80156109595780601f1061092e57610100808354040283529160200191610959565b820191906000526020600020905b81548152906001019060200180831161093c57829003601f168201915b50505050509080600401805461096e90614d9f565b80601f016020809104026020016040519081016040528092919081815260200182805461099a90614d9f565b80156109e75780601f106109bc576101008083540402835291602001916109e7565b820191906000526020600020905b8154815290600101906020018083116109ca57829003601f168201915b5050505050908060050180546109fc90614d9f565b80601f0160208091040260200160405190810160405280929190818152602001828054610a2890614d9f565b8015610a755780601f10610a4a57610100808354040283529160200191610a75565b820191906000526020600020905b815481529060010190602001808311610a5857829003601f168201915b505050505090806006015490806007015490806008015490806009015490508a565b6060610aa1613966565b60008411610ae4576040517f08c379a0000000000000000000000000000000000000000000000000000000008152600401610adb90615140565b60405180910390fd5b8383610af0919061518f565b81602001818152505082600454610b0791906151c3565b8410610b3a5782600454610b1b91906151c3565b9350600181600001901515908115158152505060008160200181815250505b60008467ffffffffffffffff811115610b5657610b55613b25565b5b604051908082528060200260200182016040528015610b8f57816020015b610b7c613982565b815260200190600190039081610b745790505b50925060008490505b8585610ba4919061518f565b811015610ed9576002600082815260200190815260200160002060405180610140016040529081600082015481526020016001820160009054906101000a900473ffffffffffffffffffffffffffffffffffffffff1673ffffffffffffffffffffffffffffffffffffffff1673ffffffffffffffffffffffffffffffffffffffff168152602001600282018054610c3a90614d9f565b80601f0160208091040260200160405190810160405280929190818152602001828054610c6690614d9f565b8015610cb35780601f10610c8857610100808354040283529160200191610cb3565b820191906000526020600020905b815481529060010190602001808311610c9657829003601f168201915b50505050508152602001600382018054610ccc90614d9f565b80601f0160208091040260200160405190810160405280929190818152602001828054610cf890614d9f565b8015610d455780601f10610d1a57610100808354040283529160200191610d45565b820191906000526020600020905b815481529060010190602001808311610d2857829003601f168201915b50505050508152602001600482018054610d5e90614d9f565b80601f0160208091040260200160405190810160405280929190818152602001828054610d8a90614d9f565b8015610dd75780601f10610dac57610100808354040283529160200191610dd7565b820191906000526020600020905b815481529060010190602001808311610dba57829003601f168201915b50505050508152602001600582018054610df090614d9f565b80601f0160208091040260200160405190810160405280929190818152602001828054610e1c90614d9f565b8015610e695780601f10610e3e57610100808354040283529160200191610e69565b820191906000526020600020905b815481529060010190602001808311610e4c57829003601f168201915b50505050508152602001600682015481526020016007820154815260200160088201548152602001600982015481525050848381518110610ead57610eac6151f7565b5b60200260200101819052508180610ec390615226565b9250508080610ed190615226565b915050610b98565b50509250929050565b6060610eec613966565b60008411610f2f576040517f08c379a0000000000000000000000000000000000000000000000000000000008152600401610f26906152ba565b60405180910390fd5b6000808490505b60045481108015610f475750858214155b1561107b57611004610ff6600260008481526020019081526020016000206003018054610f7390614d9f565b80601f0160208091040260200160405190810160405280929190818152602001828054610f9f90614d9f565b8015610fec5780601f10610fc157610100808354040283529160200191610fec565b820191906000526020600020905b815481529060010190602001808311610fcf57829003601f168201915b505050505061355c565b610fff8961355c565b613647565b1561101857818061101490615226565b9250505b8582036110365760018161102c919061518f565b8360200181815250505b600454600182611046919061518f565b0361106857600183600001901515908115158152505060008360200181815250505b808061107390615226565b915050610f36565b508067ffffffffffffffff81111561109657611095613b25565b5b6040519080825280602002602001820160405280156110cf57816020015b6110bc613982565b8152602001906001900390816110b45790505b5092506000808590505b600454811080156110e957508282105b156114da576111a661119860026000848152602001908152602001600020600301805461111590614d9f565b80601f016020809104026020016040519081016040528092919081815260200182805461114190614d9f565b801561118e5780601f106111635761010080835404028352916020019161118e565b820191906000526020600020905b81548152906001019060200180831161117157829003601f168201915b505050505061355c565b6111a18a61355c565b613647565b156114c7576002600082815260200190815260200160002060405180610140016040529081600082015481526020016001820160009054906101000a900473ffffffffffffffffffffffffffffffffffffffff1673ffffffffffffffffffffffffffffffffffffffff1673ffffffffffffffffffffffffffffffffffffffff16815260200160028201805461123a90614d9f565b80601f016020809104026020016040519081016040528092919081815260200182805461126690614d9f565b80156112b35780601f10611288576101008083540402835291602001916112b3565b820191906000526020600020905b81548152906001019060200180831161129657829003601f168201915b505050505081526020016003820180546112cc90614d9f565b80601f01602080910402602001604051908101604052809291908181526020018280546112f890614d9f565b80156113455780601f1061131a57610100808354040283529160200191611345565b820191906000526020600020905b81548152906001019060200180831161132857829003601f168201915b5050505050815260200160048201805461135e90614d9f565b80601f016020809104026020016040519081016040528092919081815260200182805461138a90614d9f565b80156113d75780601f106113ac576101008083540402835291602001916113d7565b820191906000526020600020905b8154815290600101906020018083116113ba57829003601f168201915b505050505081526020016005820180546113f090614d9f565b80601f016020809104026020016040519081016040528092919081815260200182805461141c90614d9f565b80156114695780601f1061143e57610100808354040283529160200191611469565b820191906000526020600020905b81548152906001019060200180831161144c57829003601f168201915b505050505081526020016006820154815260200160078201548152602001600882015481526020016009820154815250508583815181106114ad576114ac6151f7565b5b602002602001018190525081806114c390615226565b9250505b80806114d290615226565b9150506110d9565b505050935093915050565b60606000806000806000600160003373ffffffffffffffffffffffffffffffffffffffff1673ffffffffffffffffffffffffffffffffffffffff1681526020019081526020016000209050600061154182600001548a8a613772565b90508060600151816080015161155791906151c3565b67ffffffffffffffff8111156115705761156f613b25565b5b6040519080825280602002602001820160405280156115a957816020015b611596613982565b81526020019060019003908161158e5790505b50965060005b8751811015611902576000600260008560020160008587606001516115d4919061518f565b815260200190815260200160002054815260200190815260200160002060405180610140016040529081600082015481526020016001820160009054906101000a900473ffffffffffffffffffffffffffffffffffffffff1673ffffffffffffffffffffffffffffffffffffffff1673ffffffffffffffffffffffffffffffffffffffff16815260200160028201805461166d90614d9f565b80601f016020809104026020016040519081016040528092919081815260200182805461169990614d9f565b80156116e65780601f106116bb576101008083540402835291602001916116e6565b820191906000526020600020905b8154815290600101906020018083116116c957829003601f168201915b505050505081526020016003820180546116ff90614d9f565b80601f016020809104026020016040519081016040528092919081815260200182805461172b90614d9f565b80156117785780601f1061174d57610100808354040283529160200191611778565b820191906000526020600020905b81548152906001019060200180831161175b57829003601f168201915b5050505050815260200160048201805461179190614d9f565b80601f01602080910402602001604051908101604052809291908181526020018280546117bd90614d9f565b801561180a5780601f106117df5761010080835404028352916020019161180a565b820191906000526020600020905b8154815290600101906020018083116117ed57829003601f168201915b5050505050815260200160058201805461182390614d9f565b80601f016020809104026020016040519081016040528092919081815260200182805461184f90614d9f565b801561189c5780601f106118715761010080835404028352916020019161189c565b820191906000526020600020905b81548152906001019060200180831161187f57829003601f168201915b505050505081526020016006820154815260200160078201548152602001600882015481526020016009820154815250509050808983815181106118e3576118e26151f7565b5b60200260200101819052505080806118fa90615226565b9150506115af565b508160000154955080600001519450806020015193508060400151925050509295509295909350565b60606119356139eb565b600080600160008873ffffffffffffffffffffffffffffffffffffffff1673ffffffffffffffffffffffffffffffffffffffff168152602001908152602001600020905061198881600101548787613772565b92508260600151836080015161199e91906151c3565b67ffffffffffffffff8111156119b7576119b6613b25565b5b6040519080825280602002602001820160405280156119f057816020015b6119dd613a1a565b8152602001906001900390816119d55790505b5093506000836060015190505b8360800151811015611e39576000600360008460030160008581526020019081526020016000205481526020019081526020016000206040518060a001604052908160008201548152602001600182015481526020016002820160009054906101000a900473ffffffffffffffffffffffffffffffffffffffff1673ffffffffffffffffffffffffffffffffffffffff1673ffffffffffffffffffffffffffffffffffffffff1681526020016003820154815260200160048201548152505090506000600260008360200151815260200190815260200160002060405180610140016040529081600082015481526020016001820160009054906101000a900473ffffffffffffffffffffffffffffffffffffffff1673ffffffffffffffffffffffffffffffffffffffff1673ffffffffffffffffffffffffffffffffffffffff168152602001600282018054611b5390614d9f565b80601f0160208091040260200160405190810160405280929190818152602001828054611b7f90614d9f565b8015611bcc5780601f10611ba157610100808354040283529160200191611bcc565b820191906000526020600020905b815481529060010190602001808311611baf57829003601f168201915b50505050508152602001600382018054611be590614d9f565b80601f0160208091040260200160405190810160405280929190818152602001828054611c1190614d9f565b8015611c5e5780601f10611c3357610100808354040283529160200191611c5e565b820191906000526020600020905b815481529060010190602001808311611c4157829003601f168201915b50505050508152602001600482018054611c7790614d9f565b80601f0160208091040260200160405190810160405280929190818152602001828054611ca390614d9f565b8015611cf05780601f10611cc557610100808354040283529160200191611cf0565b820191906000526020600020905b815481529060010190602001808311611cd357829003601f168201915b50505050508152602001600582018054611d0990614d9f565b80601f0160208091040260200160405190810160405280929190818152602001828054611d3590614d9f565b8015611d825780601f10611d5757610100808354040283529160200191611d82565b820191906000526020600020905b815481529060010190602001808311611d6557829003601f168201915b50505050508152602001600682015481526020016007820154815260200160088201548152602001600982015481525050905060006040518060600160405280836020015173ffffffffffffffffffffffffffffffffffffffff168152602001836060015181526020018460600151815250905080888781518110611e0a57611e096151f7565b5b60200260200101819052508580611e2090615226565b9650505050508080611e3190615226565b9150506119fd565b505050935093915050565b60606000806002600085815260200190815260200160002060405180610140016040529081600082015481526020016001820160009054906101000a900473ffffffffffffffffffffffffffffffffffffffff1673ffffffffffffffffffffffffffffffffffffffff1673ffffffffffffffffffffffffffffffffffffffff168152602001600282018054611ed890614d9f565b80601f0160208091040260200160405190810160405280929190818152602001828054611f0490614d9f565b8015611f515780601f10611f2657610100808354040283529160200191611f51565b820191906000526020600020905b815481529060010190602001808311611f3457829003601f168201915b50505050508152602001600382018054611f6a90614d9f565b80601f0160208091040260200160405190810160405280929190818152602001828054611f9690614d9f565b8015611fe35780601f10611fb857610100808354040283529160200191611fe3565b820191906000526020600020905b815481529060010190602001808311611fc657829003601f168201915b50505050508152602001600482018054611ffc90614d9f565b80601f016020809104026020016040519081016040528092919081815260200182805461202890614d9f565b80156120755780601f1061204a57610100808354040283529160200191612075565b820191906000526020600020905b81548152906001019060200180831161205857829003601f168201915b5050505050815260200160058201805461208e90614d9f565b80601f01602080910402602001604051908101604052809291908181526020018280546120ba90614d9f565b80156121075780601f106120dc57610100808354040283529160200191612107565b820191906000526020600020905b8154815290600101906020018083116120ea57829003601f168201915b50505050508152602001600682015481526020016007820154815260200160088201548152602001600982015481525050905080610120015191508167ffffffffffffffff81111561215c5761215b613b25565b5b60405190808252806020026020018201604052801561219557816020015b612182613a51565b81526020019060019003908161217a5790505b5092506000805b6005548110156122a357826000015160036000838152602001908152602001600020600101540361229057600360008281526020019081526020016000206040518060a001604052908160008201548152602001600182015481526020016002820160009054906101000a900473ffffffffffffffffffffffffffffffffffffffff1673ffffffffffffffffffffffffffffffffffffffff1673ffffffffffffffffffffffffffffffffffffffff16815260200160038201548152602001600482015481525050858381518110612276576122756151f7565b5b6020026020010181905250818061228c90615226565b9250505b808061229b90615226565b91505061219c565b505050915091565b6122b3613982565b6002600083815260200190815260200160002060405180610140016040529081600082015481526020016001820160009054906101000a900473ffffffffffffffffffffffffffffffffffffffff1673ffffffffffffffffffffffffffffffffffffffff1673ffffffffffffffffffffffffffffffffffffffff16815260200160028201805461234290614d9f565b80601f016020809104026020016040519081016040528092919081815260200182805461236e90614d9f565b80156123bb5780601f10612390576101008083540402835291602001916123bb565b820191906000526020600020905b81548152906001019060200180831161239e57829003601f168201915b505050505081526020016003820180546123d490614d9f565b80601f016020809104026020016040519081016040528092919081815260200182805461240090614d9f565b801561244d5780601f106124225761010080835404028352916020019161244d565b820191906000526020600020905b81548152906001019060200180831161243057829003601f168201915b5050505050815260200160048201805461246690614d9f565b80601f016020809104026020016040519081016040528092919081815260200182805461249290614d9f565b80156124df5780601f106124b4576101008083540402835291602001916124df565b820191906000526020600020905b8154815290600101906020018083116124c257829003601f168201915b505050505081526020016005820180546124f890614d9f565b80601f016020809104026020016040519081016040528092919081815260200182805461252490614d9f565b80156125715780601f1061254657610100808354040283529160200191612571565b820191906000526020600020905b81548152906001019060200180831161255457829003601f168201915b505050505081526020016006820154815260200160078201548152602001600882015481526020016009820154815250509050919050565b600081101580156125bb575060045481105b6125fa576040517f08c379a00000000000000000000000000000000000000000000000000000000081526004016125f190614cbe565b60405180910390fd5b60006002600083815260200190815260200160002090508060080154421115612658576040517f08c379a000000000000000000000000000000000000000000000000000000000815260040161264f90615326565b60405180910390fd5b6000341161269b576040517f08c379a0000000000000000000000000000000000000000000000000000000008152600401612692906153b8565b60405180910390fd5b6000600160003373ffffffffffffffffffffffffffffffffffffffff1673ffffffffffffffffffffffffffffffffffffffff168152602001908152602001600020905060008160010154905060006040518060a001604052806005548152602001856000015481526020013373ffffffffffffffffffffffffffffffffffffffff16815260200134815260200142815250905080600360006005548152602001908152602001600020600082015181600001556020820151816001015560408201518160020160006101000a81548173ffffffffffffffffffffffffffffffffffffffff021916908373ffffffffffffffffffffffffffffffffffffffff1602179055506060820151816003015560808201518160040155905050806000015183600301600084815260200190815260200160002081905550348460070160008282546127e8919061518f565b925050819055506005600081548092919061280290615226565b919050555082600101600081548092919061281c90615226565b919050555083600901600081548092919061283690615226565b91905055503373ffffffffffffffffffffffffffffffffffffffff167f3b5443c59641f965c6df0836dbe11676fa8c79c3184392351bb19fd51de3d49a85600301866007015460405161288a9291906153d8565b60405180910390a25050505050565b6060600080600060045485106128b05760006128bf565b846004546128be91906151c3565b5b9050600060045486106128d4576004546128d6565b855b90508067ffffffffffffffff8111156128f2576128f1613b25565b5b60405190808252806020026020018201604052801561292b57816020015b612918613982565b8152602001906001900390816129105790505b50945060005b81811015612c6457600260008285612949919061518f565b815260200190815260200160002060405180610140016040529081600082015481526020016001820160009054906101000a900473ffffffffffffffffffffffffffffffffffffffff1673ffffffffffffffffffffffffffffffffffffffff1673ffffffffffffffffffffffffffffffffffffffff1681526020016002820180546129d390614d9f565b80601f01602080910402602001604051908101604052809291908181526020018280546129ff90614d9f565b8015612a4c5780601f10612a2157610100808354040283529160200191612a4c565b820191906000526020600020905b815481529060010190602001808311612a2f57829003601f168201915b50505050508152602001600382018054612a6590614d9f565b80601f0160208091040260200160405190810160405280929190818152602001828054612a9190614d9f565b8015612ade5780601f10612ab357610100808354040283529160200191612ade565b820191906000526020600020905b815481529060010190602001808311612ac157829003601f168201915b50505050508152602001600482018054612af790614d9f565b80601f0160208091040260200160405190810160405280929190818152602001828054612b2390614d9f565b8015612b705780601f10612b4557610100808354040283529160200191612b70565b820191906000526020600020905b815481529060010190602001808311612b5357829003601f168201915b50505050508152602001600582018054612b8990614d9f565b80601f0160208091040260200160405190810160405280929190818152602001828054612bb590614d9f565b8015612c025780601f10612bd757610100808354040283529160200191612c02565b820191906000526020600020905b815481529060010190602001808311612be557829003601f168201915b50505050508152602001600682015481526020016007820154815260200160088201548152602001600982015481525050868281518110612c4657612c456151f7565b5b60200260200101819052508080612c5c90615226565b915050612931565b50600060045411612c76576000612c78565b805b9350600454925050509193909250565b60036020528060005260406000206000915090508060000154908060010154908060020160009054906101000a900473ffffffffffffffffffffffffffffffffffffffff16908060030154908060040154905085565b60008054906101000a900473ffffffffffffffffffffffffffffffffffffffff1681565b60016020528060005260406000206000915090508060000154908060010154905082565b858585858585428111612d6e576040517f08c379a0000000000000000000000000000000000000000000000000000000008152600401612d65906149ea565b60405180910390fd5b60008211612db1576040517f08c379a0000000000000000000000000000000000000000000000000000000008152600401612da890614a7c565b60405180910390fd5b6000865111612df5576040517f08c379a0000000000000000000000000000000000000000000000000000000008152600401612dec90614ae8565b60405180910390fd5b6000855111612e39576040517f08c379a0000000000000000000000000000000000000000000000000000000008152600401612e3090614b54565b60405180910390fd5b6000845111612e7d576040517f08c379a0000000000000000000000000000000000000000000000000000000008152600401612e7490614bc0565b60405180910390fd5b6000835111612ec1576040517f08c379a0000000000000000000000000000000000000000000000000000000008152600401612eb890614c52565b60405180910390fd5b600060405180610140016040528060045481526020013373ffffffffffffffffffffffffffffffffffffffff1681526020018e81526020018d81526020018c81526020018b81526020018a81526020016000815260200189815260200160008152509050806002600060045481526020019081526020016000206000820151816000015560208201518160010160006101000a81548173ffffffffffffffffffffffffffffffffffffffff021916908373ffffffffffffffffffffffffffffffffffffffff1602179055506040820151816002019081612fa19190614f7c565b506060820151816003019081612fb79190614f7c565b506080820151816004019081612fcd9190614f7c565b5060a0820151816005019081612fe39190614f7c565b5060c0820151816006015560e08201518160070155610100820151816008015561012082015181600901559050506000600160003373ffffffffffffffffffffffffffffffffffffffff1673ffffffffffffffffffffffffffffffffffffffff1681526020019081526020016000206000015490508160000151600160003373ffffffffffffffffffffffffffffffffffffffff1673ffffffffffffffffffffffffffffffffffffffff168152602001908152602001600020600201600083815260200190815260200160002081905550600160003373ffffffffffffffffffffffffffffffffffffffff1673ffffffffffffffffffffffffffffffffffffffff168152602001908152602001600020600001600081548092919061310790615226565b91905055506004600081548092919061311f90615226565b91905055503373ffffffffffffffffffffffffffffffffffffffff167f17dd0b5f0975f4651b002ed3b016428bae979f5704d8b2473931b2312185c05a836060015160405161316e9190615408565b60405180910390a25050505050505050505050505050565b60606000806000806000935061319a6139eb565b60005b6004548110156132815760006002600083815260200190815260200160002090508a73ffffffffffffffffffffffffffffffffffffffff168160010160009054906101000a900473ffffffffffffffffffffffffffffffffffffffff1673ffffffffffffffffffffffffffffffffffffffff160361326d5760005b60055481101561326b576000600360008381526020019081526020016000209050826000015481600101540361325757888061325390615226565b9950505b50808061326390615226565b915050613218565b505b50808061327990615226565b91505061319d565b5061328d858989613772565b9050806060015181608001516132a391906151c3565b67ffffffffffffffff8111156132bc576132bb613b25565b5b6040519080825280602002602001820160405280156132f557816020015b6132e2613a1a565b8152602001906001900390816132da5790505b5095506000805b6004548110156135335760006002600083815260200190815260200160002090508b73ffffffffffffffffffffffffffffffffffffffff168160010160009054906101000a900473ffffffffffffffffffffffffffffffffffffffff1673ffffffffffffffffffffffffffffffffffffffff160361351f5760005b60055481101561351d576000600360008381526020019081526020016000209050826000015481600101540361350957856060015185101580156133be5750856080015185105b156134fa576133cb613a1a565b8160020160009054906101000a900473ffffffffffffffffffffffffffffffffffffffff16816000019073ffffffffffffffffffffffffffffffffffffffff16908173ffffffffffffffffffffffffffffffffffffffff168152505083600301805461343690614d9f565b80601f016020809104026020016040519081016040528092919081815260200182805461346290614d9f565b80156134af5780601f10613484576101008083540402835291602001916134af565b820191906000526020600020905b81548152906001019060200180831161349257829003601f168201915b505050505081602001819052508160030154816040018181525050808c8860600151886134dc91906151c3565b815181106134ed576134ec6151f7565b5b6020026020010181905250505b848061350590615226565b9550505b50808061351590615226565b915050613377565b505b50808061352b90615226565b9150506132fc565b508160000151945081602001519350816040015192505050939792965093509350565b60055481565b606060008290506000815167ffffffffffffffff8111156135805761357f613b25565b5b6040519080825280601f01601f1916602001820160405280156135b25781602001600182028036833780820191505090505b50905060005b825181101561363c576135e78382815181106135d7576135d66151f7565b5b602001015160f81c60f81b61391e565b8282815181106135fa576135f96151f7565b5b60200101907effffffffffffffffffffffffffffffffffffffffffffffffffffffffffffff1916908160001a905350808061363490615226565b9150506135b8565b508092505050919050565b60008083905060008390508051825110156136675760009250505061376c565b60005b8151835161367891906151c3565b81116137645760006001905060005b835181101561373c578381815181106136a3576136a26151f7565b5b602001015160f81c60f81b7effffffffffffffffffffffffffffffffffffffffffffffffffffffffffffff19168582856136dd919061518f565b815181106136ee576136ed6151f7565b5b602001015160f81c60f81b7effffffffffffffffffffffffffffffffffffffffffffffffffffffffffffff191614613729576000915061373c565b808061373490615226565b915050613687565b50801561375057600194505050505061376c565b50808061375c90615226565b91505061366a565b506000925050505b92915050565b61377a6139eb565b600083116137bd576040517f08c379a00000000000000000000000000000000000000000000000000000000081526004016137b4906152ba565b60405180910390fd5b60008211613800576040517f08c379a00000000000000000000000000000000000000000000000000000000081526004016137f790615476565b60405180910390fd5b6138086139eb565b8360018587613817919061518f565b61382191906151c3565b61382b91906154c5565b8160000181815250506000816000015111613847576000613860565b60018361385491906151c3565b8461385f91906154f6565b5b8160600181815250508481606001518561387a919061518f565b116138945780606001518461388f919061518f565b613896565b845b816080018181525050806000015183106138b45780600001516138c2565b6001836138c1919061518f565b5b816020018181525050600183116138da5760016138e8565b6001836138e791906151c3565b5b816040018181525050600081600001511161390457600061390a565b80604001515b816040018181525050809150509392505050565b600060418260f81c60ff161015801561393e5750605a8260f81c60ff1611155b1561395d5760208260f81c6139539190615545565b60f81b9050613961565b8190505b919050565b6040518060400160405280600015158152602001600081525090565b60405180610140016040528060008152602001600073ffffffffffffffffffffffffffffffffffffffff16815260200160608152602001606081526020016060815260200160608152602001600081526020016000815260200160008152602001600081525090565b6040518060a0016040528060008152602001600081526020016000815260200160008152602001600081525090565b6040518060600160405280600073ffffffffffffffffffffffffffffffffffffffff16815260200160608152602001600081525090565b6040518060a001604052806000815260200160008152602001600073ffffffffffffffffffffffffffffffffffffffff16815260200160008152602001600081525090565b6000819050919050565b613aa981613a96565b82525050565b6000602082019050613ac46000830184613aa0565b92915050565b6000604051905090565b600080fd5b600080fd5b613ae781613a96565b8114613af257600080fd5b50565b600081359050613b0481613ade565b92915050565b600080fd5b600080fd5b6000601f19601f8301169050919050565b7f4e487b7100000000000000000000000000000000000000000000000000000000600052604160045260246000fd5b613b5d82613b14565b810181811067ffffffffffffffff82111715613b7c57613b7b613b25565b5b80604052505050565b6000613b8f613aca565b9050613b9b8282613b54565b919050565b600067ffffffffffffffff821115613bbb57613bba613b25565b5b613bc482613b14565b9050602081019050919050565b82818337600083830152505050565b6000613bf3613bee84613ba0565b613b85565b905082815260208101848484011115613c0f57613c0e613b0f565b5b613c1a848285613bd1565b509392505050565b600082601f830112613c3757613c36613b0a565b5b8135613c47848260208601613be0565b91505092915050565b600080600080600080600060e0888a031215613c6f57613c6e613ad4565b5b6000613c7d8a828b01613af5565b975050602088013567ffffffffffffffff811115613c9e57613c9d613ad9565b5b613caa8a828b01613c22565b965050604088013567ffffffffffffffff811115613ccb57613cca613ad9565b5b613cd78a828b01613c22565b955050606088013567ffffffffffffffff811115613cf857613cf7613ad9565b5b613d048a828b01613c22565b945050608088013567ffffffffffffffff811115613d2557613d24613ad9565b5b613d318a828b01613c22565b93505060a0613d428a828b01613af5565b92505060c0613d538a828b01613af5565b91505092959891949750929550565b600060208284031215613d7857613d77613ad4565b5b6000613d8684828501613af5565b91505092915050565b600073ffffffffffffffffffffffffffffffffffffffff82169050919050565b6000613dba82613d8f565b9050919050565b613dca81613daf565b82525050565b600081519050919050565b600082825260208201905092915050565b60005b83811015613e0a578082015181840152602081019050613def565b60008484015250505050565b6000613e2182613dd0565b613e2b8185613ddb565b9350613e3b818560208601613dec565b613e4481613b14565b840191505092915050565b600061014082019050613e65600083018d613aa0565b613e72602083018c613dc1565b8181036040830152613e84818b613e16565b90508181036060830152613e98818a613e16565b90508181036080830152613eac8189613e16565b905081810360a0830152613ec08188613e16565b9050613ecf60c0830187613aa0565b613edc60e0830186613aa0565b613eea610100830185613aa0565b613ef8610120830184613aa0565b9b9a5050505050505050505050565b60008060408385031215613f1e57613f1d613ad4565b5b6000613f2c85828601613af5565b9250506020613f3d85828601613af5565b9150509250929050565b600081519050919050565b600082825260208201905092915050565b6000819050602082019050919050565b613f7c81613a96565b82525050565b613f8b81613daf565b82525050565b600082825260208201905092915050565b6000613fad82613dd0565b613fb78185613f91565b9350613fc7818560208601613dec565b613fd081613b14565b840191505092915050565b600061014083016000830151613ff46000860182613f73565b5060208301516140076020860182613f82565b506040830151848203604086015261401f8282613fa2565b915050606083015184820360608601526140398282613fa2565b915050608083015184820360808601526140538282613fa2565b91505060a083015184820360a086015261406d8282613fa2565b91505060c083015161408260c0860182613f73565b5060e083015161409560e0860182613f73565b506101008301516140aa610100860182613f73565b506101208301516140bf610120860182613f73565b508091505092915050565b60006140d68383613fdb565b905092915050565b6000602082019050919050565b60006140f682613f47565b6141008185613f52565b93508360208202850161411285613f63565b8060005b8581101561414e578484038952815161412f85826140ca565b945061413a836140de565b925060208a01995050600181019050614116565b50829750879550505050505092915050565b60008115159050919050565b61417581614160565b82525050565b604082016000820151614191600085018261416c565b5060208201516141a46020850182613f73565b50505050565b600060608201905081810360008301526141c481856140eb565b90506141d3602083018461417b565b9392505050565b6000806000606084860312156141f3576141f2613ad4565b5b600084013567ffffffffffffffff81111561421157614210613ad9565b5b61421d86828701613c22565b935050602061422e86828701613af5565b925050604061423f86828701613af5565b9150509250925092565b600060a082019050818103600083015261426381886140eb565b90506142726020830187613aa0565b61427f6040830186613aa0565b61428c6060830185613aa0565b6142996080830184613aa0565b9695505050505050565b6142ac81613daf565b81146142b757600080fd5b50565b6000813590506142c9816142a3565b92915050565b6000806000606084860312156142e8576142e7613ad4565b5b60006142f6868287016142ba565b935050602061430786828701613af5565b925050604061431886828701613af5565b9150509250925092565b600081519050919050565b600082825260208201905092915050565b6000819050602082019050919050565b60006060830160008301516143666000860182613f82565b506020830151848203602086015261437e8282613fa2565b91505060408301516143936040860182613f73565b508091505092915050565b60006143aa838361434e565b905092915050565b6000602082019050919050565b60006143ca82614322565b6143d4818561432d565b9350836020820285016143e68561433e565b8060005b858110156144225784840389528151614403858261439e565b945061440e836143b2565b925060208a019950506001810190506143ea565b50829750879550505050505092915050565b60a08201600082015161444a6000850182613f73565b50602082015161445d6020850182613f73565b5060408201516144706040850182613f73565b5060608201516144836060850182613f73565b5060808201516144966080850182613f73565b50505050565b600060c08201905081810360008301526144b681856143bf565b90506144c56020830184614434565b9392505050565b600081519050919050565b600082825260208201905092915050565b6000819050602082019050919050565b60a08201600082015161450e6000850182613f73565b5060208201516145216020850182613f73565b5060408201516145346040850182613f82565b5060608201516145476060850182613f73565b50608082015161455a6080850182613f73565b50505050565b600061456c83836144f8565b60a08301905092915050565b6000602082019050919050565b6000614590826144cc565b61459a81856144d7565b93506145a5836144e8565b8060005b838110156145d65781516145bd8882614560565b97506145c883614578565b9250506001810190506145a9565b5085935050505092915050565b600060408201905081810360008301526145fd8185614585565b905061460c6020830184613aa0565b9392505050565b60006101408301600083015161462c6000860182613f73565b50602083015161463f6020860182613f82565b50604083015184820360408601526146578282613fa2565b915050606083015184820360608601526146718282613fa2565b9150506080830151848203608086015261468b8282613fa2565b91505060a083015184820360a08601526146a58282613fa2565b91505060c08301516146ba60c0860182613f73565b5060e08301516146cd60e0860182613f73565b506101008301516146e2610100860182613f73565b506101208301516146f7610120860182613f73565b508091505092915050565b6000602082019050818103600083015261471c8184614613565b905092915050565b6000606082019050818103600083015261473e81866140eb565b905061474d6020830185613aa0565b61475a6040830184613aa0565b949350505050565b600060a0820190506147776000830188613aa0565b6147846020830187613aa0565b6147916040830186613dc1565b61479e6060830185613aa0565b6147ab6080830184613aa0565b9695505050505050565b60006147c082613d8f565b9050919050565b6147d0816147b5565b82525050565b60006020820190506147eb60008301846147c7565b92915050565b60006020828403121561480757614806613ad4565b5b6000614815848285016142ba565b91505092915050565b60006040820190506148336000830185613aa0565b6148406020830184613aa0565b9392505050565b60008060008060008060c0878903121561486457614863613ad4565b5b600087013567ffffffffffffffff81111561488257614881613ad9565b5b61488e89828a01613c22565b965050602087013567ffffffffffffffff8111156148af576148ae613ad9565b5b6148bb89828a01613c22565b955050604087013567ffffffffffffffff8111156148dc576148db613ad9565b5b6148e889828a01613c22565b945050606087013567ffffffffffffffff81111561490957614908613ad9565b5b61491589828a01613c22565b935050608061492689828a01613af5565b92505060a061493789828a01613af5565b9150509295509295509295565b600060a082019050818103600083015261495e81886143bf565b905061496d6020830187613aa0565b61497a6040830186613aa0565b6149876060830185613aa0565b6149946080830184613aa0565b9695505050505050565b7f446174652073686f756c64206265206675747572652064617465000000000000600082015250565b60006149d4601a83613ddb565b91506149df8261499e565b602082019050919050565b60006020820190508181036000830152614a03816149c7565b9050919050565b7f476f616c20616d6f756e742073686f756c64206265206d6f7265207468616e2060008201527f3000000000000000000000000000000000000000000000000000000000000000602082015250565b6000614a66602183613ddb565b9150614a7182614a0a565b604082019050919050565b60006020820190508181036000830152614a9581614a59565b9050919050565b7f46756c6c206e616d652063616e6e6f7420626520656d70747900000000000000600082015250565b6000614ad2601983613ddb565b9150614add82614a9c565b602082019050919050565b60006020820190508181036000830152614b0181614ac5565b9050919050565b7f5469746c652063616e6e6f7420626520656d7074790000000000000000000000600082015250565b6000614b3e601583613ddb565b9150614b4982614b08565b602082019050919050565b60006020820190508181036000830152614b6d81614b31565b9050919050565b7f53746f72792063616e6e6f7420626520656d7074790000000000000000000000600082015250565b6000614baa601583613ddb565b9150614bb582614b74565b602082019050919050565b60006020820190508181036000830152614bd981614b9d565b9050919050565b7f43616d706169676e20696d6167652075726c2063616e6e6f7420626520656d7060008201527f7479000000000000000000000000000000000000000000000000000000000000602082015250565b6000614c3c602283613ddb565b9150614c4782614be0565b604082019050919050565b60006020820190508181036000830152614c6b81614c2f565b9050919050565b7f496e76616c69642063616d706169676e20494400000000000000000000000000600082015250565b6000614ca8601383613ddb565b9150614cb382614c72565b602082019050919050565b60006020820190508181036000830152614cd781614c9b565b9050919050565b7f596f7520617265206e6f74207468652063616d706169676e2063726561746f7260008201527f2100000000000000000000000000000000000000000000000000000000000000602082015250565b6000614d3a602183613ddb565b9150614d4582614cde565b604082019050919050565b60006020820190508181036000830152614d6981614d2d565b9050919050565b7f4e487b7100000000000000000000000000000000000000000000000000000000600052602260045260246000fd5b60006002820490506001821680614db757607f821691505b602082108103614dca57614dc9614d70565b5b50919050565b60008190508160005260206000209050919050565b60006020601f8301049050919050565b600082821b905092915050565b600060088302614e327fffffffffffffffffffffffffffffffffffffffffffffffffffffffffffffffff82614df5565b614e3c8683614df5565b95508019841693508086168417925050509392505050565b6000819050919050565b6000614e79614e74614e6f84613a96565b614e54565b613a96565b9050919050565b6000819050919050565b614e9383614e5e565b614ea7614e9f82614e80565b848454614e02565b825550505050565b600090565b614ebc614eaf565b614ec7818484614e8a565b505050565b5b81811015614eeb57614ee0600082614eb4565b600181019050614ecd565b5050565b601f821115614f3057614f0181614dd0565b614f0a84614de5565b81016020851015614f19578190505b614f2d614f2585614de5565b830182614ecc565b50505b505050565b600082821c905092915050565b6000614f5360001984600802614f35565b1980831691505092915050565b6000614f6c8383614f42565b9150826002028217905092915050565b614f8582613dd0565b67ffffffffffffffff811115614f9e57614f9d613b25565b5b614fa88254614d9f565b614fb3828285614eef565b600060209050601f831160018114614fe65760008415614fd4578287015190505b614fde8582614f60565b865550615046565b601f198416614ff486614dd0565b60005b8281101561501c57848901518255600182019150602085019450602081019050614ff7565b868310156150395784890151615035601f891682614f42565b8355505b6001600288020188555050505b505050505050565b6000815461505b81614d9f565b6150658186613ddb565b945060018216600081146150805760018114615096576150c9565b60ff1983168652811515602002860193506150c9565b61509f85614dd0565b60005b838110156150c1578154818901526001820191506020810190506150a2565b808801955050505b50505092915050565b600060208201905081810360008301526150ec818461504e565b905092915050565b7f53697a652063616e6e6f74206265203000000000000000000000000000000000600082015250565b600061512a601083613ddb565b9150615135826150f4565b602082019050919050565b600060208201905081810360008301526151598161511d565b9050919050565b7f4e487b7100000000000000000000000000000000000000000000000000000000600052601160045260246000fd5b600061519a82613a96565b91506151a583613a96565b92508282019050808211156151bd576151bc615160565b5b92915050565b60006151ce82613a96565b91506151d983613a96565b92508282039050818111156151f1576151f0615160565b5b92915050565b7f4e487b7100000000000000000000000000000000000000000000000000000000600052603260045260246000fd5b600061523182613a96565b91507fffffffffffffffffffffffffffffffffffffffffffffffffffffffffffffffff820361526357615262615160565b5b600182019050919050565b7f506167652073697a652063616e6e6f7420626520300000000000000000000000600082015250565b60006152a4601583613ddb565b91506152af8261526e565b602082019050919050565b600060208201905081810360008301526152d381615297565b9050919050565b7f43616d706169676e20697320616c7265616479206f7665720000000000000000600082015250565b6000615310601883613ddb565b915061531b826152da565b602082019050919050565b6000602082019050818103600083015261533f81615303565b9050919050565b7f446f6e6174696f6e20616d6f756e742073686f756c64206265206d6f7265207460008201527f68616e2030000000000000000000000000000000000000000000000000000000602082015250565b60006153a2602583613ddb565b91506153ad82615346565b604082019050919050565b600060208201905081810360008301526153d181615395565b9050919050565b600060408201905081810360008301526153f2818561504e565b90506154016020830184613aa0565b9392505050565b600060208201905081810360008301526154228184613e16565b905092915050565b7f50616765206e756d6265722063616e6e6f742062652030000000000000000000600082015250565b6000615460601783613ddb565b915061546b8261542a565b602082019050919050565b6000602082019050818103600083015261548f81615453565b9050919050565b7f4e487b7100000000000000000000000000000000000000000000000000000000600052601260045260246000fd5b60006154d082613a96565b91506154db83613a96565b9250826154eb576154ea615496565b5b828204905092915050565b600061550182613a96565b915061550c83613a96565b925082820261551a81613a96565b9150828204841483151761553157615530615160565b5b5092915050565b600060ff82169050919050565b600061555082615538565b915061555b83615538565b9250828201905060ff81111561557457615573615160565b5b9291505056fea2646970667358221220a848e5750df78c01c66be3bf7eab829a8268b75fb46dd5a2267e4eb99c95065a64736f6c63430008120033",
  "linkReferences": {},
  "deployedLinkReferences": {}
}