{
  "_format": "hh-sol-artifact-1",
  "contractName": "CrowdFunding",
  "sourceName": "contracts/CrowdFunding.sol",
  "abi": [
    {
      "inputs": [],
      "stateMutability": "payable",
      "type": "constructor"
    },
    {
      "anonymous": false,
      "inputs": [
        {
          "indexed": true,
          "internalType": "address",
          "name": "sender",
          "type": "address"
        },
        {
          "indexed": false,
          "internalType": "string",
          "name": "title",
          "type": "string"
        }
      ],
      "name": "CampaignCreated",
      "type": "event"
    },
    {
      "inputs": [
        {
          "internalType": "uint256",
          "name": "",
          "type": "uint256"
        }
      ],
      "name": "campaigns",
      "outputs": [
        {
          "internalType": "uint256",
          "name": "id",
          "type": "uint256"
        },
        {
          "internalType": "address",
          "name": "creator",
          "type": "address"
        },
        {
          "internalType": "string",
          "name": "fullname",
          "type": "string"
        },
        {
          "internalType": "string",
          "name": "title",
          "type": "string"
        },
        {
          "internalType": "string",
          "name": "story",
          "type": "string"
        },
        {
          "internalType": "uint256",
          "name": "goalAmount",
          "type": "uint256"
        },
        {
          "internalType": "uint256",
          "name": "currentAmount",
          "type": "uint256"
        },
        {
          "internalType": "uint256",
          "name": "deadline",
          "type": "uint256"
        }
      ],
      "stateMutability": "view",
      "type": "function"
    },
    {
      "inputs": [
        {
          "internalType": "string",
          "name": "_fullname",
          "type": "string"
        },
        {
          "internalType": "string",
          "name": "_title",
          "type": "string"
        },
        {
          "internalType": "string",
          "name": "_story",
          "type": "string"
        },
        {
          "internalType": "uint256",
          "name": "_goalAmount",
          "type": "uint256"
        },
        {
          "internalType": "uint256",
          "name": "_deadline",
          "type": "uint256"
        }
      ],
      "name": "createCampaign",
      "outputs": [],
      "stateMutability": "nonpayable",
      "type": "function"
    },
    {
      "inputs": [],
      "name": "owner",
      "outputs": [
        {
          "internalType": "address payable",
          "name": "",
          "type": "address"
        }
      ],
      "stateMutability": "view",
      "type": "function"
    },
    {
      "inputs": [],
      "name": "totalCampaigns",
      "outputs": [
        {
          "internalType": "uint256",
          "name": "",
          "type": "uint256"
        }
      ],
      "stateMutability": "view",
      "type": "function"
    },
    {
      "inputs": [
        {
          "internalType": "address",
          "name": "",
          "type": "address"
        }
      ],
      "name": "users",
      "outputs": [
        {
          "internalType": "uint256",
          "name": "totalCampaigns",
          "type": "uint256"
        }
      ],
      "stateMutability": "view",
      "type": "function"
    }
  ],
  "bytecode": "0x6080604052336000806101000a81548173ffffffffffffffffffffffffffffffffffffffff021916908373ffffffffffffffffffffffffffffffffffffffff160217905550600060038190555061127c8061005b6000396000f3fe608060405234801561001057600080fd5b50600436106100575760003560e01c806302932f561461005c578063141961bc1461007a5780638da5cb5b146100b1578063980f2e66146100cf578063a87430ba146100eb575b600080fd5b61006461011b565b6040516100719190610808565b60405180910390f35b610094600480360381019061008f9190610863565b610121565b6040516100a8989796959493929190610961565b60405180910390f35b6100b9610321565b6040516100c69190610a15565b60405180910390f35b6100e960048036038101906100e49190610b65565b610345565b005b61010560048036038101906101009190610c60565b6107d1565b6040516101129190610808565b60405180910390f35b60035481565b60026020528060005260406000206000915090508060000154908060010160009054906101000a900473ffffffffffffffffffffffffffffffffffffffff169080600201805461017090610cbc565b80601f016020809104026020016040519081016040528092919081815260200182805461019c90610cbc565b80156101e95780601f106101be576101008083540402835291602001916101e9565b820191906000526020600020905b8154815290600101906020018083116101cc57829003601f168201915b5050505050908060030180546101fe90610cbc565b80601f016020809104026020016040519081016040528092919081815260200182805461022a90610cbc565b80156102775780601f1061024c57610100808354040283529160200191610277565b820191906000526020600020905b81548152906001019060200180831161025a57829003601f168201915b50505050509080600401805461028c90610cbc565b80601f01602080910402602001604051908101604052809291908181526020018280546102b890610cbc565b80156103055780601f106102da57610100808354040283529160200191610305565b820191906000526020600020905b8154815290600101906020018083116102e857829003601f168201915b5050505050908060050154908060060154908060070154905088565b60008054906101000a900473ffffffffffffffffffffffffffffffffffffffff1681565b428111610387576040517f08c379a000000000000000000000000000000000000000000000000000000000815260040161037e90610d39565b60405180910390fd5b600082116103ca576040517f08c379a00000000000000000000000000000000000000000000000000000000081526004016103c190610dcb565b60405180910390fd5b600085511161040e576040517f08c379a000000000000000000000000000000000000000000000000000000000815260040161040590610e37565b60405180910390fd5b6000845111610452576040517f08c379a000000000000000000000000000000000000000000000000000000000815260040161044990610ea3565b60405180910390fd5b6000835111610496576040517f08c379a000000000000000000000000000000000000000000000000000000000815260040161048d90610f0f565b60405180910390fd5b600060405180610100016040528060035481526020013373ffffffffffffffffffffffffffffffffffffffff16815260200187815260200186815260200185815260200184815260200160008152602001838152509050806002600060035481526020019081526020016000206000820151816000015560208201518160010160006101000a81548173ffffffffffffffffffffffffffffffffffffffff021916908373ffffffffffffffffffffffffffffffffffffffff160217905550604082015181600201908161056991906110db565b50606082015181600301908161057f91906110db565b50608082015181600401908161059591906110db565b5060a0820151816005015560c0820151816006015560e082015181600701559050506000600160003373ffffffffffffffffffffffffffffffffffffffff1673ffffffffffffffffffffffffffffffffffffffff16815260200190815260200160002060000154905081600160003373ffffffffffffffffffffffffffffffffffffffff1673ffffffffffffffffffffffffffffffffffffffff16815260200190815260200160002060010160008381526020019081526020016000206000820151816000015560208201518160010160006101000a81548173ffffffffffffffffffffffffffffffffffffffff021916908373ffffffffffffffffffffffffffffffffffffffff16021790555060408201518160020190816106b891906110db565b5060608201518160030190816106ce91906110db565b5060808201518160040190816106e491906110db565b5060a0820151816005015560c0820151816006015560e08201518160070155905050600160003373ffffffffffffffffffffffffffffffffffffffff1673ffffffffffffffffffffffffffffffffffffffff1681526020019081526020016000206000016000815480929190610759906111dc565b919050555060036000815480929190610771906111dc565b91905055503373ffffffffffffffffffffffffffffffffffffffff167f17dd0b5f0975f4651b002ed3b016428bae979f5704d8b2473931b2312185c05a83606001516040516107c09190611224565b60405180910390a250505050505050565b60016020528060005260406000206000915090508060000154905081565b6000819050919050565b610802816107ef565b82525050565b600060208201905061081d60008301846107f9565b92915050565b6000604051905090565b600080fd5b600080fd5b610840816107ef565b811461084b57600080fd5b50565b60008135905061085d81610837565b92915050565b6000602082840312156108795761087861082d565b5b60006108878482850161084e565b91505092915050565b600073ffffffffffffffffffffffffffffffffffffffff82169050919050565b60006108bb82610890565b9050919050565b6108cb816108b0565b82525050565b600081519050919050565b600082825260208201905092915050565b60005b8381101561090b5780820151818401526020810190506108f0565b60008484015250505050565b6000601f19601f8301169050919050565b6000610933826108d1565b61093d81856108dc565b935061094d8185602086016108ed565b61095681610917565b840191505092915050565b600061010082019050610977600083018b6107f9565b610984602083018a6108c2565b81810360408301526109968189610928565b905081810360608301526109aa8188610928565b905081810360808301526109be8187610928565b90506109cd60a08301866107f9565b6109da60c08301856107f9565b6109e760e08301846107f9565b9998505050505050505050565b60006109ff82610890565b9050919050565b610a0f816109f4565b82525050565b6000602082019050610a2a6000830184610a06565b92915050565b600080fd5b600080fd5b7f4e487b7100000000000000000000000000000000000000000000000000000000600052604160045260246000fd5b610a7282610917565b810181811067ffffffffffffffff82111715610a9157610a90610a3a565b5b80604052505050565b6000610aa4610823565b9050610ab08282610a69565b919050565b600067ffffffffffffffff821115610ad057610acf610a3a565b5b610ad982610917565b9050602081019050919050565b82818337600083830152505050565b6000610b08610b0384610ab5565b610a9a565b905082815260208101848484011115610b2457610b23610a35565b5b610b2f848285610ae6565b509392505050565b600082601f830112610b4c57610b4b610a30565b5b8135610b5c848260208601610af5565b91505092915050565b600080600080600060a08688031215610b8157610b8061082d565b5b600086013567ffffffffffffffff811115610b9f57610b9e610832565b5b610bab88828901610b37565b955050602086013567ffffffffffffffff811115610bcc57610bcb610832565b5b610bd888828901610b37565b945050604086013567ffffffffffffffff811115610bf957610bf8610832565b5b610c0588828901610b37565b9350506060610c168882890161084e565b9250506080610c278882890161084e565b9150509295509295909350565b610c3d816108b0565b8114610c4857600080fd5b50565b600081359050610c5a81610c34565b92915050565b600060208284031215610c7657610c7561082d565b5b6000610c8484828501610c4b565b91505092915050565b7f4e487b7100000000000000000000000000000000000000000000000000000000600052602260045260246000fd5b60006002820490506001821680610cd457607f821691505b602082108103610ce757610ce6610c8d565b5b50919050565b7f446174652073686f756c64206265206675747572652064617465000000000000600082015250565b6000610d23601a836108dc565b9150610d2e82610ced565b602082019050919050565b60006020820190508181036000830152610d5281610d16565b9050919050565b7f476f616c20616d6f756e742073686f756c64206265206d6f7265207468616e2060008201527f3000000000000000000000000000000000000000000000000000000000000000602082015250565b6000610db56021836108dc565b9150610dc082610d59565b604082019050919050565b60006020820190508181036000830152610de481610da8565b9050919050565b7f46756c6c206e616d652063616e6e6f7420626520656d70747900000000000000600082015250565b6000610e216019836108dc565b9150610e2c82610deb565b602082019050919050565b60006020820190508181036000830152610e5081610e14565b9050919050565b7f5469746c652063616e6e6f7420626520656d7074790000000000000000000000600082015250565b6000610e8d6015836108dc565b9150610e9882610e57565b602082019050919050565b60006020820190508181036000830152610ebc81610e80565b9050919050565b7f53746f72792063616e6e6f7420626520656d7074790000000000000000000000600082015250565b6000610ef96015836108dc565b9150610f0482610ec3565b602082019050919050565b60006020820190508181036000830152610f2881610eec565b9050919050565b60008190508160005260206000209050919050565b60006020601f8301049050919050565b600082821b905092915050565b600060088302610f917fffffffffffffffffffffffffffffffffffffffffffffffffffffffffffffffff82610f54565b610f9b8683610f54565b95508019841693508086168417925050509392505050565b6000819050919050565b6000610fd8610fd3610fce846107ef565b610fb3565b6107ef565b9050919050565b6000819050919050565b610ff283610fbd565b611006610ffe82610fdf565b848454610f61565b825550505050565b600090565b61101b61100e565b611026818484610fe9565b505050565b5b8181101561104a5761103f600082611013565b60018101905061102c565b5050565b601f82111561108f5761106081610f2f565b61106984610f44565b81016020851015611078578190505b61108c61108485610f44565b83018261102b565b50505b505050565b600082821c905092915050565b60006110b260001984600802611094565b1980831691505092915050565b60006110cb83836110a1565b9150826002028217905092915050565b6110e4826108d1565b67ffffffffffffffff8111156110fd576110fc610a3a565b5b6111078254610cbc565b61111282828561104e565b600060209050601f8311600181146111455760008415611133578287015190505b61113d85826110bf565b8655506111a5565b601f19841661115386610f2f565b60005b8281101561117b57848901518255600182019150602085019450602081019050611156565b868310156111985784890151611194601f8916826110a1565b8355505b6001600288020188555050505b505050505050565b7f4e487b7100000000000000000000000000000000000000000000000000000000600052601160045260246000fd5b60006111e7826107ef565b91507fffffffffffffffffffffffffffffffffffffffffffffffffffffffffffffffff8203611219576112186111ad565b5b600182019050919050565b6000602082019050818103600083015261123e8184610928565b90509291505056fea264697066735822122022a5b17eac1abec1c74d446451490fd4157e97099255efa4eafd93fdd13db3bd64736f6c63430008120033",
  "linkReferences": {},
  "deployedLinkReferences": {}
}