{
  "_format": "hh-sol-artifact-1",
  "contractName": "CrowdFunding",
  "sourceName": "contracts/CrowdFunding.sol",
  "abi": [
    {
      "inputs": [],
      "stateMutability": "payable",
      "type": "constructor"
    },
    {
      "anonymous": false,
      "inputs": [
        {
          "indexed": true,
          "internalType": "address",
          "name": "sender",
          "type": "address"
        },
        {
          "indexed": false,
          "internalType": "string",
          "name": "title",
          "type": "string"
        }
      ],
      "name": "CampaignCreated",
      "type": "event"
    },
    {
      "anonymous": false,
      "inputs": [
        {
          "indexed": true,
          "internalType": "address",
          "name": "sender",
          "type": "address"
        },
        {
          "indexed": false,
          "internalType": "string",
          "name": "title",
          "type": "string"
        }
      ],
      "name": "CampaignEdited",
      "type": "event"
    },
    {
      "anonymous": false,
      "inputs": [
        {
          "indexed": true,
          "internalType": "address",
          "name": "sender",
          "type": "address"
        },
        {
          "indexed": false,
          "internalType": "string",
          "name": "title",
          "type": "string"
        },
        {
          "indexed": false,
          "internalType": "uint256",
          "name": "amount",
          "type": "uint256"
        }
      ],
      "name": "DonationSent",
      "type": "event"
    },
    {
      "anonymous": false,
      "inputs": [],
      "name": "Refunded",
      "type": "event"
    },
    {
      "inputs": [
        {
          "internalType": "uint256",
          "name": "",
          "type": "uint256"
        }
      ],
      "name": "campaigns",
      "outputs": [
        {
          "internalType": "uint256",
          "name": "id",
          "type": "uint256"
        },
        {
          "internalType": "address",
          "name": "creator",
          "type": "address"
        },
        {
          "internalType": "string",
          "name": "fullname",
          "type": "string"
        },
        {
          "internalType": "string",
          "name": "title",
          "type": "string"
        },
        {
          "internalType": "string",
          "name": "story",
          "type": "string"
        },
        {
          "internalType": "string",
          "name": "imageUrl",
          "type": "string"
        },
        {
          "internalType": "uint256",
          "name": "goalAmount",
          "type": "uint256"
        },
        {
          "internalType": "uint256",
          "name": "currentAmount",
          "type": "uint256"
        },
        {
          "internalType": "uint256",
          "name": "deadline",
          "type": "uint256"
        },
        {
          "internalType": "uint256",
          "name": "totalDonations",
          "type": "uint256"
        },
        {
          "internalType": "bool",
          "name": "fundsCredited",
          "type": "bool"
        }
      ],
      "stateMutability": "view",
      "type": "function"
    },
    {
      "inputs": [
        {
          "internalType": "uint256",
          "name": "_campaignId",
          "type": "uint256"
        }
      ],
      "name": "checkGoalAndSendFunds",
      "outputs": [],
      "stateMutability": "nonpayable",
      "type": "function"
    },
    {
      "inputs": [
        {
          "internalType": "string",
          "name": "_fullname",
          "type": "string"
        },
        {
          "internalType": "string",
          "name": "_title",
          "type": "string"
        },
        {
          "internalType": "string",
          "name": "_story",
          "type": "string"
        },
        {
          "internalType": "string",
          "name": "_imageUrl",
          "type": "string"
        },
        {
          "internalType": "uint256",
          "name": "_goalAmount",
          "type": "uint256"
        },
        {
          "internalType": "uint256",
          "name": "_deadline",
          "type": "uint256"
        }
      ],
      "name": "createCampaign",
      "outputs": [],
      "stateMutability": "nonpayable",
      "type": "function"
    },
    {
      "inputs": [
        {
          "internalType": "uint256",
          "name": "",
          "type": "uint256"
        }
      ],
      "name": "donationTransactions",
      "outputs": [
        {
          "internalType": "uint256",
          "name": "id",
          "type": "uint256"
        },
        {
          "internalType": "uint256",
          "name": "campaignId",
          "type": "uint256"
        },
        {
          "internalType": "address",
          "name": "donor",
          "type": "address"
        },
        {
          "internalType": "uint256",
          "name": "amount",
          "type": "uint256"
        },
        {
          "internalType": "uint256",
          "name": "timestamp",
          "type": "uint256"
        }
      ],
      "stateMutability": "view",
      "type": "function"
    },
    {
      "inputs": [
        {
          "internalType": "uint256",
          "name": "_campaignId",
          "type": "uint256"
        },
        {
          "internalType": "string",
          "name": "_fullname",
          "type": "string"
        },
        {
          "internalType": "string",
          "name": "_title",
          "type": "string"
        },
        {
          "internalType": "string",
          "name": "_story",
          "type": "string"
        },
        {
          "internalType": "string",
          "name": "_imageUrl",
          "type": "string"
        },
        {
          "internalType": "uint256",
          "name": "_goalAmount",
          "type": "uint256"
        },
        {
          "internalType": "uint256",
          "name": "_deadline",
          "type": "uint256"
        }
      ],
      "name": "editCampaign",
      "outputs": [],
      "stateMutability": "nonpayable",
      "type": "function"
    },
    {
      "inputs": [
        {
          "internalType": "uint256",
          "name": "_size",
          "type": "uint256"
        },
        {
          "internalType": "uint256",
          "name": "_startIndex",
          "type": "uint256"
        }
      ],
      "name": "getAllCampaigns",
      "outputs": [
        {
          "components": [
            {
              "internalType": "uint256",
              "name": "id",
              "type": "uint256"
            },
            {
              "internalType": "address",
              "name": "creator",
              "type": "address"
            },
            {
              "internalType": "string",
              "name": "fullname",
              "type": "string"
            },
            {
              "internalType": "string",
              "name": "title",
              "type": "string"
            },
            {
              "internalType": "string",
              "name": "story",
              "type": "string"
            },
            {
              "internalType": "string",
              "name": "imageUrl",
              "type": "string"
            },
            {
              "internalType": "uint256",
              "name": "goalAmount",
              "type": "uint256"
            },
            {
              "internalType": "uint256",
              "name": "currentAmount",
              "type": "uint256"
            },
            {
              "internalType": "uint256",
              "name": "deadline",
              "type": "uint256"
            },
            {
              "internalType": "uint256",
              "name": "totalDonations",
              "type": "uint256"
            },
            {
              "internalType": "address[]",
              "name": "fundsReturned",
              "type": "address[]"
            },
            {
              "internalType": "bool",
              "name": "fundsCredited",
              "type": "bool"
            }
          ],
          "internalType": "struct CrowdFunding.Campaign[]",
          "name": "allCampaigns",
          "type": "tuple[]"
        },
        {
          "components": [
            {
              "internalType": "bool",
              "name": "isLastPage",
              "type": "bool"
            },
            {
              "internalType": "uint256",
              "name": "nextIndex",
              "type": "uint256"
            }
          ],
          "internalType": "struct CrowdFunding.ResultIndexData",
          "name": "indexData",
          "type": "tuple"
        }
      ],
      "stateMutability": "view",
      "type": "function"
    },
    {
      "inputs": [
        {
          "internalType": "uint256",
          "name": "_campaignId",
          "type": "uint256"
        }
      ],
      "name": "getCampaign",
      "outputs": [
        {
          "components": [
            {
              "internalType": "uint256",
              "name": "id",
              "type": "uint256"
            },
            {
              "internalType": "address",
              "name": "creator",
              "type": "address"
            },
            {
              "internalType": "string",
              "name": "fullname",
              "type": "string"
            },
            {
              "internalType": "string",
              "name": "title",
              "type": "string"
            },
            {
              "internalType": "string",
              "name": "story",
              "type": "string"
            },
            {
              "internalType": "string",
              "name": "imageUrl",
              "type": "string"
            },
            {
              "internalType": "uint256",
              "name": "goalAmount",
              "type": "uint256"
            },
            {
              "internalType": "uint256",
              "name": "currentAmount",
              "type": "uint256"
            },
            {
              "internalType": "uint256",
              "name": "deadline",
              "type": "uint256"
            },
            {
              "internalType": "uint256",
              "name": "totalDonations",
              "type": "uint256"
            },
            {
              "internalType": "address[]",
              "name": "fundsReturned",
              "type": "address[]"
            },
            {
              "internalType": "bool",
              "name": "fundsCredited",
              "type": "bool"
            }
          ],
          "internalType": "struct CrowdFunding.Campaign",
          "name": "",
          "type": "tuple"
        }
      ],
      "stateMutability": "view",
      "type": "function"
    },
    {
      "inputs": [
        {
          "internalType": "uint256",
          "name": "_campaignId",
          "type": "uint256"
        }
      ],
      "name": "getCampaignDonations",
      "outputs": [
        {
          "components": [
            {
              "internalType": "uint256",
              "name": "id",
              "type": "uint256"
            },
            {
              "internalType": "uint256",
              "name": "campaignId",
              "type": "uint256"
            },
            {
              "internalType": "address",
              "name": "donor",
              "type": "address"
            },
            {
              "internalType": "uint256",
              "name": "amount",
              "type": "uint256"
            },
            {
              "internalType": "uint256",
              "name": "timestamp",
              "type": "uint256"
            }
          ],
          "internalType": "struct CrowdFunding.DonationTransaction[]",
          "name": "allDonations",
          "type": "tuple[]"
        },
        {
          "internalType": "uint256",
          "name": "totalCampaignDonations",
          "type": "uint256"
        }
      ],
      "stateMutability": "view",
      "type": "function"
    },
    {
      "inputs": [
        {
          "internalType": "address",
          "name": "_walletAddress",
          "type": "address"
        },
        {
          "internalType": "uint256",
          "name": "_pageSize",
          "type": "uint256"
        },
        {
          "internalType": "uint256",
          "name": "_pageNumber",
          "type": "uint256"
        }
      ],
      "name": "getDonatorsByWalletAddress",
      "outputs": [
        {
          "components": [
            {
              "internalType": "uint256",
              "name": "id",
              "type": "uint256"
            },
            {
              "internalType": "address",
              "name": "userAddress",
              "type": "address"
            },
            {
              "internalType": "string",
              "name": "campaignTitle",
              "type": "string"
            },
            {
              "internalType": "uint256",
              "name": "donationAmount",
              "type": "uint256"
            },
            {
              "internalType": "string",
              "name": "status",
              "type": "string"
            },
            {
              "internalType": "bool",
              "name": "fundsReturned",
              "type": "bool"
            }
          ],
          "internalType": "struct CrowdFunding.DonationData[]",
          "name": "donations",
          "type": "tuple[]"
        },
        {
          "internalType": "uint256",
          "name": "donatorCount",
          "type": "uint256"
        },
        {
          "internalType": "uint256",
          "name": "totalPages",
          "type": "uint256"
        },
        {
          "internalType": "uint256",
          "name": "nextPage",
          "type": "uint256"
        },
        {
          "internalType": "uint256",
          "name": "previousPage",
          "type": "uint256"
        }
      ],
      "stateMutability": "view",
      "type": "function"
    },
    {
      "inputs": [
        {
          "internalType": "uint256",
          "name": "_size",
          "type": "uint256"
        }
      ],
      "name": "getRecentCampaigns",
      "outputs": [
        {
          "components": [
            {
              "internalType": "uint256",
              "name": "id",
              "type": "uint256"
            },
            {
              "internalType": "address",
              "name": "creator",
              "type": "address"
            },
            {
              "internalType": "string",
              "name": "fullname",
              "type": "string"
            },
            {
              "internalType": "string",
              "name": "title",
              "type": "string"
            },
            {
              "internalType": "string",
              "name": "story",
              "type": "string"
            },
            {
              "internalType": "string",
              "name": "imageUrl",
              "type": "string"
            },
            {
              "internalType": "uint256",
              "name": "goalAmount",
              "type": "uint256"
            },
            {
              "internalType": "uint256",
              "name": "currentAmount",
              "type": "uint256"
            },
            {
              "internalType": "uint256",
              "name": "deadline",
              "type": "uint256"
            },
            {
              "internalType": "uint256",
              "name": "totalDonations",
              "type": "uint256"
            },
            {
              "internalType": "address[]",
              "name": "fundsReturned",
              "type": "address[]"
            },
            {
              "internalType": "bool",
              "name": "fundsCredited",
              "type": "bool"
            }
          ],
          "internalType": "struct CrowdFunding.Campaign[]",
          "name": "recentCampaigns",
          "type": "tuple[]"
        },
        {
          "internalType": "uint256",
          "name": "totalFetchedCampaigns",
          "type": "uint256"
        },
        {
          "internalType": "uint256",
          "name": "totalAllCampaigns",
          "type": "uint256"
        }
      ],
      "stateMutability": "view",
      "type": "function"
    },
    {
      "inputs": [
        {
          "internalType": "uint256",
          "name": "_pageSize",
          "type": "uint256"
        },
        {
          "internalType": "uint256",
          "name": "_pageNumber",
          "type": "uint256"
        }
      ],
      "name": "getUserCampaigns",
      "outputs": [
        {
          "components": [
            {
              "internalType": "uint256",
              "name": "id",
              "type": "uint256"
            },
            {
              "internalType": "address",
              "name": "creator",
              "type": "address"
            },
            {
              "internalType": "string",
              "name": "fullname",
              "type": "string"
            },
            {
              "internalType": "string",
              "name": "title",
              "type": "string"
            },
            {
              "internalType": "string",
              "name": "story",
              "type": "string"
            },
            {
              "internalType": "string",
              "name": "imageUrl",
              "type": "string"
            },
            {
              "internalType": "uint256",
              "name": "goalAmount",
              "type": "uint256"
            },
            {
              "internalType": "uint256",
              "name": "currentAmount",
              "type": "uint256"
            },
            {
              "internalType": "uint256",
              "name": "deadline",
              "type": "uint256"
            },
            {
              "internalType": "uint256",
              "name": "totalDonations",
              "type": "uint256"
            },
            {
              "internalType": "address[]",
              "name": "fundsReturned",
              "type": "address[]"
            },
            {
              "internalType": "bool",
              "name": "fundsCredited",
              "type": "bool"
            }
          ],
          "internalType": "struct CrowdFunding.Campaign[]",
          "name": "allCampaigns",
          "type": "tuple[]"
        },
        {
          "internalType": "uint256",
          "name": "userTotalCampaigns",
          "type": "uint256"
        },
        {
          "internalType": "uint256",
          "name": "totalPages",
          "type": "uint256"
        },
        {
          "internalType": "uint256",
          "name": "nextPage",
          "type": "uint256"
        },
        {
          "internalType": "uint256",
          "name": "previousPage",
          "type": "uint256"
        }
      ],
      "stateMutability": "view",
      "type": "function"
    },
    {
      "inputs": [
        {
          "internalType": "address",
          "name": "_userAddress",
          "type": "address"
        },
        {
          "internalType": "uint256",
          "name": "_pageSize",
          "type": "uint256"
        },
        {
          "internalType": "uint256",
          "name": "_pageNumber",
          "type": "uint256"
        }
      ],
      "name": "getUserDonations",
      "outputs": [
        {
          "components": [
            {
              "internalType": "uint256",
              "name": "id",
              "type": "uint256"
            },
            {
              "internalType": "address",
              "name": "userAddress",
              "type": "address"
            },
            {
              "internalType": "string",
              "name": "campaignTitle",
              "type": "string"
            },
            {
              "internalType": "uint256",
              "name": "donationAmount",
              "type": "uint256"
            },
            {
              "internalType": "string",
              "name": "status",
              "type": "string"
            },
            {
              "internalType": "bool",
              "name": "fundsReturned",
              "type": "bool"
            }
          ],
          "internalType": "struct CrowdFunding.DonationData[]",
          "name": "userDonations",
          "type": "tuple[]"
        },
        {
          "components": [
            {
              "internalType": "uint256",
              "name": "totalPages",
              "type": "uint256"
            },
            {
              "internalType": "uint256",
              "name": "nextPage",
              "type": "uint256"
            },
            {
              "internalType": "uint256",
              "name": "previousPage",
              "type": "uint256"
            },
            {
              "internalType": "uint256",
              "name": "startIndex",
              "type": "uint256"
            },
            {
              "internalType": "uint256",
              "name": "endIndex",
              "type": "uint256"
            }
          ],
          "internalType": "struct CrowdFunding.PaginationData",
          "name": "pagination",
          "type": "tuple"
        }
      ],
      "stateMutability": "view",
      "type": "function"
    },
    {
      "inputs": [],
      "name": "owner",
      "outputs": [
        {
          "internalType": "address payable",
          "name": "",
          "type": "address"
        }
      ],
      "stateMutability": "view",
      "type": "function"
    },
    {
      "inputs": [
        {
          "internalType": "uint256",
          "name": "_campaignId",
          "type": "uint256"
        },
        {
          "internalType": "address",
          "name": "_addressToRefund",
          "type": "address"
        }
      ],
      "name": "returnDonationsIfExpired",
      "outputs": [],
      "stateMutability": "nonpayable",
      "type": "function"
    },
    {
      "inputs": [
        {
          "internalType": "string",
          "name": "searchTerm",
          "type": "string"
        },
        {
          "internalType": "uint256",
          "name": "pageSize",
          "type": "uint256"
        },
        {
          "internalType": "uint256",
          "name": "startIndex",
          "type": "uint256"
        }
      ],
      "name": "searchByTitle",
      "outputs": [
        {
          "components": [
            {
              "internalType": "uint256",
              "name": "id",
              "type": "uint256"
            },
            {
              "internalType": "address",
              "name": "creator",
              "type": "address"
            },
            {
              "internalType": "string",
              "name": "fullname",
              "type": "string"
            },
            {
              "internalType": "string",
              "name": "title",
              "type": "string"
            },
            {
              "internalType": "string",
              "name": "story",
              "type": "string"
            },
            {
              "internalType": "string",
              "name": "imageUrl",
              "type": "string"
            },
            {
              "internalType": "uint256",
              "name": "goalAmount",
              "type": "uint256"
            },
            {
              "internalType": "uint256",
              "name": "currentAmount",
              "type": "uint256"
            },
            {
              "internalType": "uint256",
              "name": "deadline",
              "type": "uint256"
            },
            {
              "internalType": "uint256",
              "name": "totalDonations",
              "type": "uint256"
            },
            {
              "internalType": "address[]",
              "name": "fundsReturned",
              "type": "address[]"
            },
            {
              "internalType": "bool",
              "name": "fundsCredited",
              "type": "bool"
            }
          ],
          "internalType": "struct CrowdFunding.Campaign[]",
          "name": "matchingCampaigns",
          "type": "tuple[]"
        },
        {
          "components": [
            {
              "internalType": "bool",
              "name": "isLastPage",
              "type": "bool"
            },
            {
              "internalType": "uint256",
              "name": "nextIndex",
              "type": "uint256"
            }
          ],
          "internalType": "struct CrowdFunding.ResultIndexData",
          "name": "searchIndexData",
          "type": "tuple"
        }
      ],
      "stateMutability": "view",
      "type": "function"
    },
    {
      "inputs": [
        {
          "internalType": "uint256",
          "name": "_campaignId",
          "type": "uint256"
        }
      ],
      "name": "sendDonation",
      "outputs": [],
      "stateMutability": "payable",
      "type": "function"
    },
    {
      "inputs": [],
      "name": "totalCampaigns",
      "outputs": [
        {
          "internalType": "uint256",
          "name": "",
          "type": "uint256"
        }
      ],
      "stateMutability": "view",
      "type": "function"
    },
    {
      "inputs": [],
      "name": "totalDonations",
      "outputs": [
        {
          "internalType": "uint256",
          "name": "",
          "type": "uint256"
        }
      ],
      "stateMutability": "view",
      "type": "function"
    },
    {
      "inputs": [
        {
          "internalType": "address",
          "name": "",
          "type": "address"
        }
      ],
      "name": "users",
      "outputs": [
        {
          "internalType": "uint256",
          "name": "totalCampaigns",
          "type": "uint256"
        },
        {
          "internalType": "uint256",
          "name": "totalDonations",
          "type": "uint256"
        }
      ],
      "stateMutability": "view",
      "type": "function"
    }
  ],
  "bytecode": "0x6080604052600080546001600160a01b031916331781556004556146df806100286000396000f3fe6080604052600436106101145760003560e01c806355fedbfe116100a05780639da6ef74116100645780639da6ef74146103c8578063a87430ba146103e8578063a8aee94014610431578063b0445d6014610451578063de2ed8931461048257600080fd5b806355fedbfe146102a3578063665588c9146102c357806371b7baae146102d65780638acd0bfc146103055780638da5cb5b1461039057600080fd5b80632e5293f3116100e75780632e5293f3146101c95780633e3b6675146101e957806345d0b60a1461021a5780635167642f146102485780635598f8cc1461027657600080fd5b806302932f56146101195780631225ce2514610142578063141961bc14610164578063253343e71461019b575b600080fd5b34801561012557600080fd5b5061012f60045481565b6040519081526020015b60405180910390f35b34801561014e57600080fd5b5061016261015d366004613bf5565b610498565b005b34801561017057600080fd5b5061018461017f366004613cbe565b6106f1565b6040516101399b9a99989796959493929190613d1d565b3480156101a757600080fd5b506101bb6101b6366004613db8565b610973565b604051610139929190613f65565b3480156101d557600080fd5b506101bb6101e4366004613f94565b610f54565b3480156101f557600080fd5b50610209610204366004613db8565b61150e565b604051610139959493929190613fe1565b34801561022657600080fd5b5061023a610235366004614034565b611a3e565b60405161013992919061410f565b34801561025457600080fd5b50610268610263366004613cbe565b611f96565b60405161013992919061415a565b34801561028257600080fd5b50610296610291366004613cbe565b61240a565b60405161013991906141d8565b3480156102af57600080fd5b506101626102be3660046141f2565b612732565b6101626102d1366004613cbe565b612854565b3480156102e257600080fd5b506102f66102f1366004613cbe565b612aaa565b6040516101399392919061421e565b34801561031157600080fd5b5061035a610320366004613cbe565b600360208190526000918252604090912080546001820154600283015493830154600490930154919390926001600160a01b039091169185565b6040805195865260208601949094526001600160a01b03909216928401929092526060830191909152608082015260a001610139565b34801561039c57600080fd5b506000546103b0906001600160a01b031681565b6040516001600160a01b039091168152602001610139565b3480156103d457600080fd5b506101626103e3366004613cbe565b612fa3565b3480156103f457600080fd5b5061041c610403366004614243565b6001602081905260009182526040909120805491015482565b60408051928352602083019190915201610139565b34801561043d57600080fd5b5061016261044c36600461425e565b613026565b34801561045d57600080fd5b5061047161046c366004614034565b613372565b60405161013995949392919061431c565b34801561048e57600080fd5b5061012f60055481565b8585858585600081116104c65760405162461bcd60e51b81526004016104bd9061432f565b60405180910390fd5b60008551116105135760405162461bcd60e51b815260206004820152601960248201527846756c6c206e616d652063616e6e6f7420626520656d70747960381b60448201526064016104bd565b600084511161055c5760405162461bcd60e51b81526020600482015260156024820152745469746c652063616e6e6f7420626520656d70747960581b60448201526064016104bd565b60008351116105a55760405162461bcd60e51b815260206004820152601560248201527453746f72792063616e6e6f7420626520656d70747960581b60448201526064016104bd565b60008251116105c65760405162461bcd60e51b81526004016104bd90614370565b60008c81526002602052604090206004548d106105f55760405162461bcd60e51b81526004016104bd906143b2565b60018101546001600160a01b0316331461065b5760405162461bcd60e51b815260206004820152602160248201527f596f7520617265206e6f74207468652063616d706169676e2063726561746f726044820152602160f81b60648201526084016104bd565b600281016106698d82614468565b50600381016106788c82614468565b50600481016106878b82614468565b50600581016106968a82614468565b50600681018890556008810187905560405133907fb961c338b427968a67f1a3560907d7075a0d1fca0c2d16dcb76da3a963cfe373906106da9060038501906145a4565b60405180910390a250505050505050505050505050565b600260208190526000918252604090912080546001820154928201805491936001600160a01b03169291610724906143df565b80601f0160208091040260200160405190810160405280929190818152602001828054610750906143df565b801561079d5780601f106107725761010080835404028352916020019161079d565b820191906000526020600020905b81548152906001019060200180831161078057829003601f168201915b5050505050908060030180546107b2906143df565b80601f01602080910402602001604051908101604052809291908181526020018280546107de906143df565b801561082b5780601f106108005761010080835404028352916020019161082b565b820191906000526020600020905b81548152906001019060200180831161080e57829003601f168201915b505050505090806004018054610840906143df565b80601f016020809104026020016040519081016040528092919081815260200182805461086c906143df565b80156108b95780601f1061088e576101008083540402835291602001916108b9565b820191906000526020600020905b81548152906001019060200180831161089c57829003601f168201915b5050505050908060050180546108ce906143df565b80601f01602080910402602001604051908101604052809291908181526020018280546108fa906143df565b80156109475780601f1061091c57610100808354040283529160200191610947565b820191906000526020600020905b81548152906001019060200180831161092a57829003601f168201915b5050506006840154600785015460088601546009870154600b9097015495969295919450925060ff168b565b6040805180820190915260008082526020820152606090600084116109cd5760405162461bcd60e51b815260206004820152601060248201526f053697a652063616e6e6f7420626520360841b60448201526064016104bd565b600454831115610a155760405162461bcd60e51b8152602060048201526013602482015272092dcecc2d8d2c840e6e8c2e4e840d2dcc8caf606b1b60448201526064016104bd565b8215610a315782841015610a2a576000610a45565b6001610a45565b600454841015610a42576000610a45565b60015b151581528215610a635782841015610a5d5783610a76565b82610a76565b6004548411610a725783610a76565b6004545b93508215610a8d57610a8884846145cd565b610a9b565b83600454610a9b91906145cd565b60208201526000846001600160401b03811115610aba57610aba613b53565b604051908082528060200260200182016040528015610af357816020015b610ae0613a06565b815260200190600190039081610ad85790505b506020830151909150600090805b610b0b88836145e0565b811015610e9f57600081815260026020526040902060088101544211801590610b3b575080600601548160070154105b8015610b4c5750600b81015460ff16155b15610e8c5760408051610180810182528254815260018301546001600160a01b03166020820152600283018054919284929084019190610b8b906143df565b80601f0160208091040260200160405190810160405280929190818152602001828054610bb7906143df565b8015610c045780601f10610bd957610100808354040283529160200191610c04565b820191906000526020600020905b815481529060010190602001808311610be757829003601f168201915b50505050508152602001600382018054610c1d906143df565b80601f0160208091040260200160405190810160405280929190818152602001828054610c49906143df565b8015610c965780601f10610c6b57610100808354040283529160200191610c96565b820191906000526020600020905b815481529060010190602001808311610c7957829003601f168201915b50505050508152602001600482018054610caf906143df565b80601f0160208091040260200160405190810160405280929190818152602001828054610cdb906143df565b8015610d285780601f10610cfd57610100808354040283529160200191610d28565b820191906000526020600020905b815481529060010190602001808311610d0b57829003601f168201915b50505050508152602001600582018054610d41906143df565b80601f0160208091040260200160405190810160405280929190818152602001828054610d6d906143df565b8015610dba5780601f10610d8f57610100808354040283529160200191610dba565b820191906000526020600020905b815481529060010190602001808311610d9d57829003601f168201915b5050505050815260200160068201548152602001600782015481526020016008820154815260200160098201548152602001600a8201805480602002602001604051908101604052809291908181526020018280548015610e4457602002820191906000526020600020905b81546001600160a01b03168152600190910190602001808311610e26575b5050509183525050600b919091015460ff1615156020909101528551869086908110610e7257610e726145f3565b60200260200101819052508380610e8890614609565b9450505b5080610e9781614609565b915050610b01565b50816001600160401b03811115610eb857610eb8613b53565b604051908082528060200260200182016040528015610ef157816020015b610ede613a06565b815260200190600190039081610ed65790505b50945060005b82811015610f4957838181518110610f1157610f116145f3565b6020026020010151868281518110610f2b57610f2b6145f3565b60200260200101819052508080610f4190614609565b915050610ef7565b505050509250929050565b604080518082019091526000808252602082015260609060008411610fb35760405162461bcd60e51b81526020600482015260156024820152740506167652073697a652063616e6e6f74206265203605c1b60448201526064016104bd565b6000600454600003610fcb5760018252600060208301525b600454600003610fe15760018252600060208301525b835b60045481108015610ff357508582105b1561110957600081815260026020526040902060030180546110ad9161109f9161101c906143df565b80601f0160208091040260200160405190810160405280929190818152602001828054611048906143df565b80156110955780601f1061106a57610100808354040283529160200191611095565b820191906000526020600020905b81548152906001019060200180831161107857829003601f168201915b505050505061363f565b6110a88961363f565b613706565b156110c057816110bc81614609565b9250505b8582036110d8576110d28160016145e0565b60208401525b6004546110e68260016145e0565b036110f75760018352600060208401525b8061110181614609565b915050610fe3565b50806001600160401b0381111561112257611122613b53565b60405190808252806020026020018201604052801561115b57816020015b611148613a06565b8152602001906001900390816111405790505b5092506000845b6004548110801561117257508282105b1561150357600081815260026020526040902060030180546111a49161119b9161101c906143df565b6110a88a61363f565b156114f1576000818152600260208181526040928390208351610180810185528154815260018201546001600160a01b031692810192909252918201805491938401916111f0906143df565b80601f016020809104026020016040519081016040528092919081815260200182805461121c906143df565b80156112695780601f1061123e57610100808354040283529160200191611269565b820191906000526020600020905b81548152906001019060200180831161124c57829003601f168201915b50505050508152602001600382018054611282906143df565b80601f01602080910402602001604051908101604052809291908181526020018280546112ae906143df565b80156112fb5780601f106112d0576101008083540402835291602001916112fb565b820191906000526020600020905b8154815290600101906020018083116112de57829003601f168201915b50505050508152602001600482018054611314906143df565b80601f0160208091040260200160405190810160405280929190818152602001828054611340906143df565b801561138d5780601f106113625761010080835404028352916020019161138d565b820191906000526020600020905b81548152906001019060200180831161137057829003601f168201915b505050505081526020016005820180546113a6906143df565b80601f01602080910402602001604051908101604052809291908181526020018280546113d2906143df565b801561141f5780601f106113f45761010080835404028352916020019161141f565b820191906000526020600020905b81548152906001019060200180831161140257829003601f168201915b5050505050815260200160068201548152602001600782015481526020016008820154815260200160098201548152602001600a82018054806020026020016040519081016040528092919081815260200182805480156114a957602002820191906000526020600020905b81546001600160a01b0316815260019091019060200180831161148b575b5050509183525050600b919091015460ff16151560209091015285518690849081106114d7576114d76145f3565b602002602001018190525081806114ed90614609565b9250505b806114fb81614609565b915050611162565b505050935093915050565b336000908152600160208190526040822080546060939283928392839283908a9061153982856145e0565b61154391906145cd565b61154d9190614622565b905081156115a7576000891180156115655750808911155b6115a75760405162461bcd60e51b815260206004820152601360248201527224b73b30b634b2103830b3b290373ab6b132b960691b60448201526064016104bd565b60008a6115b560018c6145cd565b6115bf9190614644565b6115c990846145cd565b905060008b82116115db5760006115e5565b6115e58c836145cd565b905060006115f382846145cd565b9050806001600160401b0381111561160d5761160d613b53565b60405190808252806020026020018201604052801561164657816020015b611633613a06565b81526020019060019003908161162b5790505b509a5060005b818110156119f0576000600281898201816001611669878b6145cd565b61167391906145cd565b815260200190815260200160002054815260200190815260200160002060405180610180016040529081600082015481526020016001820160009054906101000a90046001600160a01b03166001600160a01b03166001600160a01b031681526020016002820180546116e5906143df565b80601f0160208091040260200160405190810160405280929190818152602001828054611711906143df565b801561175e5780601f106117335761010080835404028352916020019161175e565b820191906000526020600020905b81548152906001019060200180831161174157829003601f168201915b50505050508152602001600382018054611777906143df565b80601f01602080910402602001604051908101604052809291908181526020018280546117a3906143df565b80156117f05780601f106117c5576101008083540402835291602001916117f0565b820191906000526020600020905b8154815290600101906020018083116117d357829003601f168201915b50505050508152602001600482018054611809906143df565b80601f0160208091040260200160405190810160405280929190818152602001828054611835906143df565b80156118825780601f1061185757610100808354040283529160200191611882565b820191906000526020600020905b81548152906001019060200180831161186557829003601f168201915b5050505050815260200160058201805461189b906143df565b80601f01602080910402602001604051908101604052809291908181526020018280546118c7906143df565b80156119145780601f106118e957610100808354040283529160200191611914565b820191906000526020600020905b8154815290600101906020018083116118f757829003601f168201915b5050505050815260200160068201548152602001600782015481526020016008820154815260200160098201548152602001600a820180548060200260200160405190810160405280929190818152602001828054801561199e57602002820191906000526020600020905b81546001600160a01b03168152600190910190602001808311611980575b5050509183525050600b919091015460ff1615156020909101528d5190915081908e90849081106119d1576119d16145f3565b60200260200101819052505080806119e890614609565b91505061164c565b50849950839850838c10611a05576000611a10565b611a108c60016145e0565b975060018c11611a21576000611a2c565b611a2c60018d6145cd565b96505050505050509295509295909350565b6060611a48613a72565b6001600160a01b0385166000908152600160208190526040822090810154611a719087876137e7565b925082606001518360800151611a8791906145cd565b6001600160401b03811115611a9e57611a9e613b53565b604051908082528060200260200182016040528015611ad757816020015b611ac4613aa1565b815260200190600190039081611abc5790505b5060608401519094505b8360800151811015611503576000818152600383810160209081526040808420548452828252808420815160a081018352815481526001808301548286018190526002808501546001600160a01b039081168588015297850154606085015260049094015460808401528752828552838720845161018081018652815481529181015490961694810194909452908401805491959492840191611b83906143df565b80601f0160208091040260200160405190810160405280929190818152602001828054611baf906143df565b8015611bfc5780601f10611bd157610100808354040283529160200191611bfc565b820191906000526020600020905b815481529060010190602001808311611bdf57829003601f168201915b50505050508152602001600382018054611c15906143df565b80601f0160208091040260200160405190810160405280929190818152602001828054611c41906143df565b8015611c8e5780601f10611c6357610100808354040283529160200191611c8e565b820191906000526020600020905b815481529060010190602001808311611c7157829003601f168201915b50505050508152602001600482018054611ca7906143df565b80601f0160208091040260200160405190810160405280929190818152602001828054611cd3906143df565b8015611d205780601f10611cf557610100808354040283529160200191611d20565b820191906000526020600020905b815481529060010190602001808311611d0357829003601f168201915b50505050508152602001600582018054611d39906143df565b80601f0160208091040260200160405190810160405280929190818152602001828054611d65906143df565b8015611db25780601f10611d8757610100808354040283529160200191611db2565b820191906000526020600020905b815481529060010190602001808311611d9557829003601f168201915b5050505050815260200160068201548152602001600782015481526020016008820154815260200160098201548152602001600a8201805480602002602001604051908101604052809291908181526020018280548015611e3c57602002820191906000526020600020905b81546001600160a01b03168152600190910190602001808311611e1e575b5050509183525050600b919091015460ff161515602090910152610140810151909150600090611e6c908c613964565b905060008260c001518360e001511015905060008361010001514210158015611e925750825b60408051808201909152600781526670656e64696e6760c81b60208201529091508215611ede57506040805180820190915260088152671858da1a595d995960c21b6020820152611f04565b8115611f045750604080518082019091526007815266195e1c1a5c995960ca1b60208201525b60006040518060c001604052808760000151815260200187602001516001600160a01b0316815260200187606001518152602001886060015181526020018381526020018615158152509050808c8b81518110611f6357611f636145f3565b60200260200101819052508980611f7990614609565b9a5050505050505050508080611f8e90614609565b915050611ae1565b60008181526002602081815260408084208151610180810183528154815260018201546001600160a01b031693810193909352928301805460609594859493909290840191611fe4906143df565b80601f0160208091040260200160405190810160405280929190818152602001828054612010906143df565b801561205d5780601f106120325761010080835404028352916020019161205d565b820191906000526020600020905b81548152906001019060200180831161204057829003601f168201915b50505050508152602001600382018054612076906143df565b80601f01602080910402602001604051908101604052809291908181526020018280546120a2906143df565b80156120ef5780601f106120c4576101008083540402835291602001916120ef565b820191906000526020600020905b8154815290600101906020018083116120d257829003601f168201915b50505050508152602001600482018054612108906143df565b80601f0160208091040260200160405190810160405280929190818152602001828054612134906143df565b80156121815780601f1061215657610100808354040283529160200191612181565b820191906000526020600020905b81548152906001019060200180831161216457829003601f168201915b5050505050815260200160058201805461219a906143df565b80601f01602080910402602001604051908101604052809291908181526020018280546121c6906143df565b80156122135780601f106121e857610100808354040283529160200191612213565b820191906000526020600020905b8154815290600101906020018083116121f657829003601f168201915b5050505050815260200160068201548152602001600782015481526020016008820154815260200160098201548152602001600a820180548060200260200160405190810160405280929190818152602001828054801561229d57602002820191906000526020600020905b81546001600160a01b0316815260019091019060200180831161227f575b5050509183525050600b919091015460ff16151560209091015261012081015192509050816001600160401b038111156122d9576122d9613b53565b60405190808252806020026020018201604052801561234557816020015b6123326040518060a00160405280600081526020016000815260200160006001600160a01b0316815260200160008152602001600081525090565b8152602001906001900390816122f75790505b5092506000805b600554811015612402578251600082815260036020526040902060010154036123f057600081815260036020818152604092839020835160a0810185528154815260018201549281019290925260028101546001600160a01b031693820193909352908201546060820152600490910154608082015285518690849081106123d6576123d66145f3565b602002602001018190525081806123ec90614609565b9250505b806123fa81614609565b91505061234c565b505050915091565b612412613a06565b6000828152600260208181526040928390208351610180810185528154815260018201546001600160a01b03169281019290925291820180549193840191612459906143df565b80601f0160208091040260200160405190810160405280929190818152602001828054612485906143df565b80156124d25780601f106124a7576101008083540402835291602001916124d2565b820191906000526020600020905b8154815290600101906020018083116124b557829003601f168201915b505050505081526020016003820180546124eb906143df565b80601f0160208091040260200160405190810160405280929190818152602001828054612517906143df565b80156125645780601f1061253957610100808354040283529160200191612564565b820191906000526020600020905b81548152906001019060200180831161254757829003601f168201915b5050505050815260200160048201805461257d906143df565b80601f01602080910402602001604051908101604052809291908181526020018280546125a9906143df565b80156125f65780601f106125cb576101008083540402835291602001916125f6565b820191906000526020600020905b8154815290600101906020018083116125d957829003601f168201915b5050505050815260200160058201805461260f906143df565b80601f016020809104026020016040519081016040528092919081815260200182805461263b906143df565b80156126885780601f1061265d57610100808354040283529160200191612688565b820191906000526020600020905b81548152906001019060200180831161266b57829003601f168201915b5050505050815260200160068201548152602001600782015481526020016008820154815260200160098201548152602001600a820180548060200260200160405190810160405280929190818152602001828054801561271257602002820191906000526020600020905b81546001600160a01b031681526001909101906020018083116126f4575b5050509183525050600b919091015460ff16151560209091015292915050565b6000828152600260205260408120905b60055481101561282557600081815260036020526040902060018101548514801561277c575060028101546001600160a01b038581169116145b1561281257600281015460038201546040516001600160a01b0390921691829180156108fc02916000818181858888f193505050501580156127c2573d6000803e3d6000fd5b5081600301548460070160008282546127db91906145cd565b909155505050600a83018054600181018255600091825260209091200180546001600160a01b0319166001600160a01b0386161790555b508061281d81614609565b915050612742565b506040517f8616bbbbad963e4e65b1366f1d75dfb63f9e9704bbbf91fb01bec70849906cf790600090a1505050565b60045481106128755760405162461bcd60e51b81526004016104bd906143b2565b600081815260026020526040902060088101544211156128d75760405162461bcd60e51b815260206004820152601860248201527f43616d706169676e20697320616c7265616479206f766572000000000000000060448201526064016104bd565b600034116129355760405162461bcd60e51b815260206004820152602560248201527f446f6e6174696f6e20616d6f756e742073686f756c64206265206d6f72652074604482015264068616e20360dc1b60648201526084016104bd565b33600081815260016020818152604080842080840154825160a0810184526005548082528954828701908152828601998a5234606084018181524260808601908152938b526003808a52888c20865180825594519b81019b909b559b5160028b0180546001600160a01b0319166001600160a01b0390921691909117905551898c0155915160049098019790975582885297830190945291852093909355600786018054939591949293919290916129ee9084906145e0565b909155505060058054906000612a0383614609565b9091555050600183018054906000612a1a83614609565b9091555050600984018054906000612a3183614609565b91905055508360060154846007015410158015612a535750600b84015460ff16155b15612a6157612a6185612fa3565b600784015460405133917f3b5443c59641f965c6df0836dbe11676fa8c79c3184392351bb19fd51de3d49a91612a9b91600389019161465b565b60405180910390a25050505050565b606060008060006004548510612ac1576000612acf565b84600454612acf91906145cd565b905060006004548610612ae457600454612ae6565b855b90506000816001600160401b03811115612b0257612b02613b53565b604051908082528060200260200182016040528015612b3b57816020015b612b28613a06565b815260200190600190039081612b205790505b5090506000805b83811015612ee8576000600281612b5984896145e0565b8152602001908152602001600020905080600801544211158015612b84575080600601548160070154105b8015612b955750600b81015460ff16155b15612ed55760408051610180810182528254815260018301546001600160a01b03166020820152600283018054919284929084019190612bd4906143df565b80601f0160208091040260200160405190810160405280929190818152602001828054612c00906143df565b8015612c4d5780601f10612c2257610100808354040283529160200191612c4d565b820191906000526020600020905b815481529060010190602001808311612c3057829003601f168201915b50505050508152602001600382018054612c66906143df565b80601f0160208091040260200160405190810160405280929190818152602001828054612c92906143df565b8015612cdf5780601f10612cb457610100808354040283529160200191612cdf565b820191906000526020600020905b815481529060010190602001808311612cc257829003601f168201915b50505050508152602001600482018054612cf8906143df565b80601f0160208091040260200160405190810160405280929190818152602001828054612d24906143df565b8015612d715780601f10612d4657610100808354040283529160200191612d71565b820191906000526020600020905b815481529060010190602001808311612d5457829003601f168201915b50505050508152602001600582018054612d8a906143df565b80601f0160208091040260200160405190810160405280929190818152602001828054612db6906143df565b8015612e035780601f10612dd857610100808354040283529160200191612e03565b820191906000526020600020905b815481529060010190602001808311612de657829003601f168201915b5050505050815260200160068201548152602001600782015481526020016008820154815260200160098201548152602001600a8201805480602002602001604051908101604052809291908181526020018280548015612e8d57602002820191906000526020600020905b81546001600160a01b03168152600190910190602001808311612e6f575b5050509183525050600b919091015460ff1615156020909101528451859085908110612ebb57612ebb6145f3565b60200260200101819052508280612ed190614609565b9350505b5080612ee081614609565b915050612b42565b50806001600160401b03811115612f0157612f01613b53565b604051908082528060200260200182016040528015612f3a57816020015b612f27613a06565b815260200190600190039081612f1f5790505b50965060005b81811015612f9257828181518110612f5a57612f5a6145f3565b6020026020010151888281518110612f7457612f746145f3565b60200260200101819052508080612f8a90614609565b915050612f40565b506004549698909750945050505050565b60008181526002602052604090206004548210612fd25760405162461bcd60e51b81526004016104bd906143b2565b600181015460078201546040516001600160a01b0390921691829180156108fc02916000818181858888f19350505050158015613013573d6000803e3d6000fd5b5050600b01805460ff1916600117905550565b85858585856000811161304b5760405162461bcd60e51b81526004016104bd9061432f565b60008551116130985760405162461bcd60e51b815260206004820152601960248201527846756c6c206e616d652063616e6e6f7420626520656d70747960381b60448201526064016104bd565b60008451116130e15760405162461bcd60e51b81526020600482015260156024820152745469746c652063616e6e6f7420626520656d70747960581b60448201526064016104bd565b600083511161312a5760405162461bcd60e51b815260206004820152601560248201527453746f72792063616e6e6f7420626520656d70747960581b60448201526064016104bd565b600082511161314b5760405162461bcd60e51b81526004016104bd90614370565b60408051600080825260208201909252905060006040518061018001604052806004548152602001336001600160a01b031681526020018e81526020018d81526020018c81526020018b81526020018a81526020016000815260200189815260200160008152602001838152602001600015158152509050806002600060045481526020019081526020016000206000820151816000015560208201518160010160006101000a8154816001600160a01b0302191690836001600160a01b0316021790555060408201518160020190816132259190614468565b506060820151600382019061323a9082614468565b506080820151600482019061324f9082614468565b5060a082015160058201906132649082614468565b5060c0820151600682015560e082015160078201556101008201516008820155610120820151600982015561014082015180516132ab91600a840191602090910190613ae2565b506101609190910151600b909101805460ff1916911515919091179055336000818152600160208181526040808420805487518187526002830185529286209290925594845291905282549092909161330383614609565b90915550506004805490600061331883614609565b9190505550336001600160a01b03167f17dd0b5f0975f4651b002ed3b016428bae979f5704d8b2473931b2312185c05a836060015160405161335a919061467d565b60405180910390a25050505050505050505050505050565b60606000808080613381613a72565b60005b60045481101561341057600081815260026020526040902060018101546001600160a01b03808d169116036133fd5760005b6005548110156133fb57600081815260036020526040902082546001820154036133e857886133e481614609565b9950505b50806133f381614609565b9150506133b6565b505b508061340881614609565b915050613384565b5061341c8589896137e7565b90508060600151816080015161343291906145cd565b6001600160401b0381111561344957613449613b53565b60405190808252806020026020018201604052801561348257816020015b61346f613aa1565b8152602001906001900390816134675790505b5095506000805b60045481101561362257600081815260026020526040902060018101546001600160a01b03808e1691160361360f5760005b60055481101561360d57600081815260036020526040902082546001820154036135fa57856060015185101580156134f65750856080015185105b156135ec57613503613aa1565b8354815260028201546001600160a01b03166020820152600384018054613529906143df565b80601f0160208091040260200160405190810160405280929190818152602001828054613555906143df565b80156135a25780601f10613577576101008083540402835291602001916135a2565b820191906000526020600020905b81548152906001019060200180831161358557829003601f168201915b505050505081604001819052508160030154816060018181525050808c8860600151886135cf91906145cd565b815181106135df576135df6145f3565b6020026020010181905250505b846135f681614609565b9550505b508061360581614609565b9150506134bb565b505b508061361a81614609565b915050613489565b505080516020820151604090920151969a95995097509550505050565b60606000829050600081516001600160401b0381111561366157613661613b53565b6040519080825280601f01601f19166020018201604052801561368b576020820181803683370190505b50905060005b82518110156136fe576136c38382815181106136af576136af6145f3565b01602001516001600160f81b0319166139c9565b8282815181106136d5576136d56145f3565b60200101906001600160f81b031916908160001a905350806136f681614609565b915050613691565b509392505050565b80518251600091849184911115613722576000925050506137e1565b60005b8151835161373391906145cd565b81116137d957600160005b83518110156137b257838181518110613759576137596145f3565b01602001516001600160f81b0319168561377383866145e0565b81518110613783576137836145f3565b01602001516001600160f81b031916146137a057600091506137b2565b806137aa81614609565b91505061373e565b5080156137c65760019450505050506137e1565b50806137d181614609565b915050613725565b506000925050505b92915050565b6137ef613a72565b600083116138375760405162461bcd60e51b81526020600482015260156024820152740506167652073697a652063616e6e6f74206265203605c1b60448201526064016104bd565b600082116138875760405162461bcd60e51b815260206004820152601760248201527f50616765206e756d6265722063616e6e6f74206265203000000000000000000060448201526064016104bd565b61388f613a72565b83600161389c82886145e0565b6138a691906145cd565b6138b09190614622565b8082526138be5760006138d3565b6138c96001846145cd565b6138d39085614644565b6060820181905285906138e690866145e0565b116138ff5760608101516138fa90856145e0565b613901565b845b608082015280518310613915578051613920565b6139208360016145e0565b60208201526001831161393457600161393f565b61393f6001846145cd565b60408201528051613951576000613957565b80604001515b6040820152949350505050565b6000805b83518110156139bf57826001600160a01b031684828151811061398d5761398d6145f3565b60200260200101516001600160a01b0316036139ad5760019150506137e1565b806139b781614609565b915050613968565b5060009392505050565b6000604160f883901c108015906139e55750605a60f883901c11155b15613a02576139f960f883901c6020614690565b60f81b92915050565b5090565b6040518061018001604052806000815260200160006001600160a01b031681526020016060815260200160608152602001606081526020016060815260200160008152602001600081526020016000815260200160008152602001606081526020016000151581525090565b6040518060a0016040528060008152602001600081526020016000815260200160008152602001600081525090565b6040518060c001604052806000815260200160006001600160a01b031681526020016060815260200160008152602001606081526020016000151581525090565b828054828255906000526020600020908101928215613b37579160200282015b82811115613b3757825182546001600160a01b0319166001600160a01b03909116178255602090920191600190910190613b02565b50613a029291505b80821115613a025760008155600101613b3f565b634e487b7160e01b600052604160045260246000fd5b600082601f830112613b7a57600080fd5b81356001600160401b0380821115613b9457613b94613b53565b604051601f8301601f19908116603f01168101908282118183101715613bbc57613bbc613b53565b81604052838152866020858801011115613bd557600080fd5b836020870160208301376000602085830101528094505050505092915050565b600080600080600080600060e0888a031215613c1057600080fd5b8735965060208801356001600160401b0380821115613c2e57600080fd5b613c3a8b838c01613b69565b975060408a0135915080821115613c5057600080fd5b613c5c8b838c01613b69565b965060608a0135915080821115613c7257600080fd5b613c7e8b838c01613b69565b955060808a0135915080821115613c9457600080fd5b50613ca18a828b01613b69565b93505060a0880135915060c0880135905092959891949750929550565b600060208284031215613cd057600080fd5b5035919050565b6000815180845260005b81811015613cfd57602081850181015186830182015201613ce1565b506000602082860101526020601f19601f83011685010191505092915050565b8b81526001600160a01b038b16602082015261016060408201819052600090613d488382018d613cd7565b90508281036060840152613d5c818c613cd7565b90508281036080840152613d70818b613cd7565b905082810360a0840152613d84818a613cd7565b60c0840198909852505060e08101949094526101008401929092526101208301521515610140909101529695505050505050565b60008060408385031215613dcb57600080fd5b50508035926020909101359150565b600081518084526020808501945080840160005b83811015613e135781516001600160a01b031687529582019590820190600101613dee565b509495945050505050565b6000610180825184526020830151613e4160208601826001600160a01b03169052565b506040830151816040860152613e5982860182613cd7565b91505060608301518482036060860152613e738282613cd7565b91505060808301518482036080860152613e8d8282613cd7565b91505060a083015184820360a0860152613ea78282613cd7565b91505060c083015160c085015260e083015160e08501526101008084015181860152506101208084015181860152506101408084015185830382870152613eee8382613dda565b9250505061016080840151613f068287018215159052565b5090949350505050565b600081518084526020808501808196508360051b8101915082860160005b85811015613f58578284038952613f46848351613e1e565b98850198935090840190600101613f2e565b5091979650505050505050565b606081526000613f786060830185613f10565b9050825115156020830152602083015160408301529392505050565b600080600060608486031215613fa957600080fd5b83356001600160401b03811115613fbf57600080fd5b613fcb86828701613b69565b9660208601359650604090950135949350505050565b60a081526000613ff460a0830188613f10565b90508560208301528460408301528360608301528260808301529695505050505050565b80356001600160a01b038116811461402f57600080fd5b919050565b60008060006060848603121561404957600080fd5b61405284614018565b95602085013595506040909401359392505050565b600081518084526020808501808196508360051b8101915082860160005b85811015613f58578284038952815180518552858101516001600160a01b03168686015260408082015160c082880181905291906140c583890182613cd7565b925050506060808301518188015250608080830151878303828901526140eb8382613cd7565b60a09485015115159890940197909752505098850198935090840190600101614085565b60c08152600061412260c0830185614067565b905082516020830152602083015160408301526040830151606083015260608301516080830152608083015160a08301529392505050565b6040808252835182820181905260009190606090818501906020808901865b838110156141c4578151805186528381015184870152878101516001600160a01b03168887015286810151878701526080908101519086015260a09094019390820190600101614179565b505095909501959095525092949350505050565b6020815260006141eb6020830184613e1e565b9392505050565b6000806040838503121561420557600080fd5b8235915061421560208401614018565b90509250929050565b6060815260006142316060830186613f10565b60208301949094525060400152919050565b60006020828403121561425557600080fd5b6141eb82614018565b60008060008060008060c0878903121561427757600080fd5b86356001600160401b038082111561428e57600080fd5b61429a8a838b01613b69565b975060208901359150808211156142b057600080fd5b6142bc8a838b01613b69565b965060408901359150808211156142d257600080fd5b6142de8a838b01613b69565b955060608901359150808211156142f457600080fd5b5061430189828a01613b69565b9350506080870135915060a087013590509295509295509295565b60a081526000613ff460a0830188614067565b60208082526021908201527f476f616c20616d6f756e742073686f756c64206265206d6f7265207468616e206040820152600360fc1b606082015260800190565b60208082526022908201527f43616d706169676e20696d6167652075726c2063616e6e6f7420626520656d70604082015261747960f01b606082015260800190565b602080825260139082015272125b9d985b1a590818d85b5c185a59db881251606a1b604082015260600190565b600181811c908216806143f357607f821691505b60208210810361441357634e487b7160e01b600052602260045260246000fd5b50919050565b601f82111561446357600081815260208120601f850160051c810160208610156144405750805b601f850160051c820191505b8181101561445f5782815560010161444c565b5050505b505050565b81516001600160401b0381111561448157614481613b53565b6144958161448f84546143df565b84614419565b602080601f8311600181146144ca57600084156144b25750858301515b600019600386901b1c1916600185901b17855561445f565b600085815260208120601f198616915b828110156144f9578886015182559484019460019091019084016144da565b50858210156145175787850151600019600388901b60f8161c191681555b5050505050600190811b01905550565b60008154614534816143df565b808552602060018381168015614551576001811461456b57614599565b60ff1985168884015283151560051b880183019550614599565b866000528260002060005b858110156145915781548a8201860152908301908401614576565b890184019650505b505050505092915050565b6020815260006141eb6020830184614527565b634e487b7160e01b600052601160045260246000fd5b818103818111156137e1576137e16145b7565b808201808211156137e1576137e16145b7565b634e487b7160e01b600052603260045260246000fd5b60006001820161461b5761461b6145b7565b5060010190565b60008261463f57634e487b7160e01b600052601260045260246000fd5b500490565b80820281158282048414176137e1576137e16145b7565b60408152600061466e6040830185614527565b90508260208301529392505050565b6020815260006141eb6020830184613cd7565b60ff81811683821601908111156137e1576137e16145b756fea2646970667358221220cf68a6ea5ddcf0c3aa8a259f837ef64ffd784c4c535d5b1734a0c127ebb58f0864736f6c63430008120033",
  "linkReferences": {},
  "deployedLinkReferences": {}
}