{
  "_format": "hh-sol-artifact-1",
  "contractName": "CrowdFunding",
  "sourceName": "contracts/CrowdFunding.sol",
  "abi": [
    {
      "inputs": [],
      "stateMutability": "payable",
      "type": "constructor"
    },
    {
      "anonymous": false,
      "inputs": [
        {
          "indexed": true,
          "internalType": "address",
          "name": "sender",
          "type": "address"
        },
        {
          "indexed": false,
          "internalType": "string",
          "name": "title",
          "type": "string"
        }
      ],
      "name": "CampaignCreated",
      "type": "event"
    },
    {
      "anonymous": false,
      "inputs": [
        {
          "indexed": true,
          "internalType": "address",
          "name": "sender",
          "type": "address"
        },
        {
          "indexed": false,
          "internalType": "string",
          "name": "title",
          "type": "string"
        }
      ],
      "name": "CampaignEdited",
      "type": "event"
    },
    {
      "anonymous": false,
      "inputs": [
        {
          "indexed": true,
          "internalType": "address",
          "name": "sender",
          "type": "address"
        },
        {
          "indexed": false,
          "internalType": "string",
          "name": "title",
          "type": "string"
        },
        {
          "indexed": false,
          "internalType": "uint256",
          "name": "amount",
          "type": "uint256"
        }
      ],
      "name": "DonationSent",
      "type": "event"
    },
    {
      "inputs": [
        {
          "internalType": "uint256",
          "name": "",
          "type": "uint256"
        }
      ],
      "name": "campaigns",
      "outputs": [
        {
          "internalType": "uint256",
          "name": "id",
          "type": "uint256"
        },
        {
          "internalType": "address",
          "name": "creator",
          "type": "address"
        },
        {
          "internalType": "string",
          "name": "fullname",
          "type": "string"
        },
        {
          "internalType": "string",
          "name": "title",
          "type": "string"
        },
        {
          "internalType": "string",
          "name": "story",
          "type": "string"
        },
        {
          "internalType": "uint256",
          "name": "goalAmount",
          "type": "uint256"
        },
        {
          "internalType": "uint256",
          "name": "currentAmount",
          "type": "uint256"
        },
        {
          "internalType": "uint256",
          "name": "deadline",
          "type": "uint256"
        }
      ],
      "stateMutability": "view",
      "type": "function"
    },
    {
      "inputs": [
        {
          "internalType": "string",
          "name": "_fullname",
          "type": "string"
        },
        {
          "internalType": "string",
          "name": "_title",
          "type": "string"
        },
        {
          "internalType": "string",
          "name": "_story",
          "type": "string"
        },
        {
          "internalType": "uint256",
          "name": "_goalAmount",
          "type": "uint256"
        },
        {
          "internalType": "uint256",
          "name": "_deadline",
          "type": "uint256"
        }
      ],
      "name": "createCampaign",
      "outputs": [],
      "stateMutability": "nonpayable",
      "type": "function"
    },
    {
      "inputs": [
        {
          "internalType": "uint256",
          "name": "",
          "type": "uint256"
        }
      ],
      "name": "donationTransactions",
      "outputs": [
        {
          "internalType": "uint256",
          "name": "id",
          "type": "uint256"
        },
        {
          "internalType": "uint256",
          "name": "campaignId",
          "type": "uint256"
        },
        {
          "internalType": "address",
          "name": "donor",
          "type": "address"
        },
        {
          "internalType": "uint256",
          "name": "amount",
          "type": "uint256"
        },
        {
          "internalType": "uint256",
          "name": "timestamp",
          "type": "uint256"
        }
      ],
      "stateMutability": "view",
      "type": "function"
    },
    {
      "inputs": [
        {
          "internalType": "uint256",
          "name": "_campaignId",
          "type": "uint256"
        },
        {
          "internalType": "string",
          "name": "_fullname",
          "type": "string"
        },
        {
          "internalType": "string",
          "name": "_title",
          "type": "string"
        },
        {
          "internalType": "string",
          "name": "_story",
          "type": "string"
        },
        {
          "internalType": "uint256",
          "name": "_goalAmount",
          "type": "uint256"
        },
        {
          "internalType": "uint256",
          "name": "_deadline",
          "type": "uint256"
        }
      ],
      "name": "editCampaign",
      "outputs": [],
      "stateMutability": "nonpayable",
      "type": "function"
    },
    {
      "inputs": [
        {
          "internalType": "uint256",
          "name": "_pageSize",
          "type": "uint256"
        },
        {
          "internalType": "uint256",
          "name": "_pageNumber",
          "type": "uint256"
        }
      ],
      "name": "getUserCampaigns",
      "outputs": [
        {
          "components": [
            {
              "internalType": "uint256",
              "name": "id",
              "type": "uint256"
            },
            {
              "internalType": "address",
              "name": "creator",
              "type": "address"
            },
            {
              "internalType": "string",
              "name": "fullname",
              "type": "string"
            },
            {
              "internalType": "string",
              "name": "title",
              "type": "string"
            },
            {
              "internalType": "string",
              "name": "story",
              "type": "string"
            },
            {
              "internalType": "uint256",
              "name": "goalAmount",
              "type": "uint256"
            },
            {
              "internalType": "uint256",
              "name": "currentAmount",
              "type": "uint256"
            },
            {
              "internalType": "uint256",
              "name": "deadline",
              "type": "uint256"
            }
          ],
          "internalType": "struct CrowdFunding.Campaign[]",
          "name": "",
          "type": "tuple[]"
        },
        {
          "internalType": "uint256",
          "name": "",
          "type": "uint256"
        },
        {
          "internalType": "uint256",
          "name": "",
          "type": "uint256"
        },
        {
          "internalType": "uint256",
          "name": "",
          "type": "uint256"
        },
        {
          "internalType": "uint256",
          "name": "",
          "type": "uint256"
        }
      ],
      "stateMutability": "view",
      "type": "function"
    },
    {
      "inputs": [],
      "name": "owner",
      "outputs": [
        {
          "internalType": "address payable",
          "name": "",
          "type": "address"
        }
      ],
      "stateMutability": "view",
      "type": "function"
    },
    {
      "inputs": [
        {
          "internalType": "uint256",
          "name": "_campaignId",
          "type": "uint256"
        }
      ],
      "name": "sendDonation",
      "outputs": [],
      "stateMutability": "payable",
      "type": "function"
    },
    {
      "inputs": [],
      "name": "totalCampaigns",
      "outputs": [
        {
          "internalType": "uint256",
          "name": "",
          "type": "uint256"
        }
      ],
      "stateMutability": "view",
      "type": "function"
    },
    {
      "inputs": [],
      "name": "totalDonations",
      "outputs": [
        {
          "internalType": "uint256",
          "name": "",
          "type": "uint256"
        }
      ],
      "stateMutability": "view",
      "type": "function"
    },
    {
      "inputs": [
        {
          "internalType": "address",
          "name": "",
          "type": "address"
        }
      ],
      "name": "users",
      "outputs": [
        {
          "internalType": "uint256",
          "name": "totalCampaigns",
          "type": "uint256"
        },
        {
          "internalType": "uint256",
          "name": "totalDonations",
          "type": "uint256"
        }
      ],
      "stateMutability": "view",
      "type": "function"
    }
  ],
  "bytecode": "0x6080604052336000806101000a81548173ffffffffffffffffffffffffffffffffffffffff021916908373ffffffffffffffffffffffffffffffffffffffff160217905550600060048190555061277d8061005b6000396000f3fe6080604052600436106100915760003560e01c80638da5cb5b116100595780638da5cb5b146101a3578063980f2e66146101ce578063a87430ba146101f7578063de2ed89314610235578063e1a783a01461026057610091565b806302932f5614610096578063141961bc146100c15780633e3b667514610105578063665588c9146101465780638acd0bfc14610162575b600080fd5b3480156100a257600080fd5b506100ab610289565b6040516100b89190611447565b60405180910390f35b3480156100cd57600080fd5b506100e860048036038101906100e391906114a2565b61028f565b6040516100fc9897969594939291906115a0565b60405180910390f35b34801561011157600080fd5b5061012c60048036038101906101279190611633565b61048f565b60405161013d95949392919061185b565b60405180910390f35b610160600480360381019061015b91906114a2565b610978565b005b34801561016e57600080fd5b50610189600480360381019061018491906114a2565b610c4e565b60405161019a9594939291906118b5565b60405180910390f35b3480156101af57600080fd5b506101b8610ca4565b6040516101c59190611929565b60405180910390f35b3480156101da57600080fd5b506101f560048036038101906101f09190611a79565b610cc8565b005b34801561020357600080fd5b5061021e60048036038101906102199190611b74565b6110b2565b60405161022c929190611ba1565b60405180910390f35b34801561024157600080fd5b5061024a6110d6565b6040516102579190611447565b60405180910390f35b34801561026c57600080fd5b5061028760048036038101906102829190611bca565b6110dc565b005b60045481565b60026020528060005260406000206000915090508060000154908060010160009054906101000a900473ffffffffffffffffffffffffffffffffffffffff16908060020180546102de90611cda565b80601f016020809104026020016040519081016040528092919081815260200182805461030a90611cda565b80156103575780601f1061032c57610100808354040283529160200191610357565b820191906000526020600020905b81548152906001019060200180831161033a57829003601f168201915b50505050509080600301805461036c90611cda565b80601f016020809104026020016040519081016040528092919081815260200182805461039890611cda565b80156103e55780601f106103ba576101008083540402835291602001916103e5565b820191906000526020600020905b8154815290600101906020018083116103c857829003601f168201915b5050505050908060040180546103fa90611cda565b80601f016020809104026020016040519081016040528092919081815260200182805461042690611cda565b80156104735780601f1061044857610100808354040283529160200191610473565b820191906000526020600020905b81548152906001019060200180831161045657829003601f168201915b5050505050908060050154908060060154908060070154905088565b6060600080600080600087116104da576040517f08c379a00000000000000000000000000000000000000000000000000000000081526004016104d190611d57565b60405180910390fd5b6000861161051d576040517f08c379a000000000000000000000000000000000000000000000000000000000815260040161051490611dc3565b60405180910390fd5b6000600160003373ffffffffffffffffffffffffffffffffffffffff1673ffffffffffffffffffffffffffffffffffffffff168152602001908152602001600020905060008860018a84600001546105759190611e12565b61057f9190611e46565b6105899190611ea9565b9050600080821161059b5760006105b4565b6001896105a89190611e46565b8a6105b39190611eda565b5b905060008360000154828c6105c99190611e12565b116105df57818b6105da9190611e12565b6105e5565b83600001545b9050600082826105f59190611e46565b67ffffffffffffffff81111561060e5761060d61194e565b5b60405190808252806020026020018201604052801561064757816020015b6106346113d3565b81526020019060019003908161062c5790505b50905060005b815181101561090057600060026000886002016000858961066e9190611e12565b815260200190815260200160002054815260200190815260200160002060405180610100016040529081600082015481526020016001820160009054906101000a900473ffffffffffffffffffffffffffffffffffffffff1673ffffffffffffffffffffffffffffffffffffffff1673ffffffffffffffffffffffffffffffffffffffff16815260200160028201805461070790611cda565b80601f016020809104026020016040519081016040528092919081815260200182805461073390611cda565b80156107805780601f1061075557610100808354040283529160200191610780565b820191906000526020600020905b81548152906001019060200180831161076357829003601f168201915b5050505050815260200160038201805461079990611cda565b80601f01602080910402602001604051908101604052809291908181526020018280546107c590611cda565b80156108125780601f106107e757610100808354040283529160200191610812565b820191906000526020600020905b8154815290600101906020018083116107f557829003601f168201915b5050505050815260200160048201805461082b90611cda565b80601f016020809104026020016040519081016040528092919081815260200182805461085790611cda565b80156108a45780601f10610879576101008083540402835291602001916108a4565b820191906000526020600020905b81548152906001019060200180831161088757829003601f168201915b5050505050815260200160058201548152602001600682015481526020016007820154815250509050808383815181106108e1576108e0611f1c565b5b60200260200101819052505080806108f890611f4b565b91505061064d565b506000848c10610910578461091e565b60018c61091d9190611e12565b5b9050600060018d1161093157600161093f565b60018d61093e9190611e46565b5b905060008611610950576000610952565b805b90508287600001548784849b509b509b509b509b50505050505050509295509295909350565b6000811015801561098a575060045481105b6109c9576040517f08c379a00000000000000000000000000000000000000000000000000000000081526004016109c090611fdf565b60405180910390fd5b60006002600083815260200190815260200160002090508060070154421115610a27576040517f08c379a0000000000000000000000000000000000000000000000000000000008152600401610a1e9061204b565b60405180910390fd5b60003411610a6a576040517f08c379a0000000000000000000000000000000000000000000000000000000008152600401610a61906120dd565b60405180910390fd5b6000600160003373ffffffffffffffffffffffffffffffffffffffff1673ffffffffffffffffffffffffffffffffffffffff168152602001908152602001600020905060008160010154905060006040518060a001604052806005548152602001856000015481526020013373ffffffffffffffffffffffffffffffffffffffff16815260200134815260200142815250905080600360006005548152602001908152602001600020600082015181600001556020820151816001015560408201518160020160006101000a81548173ffffffffffffffffffffffffffffffffffffffff021916908373ffffffffffffffffffffffffffffffffffffffff160217905550606082015181600301556080820151816004015590505080600001518360030160008481526020019081526020016000208190555034846006016000828254610bb79190611e12565b9250508190555060056000815480929190610bd190611f4b565b9190505550826001016000815480929190610beb90611f4b565b91905055503373ffffffffffffffffffffffffffffffffffffffff167f3b5443c59641f965c6df0836dbe11676fa8c79c3184392351bb19fd51de3d49a856003018660060154604051610c3f929190612196565b60405180910390a25050505050565b60036020528060005260406000206000915090508060000154908060010154908060020160009054906101000a900473ffffffffffffffffffffffffffffffffffffffff16908060030154908060040154905085565b60008054906101000a900473ffffffffffffffffffffffffffffffffffffffff1681565b8484848484428111610d0f576040517f08c379a0000000000000000000000000000000000000000000000000000000008152600401610d0690612212565b60405180910390fd5b60008211610d52576040517f08c379a0000000000000000000000000000000000000000000000000000000008152600401610d49906122a4565b60405180910390fd5b6000855111610d96576040517f08c379a0000000000000000000000000000000000000000000000000000000008152600401610d8d90612310565b60405180910390fd5b6000845111610dda576040517f08c379a0000000000000000000000000000000000000000000000000000000008152600401610dd19061237c565b60405180910390fd5b6000835111610e1e576040517f08c379a0000000000000000000000000000000000000000000000000000000008152600401610e15906123e8565b60405180910390fd5b600060405180610100016040528060045481526020013373ffffffffffffffffffffffffffffffffffffffff1681526020018c81526020018b81526020018a815260200189815260200160008152602001888152509050806002600060045481526020019081526020016000206000820151816000015560208201518160010160006101000a81548173ffffffffffffffffffffffffffffffffffffffff021916908373ffffffffffffffffffffffffffffffffffffffff1602179055506040820151816002019081610ef1919061259f565b506060820151816003019081610f07919061259f565b506080820151816004019081610f1d919061259f565b5060a0820151816005015560c0820151816006015560e082015181600701559050506000600160003373ffffffffffffffffffffffffffffffffffffffff1673ffffffffffffffffffffffffffffffffffffffff1681526020019081526020016000206000015490508160000151600160003373ffffffffffffffffffffffffffffffffffffffff1673ffffffffffffffffffffffffffffffffffffffff168152602001908152602001600020600201600083815260200190815260200160002081905550600160003373ffffffffffffffffffffffffffffffffffffffff1673ffffffffffffffffffffffffffffffffffffffff168152602001908152602001600020600001600081548092919061103590611f4b565b91905055506004600081548092919061104d90611f4b565b91905055503373ffffffffffffffffffffffffffffffffffffffff167f17dd0b5f0975f4651b002ed3b016428bae979f5704d8b2473931b2312185c05a836060015160405161109c9190612671565b60405180910390a2505050505050505050505050565b60016020528060005260406000206000915090508060000154908060010154905082565b60055481565b8484848484428111611123576040517f08c379a000000000000000000000000000000000000000000000000000000000815260040161111a90612212565b60405180910390fd5b60008211611166576040517f08c379a000000000000000000000000000000000000000000000000000000000815260040161115d906122a4565b60405180910390fd5b60008551116111aa576040517f08c379a00000000000000000000000000000000000000000000000000000000081526004016111a190612310565b60405180910390fd5b60008451116111ee576040517f08c379a00000000000000000000000000000000000000000000000000000000081526004016111e59061237c565b60405180910390fd5b6000835111611232576040517f08c379a0000000000000000000000000000000000000000000000000000000008152600401611229906123e8565b60405180910390fd5b6000600260008d8152602001908152602001600020905060008c1015801561125b57506004548c105b61129a576040517f08c379a000000000000000000000000000000000000000000000000000000000815260040161129190611fdf565b60405180910390fd5b3373ffffffffffffffffffffffffffffffffffffffff168160010160009054906101000a900473ffffffffffffffffffffffffffffffffffffffff1673ffffffffffffffffffffffffffffffffffffffff161461132c576040517f08c379a000000000000000000000000000000000000000000000000000000000815260040161132390612705565b60405180910390fd5b8a81600201908161133d919061259f565b508981600301908161134f919061259f565b5088816004019081611361919061259f565b508781600501819055508681600701819055503373ffffffffffffffffffffffffffffffffffffffff167fb961c338b427968a67f1a3560907d7075a0d1fca0c2d16dcb76da3a963cfe373826003016040516113bd9190612725565b60405180910390a2505050505050505050505050565b60405180610100016040528060008152602001600073ffffffffffffffffffffffffffffffffffffffff1681526020016060815260200160608152602001606081526020016000815260200160008152602001600081525090565b6000819050919050565b6114418161142e565b82525050565b600060208201905061145c6000830184611438565b92915050565b6000604051905090565b600080fd5b600080fd5b61147f8161142e565b811461148a57600080fd5b50565b60008135905061149c81611476565b92915050565b6000602082840312156114b8576114b761146c565b5b60006114c68482850161148d565b91505092915050565b600073ffffffffffffffffffffffffffffffffffffffff82169050919050565b60006114fa826114cf565b9050919050565b61150a816114ef565b82525050565b600081519050919050565b600082825260208201905092915050565b60005b8381101561154a57808201518184015260208101905061152f565b60008484015250505050565b6000601f19601f8301169050919050565b600061157282611510565b61157c818561151b565b935061158c81856020860161152c565b61159581611556565b840191505092915050565b6000610100820190506115b6600083018b611438565b6115c3602083018a611501565b81810360408301526115d58189611567565b905081810360608301526115e98188611567565b905081810360808301526115fd8187611567565b905061160c60a0830186611438565b61161960c0830185611438565b61162660e0830184611438565b9998505050505050505050565b6000806040838503121561164a5761164961146c565b5b60006116588582860161148d565b92505060206116698582860161148d565b9150509250929050565b600081519050919050565b600082825260208201905092915050565b6000819050602082019050919050565b6116a88161142e565b82525050565b6116b7816114ef565b82525050565b600082825260208201905092915050565b60006116d982611510565b6116e381856116bd565b93506116f381856020860161152c565b6116fc81611556565b840191505092915050565b600061010083016000830151611720600086018261169f565b50602083015161173360208601826116ae565b506040830151848203604086015261174b82826116ce565b9150506060830151848203606086015261176582826116ce565b9150506080830151848203608086015261177f82826116ce565b91505060a083015161179460a086018261169f565b5060c08301516117a760c086018261169f565b5060e08301516117ba60e086018261169f565b508091505092915050565b60006117d18383611707565b905092915050565b6000602082019050919050565b60006117f182611673565b6117fb818561167e565b93508360208202850161180d8561168f565b8060005b85811015611849578484038952815161182a85826117c5565b9450611835836117d9565b925060208a01995050600181019050611811565b50829750879550505050505092915050565b600060a082019050818103600083015261187581886117e6565b90506118846020830187611438565b6118916040830186611438565b61189e6060830185611438565b6118ab6080830184611438565b9695505050505050565b600060a0820190506118ca6000830188611438565b6118d76020830187611438565b6118e46040830186611501565b6118f16060830185611438565b6118fe6080830184611438565b9695505050505050565b6000611913826114cf565b9050919050565b61192381611908565b82525050565b600060208201905061193e600083018461191a565b92915050565b600080fd5b600080fd5b7f4e487b7100000000000000000000000000000000000000000000000000000000600052604160045260246000fd5b61198682611556565b810181811067ffffffffffffffff821117156119a5576119a461194e565b5b80604052505050565b60006119b8611462565b90506119c4828261197d565b919050565b600067ffffffffffffffff8211156119e4576119e361194e565b5b6119ed82611556565b9050602081019050919050565b82818337600083830152505050565b6000611a1c611a17846119c9565b6119ae565b905082815260208101848484011115611a3857611a37611949565b5b611a438482856119fa565b509392505050565b600082601f830112611a6057611a5f611944565b5b8135611a70848260208601611a09565b91505092915050565b600080600080600060a08688031215611a9557611a9461146c565b5b600086013567ffffffffffffffff811115611ab357611ab2611471565b5b611abf88828901611a4b565b955050602086013567ffffffffffffffff811115611ae057611adf611471565b5b611aec88828901611a4b565b945050604086013567ffffffffffffffff811115611b0d57611b0c611471565b5b611b1988828901611a4b565b9350506060611b2a8882890161148d565b9250506080611b3b8882890161148d565b9150509295509295909350565b611b51816114ef565b8114611b5c57600080fd5b50565b600081359050611b6e81611b48565b92915050565b600060208284031215611b8a57611b8961146c565b5b6000611b9884828501611b5f565b91505092915050565b6000604082019050611bb66000830185611438565b611bc36020830184611438565b9392505050565b60008060008060008060c08789031215611be757611be661146c565b5b6000611bf589828a0161148d565b965050602087013567ffffffffffffffff811115611c1657611c15611471565b5b611c2289828a01611a4b565b955050604087013567ffffffffffffffff811115611c4357611c42611471565b5b611c4f89828a01611a4b565b945050606087013567ffffffffffffffff811115611c7057611c6f611471565b5b611c7c89828a01611a4b565b9350506080611c8d89828a0161148d565b92505060a0611c9e89828a0161148d565b9150509295509295509295565b7f4e487b7100000000000000000000000000000000000000000000000000000000600052602260045260246000fd5b60006002820490506001821680611cf257607f821691505b602082108103611d0557611d04611cab565b5b50919050565b7f506167652073697a652063616e6e6f7420626520300000000000000000000000600082015250565b6000611d4160158361151b565b9150611d4c82611d0b565b602082019050919050565b60006020820190508181036000830152611d7081611d34565b9050919050565b7f50616765206e756d6265722063616e6e6f742062652030000000000000000000600082015250565b6000611dad60178361151b565b9150611db882611d77565b602082019050919050565b60006020820190508181036000830152611ddc81611da0565b9050919050565b7f4e487b7100000000000000000000000000000000000000000000000000000000600052601160045260246000fd5b6000611e1d8261142e565b9150611e288361142e565b9250828201905080821115611e4057611e3f611de3565b5b92915050565b6000611e518261142e565b9150611e5c8361142e565b9250828203905081811115611e7457611e73611de3565b5b92915050565b7f4e487b7100000000000000000000000000000000000000000000000000000000600052601260045260246000fd5b6000611eb48261142e565b9150611ebf8361142e565b925082611ecf57611ece611e7a565b5b828204905092915050565b6000611ee58261142e565b9150611ef08361142e565b9250828202611efe8161142e565b91508282048414831517611f1557611f14611de3565b5b5092915050565b7f4e487b7100000000000000000000000000000000000000000000000000000000600052603260045260246000fd5b6000611f568261142e565b91507fffffffffffffffffffffffffffffffffffffffffffffffffffffffffffffffff8203611f8857611f87611de3565b5b600182019050919050565b7f496e76616c69642063616d706169676e20494400000000000000000000000000600082015250565b6000611fc960138361151b565b9150611fd482611f93565b602082019050919050565b60006020820190508181036000830152611ff881611fbc565b9050919050565b7f43616d706169676e20697320616c7265616479206f7665720000000000000000600082015250565b600061203560188361151b565b915061204082611fff565b602082019050919050565b6000602082019050818103600083015261206481612028565b9050919050565b7f446f6e6174696f6e20616d6f756e742073686f756c64206265206d6f7265207460008201527f68616e2030000000000000000000000000000000000000000000000000000000602082015250565b60006120c760258361151b565b91506120d28261206b565b604082019050919050565b600060208201905081810360008301526120f6816120ba565b9050919050565b60008190508160005260206000209050919050565b6000815461211f81611cda565b612129818661151b565b94506001821660008114612144576001811461215a5761218d565b60ff19831686528115156020028601935061218d565b612163856120fd565b60005b8381101561218557815481890152600182019150602081019050612166565b808801955050505b50505092915050565b600060408201905081810360008301526121b08185612112565b90506121bf6020830184611438565b9392505050565b7f446174652073686f756c64206265206675747572652064617465000000000000600082015250565b60006121fc601a8361151b565b9150612207826121c6565b602082019050919050565b6000602082019050818103600083015261222b816121ef565b9050919050565b7f476f616c20616d6f756e742073686f756c64206265206d6f7265207468616e2060008201527f3000000000000000000000000000000000000000000000000000000000000000602082015250565b600061228e60218361151b565b915061229982612232565b604082019050919050565b600060208201905081810360008301526122bd81612281565b9050919050565b7f46756c6c206e616d652063616e6e6f7420626520656d70747900000000000000600082015250565b60006122fa60198361151b565b9150612305826122c4565b602082019050919050565b60006020820190508181036000830152612329816122ed565b9050919050565b7f5469746c652063616e6e6f7420626520656d7074790000000000000000000000600082015250565b600061236660158361151b565b915061237182612330565b602082019050919050565b6000602082019050818103600083015261239581612359565b9050919050565b7f53746f72792063616e6e6f7420626520656d7074790000000000000000000000600082015250565b60006123d260158361151b565b91506123dd8261239c565b602082019050919050565b60006020820190508181036000830152612401816123c5565b9050919050565b60006020601f8301049050919050565b600082821b905092915050565b6000600883026124557fffffffffffffffffffffffffffffffffffffffffffffffffffffffffffffffff82612418565b61245f8683612418565b95508019841693508086168417925050509392505050565b6000819050919050565b600061249c6124976124928461142e565b612477565b61142e565b9050919050565b6000819050919050565b6124b683612481565b6124ca6124c2826124a3565b848454612425565b825550505050565b600090565b6124df6124d2565b6124ea8184846124ad565b505050565b5b8181101561250e576125036000826124d7565b6001810190506124f0565b5050565b601f82111561255357612524816120fd565b61252d84612408565b8101602085101561253c578190505b61255061254885612408565b8301826124ef565b50505b505050565b600082821c905092915050565b600061257660001984600802612558565b1980831691505092915050565b600061258f8383612565565b9150826002028217905092915050565b6125a882611510565b67ffffffffffffffff8111156125c1576125c061194e565b5b6125cb8254611cda565b6125d6828285612512565b600060209050601f83116001811461260957600084156125f7578287015190505b6126018582612583565b865550612669565b601f198416612617866120fd565b60005b8281101561263f5784890151825560018201915060208501945060208101905061261a565b8683101561265c5784890151612658601f891682612565565b8355505b6001600288020188555050505b505050505050565b6000602082019050818103600083015261268b8184611567565b905092915050565b7f596f7520617265206e6f74207468652063616d706169676e2063726561746f7260008201527f2100000000000000000000000000000000000000000000000000000000000000602082015250565b60006126ef60218361151b565b91506126fa82612693565b604082019050919050565b6000602082019050818103600083015261271e816126e2565b9050919050565b6000602082019050818103600083015261273f8184612112565b90509291505056fea26469706673582212209935d631a27a0aaa202bb7dadfd595c4be0f283ad86e32ca0a47d565852dcdc564736f6c63430008120033",
  "linkReferences": {},
  "deployedLinkReferences": {}
}