{
  "_format": "hh-sol-artifact-1",
  "contractName": "CrowdFunding",
  "sourceName": "contracts/CrowdFunding.sol",
  "abi": [
    {
      "inputs": [],
      "stateMutability": "payable",
      "type": "constructor"
    },
    {
      "anonymous": false,
      "inputs": [
        {
          "indexed": true,
          "internalType": "address",
          "name": "sender",
          "type": "address"
        },
        {
          "indexed": false,
          "internalType": "string",
          "name": "title",
          "type": "string"
        }
      ],
      "name": "CampaignCreated",
      "type": "event"
    },
    {
      "anonymous": false,
      "inputs": [
        {
          "indexed": true,
          "internalType": "address",
          "name": "sender",
          "type": "address"
        },
        {
          "indexed": false,
          "internalType": "string",
          "name": "title",
          "type": "string"
        }
      ],
      "name": "CampaignEdited",
      "type": "event"
    },
    {
      "inputs": [
        {
          "internalType": "uint256",
          "name": "",
          "type": "uint256"
        }
      ],
      "name": "campaigns",
      "outputs": [
        {
          "internalType": "uint256",
          "name": "id",
          "type": "uint256"
        },
        {
          "internalType": "address",
          "name": "creator",
          "type": "address"
        },
        {
          "internalType": "string",
          "name": "fullname",
          "type": "string"
        },
        {
          "internalType": "string",
          "name": "title",
          "type": "string"
        },
        {
          "internalType": "string",
          "name": "story",
          "type": "string"
        },
        {
          "internalType": "uint256",
          "name": "goalAmount",
          "type": "uint256"
        },
        {
          "internalType": "uint256",
          "name": "currentAmount",
          "type": "uint256"
        },
        {
          "internalType": "uint256",
          "name": "deadline",
          "type": "uint256"
        }
      ],
      "stateMutability": "view",
      "type": "function"
    },
    {
      "inputs": [
        {
          "internalType": "string",
          "name": "_fullname",
          "type": "string"
        },
        {
          "internalType": "string",
          "name": "_title",
          "type": "string"
        },
        {
          "internalType": "string",
          "name": "_story",
          "type": "string"
        },
        {
          "internalType": "uint256",
          "name": "_goalAmount",
          "type": "uint256"
        },
        {
          "internalType": "uint256",
          "name": "_deadline",
          "type": "uint256"
        }
      ],
      "name": "createCampaign",
      "outputs": [],
      "stateMutability": "nonpayable",
      "type": "function"
    },
    {
      "inputs": [
        {
          "internalType": "uint256",
          "name": "_campaignId",
          "type": "uint256"
        },
        {
          "internalType": "string",
          "name": "_fullname",
          "type": "string"
        },
        {
          "internalType": "string",
          "name": "_title",
          "type": "string"
        },
        {
          "internalType": "string",
          "name": "_story",
          "type": "string"
        },
        {
          "internalType": "uint256",
          "name": "_goalAmount",
          "type": "uint256"
        },
        {
          "internalType": "uint256",
          "name": "_deadline",
          "type": "uint256"
        }
      ],
      "name": "editCampaign",
      "outputs": [],
      "stateMutability": "nonpayable",
      "type": "function"
    },
    {
      "inputs": [
        {
          "internalType": "uint256",
          "name": "_pageSize",
          "type": "uint256"
        },
        {
          "internalType": "uint256",
          "name": "_pageNumber",
          "type": "uint256"
        }
      ],
      "name": "getUserCampaigns",
      "outputs": [
        {
          "components": [
            {
              "internalType": "uint256",
              "name": "id",
              "type": "uint256"
            },
            {
              "internalType": "address",
              "name": "creator",
              "type": "address"
            },
            {
              "internalType": "string",
              "name": "fullname",
              "type": "string"
            },
            {
              "internalType": "string",
              "name": "title",
              "type": "string"
            },
            {
              "internalType": "string",
              "name": "story",
              "type": "string"
            },
            {
              "internalType": "uint256",
              "name": "goalAmount",
              "type": "uint256"
            },
            {
              "internalType": "uint256",
              "name": "currentAmount",
              "type": "uint256"
            },
            {
              "internalType": "uint256",
              "name": "deadline",
              "type": "uint256"
            }
          ],
          "internalType": "struct CrowdFunding.Campaign[]",
          "name": "",
          "type": "tuple[]"
        },
        {
          "internalType": "uint256",
          "name": "",
          "type": "uint256"
        },
        {
          "internalType": "uint256",
          "name": "",
          "type": "uint256"
        },
        {
          "internalType": "uint256",
          "name": "",
          "type": "uint256"
        },
        {
          "internalType": "uint256",
          "name": "",
          "type": "uint256"
        }
      ],
      "stateMutability": "view",
      "type": "function"
    },
    {
      "inputs": [],
      "name": "owner",
      "outputs": [
        {
          "internalType": "address payable",
          "name": "",
          "type": "address"
        }
      ],
      "stateMutability": "view",
      "type": "function"
    },
    {
      "inputs": [],
      "name": "totalCampaigns",
      "outputs": [
        {
          "internalType": "uint256",
          "name": "",
          "type": "uint256"
        }
      ],
      "stateMutability": "view",
      "type": "function"
    },
    {
      "inputs": [
        {
          "internalType": "address",
          "name": "",
          "type": "address"
        }
      ],
      "name": "users",
      "outputs": [
        {
          "internalType": "uint256",
          "name": "totalCampaigns",
          "type": "uint256"
        }
      ],
      "stateMutability": "view",
      "type": "function"
    }
  ],
  "bytecode": "0x6080604052336000806101000a81548173ffffffffffffffffffffffffffffffffffffffff021916908373ffffffffffffffffffffffffffffffffffffffff16021790555060006003819055506121a38061005b6000396000f3fe608060405234801561001057600080fd5b506004361061007d5760003560e01c80638da5cb5b1161005b5780638da5cb5b1461010b578063980f2e6614610129578063a87430ba14610145578063e1a783a0146101755761007d565b806302932f5614610082578063141961bc146100a05780633e3b6675146100d7575b600080fd5b61008a610191565b6040516100979190611017565b60405180910390f35b6100ba60048036038101906100b59190611072565b610197565b6040516100ce989796959493929190611170565b60405180910390f35b6100f160048036038101906100ec9190611203565b610397565b60405161010295949392919061142b565b60405180910390f35b610113610880565b60405161012091906114a6565b60405180910390f35b610143600480360381019061013e91906115f6565b6108a4565b005b61015f600480360381019061015a91906116f1565b610c8e565b60405161016c9190611017565b60405180910390f35b61018f600480360381019061018a919061171e565b610cac565b005b60035481565b60026020528060005260406000206000915090508060000154908060010160009054906101000a900473ffffffffffffffffffffffffffffffffffffffff16908060020180546101e69061182e565b80601f01602080910402602001604051908101604052809291908181526020018280546102129061182e565b801561025f5780601f106102345761010080835404028352916020019161025f565b820191906000526020600020905b81548152906001019060200180831161024257829003601f168201915b5050505050908060030180546102749061182e565b80601f01602080910402602001604051908101604052809291908181526020018280546102a09061182e565b80156102ed5780601f106102c2576101008083540402835291602001916102ed565b820191906000526020600020905b8154815290600101906020018083116102d057829003601f168201915b5050505050908060040180546103029061182e565b80601f016020809104026020016040519081016040528092919081815260200182805461032e9061182e565b801561037b5780601f106103505761010080835404028352916020019161037b565b820191906000526020600020905b81548152906001019060200180831161035e57829003601f168201915b5050505050908060050154908060060154908060070154905088565b6060600080600080600087116103e2576040517f08c379a00000000000000000000000000000000000000000000000000000000081526004016103d9906118ab565b60405180910390fd5b60008611610425576040517f08c379a000000000000000000000000000000000000000000000000000000000815260040161041c90611917565b60405180910390fd5b6000600160003373ffffffffffffffffffffffffffffffffffffffff1673ffffffffffffffffffffffffffffffffffffffff168152602001908152602001600020905060008860018a846000015461047d9190611966565b610487919061199a565b61049191906119fd565b905060008082116104a35760006104bc565b6001896104b0919061199a565b8a6104bb9190611a2e565b5b905060008360000154828c6104d19190611966565b116104e757818b6104e29190611966565b6104ed565b83600001545b9050600082826104fd919061199a565b67ffffffffffffffff811115610516576105156114cb565b5b60405190808252806020026020018201604052801561054f57816020015b61053c610fa3565b8152602001906001900390816105345790505b50905060005b81518110156108085760006002600088600101600085896105769190611966565b815260200190815260200160002054815260200190815260200160002060405180610100016040529081600082015481526020016001820160009054906101000a900473ffffffffffffffffffffffffffffffffffffffff1673ffffffffffffffffffffffffffffffffffffffff1673ffffffffffffffffffffffffffffffffffffffff16815260200160028201805461060f9061182e565b80601f016020809104026020016040519081016040528092919081815260200182805461063b9061182e565b80156106885780601f1061065d57610100808354040283529160200191610688565b820191906000526020600020905b81548152906001019060200180831161066b57829003601f168201915b505050505081526020016003820180546106a19061182e565b80601f01602080910402602001604051908101604052809291908181526020018280546106cd9061182e565b801561071a5780601f106106ef5761010080835404028352916020019161071a565b820191906000526020600020905b8154815290600101906020018083116106fd57829003601f168201915b505050505081526020016004820180546107339061182e565b80601f016020809104026020016040519081016040528092919081815260200182805461075f9061182e565b80156107ac5780601f10610781576101008083540402835291602001916107ac565b820191906000526020600020905b81548152906001019060200180831161078f57829003601f168201915b5050505050815260200160058201548152602001600682015481526020016007820154815250509050808383815181106107e9576107e8611a70565b5b602002602001018190525050808061080090611a9f565b915050610555565b506000848c106108185784610826565b60018c6108259190611966565b5b9050600060018d11610839576001610847565b60018d610846919061199a565b5b90506000861161085857600061085a565b805b90508287600001548784849b509b509b509b509b50505050505050509295509295909350565b60008054906101000a900473ffffffffffffffffffffffffffffffffffffffff1681565b84848484844281116108eb576040517f08c379a00000000000000000000000000000000000000000000000000000000081526004016108e290611b33565b60405180910390fd5b6000821161092e576040517f08c379a000000000000000000000000000000000000000000000000000000000815260040161092590611bc5565b60405180910390fd5b6000855111610972576040517f08c379a000000000000000000000000000000000000000000000000000000000815260040161096990611c31565b60405180910390fd5b60008451116109b6576040517f08c379a00000000000000000000000000000000000000000000000000000000081526004016109ad90611c9d565b60405180910390fd5b60008351116109fa576040517f08c379a00000000000000000000000000000000000000000000000000000000081526004016109f190611d09565b60405180910390fd5b600060405180610100016040528060035481526020013373ffffffffffffffffffffffffffffffffffffffff1681526020018c81526020018b81526020018a815260200189815260200160008152602001888152509050806002600060035481526020019081526020016000206000820151816000015560208201518160010160006101000a81548173ffffffffffffffffffffffffffffffffffffffff021916908373ffffffffffffffffffffffffffffffffffffffff1602179055506040820151816002019081610acd9190611ed5565b506060820151816003019081610ae39190611ed5565b506080820151816004019081610af99190611ed5565b5060a0820151816005015560c0820151816006015560e082015181600701559050506000600160003373ffffffffffffffffffffffffffffffffffffffff1673ffffffffffffffffffffffffffffffffffffffff1681526020019081526020016000206000015490508160000151600160003373ffffffffffffffffffffffffffffffffffffffff1673ffffffffffffffffffffffffffffffffffffffff168152602001908152602001600020600101600083815260200190815260200160002081905550600160003373ffffffffffffffffffffffffffffffffffffffff1673ffffffffffffffffffffffffffffffffffffffff1681526020019081526020016000206000016000815480929190610c1190611a9f565b919050555060036000815480929190610c2990611a9f565b91905055503373ffffffffffffffffffffffffffffffffffffffff167f17dd0b5f0975f4651b002ed3b016428bae979f5704d8b2473931b2312185c05a8360600151604051610c789190611fa7565b60405180910390a2505050505050505050505050565b60016020528060005260406000206000915090508060000154905081565b8484848484428111610cf3576040517f08c379a0000000000000000000000000000000000000000000000000000000008152600401610cea90611b33565b60405180910390fd5b60008211610d36576040517f08c379a0000000000000000000000000000000000000000000000000000000008152600401610d2d90611bc5565b60405180910390fd5b6000855111610d7a576040517f08c379a0000000000000000000000000000000000000000000000000000000008152600401610d7190611c31565b60405180910390fd5b6000845111610dbe576040517f08c379a0000000000000000000000000000000000000000000000000000000008152600401610db590611c9d565b60405180910390fd5b6000835111610e02576040517f08c379a0000000000000000000000000000000000000000000000000000000008152600401610df990611d09565b60405180910390fd5b6000600260008d8152602001908152602001600020905060008c10158015610e2b57506003548c105b610e6a576040517f08c379a0000000000000000000000000000000000000000000000000000000008152600401610e6190612015565b60405180910390fd5b3373ffffffffffffffffffffffffffffffffffffffff168160010160009054906101000a900473ffffffffffffffffffffffffffffffffffffffff1673ffffffffffffffffffffffffffffffffffffffff1614610efc576040517f08c379a0000000000000000000000000000000000000000000000000000000008152600401610ef3906120a7565b60405180910390fd5b8a816002019081610f0d9190611ed5565b5089816003019081610f1f9190611ed5565b5088816004019081610f319190611ed5565b508781600501819055508681600701819055503373ffffffffffffffffffffffffffffffffffffffff167fb961c338b427968a67f1a3560907d7075a0d1fca0c2d16dcb76da3a963cfe37382600301604051610f8d919061214b565b60405180910390a2505050505050505050505050565b60405180610100016040528060008152602001600073ffffffffffffffffffffffffffffffffffffffff1681526020016060815260200160608152602001606081526020016000815260200160008152602001600081525090565b6000819050919050565b61101181610ffe565b82525050565b600060208201905061102c6000830184611008565b92915050565b6000604051905090565b600080fd5b600080fd5b61104f81610ffe565b811461105a57600080fd5b50565b60008135905061106c81611046565b92915050565b6000602082840312156110885761108761103c565b5b60006110968482850161105d565b91505092915050565b600073ffffffffffffffffffffffffffffffffffffffff82169050919050565b60006110ca8261109f565b9050919050565b6110da816110bf565b82525050565b600081519050919050565b600082825260208201905092915050565b60005b8381101561111a5780820151818401526020810190506110ff565b60008484015250505050565b6000601f19601f8301169050919050565b6000611142826110e0565b61114c81856110eb565b935061115c8185602086016110fc565b61116581611126565b840191505092915050565b600061010082019050611186600083018b611008565b611193602083018a6110d1565b81810360408301526111a58189611137565b905081810360608301526111b98188611137565b905081810360808301526111cd8187611137565b90506111dc60a0830186611008565b6111e960c0830185611008565b6111f660e0830184611008565b9998505050505050505050565b6000806040838503121561121a5761121961103c565b5b60006112288582860161105d565b92505060206112398582860161105d565b9150509250929050565b600081519050919050565b600082825260208201905092915050565b6000819050602082019050919050565b61127881610ffe565b82525050565b611287816110bf565b82525050565b600082825260208201905092915050565b60006112a9826110e0565b6112b3818561128d565b93506112c38185602086016110fc565b6112cc81611126565b840191505092915050565b6000610100830160008301516112f0600086018261126f565b506020830151611303602086018261127e565b506040830151848203604086015261131b828261129e565b91505060608301518482036060860152611335828261129e565b9150506080830151848203608086015261134f828261129e565b91505060a083015161136460a086018261126f565b5060c083015161137760c086018261126f565b5060e083015161138a60e086018261126f565b508091505092915050565b60006113a183836112d7565b905092915050565b6000602082019050919050565b60006113c182611243565b6113cb818561124e565b9350836020820285016113dd8561125f565b8060005b8581101561141957848403895281516113fa8582611395565b9450611405836113a9565b925060208a019950506001810190506113e1565b50829750879550505050505092915050565b600060a082019050818103600083015261144581886113b6565b90506114546020830187611008565b6114616040830186611008565b61146e6060830185611008565b61147b6080830184611008565b9695505050505050565b60006114908261109f565b9050919050565b6114a081611485565b82525050565b60006020820190506114bb6000830184611497565b92915050565b600080fd5b600080fd5b7f4e487b7100000000000000000000000000000000000000000000000000000000600052604160045260246000fd5b61150382611126565b810181811067ffffffffffffffff82111715611522576115216114cb565b5b80604052505050565b6000611535611032565b905061154182826114fa565b919050565b600067ffffffffffffffff821115611561576115606114cb565b5b61156a82611126565b9050602081019050919050565b82818337600083830152505050565b600061159961159484611546565b61152b565b9050828152602081018484840111156115b5576115b46114c6565b5b6115c0848285611577565b509392505050565b600082601f8301126115dd576115dc6114c1565b5b81356115ed848260208601611586565b91505092915050565b600080600080600060a086880312156116125761161161103c565b5b600086013567ffffffffffffffff8111156116305761162f611041565b5b61163c888289016115c8565b955050602086013567ffffffffffffffff81111561165d5761165c611041565b5b611669888289016115c8565b945050604086013567ffffffffffffffff81111561168a57611689611041565b5b611696888289016115c8565b93505060606116a78882890161105d565b92505060806116b88882890161105d565b9150509295509295909350565b6116ce816110bf565b81146116d957600080fd5b50565b6000813590506116eb816116c5565b92915050565b6000602082840312156117075761170661103c565b5b6000611715848285016116dc565b91505092915050565b60008060008060008060c0878903121561173b5761173a61103c565b5b600061174989828a0161105d565b965050602087013567ffffffffffffffff81111561176a57611769611041565b5b61177689828a016115c8565b955050604087013567ffffffffffffffff81111561179757611796611041565b5b6117a389828a016115c8565b945050606087013567ffffffffffffffff8111156117c4576117c3611041565b5b6117d089828a016115c8565b93505060806117e189828a0161105d565b92505060a06117f289828a0161105d565b9150509295509295509295565b7f4e487b7100000000000000000000000000000000000000000000000000000000600052602260045260246000fd5b6000600282049050600182168061184657607f821691505b602082108103611859576118586117ff565b5b50919050565b7f506167652073697a652063616e6e6f7420626520300000000000000000000000600082015250565b60006118956015836110eb565b91506118a08261185f565b602082019050919050565b600060208201905081810360008301526118c481611888565b9050919050565b7f50616765206e756d6265722063616e6e6f742062652030000000000000000000600082015250565b60006119016017836110eb565b915061190c826118cb565b602082019050919050565b60006020820190508181036000830152611930816118f4565b9050919050565b7f4e487b7100000000000000000000000000000000000000000000000000000000600052601160045260246000fd5b600061197182610ffe565b915061197c83610ffe565b925082820190508082111561199457611993611937565b5b92915050565b60006119a582610ffe565b91506119b083610ffe565b92508282039050818111156119c8576119c7611937565b5b92915050565b7f4e487b7100000000000000000000000000000000000000000000000000000000600052601260045260246000fd5b6000611a0882610ffe565b9150611a1383610ffe565b925082611a2357611a226119ce565b5b828204905092915050565b6000611a3982610ffe565b9150611a4483610ffe565b9250828202611a5281610ffe565b91508282048414831517611a6957611a68611937565b5b5092915050565b7f4e487b7100000000000000000000000000000000000000000000000000000000600052603260045260246000fd5b6000611aaa82610ffe565b91507fffffffffffffffffffffffffffffffffffffffffffffffffffffffffffffffff8203611adc57611adb611937565b5b600182019050919050565b7f446174652073686f756c64206265206675747572652064617465000000000000600082015250565b6000611b1d601a836110eb565b9150611b2882611ae7565b602082019050919050565b60006020820190508181036000830152611b4c81611b10565b9050919050565b7f476f616c20616d6f756e742073686f756c64206265206d6f7265207468616e2060008201527f3000000000000000000000000000000000000000000000000000000000000000602082015250565b6000611baf6021836110eb565b9150611bba82611b53565b604082019050919050565b60006020820190508181036000830152611bde81611ba2565b9050919050565b7f46756c6c206e616d652063616e6e6f7420626520656d70747900000000000000600082015250565b6000611c1b6019836110eb565b9150611c2682611be5565b602082019050919050565b60006020820190508181036000830152611c4a81611c0e565b9050919050565b7f5469746c652063616e6e6f7420626520656d7074790000000000000000000000600082015250565b6000611c876015836110eb565b9150611c9282611c51565b602082019050919050565b60006020820190508181036000830152611cb681611c7a565b9050919050565b7f53746f72792063616e6e6f7420626520656d7074790000000000000000000000600082015250565b6000611cf36015836110eb565b9150611cfe82611cbd565b602082019050919050565b60006020820190508181036000830152611d2281611ce6565b9050919050565b60008190508160005260206000209050919050565b60006020601f8301049050919050565b600082821b905092915050565b600060088302611d8b7fffffffffffffffffffffffffffffffffffffffffffffffffffffffffffffffff82611d4e565b611d958683611d4e565b95508019841693508086168417925050509392505050565b6000819050919050565b6000611dd2611dcd611dc884610ffe565b611dad565b610ffe565b9050919050565b6000819050919050565b611dec83611db7565b611e00611df882611dd9565b848454611d5b565b825550505050565b600090565b611e15611e08565b611e20818484611de3565b505050565b5b81811015611e4457611e39600082611e0d565b600181019050611e26565b5050565b601f821115611e8957611e5a81611d29565b611e6384611d3e565b81016020851015611e72578190505b611e86611e7e85611d3e565b830182611e25565b50505b505050565b600082821c905092915050565b6000611eac60001984600802611e8e565b1980831691505092915050565b6000611ec58383611e9b565b9150826002028217905092915050565b611ede826110e0565b67ffffffffffffffff811115611ef757611ef66114cb565b5b611f01825461182e565b611f0c828285611e48565b600060209050601f831160018114611f3f5760008415611f2d578287015190505b611f378582611eb9565b865550611f9f565b601f198416611f4d86611d29565b60005b82811015611f7557848901518255600182019150602085019450602081019050611f50565b86831015611f925784890151611f8e601f891682611e9b565b8355505b6001600288020188555050505b505050505050565b60006020820190508181036000830152611fc18184611137565b905092915050565b7f496e76616c69642063616d706169676e20494400000000000000000000000000600082015250565b6000611fff6013836110eb565b915061200a82611fc9565b602082019050919050565b6000602082019050818103600083015261202e81611ff2565b9050919050565b7f596f7520617265206e6f74207468652063616d706169676e2063726561746f7260008201527f2100000000000000000000000000000000000000000000000000000000000000602082015250565b60006120916021836110eb565b915061209c82612035565b604082019050919050565b600060208201905081810360008301526120c081612084565b9050919050565b600081546120d48161182e565b6120de81866110eb565b945060018216600081146120f9576001811461210f57612142565b60ff198316865281151560200286019350612142565b61211885611d29565b60005b8381101561213a5781548189015260018201915060208101905061211b565b808801955050505b50505092915050565b6000602082019050818103600083015261216581846120c7565b90509291505056fea2646970667358221220308461f799419752504ebb76ab4c4c552ca21bee7dc25d660549e902c7e801ca64736f6c63430008120033",
  "linkReferences": {},
  "deployedLinkReferences": {}
}