{
  "_format": "hh-sol-artifact-1",
  "contractName": "CrowdFunding",
  "sourceName": "contracts/CrowdFunding.sol",
  "abi": [
    {
      "inputs": [],
      "stateMutability": "payable",
      "type": "constructor"
    },
    {
      "anonymous": false,
      "inputs": [
        {
          "indexed": true,
          "internalType": "address",
          "name": "sender",
          "type": "address"
        },
        {
          "indexed": false,
          "internalType": "uint256",
          "name": "id",
          "type": "uint256"
        }
      ],
      "name": "CampaignCreated",
      "type": "event"
    },
    {
      "inputs": [
        {
          "internalType": "uint256",
          "name": "",
          "type": "uint256"
        }
      ],
      "name": "campaigns",
      "outputs": [
        {
          "internalType": "uint256",
          "name": "id",
          "type": "uint256"
        },
        {
          "internalType": "address",
          "name": "creator",
          "type": "address"
        },
        {
          "internalType": "string",
          "name": "fullname",
          "type": "string"
        },
        {
          "internalType": "string",
          "name": "title",
          "type": "string"
        },
        {
          "internalType": "string",
          "name": "story",
          "type": "string"
        },
        {
          "internalType": "uint256",
          "name": "goalAmount",
          "type": "uint256"
        },
        {
          "internalType": "uint256",
          "name": "currentAmount",
          "type": "uint256"
        },
        {
          "internalType": "uint256",
          "name": "deadline",
          "type": "uint256"
        }
      ],
      "stateMutability": "view",
      "type": "function"
    },
    {
      "inputs": [
        {
          "internalType": "string",
          "name": "_fullname",
          "type": "string"
        },
        {
          "internalType": "string",
          "name": "_title",
          "type": "string"
        },
        {
          "internalType": "string",
          "name": "_story",
          "type": "string"
        },
        {
          "internalType": "uint256",
          "name": "_goalAmount",
          "type": "uint256"
        },
        {
          "internalType": "uint256",
          "name": "_deadline",
          "type": "uint256"
        }
      ],
      "name": "createCampaign",
      "outputs": [],
      "stateMutability": "nonpayable",
      "type": "function"
    },
    {
      "inputs": [],
      "name": "owner",
      "outputs": [
        {
          "internalType": "address payable",
          "name": "",
          "type": "address"
        }
      ],
      "stateMutability": "view",
      "type": "function"
    },
    {
      "inputs": [],
      "name": "totalCampaigns",
      "outputs": [
        {
          "internalType": "uint256",
          "name": "",
          "type": "uint256"
        }
      ],
      "stateMutability": "view",
      "type": "function"
    },
    {
      "inputs": [
        {
          "internalType": "address",
          "name": "",
          "type": "address"
        }
      ],
      "name": "users",
      "outputs": [
        {
          "internalType": "uint256",
          "name": "totalCampaigns",
          "type": "uint256"
        }
      ],
      "stateMutability": "view",
      "type": "function"
    }
  ],
  "bytecode": "0x6080604052336000806101000a81548173ffffffffffffffffffffffffffffffffffffffff021916908373ffffffffffffffffffffffffffffffffffffffff16021790555060006003819055506112988061005b6000396000f3fe608060405234801561001057600080fd5b50600436106100575760003560e01c806302932f561461005c578063141961bc1461007a5780638da5cb5b146100b1578063980f2e66146100cf578063a87430ba146100eb575b600080fd5b61006461011b565b6040516100719190610812565b60405180910390f35b610094600480360381019061008f919061086d565b610121565b6040516100a898979695949392919061096b565b60405180910390f35b6100b9610321565b6040516100c69190610a1f565b60405180910390f35b6100e960048036038101906100e49190610b6f565b610345565b005b61010560048036038101906101009190610c6a565b6107db565b6040516101129190610812565b60405180910390f35b60035481565b60026020528060005260406000206000915090508060000154908060010160009054906101000a900473ffffffffffffffffffffffffffffffffffffffff169080600201805461017090610cc6565b80601f016020809104026020016040519081016040528092919081815260200182805461019c90610cc6565b80156101e95780601f106101be576101008083540402835291602001916101e9565b820191906000526020600020905b8154815290600101906020018083116101cc57829003601f168201915b5050505050908060030180546101fe90610cc6565b80601f016020809104026020016040519081016040528092919081815260200182805461022a90610cc6565b80156102775780601f1061024c57610100808354040283529160200191610277565b820191906000526020600020905b81548152906001019060200180831161025a57829003601f168201915b50505050509080600401805461028c90610cc6565b80601f01602080910402602001604051908101604052809291908181526020018280546102b890610cc6565b80156103055780601f106102da57610100808354040283529160200191610305565b820191906000526020600020905b8154815290600101906020018083116102e857829003601f168201915b5050505050908060050154908060060154908060070154905088565b60008054906101000a900473ffffffffffffffffffffffffffffffffffffffff1681565b428111610387576040517f08c379a000000000000000000000000000000000000000000000000000000000815260040161037e90610d43565b60405180910390fd5b600082116103ca576040517f08c379a00000000000000000000000000000000000000000000000000000000081526004016103c190610dd5565b60405180910390fd5b600085511161040e576040517f08c379a000000000000000000000000000000000000000000000000000000000815260040161040590610e41565b60405180910390fd5b6000845111610452576040517f08c379a000000000000000000000000000000000000000000000000000000000815260040161044990610ead565b60405180910390fd5b6000835111610496576040517f08c379a000000000000000000000000000000000000000000000000000000000815260040161048d90610f19565b60405180910390fd5b600060405180610100016040528060035481526020013373ffffffffffffffffffffffffffffffffffffffff16815260200187815260200186815260200185815260200184815260200160008152602001838152509050806002600060035481526020019081526020016000206000820151816000015560208201518160010160006101000a81548173ffffffffffffffffffffffffffffffffffffffff021916908373ffffffffffffffffffffffffffffffffffffffff160217905550604082015181600201908161056991906110e5565b50606082015181600301908161057f91906110e5565b50608082015181600401908161059591906110e5565b5060a0820151816005015560c0820151816006015560e082015181600701559050506000600160003373ffffffffffffffffffffffffffffffffffffffff1673ffffffffffffffffffffffffffffffffffffffff16815260200190815260200160002060000154905081600160003373ffffffffffffffffffffffffffffffffffffffff1673ffffffffffffffffffffffffffffffffffffffff16815260200190815260200160002060010160008381526020019081526020016000206000820151816000015560208201518160010160006101000a81548173ffffffffffffffffffffffffffffffffffffffff021916908373ffffffffffffffffffffffffffffffffffffffff16021790555060408201518160020190816106b891906110e5565b5060608201518160030190816106ce91906110e5565b5060808201518160040190816106e491906110e5565b5060a0820151816005015560c0820151816006015560e08201518160070155905050600160003373ffffffffffffffffffffffffffffffffffffffff1673ffffffffffffffffffffffffffffffffffffffff1681526020019081526020016000206000016000815480929190610759906111e6565b919050555060036000815480929190610771906111e6565b91905055503373ffffffffffffffffffffffffffffffffffffffff167ffc5b9d1c2c1134048e1792e3ae27d4eee04f460d341711c7088000d2ca21862160016003546107bd919061122e565b6040516107ca9190610812565b60405180910390a250505050505050565b60016020528060005260406000206000915090508060000154905081565b6000819050919050565b61080c816107f9565b82525050565b60006020820190506108276000830184610803565b92915050565b6000604051905090565b600080fd5b600080fd5b61084a816107f9565b811461085557600080fd5b50565b60008135905061086781610841565b92915050565b60006020828403121561088357610882610837565b5b600061089184828501610858565b91505092915050565b600073ffffffffffffffffffffffffffffffffffffffff82169050919050565b60006108c58261089a565b9050919050565b6108d5816108ba565b82525050565b600081519050919050565b600082825260208201905092915050565b60005b838110156109155780820151818401526020810190506108fa565b60008484015250505050565b6000601f19601f8301169050919050565b600061093d826108db565b61094781856108e6565b93506109578185602086016108f7565b61096081610921565b840191505092915050565b600061010082019050610981600083018b610803565b61098e602083018a6108cc565b81810360408301526109a08189610932565b905081810360608301526109b48188610932565b905081810360808301526109c88187610932565b90506109d760a0830186610803565b6109e460c0830185610803565b6109f160e0830184610803565b9998505050505050505050565b6000610a098261089a565b9050919050565b610a19816109fe565b82525050565b6000602082019050610a346000830184610a10565b92915050565b600080fd5b600080fd5b7f4e487b7100000000000000000000000000000000000000000000000000000000600052604160045260246000fd5b610a7c82610921565b810181811067ffffffffffffffff82111715610a9b57610a9a610a44565b5b80604052505050565b6000610aae61082d565b9050610aba8282610a73565b919050565b600067ffffffffffffffff821115610ada57610ad9610a44565b5b610ae382610921565b9050602081019050919050565b82818337600083830152505050565b6000610b12610b0d84610abf565b610aa4565b905082815260208101848484011115610b2e57610b2d610a3f565b5b610b39848285610af0565b509392505050565b600082601f830112610b5657610b55610a3a565b5b8135610b66848260208601610aff565b91505092915050565b600080600080600060a08688031215610b8b57610b8a610837565b5b600086013567ffffffffffffffff811115610ba957610ba861083c565b5b610bb588828901610b41565b955050602086013567ffffffffffffffff811115610bd657610bd561083c565b5b610be288828901610b41565b945050604086013567ffffffffffffffff811115610c0357610c0261083c565b5b610c0f88828901610b41565b9350506060610c2088828901610858565b9250506080610c3188828901610858565b9150509295509295909350565b610c47816108ba565b8114610c5257600080fd5b50565b600081359050610c6481610c3e565b92915050565b600060208284031215610c8057610c7f610837565b5b6000610c8e84828501610c55565b91505092915050565b7f4e487b7100000000000000000000000000000000000000000000000000000000600052602260045260246000fd5b60006002820490506001821680610cde57607f821691505b602082108103610cf157610cf0610c97565b5b50919050565b7f446174652073686f756c64206265206675747572652064617465000000000000600082015250565b6000610d2d601a836108e6565b9150610d3882610cf7565b602082019050919050565b60006020820190508181036000830152610d5c81610d20565b9050919050565b7f476f616c20616d6f756e742073686f756c64206265206d6f7265207468616e2060008201527f3000000000000000000000000000000000000000000000000000000000000000602082015250565b6000610dbf6021836108e6565b9150610dca82610d63565b604082019050919050565b60006020820190508181036000830152610dee81610db2565b9050919050565b7f46756c6c206e616d652063616e6e6f7420626520656d70747900000000000000600082015250565b6000610e2b6019836108e6565b9150610e3682610df5565b602082019050919050565b60006020820190508181036000830152610e5a81610e1e565b9050919050565b7f5469746c652063616e6e6f7420626520656d7074790000000000000000000000600082015250565b6000610e976015836108e6565b9150610ea282610e61565b602082019050919050565b60006020820190508181036000830152610ec681610e8a565b9050919050565b7f53746f72792063616e6e6f7420626520656d7074790000000000000000000000600082015250565b6000610f036015836108e6565b9150610f0e82610ecd565b602082019050919050565b60006020820190508181036000830152610f3281610ef6565b9050919050565b60008190508160005260206000209050919050565b60006020601f8301049050919050565b600082821b905092915050565b600060088302610f9b7fffffffffffffffffffffffffffffffffffffffffffffffffffffffffffffffff82610f5e565b610fa58683610f5e565b95508019841693508086168417925050509392505050565b6000819050919050565b6000610fe2610fdd610fd8846107f9565b610fbd565b6107f9565b9050919050565b6000819050919050565b610ffc83610fc7565b61101061100882610fe9565b848454610f6b565b825550505050565b600090565b611025611018565b611030818484610ff3565b505050565b5b818110156110545761104960008261101d565b600181019050611036565b5050565b601f8211156110995761106a81610f39565b61107384610f4e565b81016020851015611082578190505b61109661108e85610f4e565b830182611035565b50505b505050565b600082821c905092915050565b60006110bc6000198460080261109e565b1980831691505092915050565b60006110d583836110ab565b9150826002028217905092915050565b6110ee826108db565b67ffffffffffffffff81111561110757611106610a44565b5b6111118254610cc6565b61111c828285611058565b600060209050601f83116001811461114f576000841561113d578287015190505b61114785826110c9565b8655506111af565b601f19841661115d86610f39565b60005b8281101561118557848901518255600182019150602085019450602081019050611160565b868310156111a2578489015161119e601f8916826110ab565b8355505b6001600288020188555050505b505050505050565b7f4e487b7100000000000000000000000000000000000000000000000000000000600052601160045260246000fd5b60006111f1826107f9565b91507fffffffffffffffffffffffffffffffffffffffffffffffffffffffffffffffff8203611223576112226111b7565b5b600182019050919050565b6000611239826107f9565b9150611244836107f9565b925082820390508181111561125c5761125b6111b7565b5b9291505056fea2646970667358221220c62d1a1efdc2880f9fc7d86d3785a6152bec7cd1a78e2e3c23cb3153996bc86264736f6c63430008120033",
  "linkReferences": {},
  "deployedLinkReferences": {}
}