{
  "_format": "hh-sol-artifact-1",
  "contractName": "CrowdFunding",
  "sourceName": "contracts/CrowdFunding.sol",
  "abi": [
    {
      "inputs": [],
      "stateMutability": "payable",
      "type": "constructor"
    },
    {
      "anonymous": false,
      "inputs": [
        {
          "indexed": true,
          "internalType": "address",
          "name": "sender",
          "type": "address"
        },
        {
          "indexed": false,
          "internalType": "string",
          "name": "title",
          "type": "string"
        }
      ],
      "name": "CampaignCreated",
      "type": "event"
    },
    {
      "anonymous": false,
      "inputs": [
        {
          "indexed": true,
          "internalType": "address",
          "name": "sender",
          "type": "address"
        },
        {
          "indexed": false,
          "internalType": "string",
          "name": "title",
          "type": "string"
        }
      ],
      "name": "CampaignEdited",
      "type": "event"
    },
    {
      "anonymous": false,
      "inputs": [
        {
          "indexed": true,
          "internalType": "address",
          "name": "sender",
          "type": "address"
        },
        {
          "indexed": false,
          "internalType": "string",
          "name": "title",
          "type": "string"
        },
        {
          "indexed": false,
          "internalType": "uint256",
          "name": "amount",
          "type": "uint256"
        }
      ],
      "name": "DonationSent",
      "type": "event"
    },
    {
      "inputs": [
        {
          "internalType": "uint256",
          "name": "",
          "type": "uint256"
        }
      ],
      "name": "campaigns",
      "outputs": [
        {
          "internalType": "uint256",
          "name": "id",
          "type": "uint256"
        },
        {
          "internalType": "address",
          "name": "creator",
          "type": "address"
        },
        {
          "internalType": "string",
          "name": "fullname",
          "type": "string"
        },
        {
          "internalType": "string",
          "name": "title",
          "type": "string"
        },
        {
          "internalType": "string",
          "name": "story",
          "type": "string"
        },
        {
          "internalType": "uint256",
          "name": "goalAmount",
          "type": "uint256"
        },
        {
          "internalType": "uint256",
          "name": "currentAmount",
          "type": "uint256"
        },
        {
          "internalType": "uint256",
          "name": "deadline",
          "type": "uint256"
        },
        {
          "internalType": "uint256",
          "name": "totalDonations",
          "type": "uint256"
        }
      ],
      "stateMutability": "view",
      "type": "function"
    },
    {
      "inputs": [
        {
          "internalType": "string",
          "name": "_fullname",
          "type": "string"
        },
        {
          "internalType": "string",
          "name": "_title",
          "type": "string"
        },
        {
          "internalType": "string",
          "name": "_story",
          "type": "string"
        },
        {
          "internalType": "uint256",
          "name": "_goalAmount",
          "type": "uint256"
        },
        {
          "internalType": "uint256",
          "name": "_deadline",
          "type": "uint256"
        }
      ],
      "name": "createCampaign",
      "outputs": [],
      "stateMutability": "nonpayable",
      "type": "function"
    },
    {
      "inputs": [
        {
          "internalType": "uint256",
          "name": "",
          "type": "uint256"
        }
      ],
      "name": "donationTransactions",
      "outputs": [
        {
          "internalType": "uint256",
          "name": "id",
          "type": "uint256"
        },
        {
          "internalType": "uint256",
          "name": "campaignId",
          "type": "uint256"
        },
        {
          "internalType": "address",
          "name": "donor",
          "type": "address"
        },
        {
          "internalType": "uint256",
          "name": "amount",
          "type": "uint256"
        },
        {
          "internalType": "uint256",
          "name": "timestamp",
          "type": "uint256"
        }
      ],
      "stateMutability": "view",
      "type": "function"
    },
    {
      "inputs": [
        {
          "internalType": "uint256",
          "name": "_campaignId",
          "type": "uint256"
        },
        {
          "internalType": "string",
          "name": "_fullname",
          "type": "string"
        },
        {
          "internalType": "string",
          "name": "_title",
          "type": "string"
        },
        {
          "internalType": "string",
          "name": "_story",
          "type": "string"
        },
        {
          "internalType": "uint256",
          "name": "_goalAmount",
          "type": "uint256"
        },
        {
          "internalType": "uint256",
          "name": "_deadline",
          "type": "uint256"
        }
      ],
      "name": "editCampaign",
      "outputs": [],
      "stateMutability": "nonpayable",
      "type": "function"
    },
    {
      "inputs": [
        {
          "internalType": "uint256",
          "name": "_campaignId",
          "type": "uint256"
        }
      ],
      "name": "getCampaign",
      "outputs": [
        {
          "components": [
            {
              "internalType": "uint256",
              "name": "id",
              "type": "uint256"
            },
            {
              "internalType": "address",
              "name": "creator",
              "type": "address"
            },
            {
              "internalType": "string",
              "name": "fullname",
              "type": "string"
            },
            {
              "internalType": "string",
              "name": "title",
              "type": "string"
            },
            {
              "internalType": "string",
              "name": "story",
              "type": "string"
            },
            {
              "internalType": "uint256",
              "name": "goalAmount",
              "type": "uint256"
            },
            {
              "internalType": "uint256",
              "name": "currentAmount",
              "type": "uint256"
            },
            {
              "internalType": "uint256",
              "name": "deadline",
              "type": "uint256"
            },
            {
              "internalType": "uint256",
              "name": "totalDonations",
              "type": "uint256"
            }
          ],
          "internalType": "struct CrowdFunding.Campaign",
          "name": "",
          "type": "tuple"
        }
      ],
      "stateMutability": "view",
      "type": "function"
    },
    {
      "inputs": [
        {
          "internalType": "uint256",
          "name": "_campaignId",
          "type": "uint256"
        }
      ],
      "name": "getCampaignDonations",
      "outputs": [
        {
          "components": [
            {
              "internalType": "uint256",
              "name": "id",
              "type": "uint256"
            },
            {
              "internalType": "uint256",
              "name": "campaignId",
              "type": "uint256"
            },
            {
              "internalType": "address",
              "name": "donor",
              "type": "address"
            },
            {
              "internalType": "uint256",
              "name": "amount",
              "type": "uint256"
            },
            {
              "internalType": "uint256",
              "name": "timestamp",
              "type": "uint256"
            }
          ],
          "internalType": "struct CrowdFunding.DonationTransaction[]",
          "name": "allDonations",
          "type": "tuple[]"
        },
        {
          "internalType": "uint256",
          "name": "totalCampaignDonations",
          "type": "uint256"
        }
      ],
      "stateMutability": "view",
      "type": "function"
    },
    {
      "inputs": [
        {
          "internalType": "address",
          "name": "_walletAddress",
          "type": "address"
        },
        {
          "internalType": "uint256",
          "name": "_pageSize",
          "type": "uint256"
        },
        {
          "internalType": "uint256",
          "name": "_pageNumber",
          "type": "uint256"
        }
      ],
      "name": "getDonatorsByWalletAddress",
      "outputs": [
        {
          "components": [
            {
              "internalType": "address",
              "name": "userAddress",
              "type": "address"
            },
            {
              "internalType": "string",
              "name": "campaignTitle",
              "type": "string"
            },
            {
              "internalType": "uint256",
              "name": "donationAmount",
              "type": "uint256"
            }
          ],
          "internalType": "struct CrowdFunding.DonationData[]",
          "name": "donations",
          "type": "tuple[]"
        },
        {
          "internalType": "uint256",
          "name": "donatorCount",
          "type": "uint256"
        },
        {
          "internalType": "uint256",
          "name": "totalPages",
          "type": "uint256"
        },
        {
          "internalType": "uint256",
          "name": "nextPage",
          "type": "uint256"
        },
        {
          "internalType": "uint256",
          "name": "previousPage",
          "type": "uint256"
        }
      ],
      "stateMutability": "view",
      "type": "function"
    },
    {
      "inputs": [
        {
          "internalType": "uint256",
          "name": "_pageSize",
          "type": "uint256"
        },
        {
          "internalType": "uint256",
          "name": "_pageNumber",
          "type": "uint256"
        }
      ],
      "name": "getUserCampaigns",
      "outputs": [
        {
          "components": [
            {
              "internalType": "uint256",
              "name": "id",
              "type": "uint256"
            },
            {
              "internalType": "address",
              "name": "creator",
              "type": "address"
            },
            {
              "internalType": "string",
              "name": "fullname",
              "type": "string"
            },
            {
              "internalType": "string",
              "name": "title",
              "type": "string"
            },
            {
              "internalType": "string",
              "name": "story",
              "type": "string"
            },
            {
              "internalType": "uint256",
              "name": "goalAmount",
              "type": "uint256"
            },
            {
              "internalType": "uint256",
              "name": "currentAmount",
              "type": "uint256"
            },
            {
              "internalType": "uint256",
              "name": "deadline",
              "type": "uint256"
            },
            {
              "internalType": "uint256",
              "name": "totalDonations",
              "type": "uint256"
            }
          ],
          "internalType": "struct CrowdFunding.Campaign[]",
          "name": "allCampaigns",
          "type": "tuple[]"
        },
        {
          "internalType": "uint256",
          "name": "userTotalCampaigns",
          "type": "uint256"
        },
        {
          "internalType": "uint256",
          "name": "totalPages",
          "type": "uint256"
        },
        {
          "internalType": "uint256",
          "name": "nextPage",
          "type": "uint256"
        },
        {
          "internalType": "uint256",
          "name": "previousPage",
          "type": "uint256"
        }
      ],
      "stateMutability": "view",
      "type": "function"
    },
    {
      "inputs": [
        {
          "internalType": "address",
          "name": "_userAddress",
          "type": "address"
        },
        {
          "internalType": "uint256",
          "name": "_pageSize",
          "type": "uint256"
        },
        {
          "internalType": "uint256",
          "name": "_pageNumber",
          "type": "uint256"
        }
      ],
      "name": "getUserDonations",
      "outputs": [
        {
          "components": [
            {
              "internalType": "address",
              "name": "userAddress",
              "type": "address"
            },
            {
              "internalType": "string",
              "name": "campaignTitle",
              "type": "string"
            },
            {
              "internalType": "uint256",
              "name": "donationAmount",
              "type": "uint256"
            }
          ],
          "internalType": "struct CrowdFunding.DonationData[]",
          "name": "userDonations",
          "type": "tuple[]"
        },
        {
          "components": [
            {
              "internalType": "uint256",
              "name": "totalPages",
              "type": "uint256"
            },
            {
              "internalType": "uint256",
              "name": "nextPage",
              "type": "uint256"
            },
            {
              "internalType": "uint256",
              "name": "previousPage",
              "type": "uint256"
            },
            {
              "internalType": "uint256",
              "name": "startIndex",
              "type": "uint256"
            },
            {
              "internalType": "uint256",
              "name": "endIndex",
              "type": "uint256"
            }
          ],
          "internalType": "struct CrowdFunding.PaginationData",
          "name": "pagination",
          "type": "tuple"
        }
      ],
      "stateMutability": "view",
      "type": "function"
    },
    {
      "inputs": [],
      "name": "owner",
      "outputs": [
        {
          "internalType": "address payable",
          "name": "",
          "type": "address"
        }
      ],
      "stateMutability": "view",
      "type": "function"
    },
    {
      "inputs": [
        {
          "internalType": "uint256",
          "name": "_campaignId",
          "type": "uint256"
        }
      ],
      "name": "sendDonation",
      "outputs": [],
      "stateMutability": "payable",
      "type": "function"
    },
    {
      "inputs": [],
      "name": "totalCampaigns",
      "outputs": [
        {
          "internalType": "uint256",
          "name": "",
          "type": "uint256"
        }
      ],
      "stateMutability": "view",
      "type": "function"
    },
    {
      "inputs": [],
      "name": "totalDonations",
      "outputs": [
        {
          "internalType": "uint256",
          "name": "",
          "type": "uint256"
        }
      ],
      "stateMutability": "view",
      "type": "function"
    },
    {
      "inputs": [
        {
          "internalType": "address",
          "name": "",
          "type": "address"
        }
      ],
      "name": "users",
      "outputs": [
        {
          "internalType": "uint256",
          "name": "totalCampaigns",
          "type": "uint256"
        },
        {
          "internalType": "uint256",
          "name": "totalDonations",
          "type": "uint256"
        }
      ],
      "stateMutability": "view",
      "type": "function"
    }
  ],
  "bytecode": "0x6080604052336000806101000a81548173ffffffffffffffffffffffffffffffffffffffff021916908373ffffffffffffffffffffffffffffffffffffffff1602179055506000600481905550613d6e8061005b6000396000f3fe6080604052600436106100dd5760003560e01c80638acd0bfc1161007f578063a87430ba11610059578063a87430ba146102fd578063b0445d601461033b578063de2ed8931461037c578063e1a783a0146103a7576100dd565b80638acd0bfc146102685780638da5cb5b146102a9578063980f2e66146102d4576100dd565b806345d0b60a116100bb57806345d0b60a146101935780635167642f146101d15780635598f8cc1461020f578063665588c91461024c576100dd565b806302932f56146100e2578063141961bc1461010d5780633e3b667514610152575b600080fd5b3480156100ee57600080fd5b506100f76103d0565b6040516101049190612581565b60405180910390f35b34801561011957600080fd5b50610134600480360381019061012f91906125dc565b6103d6565b604051610149999897969594939291906126da565b60405180910390f35b34801561015e57600080fd5b506101796004803603810190610174919061277c565b6105dc565b60405161018a9594939291906129b9565b60405180910390f35b34801561019f57600080fd5b506101ba60048036038101906101b59190612a3f565b610990565b6040516101c8929190612c0c565b60405180910390f35b3480156101dd57600080fd5b506101f860048036038101906101f391906125dc565b610e17565b604051610206929190612d53565b60405180910390f35b34801561021b57600080fd5b50610236600480360381019061023191906125dc565b6111ec565b6040516102439190612e56565b60405180910390f35b610266600480360381019061026191906125dc565b611458565b005b34801561027457600080fd5b5061028f600480360381019061028a91906125dc565b611748565b6040516102a0959493929190612e78565b60405180910390f35b3480156102b557600080fd5b506102be61179e565b6040516102cb9190612eec565b60405180910390f35b3480156102e057600080fd5b506102fb60048036038101906102f6919061303c565b6117c2565b005b34801561030957600080fd5b50610324600480360381019061031f919061310b565b611bbe565b604051610332929190613138565b60405180910390f35b34801561034757600080fd5b50610362600480360381019061035d9190612a3f565b611be2565b604051610373959493929190613161565b60405180910390f35b34801561038857600080fd5b50610391611fb2565b60405161039e9190612581565b60405180910390f35b3480156103b357600080fd5b506103ce60048036038101906103c991906131bb565b611fb8565b005b60045481565b60026020528060005260406000206000915090508060000154908060010160009054906101000a900473ffffffffffffffffffffffffffffffffffffffff1690806002018054610425906132cb565b80601f0160208091040260200160405190810160405280929190818152602001828054610451906132cb565b801561049e5780601f106104735761010080835404028352916020019161049e565b820191906000526020600020905b81548152906001019060200180831161048157829003601f168201915b5050505050908060030180546104b3906132cb565b80601f01602080910402602001604051908101604052809291908181526020018280546104df906132cb565b801561052c5780601f106105015761010080835404028352916020019161052c565b820191906000526020600020905b81548152906001019060200180831161050f57829003601f168201915b505050505090806004018054610541906132cb565b80601f016020809104026020016040519081016040528092919081815260200182805461056d906132cb565b80156105ba5780601f1061058f576101008083540402835291602001916105ba565b820191906000526020600020905b81548152906001019060200180831161059d57829003601f168201915b5050505050908060050154908060060154908060070154908060080154905089565b60606000806000806000600160003373ffffffffffffffffffffffffffffffffffffffff1673ffffffffffffffffffffffffffffffffffffffff1681526020019081526020016000209050600061063882600001548a8a6122af565b90508060600151816080015161064e919061332b565b67ffffffffffffffff81111561066757610666612f11565b5b6040519080825280602002602001820160405280156106a057816020015b61068d61245b565b8152602001906001900390816106855790505b50965060005b8751811015610967576000600260008560020160008587606001516106cb919061335f565b815260200190815260200160002054815260200190815260200160002060405180610120016040529081600082015481526020016001820160009054906101000a900473ffffffffffffffffffffffffffffffffffffffff1673ffffffffffffffffffffffffffffffffffffffff1673ffffffffffffffffffffffffffffffffffffffff168152602001600282018054610764906132cb565b80601f0160208091040260200160405190810160405280929190818152602001828054610790906132cb565b80156107dd5780601f106107b2576101008083540402835291602001916107dd565b820191906000526020600020905b8154815290600101906020018083116107c057829003601f168201915b505050505081526020016003820180546107f6906132cb565b80601f0160208091040260200160405190810160405280929190818152602001828054610822906132cb565b801561086f5780601f106108445761010080835404028352916020019161086f565b820191906000526020600020905b81548152906001019060200180831161085257829003601f168201915b50505050508152602001600482018054610888906132cb565b80601f01602080910402602001604051908101604052809291908181526020018280546108b4906132cb565b80156109015780601f106108d657610100808354040283529160200191610901565b820191906000526020600020905b8154815290600101906020018083116108e457829003601f168201915b5050505050815260200160058201548152602001600682015481526020016007820154815260200160088201548152505090508089838151811061094857610947613393565b5b602002602001018190525050808061095f906133c2565b9150506106a6565b508160000154955080600001519450806020015193508060400151925050509295509295909350565b606061099a6124bd565b600080600160008873ffffffffffffffffffffffffffffffffffffffff1673ffffffffffffffffffffffffffffffffffffffff16815260200190815260200160002090506109ed816001015487876122af565b925082606001518360800151610a03919061332b565b67ffffffffffffffff811115610a1c57610a1b612f11565b5b604051908082528060200260200182016040528015610a5557816020015b610a426124ec565b815260200190600190039081610a3a5790505b5093506000836060015190505b8360800151811015610e0c576000600360008460030160008581526020019081526020016000205481526020019081526020016000206040518060a001604052908160008201548152602001600182015481526020016002820160009054906101000a900473ffffffffffffffffffffffffffffffffffffffff1673ffffffffffffffffffffffffffffffffffffffff1673ffffffffffffffffffffffffffffffffffffffff1681526020016003820154815260200160048201548152505090506000600260008360200151815260200190815260200160002060405180610120016040529081600082015481526020016001820160009054906101000a900473ffffffffffffffffffffffffffffffffffffffff1673ffffffffffffffffffffffffffffffffffffffff1673ffffffffffffffffffffffffffffffffffffffff168152602001600282018054610bb8906132cb565b80601f0160208091040260200160405190810160405280929190818152602001828054610be4906132cb565b8015610c315780601f10610c0657610100808354040283529160200191610c31565b820191906000526020600020905b815481529060010190602001808311610c1457829003601f168201915b50505050508152602001600382018054610c4a906132cb565b80601f0160208091040260200160405190810160405280929190818152602001828054610c76906132cb565b8015610cc35780601f10610c9857610100808354040283529160200191610cc3565b820191906000526020600020905b815481529060010190602001808311610ca657829003601f168201915b50505050508152602001600482018054610cdc906132cb565b80601f0160208091040260200160405190810160405280929190818152602001828054610d08906132cb565b8015610d555780601f10610d2a57610100808354040283529160200191610d55565b820191906000526020600020905b815481529060010190602001808311610d3857829003601f168201915b50505050508152602001600582015481526020016006820154815260200160078201548152602001600882015481525050905060006040518060600160405280836020015173ffffffffffffffffffffffffffffffffffffffff168152602001836060015181526020018460600151815250905080888781518110610ddd57610ddc613393565b5b60200260200101819052508580610df3906133c2565b9650505050508080610e04906133c2565b915050610a62565b505050935093915050565b60606000806002600085815260200190815260200160002060405180610120016040529081600082015481526020016001820160009054906101000a900473ffffffffffffffffffffffffffffffffffffffff1673ffffffffffffffffffffffffffffffffffffffff1673ffffffffffffffffffffffffffffffffffffffff168152602001600282018054610eab906132cb565b80601f0160208091040260200160405190810160405280929190818152602001828054610ed7906132cb565b8015610f245780601f10610ef957610100808354040283529160200191610f24565b820191906000526020600020905b815481529060010190602001808311610f0757829003601f168201915b50505050508152602001600382018054610f3d906132cb565b80601f0160208091040260200160405190810160405280929190818152602001828054610f69906132cb565b8015610fb65780601f10610f8b57610100808354040283529160200191610fb6565b820191906000526020600020905b815481529060010190602001808311610f9957829003601f168201915b50505050508152602001600482018054610fcf906132cb565b80601f0160208091040260200160405190810160405280929190818152602001828054610ffb906132cb565b80156110485780601f1061101d57610100808354040283529160200191611048565b820191906000526020600020905b81548152906001019060200180831161102b57829003601f168201915b50505050508152602001600582015481526020016006820154815260200160078201548152602001600882015481525050905080610100015191508167ffffffffffffffff81111561109d5761109c612f11565b5b6040519080825280602002602001820160405280156110d657816020015b6110c3612523565b8152602001906001900390816110bb5790505b5092506000805b6005548110156111e45782600001516003600083815260200190815260200160002060010154036111d157600360008281526020019081526020016000206040518060a001604052908160008201548152602001600182015481526020016002820160009054906101000a900473ffffffffffffffffffffffffffffffffffffffff1673ffffffffffffffffffffffffffffffffffffffff1673ffffffffffffffffffffffffffffffffffffffff168152602001600382015481526020016004820154815250508583815181106111b7576111b6613393565b5b602002602001018190525081806111cd906133c2565b9250505b80806111dc906133c2565b9150506110dd565b505050915091565b6111f461245b565b6002600083815260200190815260200160002060405180610120016040529081600082015481526020016001820160009054906101000a900473ffffffffffffffffffffffffffffffffffffffff1673ffffffffffffffffffffffffffffffffffffffff1673ffffffffffffffffffffffffffffffffffffffff168152602001600282018054611283906132cb565b80601f01602080910402602001604051908101604052809291908181526020018280546112af906132cb565b80156112fc5780601f106112d1576101008083540402835291602001916112fc565b820191906000526020600020905b8154815290600101906020018083116112df57829003601f168201915b50505050508152602001600382018054611315906132cb565b80601f0160208091040260200160405190810160405280929190818152602001828054611341906132cb565b801561138e5780601f106113635761010080835404028352916020019161138e565b820191906000526020600020905b81548152906001019060200180831161137157829003601f168201915b505050505081526020016004820180546113a7906132cb565b80601f01602080910402602001604051908101604052809291908181526020018280546113d3906132cb565b80156114205780601f106113f557610100808354040283529160200191611420565b820191906000526020600020905b81548152906001019060200180831161140357829003601f168201915b505050505081526020016005820154815260200160068201548152602001600782015481526020016008820154815250509050919050565b6000811015801561146a575060045481105b6114a9576040517f08c379a00000000000000000000000000000000000000000000000000000000081526004016114a090613456565b60405180910390fd5b60006002600083815260200190815260200160002090508060070154421115611507576040517f08c379a00000000000000000000000000000000000000000000000000000000081526004016114fe906134c2565b60405180910390fd5b6000341161154a576040517f08c379a000000000000000000000000000000000000000000000000000000000815260040161154190613554565b60405180910390fd5b6000600160003373ffffffffffffffffffffffffffffffffffffffff1673ffffffffffffffffffffffffffffffffffffffff168152602001908152602001600020905060008160010154905060006040518060a001604052806005548152602001856000015481526020013373ffffffffffffffffffffffffffffffffffffffff16815260200134815260200142815250905080600360006005548152602001908152602001600020600082015181600001556020820151816001015560408201518160020160006101000a81548173ffffffffffffffffffffffffffffffffffffffff021916908373ffffffffffffffffffffffffffffffffffffffff160217905550606082015181600301556080820151816004015590505080600001518360030160008481526020019081526020016000208190555034846006016000828254611697919061335f565b92505081905550600560008154809291906116b1906133c2565b91905055508260010160008154809291906116cb906133c2565b91905055508360080160008154809291906116e5906133c2565b91905055503373ffffffffffffffffffffffffffffffffffffffff167f3b5443c59641f965c6df0836dbe11676fa8c79c3184392351bb19fd51de3d49a85600301866006015460405161173992919061360d565b60405180910390a25050505050565b60036020528060005260406000206000915090508060000154908060010154908060020160009054906101000a900473ffffffffffffffffffffffffffffffffffffffff16908060030154908060040154905085565b60008054906101000a900473ffffffffffffffffffffffffffffffffffffffff1681565b8484848484428111611809576040517f08c379a000000000000000000000000000000000000000000000000000000000815260040161180090613689565b60405180910390fd5b6000821161184c576040517f08c379a00000000000000000000000000000000000000000000000000000000081526004016118439061371b565b60405180910390fd5b6000855111611890576040517f08c379a000000000000000000000000000000000000000000000000000000000815260040161188790613787565b60405180910390fd5b60008451116118d4576040517f08c379a00000000000000000000000000000000000000000000000000000000081526004016118cb906137f3565b60405180910390fd5b6000835111611918576040517f08c379a000000000000000000000000000000000000000000000000000000000815260040161190f9061385f565b60405180910390fd5b600060405180610120016040528060045481526020013373ffffffffffffffffffffffffffffffffffffffff1681526020018c81526020018b81526020018a81526020018981526020016000815260200188815260200160008152509050806002600060045481526020019081526020016000206000820151816000015560208201518160010160006101000a81548173ffffffffffffffffffffffffffffffffffffffff021916908373ffffffffffffffffffffffffffffffffffffffff16021790555060408201518160020190816119f29190613a16565b506060820151816003019081611a089190613a16565b506080820151816004019081611a1e9190613a16565b5060a0820151816005015560c0820151816006015560e0820151816007015561010082015181600801559050506000600160003373ffffffffffffffffffffffffffffffffffffffff1673ffffffffffffffffffffffffffffffffffffffff1681526020019081526020016000206000015490508160000151600160003373ffffffffffffffffffffffffffffffffffffffff1673ffffffffffffffffffffffffffffffffffffffff168152602001908152602001600020600201600083815260200190815260200160002081905550600160003373ffffffffffffffffffffffffffffffffffffffff1673ffffffffffffffffffffffffffffffffffffffff1681526020019081526020016000206000016000815480929190611b41906133c2565b919050555060046000815480929190611b59906133c2565b91905055503373ffffffffffffffffffffffffffffffffffffffff167f17dd0b5f0975f4651b002ed3b016428bae979f5704d8b2473931b2312185c05a8360600151604051611ba89190613ae8565b60405180910390a2505050505050505050505050565b60016020528060005260406000206000915090508060000154908060010154905082565b606060008060008060009350611bf66124bd565b60005b600454811015611cdd5760006002600083815260200190815260200160002090508a73ffffffffffffffffffffffffffffffffffffffff168160010160009054906101000a900473ffffffffffffffffffffffffffffffffffffffff1673ffffffffffffffffffffffffffffffffffffffff1603611cc95760005b600554811015611cc75760006003600083815260200190815260200160002090508260000154816001015403611cb3578880611caf906133c2565b9950505b508080611cbf906133c2565b915050611c74565b505b508080611cd5906133c2565b915050611bf9565b50611ce98589896122af565b905080606001518160800151611cff919061332b565b67ffffffffffffffff811115611d1857611d17612f11565b5b604051908082528060200260200182016040528015611d5157816020015b611d3e6124ec565b815260200190600190039081611d365790505b5095506000805b600454811015611f8f5760006002600083815260200190815260200160002090508b73ffffffffffffffffffffffffffffffffffffffff168160010160009054906101000a900473ffffffffffffffffffffffffffffffffffffffff1673ffffffffffffffffffffffffffffffffffffffff1603611f7b5760005b600554811015611f795760006003600083815260200190815260200160002090508260000154816001015403611f655785606001518510158015611e1a5750856080015185105b15611f5657611e276124ec565b8160020160009054906101000a900473ffffffffffffffffffffffffffffffffffffffff16816000019073ffffffffffffffffffffffffffffffffffffffff16908173ffffffffffffffffffffffffffffffffffffffff1681525050836003018054611e92906132cb565b80601f0160208091040260200160405190810160405280929190818152602001828054611ebe906132cb565b8015611f0b5780601f10611ee057610100808354040283529160200191611f0b565b820191906000526020600020905b815481529060010190602001808311611eee57829003601f168201915b505050505081602001819052508160030154816040018181525050808c886060015188611f38919061332b565b81518110611f4957611f48613393565b5b6020026020010181905250505b8480611f61906133c2565b9550505b508080611f71906133c2565b915050611dd3565b505b508080611f87906133c2565b915050611d58565b508160000151945081602001519350816040015192505050939792965093509350565b60055481565b8484848484428111611fff576040517f08c379a0000000000000000000000000000000000000000000000000000000008152600401611ff690613689565b60405180910390fd5b60008211612042576040517f08c379a00000000000000000000000000000000000000000000000000000000081526004016120399061371b565b60405180910390fd5b6000855111612086576040517f08c379a000000000000000000000000000000000000000000000000000000000815260040161207d90613787565b60405180910390fd5b60008451116120ca576040517f08c379a00000000000000000000000000000000000000000000000000000000081526004016120c1906137f3565b60405180910390fd5b600083511161210e576040517f08c379a00000000000000000000000000000000000000000000000000000000081526004016121059061385f565b60405180910390fd5b6000600260008d8152602001908152602001600020905060008c1015801561213757506004548c105b612176576040517f08c379a000000000000000000000000000000000000000000000000000000000815260040161216d90613456565b60405180910390fd5b3373ffffffffffffffffffffffffffffffffffffffff168160010160009054906101000a900473ffffffffffffffffffffffffffffffffffffffff1673ffffffffffffffffffffffffffffffffffffffff1614612208576040517f08c379a00000000000000000000000000000000000000000000000000000000081526004016121ff90613b7c565b60405180910390fd5b8a8160020190816122199190613a16565b508981600301908161222b9190613a16565b508881600401908161223d9190613a16565b508781600501819055508681600701819055503373ffffffffffffffffffffffffffffffffffffffff167fb961c338b427968a67f1a3560907d7075a0d1fca0c2d16dcb76da3a963cfe373826003016040516122999190613b9c565b60405180910390a2505050505050505050505050565b6122b76124bd565b600083116122fa576040517f08c379a00000000000000000000000000000000000000000000000000000000081526004016122f190613c0a565b60405180910390fd5b6000821161233d576040517f08c379a000000000000000000000000000000000000000000000000000000000815260040161233490613c76565b60405180910390fd5b6123456124bd565b8360018587612354919061335f565b61235e919061332b565b6123689190613cc5565b816000018181525050600081600001511161238457600061239d565b600183612391919061332b565b8461239c9190613cf6565b5b816060018181525050848160600151856123b7919061335f565b116123d1578060600151846123cc919061335f565b6123d3565b845b816080018181525050806000015183106123f15780600001516123ff565b6001836123fe919061335f565b5b81602001818152505060018311612417576001612425565b600183612424919061332b565b5b8160400181815250506000816000015111612441576000612447565b80604001515b816040018181525050809150509392505050565b60405180610120016040528060008152602001600073ffffffffffffffffffffffffffffffffffffffff168152602001606081526020016060815260200160608152602001600081526020016000815260200160008152602001600081525090565b6040518060a0016040528060008152602001600081526020016000815260200160008152602001600081525090565b6040518060600160405280600073ffffffffffffffffffffffffffffffffffffffff16815260200160608152602001600081525090565b6040518060a001604052806000815260200160008152602001600073ffffffffffffffffffffffffffffffffffffffff16815260200160008152602001600081525090565b6000819050919050565b61257b81612568565b82525050565b60006020820190506125966000830184612572565b92915050565b6000604051905090565b600080fd5b600080fd5b6125b981612568565b81146125c457600080fd5b50565b6000813590506125d6816125b0565b92915050565b6000602082840312156125f2576125f16125a6565b5b6000612600848285016125c7565b91505092915050565b600073ffffffffffffffffffffffffffffffffffffffff82169050919050565b600061263482612609565b9050919050565b61264481612629565b82525050565b600081519050919050565b600082825260208201905092915050565b60005b83811015612684578082015181840152602081019050612669565b60008484015250505050565b6000601f19601f8301169050919050565b60006126ac8261264a565b6126b68185612655565b93506126c6818560208601612666565b6126cf81612690565b840191505092915050565b6000610120820190506126f0600083018c612572565b6126fd602083018b61263b565b818103604083015261270f818a6126a1565b9050818103606083015261272381896126a1565b9050818103608083015261273781886126a1565b905061274660a0830187612572565b61275360c0830186612572565b61276060e0830185612572565b61276e610100830184612572565b9a9950505050505050505050565b60008060408385031215612793576127926125a6565b5b60006127a1858286016125c7565b92505060206127b2858286016125c7565b9150509250929050565b600081519050919050565b600082825260208201905092915050565b6000819050602082019050919050565b6127f181612568565b82525050565b61280081612629565b82525050565b600082825260208201905092915050565b60006128228261264a565b61282c8185612806565b935061283c818560208601612666565b61284581612690565b840191505092915050565b60006101208301600083015161286960008601826127e8565b50602083015161287c60208601826127f7565b50604083015184820360408601526128948282612817565b915050606083015184820360608601526128ae8282612817565b915050608083015184820360808601526128c88282612817565b91505060a08301516128dd60a08601826127e8565b5060c08301516128f060c08601826127e8565b5060e083015161290360e08601826127e8565b506101008301516129186101008601826127e8565b508091505092915050565b600061292f8383612850565b905092915050565b6000602082019050919050565b600061294f826127bc565b61295981856127c7565b93508360208202850161296b856127d8565b8060005b858110156129a757848403895281516129888582612923565b945061299383612937565b925060208a0199505060018101905061296f565b50829750879550505050505092915050565b600060a08201905081810360008301526129d38188612944565b90506129e26020830187612572565b6129ef6040830186612572565b6129fc6060830185612572565b612a096080830184612572565b9695505050505050565b612a1c81612629565b8114612a2757600080fd5b50565b600081359050612a3981612a13565b92915050565b600080600060608486031215612a5857612a576125a6565b5b6000612a6686828701612a2a565b9350506020612a77868287016125c7565b9250506040612a88868287016125c7565b9150509250925092565b600081519050919050565b600082825260208201905092915050565b6000819050602082019050919050565b6000606083016000830151612ad660008601826127f7565b5060208301518482036020860152612aee8282612817565b9150506040830151612b0360408601826127e8565b508091505092915050565b6000612b1a8383612abe565b905092915050565b6000602082019050919050565b6000612b3a82612a92565b612b448185612a9d565b935083602082028501612b5685612aae565b8060005b85811015612b925784840389528151612b738582612b0e565b9450612b7e83612b22565b925060208a01995050600181019050612b5a565b50829750879550505050505092915050565b60a082016000820151612bba60008501826127e8565b506020820151612bcd60208501826127e8565b506040820151612be060408501826127e8565b506060820151612bf360608501826127e8565b506080820151612c0660808501826127e8565b50505050565b600060c0820190508181036000830152612c268185612b2f565b9050612c356020830184612ba4565b9392505050565b600081519050919050565b600082825260208201905092915050565b6000819050602082019050919050565b60a082016000820151612c7e60008501826127e8565b506020820151612c9160208501826127e8565b506040820151612ca460408501826127f7565b506060820151612cb760608501826127e8565b506080820151612cca60808501826127e8565b50505050565b6000612cdc8383612c68565b60a08301905092915050565b6000602082019050919050565b6000612d0082612c3c565b612d0a8185612c47565b9350612d1583612c58565b8060005b83811015612d46578151612d2d8882612cd0565b9750612d3883612ce8565b925050600181019050612d19565b5085935050505092915050565b60006040820190508181036000830152612d6d8185612cf5565b9050612d7c6020830184612572565b9392505050565b600061012083016000830151612d9c60008601826127e8565b506020830151612daf60208601826127f7565b5060408301518482036040860152612dc78282612817565b91505060608301518482036060860152612de18282612817565b91505060808301518482036080860152612dfb8282612817565b91505060a0830151612e1060a08601826127e8565b5060c0830151612e2360c08601826127e8565b5060e0830151612e3660e08601826127e8565b50610100830151612e4b6101008601826127e8565b508091505092915050565b60006020820190508181036000830152612e708184612d83565b905092915050565b600060a082019050612e8d6000830188612572565b612e9a6020830187612572565b612ea7604083018661263b565b612eb46060830185612572565b612ec16080830184612572565b9695505050505050565b6000612ed682612609565b9050919050565b612ee681612ecb565b82525050565b6000602082019050612f016000830184612edd565b92915050565b600080fd5b600080fd5b7f4e487b7100000000000000000000000000000000000000000000000000000000600052604160045260246000fd5b612f4982612690565b810181811067ffffffffffffffff82111715612f6857612f67612f11565b5b80604052505050565b6000612f7b61259c565b9050612f878282612f40565b919050565b600067ffffffffffffffff821115612fa757612fa6612f11565b5b612fb082612690565b9050602081019050919050565b82818337600083830152505050565b6000612fdf612fda84612f8c565b612f71565b905082815260208101848484011115612ffb57612ffa612f0c565b5b613006848285612fbd565b509392505050565b600082601f83011261302357613022612f07565b5b8135613033848260208601612fcc565b91505092915050565b600080600080600060a08688031215613058576130576125a6565b5b600086013567ffffffffffffffff811115613076576130756125ab565b5b6130828882890161300e565b955050602086013567ffffffffffffffff8111156130a3576130a26125ab565b5b6130af8882890161300e565b945050604086013567ffffffffffffffff8111156130d0576130cf6125ab565b5b6130dc8882890161300e565b93505060606130ed888289016125c7565b92505060806130fe888289016125c7565b9150509295509295909350565b600060208284031215613121576131206125a6565b5b600061312f84828501612a2a565b91505092915050565b600060408201905061314d6000830185612572565b61315a6020830184612572565b9392505050565b600060a082019050818103600083015261317b8188612b2f565b905061318a6020830187612572565b6131976040830186612572565b6131a46060830185612572565b6131b16080830184612572565b9695505050505050565b60008060008060008060c087890312156131d8576131d76125a6565b5b60006131e689828a016125c7565b965050602087013567ffffffffffffffff811115613207576132066125ab565b5b61321389828a0161300e565b955050604087013567ffffffffffffffff811115613234576132336125ab565b5b61324089828a0161300e565b945050606087013567ffffffffffffffff811115613261576132606125ab565b5b61326d89828a0161300e565b935050608061327e89828a016125c7565b92505060a061328f89828a016125c7565b9150509295509295509295565b7f4e487b7100000000000000000000000000000000000000000000000000000000600052602260045260246000fd5b600060028204905060018216806132e357607f821691505b6020821081036132f6576132f561329c565b5b50919050565b7f4e487b7100000000000000000000000000000000000000000000000000000000600052601160045260246000fd5b600061333682612568565b915061334183612568565b9250828203905081811115613359576133586132fc565b5b92915050565b600061336a82612568565b915061337583612568565b925082820190508082111561338d5761338c6132fc565b5b92915050565b7f4e487b7100000000000000000000000000000000000000000000000000000000600052603260045260246000fd5b60006133cd82612568565b91507fffffffffffffffffffffffffffffffffffffffffffffffffffffffffffffffff82036133ff576133fe6132fc565b5b600182019050919050565b7f496e76616c69642063616d706169676e20494400000000000000000000000000600082015250565b6000613440601383612655565b915061344b8261340a565b602082019050919050565b6000602082019050818103600083015261346f81613433565b9050919050565b7f43616d706169676e20697320616c7265616479206f7665720000000000000000600082015250565b60006134ac601883612655565b91506134b782613476565b602082019050919050565b600060208201905081810360008301526134db8161349f565b9050919050565b7f446f6e6174696f6e20616d6f756e742073686f756c64206265206d6f7265207460008201527f68616e2030000000000000000000000000000000000000000000000000000000602082015250565b600061353e602583612655565b9150613549826134e2565b604082019050919050565b6000602082019050818103600083015261356d81613531565b9050919050565b60008190508160005260206000209050919050565b60008154613596816132cb565b6135a08186612655565b945060018216600081146135bb57600181146135d157613604565b60ff198316865281151560200286019350613604565b6135da85613574565b60005b838110156135fc578154818901526001820191506020810190506135dd565b808801955050505b50505092915050565b600060408201905081810360008301526136278185613589565b90506136366020830184612572565b9392505050565b7f446174652073686f756c64206265206675747572652064617465000000000000600082015250565b6000613673601a83612655565b915061367e8261363d565b602082019050919050565b600060208201905081810360008301526136a281613666565b9050919050565b7f476f616c20616d6f756e742073686f756c64206265206d6f7265207468616e2060008201527f3000000000000000000000000000000000000000000000000000000000000000602082015250565b6000613705602183612655565b9150613710826136a9565b604082019050919050565b60006020820190508181036000830152613734816136f8565b9050919050565b7f46756c6c206e616d652063616e6e6f7420626520656d70747900000000000000600082015250565b6000613771601983612655565b915061377c8261373b565b602082019050919050565b600060208201905081810360008301526137a081613764565b9050919050565b7f5469746c652063616e6e6f7420626520656d7074790000000000000000000000600082015250565b60006137dd601583612655565b91506137e8826137a7565b602082019050919050565b6000602082019050818103600083015261380c816137d0565b9050919050565b7f53746f72792063616e6e6f7420626520656d7074790000000000000000000000600082015250565b6000613849601583612655565b915061385482613813565b602082019050919050565b600060208201905081810360008301526138788161383c565b9050919050565b60006020601f8301049050919050565b600082821b905092915050565b6000600883026138cc7fffffffffffffffffffffffffffffffffffffffffffffffffffffffffffffffff8261388f565b6138d6868361388f565b95508019841693508086168417925050509392505050565b6000819050919050565b600061391361390e61390984612568565b6138ee565b612568565b9050919050565b6000819050919050565b61392d836138f8565b6139416139398261391a565b84845461389c565b825550505050565b600090565b613956613949565b613961818484613924565b505050565b5b818110156139855761397a60008261394e565b600181019050613967565b5050565b601f8211156139ca5761399b81613574565b6139a48461387f565b810160208510156139b3578190505b6139c76139bf8561387f565b830182613966565b50505b505050565b600082821c905092915050565b60006139ed600019846008026139cf565b1980831691505092915050565b6000613a0683836139dc565b9150826002028217905092915050565b613a1f8261264a565b67ffffffffffffffff811115613a3857613a37612f11565b5b613a4282546132cb565b613a4d828285613989565b600060209050601f831160018114613a805760008415613a6e578287015190505b613a7885826139fa565b865550613ae0565b601f198416613a8e86613574565b60005b82811015613ab657848901518255600182019150602085019450602081019050613a91565b86831015613ad35784890151613acf601f8916826139dc565b8355505b6001600288020188555050505b505050505050565b60006020820190508181036000830152613b0281846126a1565b905092915050565b7f596f7520617265206e6f74207468652063616d706169676e2063726561746f7260008201527f2100000000000000000000000000000000000000000000000000000000000000602082015250565b6000613b66602183612655565b9150613b7182613b0a565b604082019050919050565b60006020820190508181036000830152613b9581613b59565b9050919050565b60006020820190508181036000830152613bb68184613589565b905092915050565b7f506167652073697a652063616e6e6f7420626520300000000000000000000000600082015250565b6000613bf4601583612655565b9150613bff82613bbe565b602082019050919050565b60006020820190508181036000830152613c2381613be7565b9050919050565b7f50616765206e756d6265722063616e6e6f742062652030000000000000000000600082015250565b6000613c60601783612655565b9150613c6b82613c2a565b602082019050919050565b60006020820190508181036000830152613c8f81613c53565b9050919050565b7f4e487b7100000000000000000000000000000000000000000000000000000000600052601260045260246000fd5b6000613cd082612568565b9150613cdb83612568565b925082613ceb57613cea613c96565b5b828204905092915050565b6000613d0182612568565b9150613d0c83612568565b9250828202613d1a81612568565b91508282048414831517613d3157613d306132fc565b5b509291505056fea26469706673582212205f5432b7e0e8c68d2e25a9f479f2e254c38c4a10d0bea303adb25367a58f924f64736f6c63430008120033",
  "linkReferences": {},
  "deployedLinkReferences": {}
}