{
  "_format": "hh-sol-artifact-1",
  "contractName": "CrowdFunding",
  "sourceName": "contracts/CrowdFunding.sol",
  "abi": [
    {
      "inputs": [],
      "stateMutability": "payable",
      "type": "constructor"
    },
    {
      "anonymous": false,
      "inputs": [
        {
          "indexed": true,
          "internalType": "address",
          "name": "sender",
          "type": "address"
        },
        {
          "indexed": false,
          "internalType": "string",
          "name": "title",
          "type": "string"
        }
      ],
      "name": "CampaignCreated",
      "type": "event"
    },
    {
      "anonymous": false,
      "inputs": [
        {
          "indexed": true,
          "internalType": "address",
          "name": "sender",
          "type": "address"
        },
        {
          "indexed": false,
          "internalType": "string",
          "name": "title",
          "type": "string"
        }
      ],
      "name": "CampaignEdited",
      "type": "event"
    },
    {
      "inputs": [
        {
          "internalType": "uint256",
          "name": "",
          "type": "uint256"
        }
      ],
      "name": "campaigns",
      "outputs": [
        {
          "internalType": "uint256",
          "name": "id",
          "type": "uint256"
        },
        {
          "internalType": "address",
          "name": "creator",
          "type": "address"
        },
        {
          "internalType": "string",
          "name": "fullname",
          "type": "string"
        },
        {
          "internalType": "string",
          "name": "title",
          "type": "string"
        },
        {
          "internalType": "string",
          "name": "story",
          "type": "string"
        },
        {
          "internalType": "uint256",
          "name": "goalAmount",
          "type": "uint256"
        },
        {
          "internalType": "uint256",
          "name": "currentAmount",
          "type": "uint256"
        },
        {
          "internalType": "uint256",
          "name": "deadline",
          "type": "uint256"
        }
      ],
      "stateMutability": "view",
      "type": "function"
    },
    {
      "inputs": [
        {
          "internalType": "string",
          "name": "_fullname",
          "type": "string"
        },
        {
          "internalType": "string",
          "name": "_title",
          "type": "string"
        },
        {
          "internalType": "string",
          "name": "_story",
          "type": "string"
        },
        {
          "internalType": "uint256",
          "name": "_goalAmount",
          "type": "uint256"
        },
        {
          "internalType": "uint256",
          "name": "_deadline",
          "type": "uint256"
        }
      ],
      "name": "createCampaign",
      "outputs": [],
      "stateMutability": "nonpayable",
      "type": "function"
    },
    {
      "inputs": [
        {
          "internalType": "uint256",
          "name": "_campaignId",
          "type": "uint256"
        },
        {
          "internalType": "string",
          "name": "_fullname",
          "type": "string"
        },
        {
          "internalType": "string",
          "name": "_title",
          "type": "string"
        },
        {
          "internalType": "string",
          "name": "_story",
          "type": "string"
        },
        {
          "internalType": "uint256",
          "name": "_goalAmount",
          "type": "uint256"
        },
        {
          "internalType": "uint256",
          "name": "_deadline",
          "type": "uint256"
        }
      ],
      "name": "editCampaign",
      "outputs": [],
      "stateMutability": "nonpayable",
      "type": "function"
    },
    {
      "inputs": [],
      "name": "getUserCampaigns",
      "outputs": [
        {
          "components": [
            {
              "internalType": "uint256",
              "name": "id",
              "type": "uint256"
            },
            {
              "internalType": "address",
              "name": "creator",
              "type": "address"
            },
            {
              "internalType": "string",
              "name": "fullname",
              "type": "string"
            },
            {
              "internalType": "string",
              "name": "title",
              "type": "string"
            },
            {
              "internalType": "string",
              "name": "story",
              "type": "string"
            },
            {
              "internalType": "uint256",
              "name": "goalAmount",
              "type": "uint256"
            },
            {
              "internalType": "uint256",
              "name": "currentAmount",
              "type": "uint256"
            },
            {
              "internalType": "uint256",
              "name": "deadline",
              "type": "uint256"
            }
          ],
          "internalType": "struct CrowdFunding.Campaign[]",
          "name": "",
          "type": "tuple[]"
        }
      ],
      "stateMutability": "view",
      "type": "function"
    },
    {
      "inputs": [],
      "name": "owner",
      "outputs": [
        {
          "internalType": "address payable",
          "name": "",
          "type": "address"
        }
      ],
      "stateMutability": "view",
      "type": "function"
    },
    {
      "inputs": [],
      "name": "totalCampaigns",
      "outputs": [
        {
          "internalType": "uint256",
          "name": "",
          "type": "uint256"
        }
      ],
      "stateMutability": "view",
      "type": "function"
    },
    {
      "inputs": [
        {
          "internalType": "address",
          "name": "",
          "type": "address"
        }
      ],
      "name": "users",
      "outputs": [
        {
          "internalType": "uint256",
          "name": "totalCampaigns",
          "type": "uint256"
        }
      ],
      "stateMutability": "view",
      "type": "function"
    }
  ],
  "bytecode": "0x6080604052336000806101000a81548173ffffffffffffffffffffffffffffffffffffffff021916908373ffffffffffffffffffffffffffffffffffffffff1602179055506000600381905550611ddc8061005b6000396000f3fe608060405234801561001057600080fd5b506004361061007d5760003560e01c80638da5cb5b1161005b5780638da5cb5b146100f5578063980f2e6614610113578063a87430ba1461012f578063e1a783a01461015f5761007d565b806302932f56146100825780630e274ae2146100a0578063141961bc146100be575b600080fd5b61008a61017b565b6040516100979190610eaa565b60405180910390f35b6100a8610181565b6040516100b59190611125565b60405180910390f35b6100d860048036038101906100d39190611187565b610513565b6040516100ec98979695949392919061120d565b60405180910390f35b6100fd610713565b60405161010a91906112c1565b60405180910390f35b61012d60048036038101906101289190611411565b610737565b005b6101496004803603810190610144919061150c565b610b21565b6040516101569190610eaa565b60405180910390f35b61017960048036038101906101749190611539565b610b3f565b005b60035481565b60606000600160003373ffffffffffffffffffffffffffffffffffffffff1673ffffffffffffffffffffffffffffffffffffffff16815260200190815260200160002060000154905060008167ffffffffffffffff8111156101e6576101e56112e6565b5b60405190808252806020026020018201604052801561021f57816020015b61020c610e36565b8152602001906001900390816102045790505b50905060005b8281101561050a57600060026000600160003373ffffffffffffffffffffffffffffffffffffffff1673ffffffffffffffffffffffffffffffffffffffff168152602001908152602001600020600101600085815260200190815260200160002054815260200190815260200160002060405180610100016040529081600082015481526020016001820160009054906101000a900473ffffffffffffffffffffffffffffffffffffffff1673ffffffffffffffffffffffffffffffffffffffff1673ffffffffffffffffffffffffffffffffffffffff16815260200160028201805461031190611649565b80601f016020809104026020016040519081016040528092919081815260200182805461033d90611649565b801561038a5780601f1061035f5761010080835404028352916020019161038a565b820191906000526020600020905b81548152906001019060200180831161036d57829003601f168201915b505050505081526020016003820180546103a390611649565b80601f01602080910402602001604051908101604052809291908181526020018280546103cf90611649565b801561041c5780601f106103f15761010080835404028352916020019161041c565b820191906000526020600020905b8154815290600101906020018083116103ff57829003601f168201915b5050505050815260200160048201805461043590611649565b80601f016020809104026020016040519081016040528092919081815260200182805461046190611649565b80156104ae5780601f10610483576101008083540402835291602001916104ae565b820191906000526020600020905b81548152906001019060200180831161049157829003601f168201915b5050505050815260200160058201548152602001600682015481526020016007820154815250509050808383815181106104eb576104ea61167a565b5b6020026020010181905250508080610502906116d8565b915050610225565b50809250505090565b60026020528060005260406000206000915090508060000154908060010160009054906101000a900473ffffffffffffffffffffffffffffffffffffffff169080600201805461056290611649565b80601f016020809104026020016040519081016040528092919081815260200182805461058e90611649565b80156105db5780601f106105b0576101008083540402835291602001916105db565b820191906000526020600020905b8154815290600101906020018083116105be57829003601f168201915b5050505050908060030180546105f090611649565b80601f016020809104026020016040519081016040528092919081815260200182805461061c90611649565b80156106695780601f1061063e57610100808354040283529160200191610669565b820191906000526020600020905b81548152906001019060200180831161064c57829003601f168201915b50505050509080600401805461067e90611649565b80601f01602080910402602001604051908101604052809291908181526020018280546106aa90611649565b80156106f75780601f106106cc576101008083540402835291602001916106f7565b820191906000526020600020905b8154815290600101906020018083116106da57829003601f168201915b5050505050908060050154908060060154908060070154905088565b60008054906101000a900473ffffffffffffffffffffffffffffffffffffffff1681565b848484848442811161077e576040517f08c379a00000000000000000000000000000000000000000000000000000000081526004016107759061176c565b60405180910390fd5b600082116107c1576040517f08c379a00000000000000000000000000000000000000000000000000000000081526004016107b8906117fe565b60405180910390fd5b6000855111610805576040517f08c379a00000000000000000000000000000000000000000000000000000000081526004016107fc9061186a565b60405180910390fd5b6000845111610849576040517f08c379a0000000000000000000000000000000000000000000000000000000008152600401610840906118d6565b60405180910390fd5b600083511161088d576040517f08c379a000000000000000000000000000000000000000000000000000000000815260040161088490611942565b60405180910390fd5b600060405180610100016040528060035481526020013373ffffffffffffffffffffffffffffffffffffffff1681526020018c81526020018b81526020018a815260200189815260200160008152602001888152509050806002600060035481526020019081526020016000206000820151816000015560208201518160010160006101000a81548173ffffffffffffffffffffffffffffffffffffffff021916908373ffffffffffffffffffffffffffffffffffffffff16021790555060408201518160020190816109609190611b0e565b5060608201518160030190816109769190611b0e565b50608082015181600401908161098c9190611b0e565b5060a0820151816005015560c0820151816006015560e082015181600701559050506000600160003373ffffffffffffffffffffffffffffffffffffffff1673ffffffffffffffffffffffffffffffffffffffff1681526020019081526020016000206000015490508160000151600160003373ffffffffffffffffffffffffffffffffffffffff1673ffffffffffffffffffffffffffffffffffffffff168152602001908152602001600020600101600083815260200190815260200160002081905550600160003373ffffffffffffffffffffffffffffffffffffffff1673ffffffffffffffffffffffffffffffffffffffff1681526020019081526020016000206000016000815480929190610aa4906116d8565b919050555060036000815480929190610abc906116d8565b91905055503373ffffffffffffffffffffffffffffffffffffffff167f17dd0b5f0975f4651b002ed3b016428bae979f5704d8b2473931b2312185c05a8360600151604051610b0b9190611be0565b60405180910390a2505050505050505050505050565b60016020528060005260406000206000915090508060000154905081565b8484848484428111610b86576040517f08c379a0000000000000000000000000000000000000000000000000000000008152600401610b7d9061176c565b60405180910390fd5b60008211610bc9576040517f08c379a0000000000000000000000000000000000000000000000000000000008152600401610bc0906117fe565b60405180910390fd5b6000855111610c0d576040517f08c379a0000000000000000000000000000000000000000000000000000000008152600401610c049061186a565b60405180910390fd5b6000845111610c51576040517f08c379a0000000000000000000000000000000000000000000000000000000008152600401610c48906118d6565b60405180910390fd5b6000835111610c95576040517f08c379a0000000000000000000000000000000000000000000000000000000008152600401610c8c90611942565b60405180910390fd5b6000600260008d8152602001908152602001600020905060008c10158015610cbe57506003548c105b610cfd576040517f08c379a0000000000000000000000000000000000000000000000000000000008152600401610cf490611c4e565b60405180910390fd5b3373ffffffffffffffffffffffffffffffffffffffff168160010160009054906101000a900473ffffffffffffffffffffffffffffffffffffffff1673ffffffffffffffffffffffffffffffffffffffff1614610d8f576040517f08c379a0000000000000000000000000000000000000000000000000000000008152600401610d8690611ce0565b60405180910390fd5b8a816002019081610da09190611b0e565b5089816003019081610db29190611b0e565b5088816004019081610dc49190611b0e565b508781600501819055508681600701819055503373ffffffffffffffffffffffffffffffffffffffff167fb961c338b427968a67f1a3560907d7075a0d1fca0c2d16dcb76da3a963cfe37382600301604051610e209190611d84565b60405180910390a2505050505050505050505050565b60405180610100016040528060008152602001600073ffffffffffffffffffffffffffffffffffffffff1681526020016060815260200160608152602001606081526020016000815260200160008152602001600081525090565b6000819050919050565b610ea481610e91565b82525050565b6000602082019050610ebf6000830184610e9b565b92915050565b600081519050919050565b600082825260208201905092915050565b6000819050602082019050919050565b610efa81610e91565b82525050565b600073ffffffffffffffffffffffffffffffffffffffff82169050919050565b6000610f2b82610f00565b9050919050565b610f3b81610f20565b82525050565b600081519050919050565b600082825260208201905092915050565b60005b83811015610f7b578082015181840152602081019050610f60565b60008484015250505050565b6000601f19601f8301169050919050565b6000610fa382610f41565b610fad8185610f4c565b9350610fbd818560208601610f5d565b610fc681610f87565b840191505092915050565b600061010083016000830151610fea6000860182610ef1565b506020830151610ffd6020860182610f32565b50604083015184820360408601526110158282610f98565b9150506060830151848203606086015261102f8282610f98565b915050608083015184820360808601526110498282610f98565b91505060a083015161105e60a0860182610ef1565b5060c083015161107160c0860182610ef1565b5060e083015161108460e0860182610ef1565b508091505092915050565b600061109b8383610fd1565b905092915050565b6000602082019050919050565b60006110bb82610ec5565b6110c58185610ed0565b9350836020820285016110d785610ee1565b8060005b8581101561111357848403895281516110f4858261108f565b94506110ff836110a3565b925060208a019950506001810190506110db565b50829750879550505050505092915050565b6000602082019050818103600083015261113f81846110b0565b905092915050565b6000604051905090565b600080fd5b600080fd5b61116481610e91565b811461116f57600080fd5b50565b6000813590506111818161115b565b92915050565b60006020828403121561119d5761119c611151565b5b60006111ab84828501611172565b91505092915050565b6111bd81610f20565b82525050565b600082825260208201905092915050565b60006111df82610f41565b6111e981856111c3565b93506111f9818560208601610f5d565b61120281610f87565b840191505092915050565b600061010082019050611223600083018b610e9b565b611230602083018a6111b4565b818103604083015261124281896111d4565b9050818103606083015261125681886111d4565b9050818103608083015261126a81876111d4565b905061127960a0830186610e9b565b61128660c0830185610e9b565b61129360e0830184610e9b565b9998505050505050505050565b60006112ab82610f00565b9050919050565b6112bb816112a0565b82525050565b60006020820190506112d660008301846112b2565b92915050565b600080fd5b600080fd5b7f4e487b7100000000000000000000000000000000000000000000000000000000600052604160045260246000fd5b61131e82610f87565b810181811067ffffffffffffffff8211171561133d5761133c6112e6565b5b80604052505050565b6000611350611147565b905061135c8282611315565b919050565b600067ffffffffffffffff82111561137c5761137b6112e6565b5b61138582610f87565b9050602081019050919050565b82818337600083830152505050565b60006113b46113af84611361565b611346565b9050828152602081018484840111156113d0576113cf6112e1565b5b6113db848285611392565b509392505050565b600082601f8301126113f8576113f76112dc565b5b81356114088482602086016113a1565b91505092915050565b600080600080600060a0868803121561142d5761142c611151565b5b600086013567ffffffffffffffff81111561144b5761144a611156565b5b611457888289016113e3565b955050602086013567ffffffffffffffff81111561147857611477611156565b5b611484888289016113e3565b945050604086013567ffffffffffffffff8111156114a5576114a4611156565b5b6114b1888289016113e3565b93505060606114c288828901611172565b92505060806114d388828901611172565b9150509295509295909350565b6114e981610f20565b81146114f457600080fd5b50565b600081359050611506816114e0565b92915050565b60006020828403121561152257611521611151565b5b6000611530848285016114f7565b91505092915050565b60008060008060008060c0878903121561155657611555611151565b5b600061156489828a01611172565b965050602087013567ffffffffffffffff81111561158557611584611156565b5b61159189828a016113e3565b955050604087013567ffffffffffffffff8111156115b2576115b1611156565b5b6115be89828a016113e3565b945050606087013567ffffffffffffffff8111156115df576115de611156565b5b6115eb89828a016113e3565b93505060806115fc89828a01611172565b92505060a061160d89828a01611172565b9150509295509295509295565b7f4e487b7100000000000000000000000000000000000000000000000000000000600052602260045260246000fd5b6000600282049050600182168061166157607f821691505b6020821081036116745761167361161a565b5b50919050565b7f4e487b7100000000000000000000000000000000000000000000000000000000600052603260045260246000fd5b7f4e487b7100000000000000000000000000000000000000000000000000000000600052601160045260246000fd5b60006116e382610e91565b91507fffffffffffffffffffffffffffffffffffffffffffffffffffffffffffffffff8203611715576117146116a9565b5b600182019050919050565b7f446174652073686f756c64206265206675747572652064617465000000000000600082015250565b6000611756601a836111c3565b915061176182611720565b602082019050919050565b6000602082019050818103600083015261178581611749565b9050919050565b7f476f616c20616d6f756e742073686f756c64206265206d6f7265207468616e2060008201527f3000000000000000000000000000000000000000000000000000000000000000602082015250565b60006117e86021836111c3565b91506117f38261178c565b604082019050919050565b60006020820190508181036000830152611817816117db565b9050919050565b7f46756c6c206e616d652063616e6e6f7420626520656d70747900000000000000600082015250565b60006118546019836111c3565b915061185f8261181e565b602082019050919050565b6000602082019050818103600083015261188381611847565b9050919050565b7f5469746c652063616e6e6f7420626520656d7074790000000000000000000000600082015250565b60006118c06015836111c3565b91506118cb8261188a565b602082019050919050565b600060208201905081810360008301526118ef816118b3565b9050919050565b7f53746f72792063616e6e6f7420626520656d7074790000000000000000000000600082015250565b600061192c6015836111c3565b9150611937826118f6565b602082019050919050565b6000602082019050818103600083015261195b8161191f565b9050919050565b60008190508160005260206000209050919050565b60006020601f8301049050919050565b600082821b905092915050565b6000600883026119c47fffffffffffffffffffffffffffffffffffffffffffffffffffffffffffffffff82611987565b6119ce8683611987565b95508019841693508086168417925050509392505050565b6000819050919050565b6000611a0b611a06611a0184610e91565b6119e6565b610e91565b9050919050565b6000819050919050565b611a25836119f0565b611a39611a3182611a12565b848454611994565b825550505050565b600090565b611a4e611a41565b611a59818484611a1c565b505050565b5b81811015611a7d57611a72600082611a46565b600181019050611a5f565b5050565b601f821115611ac257611a9381611962565b611a9c84611977565b81016020851015611aab578190505b611abf611ab785611977565b830182611a5e565b50505b505050565b600082821c905092915050565b6000611ae560001984600802611ac7565b1980831691505092915050565b6000611afe8383611ad4565b9150826002028217905092915050565b611b1782610f41565b67ffffffffffffffff811115611b3057611b2f6112e6565b5b611b3a8254611649565b611b45828285611a81565b600060209050601f831160018114611b785760008415611b66578287015190505b611b708582611af2565b865550611bd8565b601f198416611b8686611962565b60005b82811015611bae57848901518255600182019150602085019450602081019050611b89565b86831015611bcb5784890151611bc7601f891682611ad4565b8355505b6001600288020188555050505b505050505050565b60006020820190508181036000830152611bfa81846111d4565b905092915050565b7f496e76616c69642063616d706169676e20494400000000000000000000000000600082015250565b6000611c386013836111c3565b9150611c4382611c02565b602082019050919050565b60006020820190508181036000830152611c6781611c2b565b9050919050565b7f596f7520617265206e6f74207468652063616d706169676e2063726561746f7260008201527f2100000000000000000000000000000000000000000000000000000000000000602082015250565b6000611cca6021836111c3565b9150611cd582611c6e565b604082019050919050565b60006020820190508181036000830152611cf981611cbd565b9050919050565b60008154611d0d81611649565b611d1781866111c3565b94506001821660008114611d325760018114611d4857611d7b565b60ff198316865281151560200286019350611d7b565b611d5185611962565b60005b83811015611d7357815481890152600182019150602081019050611d54565b808801955050505b50505092915050565b60006020820190508181036000830152611d9e8184611d00565b90509291505056fea264697066735822122023682868f65afb61197b3cb614bc5a9df44c9aa6fd3aa965dbf9d0a6e7d08eb664736f6c63430008120033",
  "linkReferences": {},
  "deployedLinkReferences": {}
}