{
  "_format": "hh-sol-artifact-1",
  "contractName": "CrowdFunding",
  "sourceName": "contracts/CrowdFunding.sol",
  "abi": [
    {
      "inputs": [],
      "stateMutability": "payable",
      "type": "constructor"
    },
    {
      "anonymous": false,
      "inputs": [
        {
          "indexed": true,
          "internalType": "address",
          "name": "sender",
          "type": "address"
        },
        {
          "indexed": false,
          "internalType": "string",
          "name": "title",
          "type": "string"
        }
      ],
      "name": "CampaignCreated",
      "type": "event"
    },
    {
      "anonymous": false,
      "inputs": [
        {
          "indexed": true,
          "internalType": "address",
          "name": "sender",
          "type": "address"
        },
        {
          "indexed": false,
          "internalType": "string",
          "name": "title",
          "type": "string"
        }
      ],
      "name": "CampaignEdited",
      "type": "event"
    },
    {
      "anonymous": false,
      "inputs": [
        {
          "indexed": true,
          "internalType": "address",
          "name": "sender",
          "type": "address"
        },
        {
          "indexed": false,
          "internalType": "string",
          "name": "title",
          "type": "string"
        },
        {
          "indexed": false,
          "internalType": "uint256",
          "name": "amount",
          "type": "uint256"
        }
      ],
      "name": "DonationSent",
      "type": "event"
    },
    {
      "inputs": [
        {
          "internalType": "uint256",
          "name": "",
          "type": "uint256"
        }
      ],
      "name": "campaigns",
      "outputs": [
        {
          "internalType": "uint256",
          "name": "id",
          "type": "uint256"
        },
        {
          "internalType": "address",
          "name": "creator",
          "type": "address"
        },
        {
          "internalType": "string",
          "name": "fullname",
          "type": "string"
        },
        {
          "internalType": "string",
          "name": "title",
          "type": "string"
        },
        {
          "internalType": "string",
          "name": "story",
          "type": "string"
        },
        {
          "internalType": "uint256",
          "name": "goalAmount",
          "type": "uint256"
        },
        {
          "internalType": "uint256",
          "name": "currentAmount",
          "type": "uint256"
        },
        {
          "internalType": "uint256",
          "name": "deadline",
          "type": "uint256"
        },
        {
          "internalType": "uint256",
          "name": "totalDonations",
          "type": "uint256"
        }
      ],
      "stateMutability": "view",
      "type": "function"
    },
    {
      "inputs": [
        {
          "internalType": "string",
          "name": "_fullname",
          "type": "string"
        },
        {
          "internalType": "string",
          "name": "_title",
          "type": "string"
        },
        {
          "internalType": "string",
          "name": "_story",
          "type": "string"
        },
        {
          "internalType": "uint256",
          "name": "_goalAmount",
          "type": "uint256"
        },
        {
          "internalType": "uint256",
          "name": "_deadline",
          "type": "uint256"
        }
      ],
      "name": "createCampaign",
      "outputs": [],
      "stateMutability": "nonpayable",
      "type": "function"
    },
    {
      "inputs": [
        {
          "internalType": "uint256",
          "name": "",
          "type": "uint256"
        }
      ],
      "name": "donationTransactions",
      "outputs": [
        {
          "internalType": "uint256",
          "name": "id",
          "type": "uint256"
        },
        {
          "internalType": "uint256",
          "name": "campaignId",
          "type": "uint256"
        },
        {
          "internalType": "address",
          "name": "donor",
          "type": "address"
        },
        {
          "internalType": "uint256",
          "name": "amount",
          "type": "uint256"
        },
        {
          "internalType": "uint256",
          "name": "timestamp",
          "type": "uint256"
        }
      ],
      "stateMutability": "view",
      "type": "function"
    },
    {
      "inputs": [
        {
          "internalType": "uint256",
          "name": "_campaignId",
          "type": "uint256"
        },
        {
          "internalType": "string",
          "name": "_fullname",
          "type": "string"
        },
        {
          "internalType": "string",
          "name": "_title",
          "type": "string"
        },
        {
          "internalType": "string",
          "name": "_story",
          "type": "string"
        },
        {
          "internalType": "uint256",
          "name": "_goalAmount",
          "type": "uint256"
        },
        {
          "internalType": "uint256",
          "name": "_deadline",
          "type": "uint256"
        }
      ],
      "name": "editCampaign",
      "outputs": [],
      "stateMutability": "nonpayable",
      "type": "function"
    },
    {
      "inputs": [
        {
          "internalType": "uint256",
          "name": "_campaignId",
          "type": "uint256"
        }
      ],
      "name": "getCampaign",
      "outputs": [
        {
          "components": [
            {
              "internalType": "uint256",
              "name": "id",
              "type": "uint256"
            },
            {
              "internalType": "address",
              "name": "creator",
              "type": "address"
            },
            {
              "internalType": "string",
              "name": "fullname",
              "type": "string"
            },
            {
              "internalType": "string",
              "name": "title",
              "type": "string"
            },
            {
              "internalType": "string",
              "name": "story",
              "type": "string"
            },
            {
              "internalType": "uint256",
              "name": "goalAmount",
              "type": "uint256"
            },
            {
              "internalType": "uint256",
              "name": "currentAmount",
              "type": "uint256"
            },
            {
              "internalType": "uint256",
              "name": "deadline",
              "type": "uint256"
            },
            {
              "internalType": "uint256",
              "name": "totalDonations",
              "type": "uint256"
            }
          ],
          "internalType": "struct CrowdFunding.Campaign",
          "name": "",
          "type": "tuple"
        }
      ],
      "stateMutability": "view",
      "type": "function"
    },
    {
      "inputs": [
        {
          "internalType": "uint256",
          "name": "_campaignId",
          "type": "uint256"
        }
      ],
      "name": "getCampaignDonations",
      "outputs": [
        {
          "components": [
            {
              "internalType": "uint256",
              "name": "id",
              "type": "uint256"
            },
            {
              "internalType": "uint256",
              "name": "campaignId",
              "type": "uint256"
            },
            {
              "internalType": "address",
              "name": "donor",
              "type": "address"
            },
            {
              "internalType": "uint256",
              "name": "amount",
              "type": "uint256"
            },
            {
              "internalType": "uint256",
              "name": "timestamp",
              "type": "uint256"
            }
          ],
          "internalType": "struct CrowdFunding.DonationTransaction[]",
          "name": "allDonations",
          "type": "tuple[]"
        },
        {
          "internalType": "uint256",
          "name": "totalCampaignDonations",
          "type": "uint256"
        }
      ],
      "stateMutability": "view",
      "type": "function"
    },
    {
      "inputs": [
        {
          "internalType": "address",
          "name": "_walletAddress",
          "type": "address"
        },
        {
          "internalType": "uint256",
          "name": "_pageSize",
          "type": "uint256"
        },
        {
          "internalType": "uint256",
          "name": "_pageNumber",
          "type": "uint256"
        }
      ],
      "name": "getDonatorsByWalletAddress",
      "outputs": [
        {
          "components": [
            {
              "internalType": "address",
              "name": "userAddress",
              "type": "address"
            },
            {
              "internalType": "string",
              "name": "campaignTitle",
              "type": "string"
            },
            {
              "internalType": "uint256",
              "name": "donationAmount",
              "type": "uint256"
            }
          ],
          "internalType": "struct CrowdFunding.DonationData[]",
          "name": "donations",
          "type": "tuple[]"
        },
        {
          "internalType": "uint256",
          "name": "donatorCount",
          "type": "uint256"
        },
        {
          "internalType": "uint256",
          "name": "totalPages",
          "type": "uint256"
        },
        {
          "internalType": "uint256",
          "name": "nextPage",
          "type": "uint256"
        },
        {
          "internalType": "uint256",
          "name": "previousPage",
          "type": "uint256"
        }
      ],
      "stateMutability": "view",
      "type": "function"
    },
    {
      "inputs": [
        {
          "internalType": "uint256",
          "name": "_size",
          "type": "uint256"
        }
      ],
      "name": "getRecentCampaigns",
      "outputs": [
        {
          "components": [
            {
              "internalType": "uint256",
              "name": "id",
              "type": "uint256"
            },
            {
              "internalType": "address",
              "name": "creator",
              "type": "address"
            },
            {
              "internalType": "string",
              "name": "fullname",
              "type": "string"
            },
            {
              "internalType": "string",
              "name": "title",
              "type": "string"
            },
            {
              "internalType": "string",
              "name": "story",
              "type": "string"
            },
            {
              "internalType": "uint256",
              "name": "goalAmount",
              "type": "uint256"
            },
            {
              "internalType": "uint256",
              "name": "currentAmount",
              "type": "uint256"
            },
            {
              "internalType": "uint256",
              "name": "deadline",
              "type": "uint256"
            },
            {
              "internalType": "uint256",
              "name": "totalDonations",
              "type": "uint256"
            }
          ],
          "internalType": "struct CrowdFunding.Campaign[]",
          "name": "recentCampaigns",
          "type": "tuple[]"
        },
        {
          "internalType": "uint256",
          "name": "totalFetchedCampaigns",
          "type": "uint256"
        },
        {
          "internalType": "uint256",
          "name": "totalAllCampaigns",
          "type": "uint256"
        }
      ],
      "stateMutability": "view",
      "type": "function"
    },
    {
      "inputs": [
        {
          "internalType": "uint256",
          "name": "_pageSize",
          "type": "uint256"
        },
        {
          "internalType": "uint256",
          "name": "_pageNumber",
          "type": "uint256"
        }
      ],
      "name": "getUserCampaigns",
      "outputs": [
        {
          "components": [
            {
              "internalType": "uint256",
              "name": "id",
              "type": "uint256"
            },
            {
              "internalType": "address",
              "name": "creator",
              "type": "address"
            },
            {
              "internalType": "string",
              "name": "fullname",
              "type": "string"
            },
            {
              "internalType": "string",
              "name": "title",
              "type": "string"
            },
            {
              "internalType": "string",
              "name": "story",
              "type": "string"
            },
            {
              "internalType": "uint256",
              "name": "goalAmount",
              "type": "uint256"
            },
            {
              "internalType": "uint256",
              "name": "currentAmount",
              "type": "uint256"
            },
            {
              "internalType": "uint256",
              "name": "deadline",
              "type": "uint256"
            },
            {
              "internalType": "uint256",
              "name": "totalDonations",
              "type": "uint256"
            }
          ],
          "internalType": "struct CrowdFunding.Campaign[]",
          "name": "allCampaigns",
          "type": "tuple[]"
        },
        {
          "internalType": "uint256",
          "name": "userTotalCampaigns",
          "type": "uint256"
        },
        {
          "internalType": "uint256",
          "name": "totalPages",
          "type": "uint256"
        },
        {
          "internalType": "uint256",
          "name": "nextPage",
          "type": "uint256"
        },
        {
          "internalType": "uint256",
          "name": "previousPage",
          "type": "uint256"
        }
      ],
      "stateMutability": "view",
      "type": "function"
    },
    {
      "inputs": [
        {
          "internalType": "address",
          "name": "_userAddress",
          "type": "address"
        },
        {
          "internalType": "uint256",
          "name": "_pageSize",
          "type": "uint256"
        },
        {
          "internalType": "uint256",
          "name": "_pageNumber",
          "type": "uint256"
        }
      ],
      "name": "getUserDonations",
      "outputs": [
        {
          "components": [
            {
              "internalType": "address",
              "name": "userAddress",
              "type": "address"
            },
            {
              "internalType": "string",
              "name": "campaignTitle",
              "type": "string"
            },
            {
              "internalType": "uint256",
              "name": "donationAmount",
              "type": "uint256"
            }
          ],
          "internalType": "struct CrowdFunding.DonationData[]",
          "name": "userDonations",
          "type": "tuple[]"
        },
        {
          "components": [
            {
              "internalType": "uint256",
              "name": "totalPages",
              "type": "uint256"
            },
            {
              "internalType": "uint256",
              "name": "nextPage",
              "type": "uint256"
            },
            {
              "internalType": "uint256",
              "name": "previousPage",
              "type": "uint256"
            },
            {
              "internalType": "uint256",
              "name": "startIndex",
              "type": "uint256"
            },
            {
              "internalType": "uint256",
              "name": "endIndex",
              "type": "uint256"
            }
          ],
          "internalType": "struct CrowdFunding.PaginationData",
          "name": "pagination",
          "type": "tuple"
        }
      ],
      "stateMutability": "view",
      "type": "function"
    },
    {
      "inputs": [],
      "name": "owner",
      "outputs": [
        {
          "internalType": "address payable",
          "name": "",
          "type": "address"
        }
      ],
      "stateMutability": "view",
      "type": "function"
    },
    {
      "inputs": [
        {
          "internalType": "string",
          "name": "searchTerm",
          "type": "string"
        },
        {
          "internalType": "uint256",
          "name": "pageSize",
          "type": "uint256"
        },
        {
          "internalType": "uint256",
          "name": "startIndex",
          "type": "uint256"
        }
      ],
      "name": "searchByTitle",
      "outputs": [
        {
          "components": [
            {
              "internalType": "uint256",
              "name": "id",
              "type": "uint256"
            },
            {
              "internalType": "address",
              "name": "creator",
              "type": "address"
            },
            {
              "internalType": "string",
              "name": "fullname",
              "type": "string"
            },
            {
              "internalType": "string",
              "name": "title",
              "type": "string"
            },
            {
              "internalType": "string",
              "name": "story",
              "type": "string"
            },
            {
              "internalType": "uint256",
              "name": "goalAmount",
              "type": "uint256"
            },
            {
              "internalType": "uint256",
              "name": "currentAmount",
              "type": "uint256"
            },
            {
              "internalType": "uint256",
              "name": "deadline",
              "type": "uint256"
            },
            {
              "internalType": "uint256",
              "name": "totalDonations",
              "type": "uint256"
            }
          ],
          "internalType": "struct CrowdFunding.Campaign[]",
          "name": "matchingCampaigns",
          "type": "tuple[]"
        },
        {
          "components": [
            {
              "internalType": "bool",
              "name": "isLastPage",
              "type": "bool"
            },
            {
              "internalType": "uint256",
              "name": "nextIndex",
              "type": "uint256"
            }
          ],
          "internalType": "struct CrowdFunding.SearchIndexData",
          "name": "searchIndexData",
          "type": "tuple"
        }
      ],
      "stateMutability": "view",
      "type": "function"
    },
    {
      "inputs": [
        {
          "internalType": "uint256",
          "name": "_campaignId",
          "type": "uint256"
        }
      ],
      "name": "sendDonation",
      "outputs": [],
      "stateMutability": "payable",
      "type": "function"
    },
    {
      "inputs": [],
      "name": "totalCampaigns",
      "outputs": [
        {
          "internalType": "uint256",
          "name": "",
          "type": "uint256"
        }
      ],
      "stateMutability": "view",
      "type": "function"
    },
    {
      "inputs": [],
      "name": "totalDonations",
      "outputs": [
        {
          "internalType": "uint256",
          "name": "",
          "type": "uint256"
        }
      ],
      "stateMutability": "view",
      "type": "function"
    },
    {
      "inputs": [
        {
          "internalType": "address",
          "name": "",
          "type": "address"
        }
      ],
      "name": "users",
      "outputs": [
        {
          "internalType": "uint256",
          "name": "totalCampaigns",
          "type": "uint256"
        },
        {
          "internalType": "uint256",
          "name": "totalDonations",
          "type": "uint256"
        }
      ],
      "stateMutability": "view",
      "type": "function"
    }
  ],
  "bytecode": "0x6080604052336000806101000a81548173ffffffffffffffffffffffffffffffffffffffff021916908373ffffffffffffffffffffffffffffffffffffffff1602179055506000600481905550614ab28061005b6000396000f3fe6080604052600436106100f35760003560e01c806371b7baae1161008a578063a87430ba11610059578063a87430ba14610390578063b0445d60146103ce578063de2ed8931461040f578063e1a783a01461043a576100f3565b806371b7baae146102bc5780638acd0bfc146102fb5780638da5cb5b1461033c578063980f2e6614610367576100f3565b806345d0b60a116100c657806345d0b60a146101e75780635167642f146102255780635598f8cc14610263578063665588c9146102a0576100f3565b806302932f56146100f8578063141961bc146101235780632e5293f3146101685780633e3b6675146101a6575b600080fd5b34801561010457600080fd5b5061010d610463565b60405161011a919061315c565b60405180910390f35b34801561012f57600080fd5b5061014a600480360381019061014591906131b7565b610469565b60405161015f999897969594939291906132b5565b60405180910390f35b34801561017457600080fd5b5061018f600480360381019061018a919061348c565b61066f565b60405161019d929190613742565b60405180910390f35b3480156101b257600080fd5b506101cd60048036038101906101c89190613772565b610be0565b6040516101de9594939291906137b2565b60405180910390f35b3480156101f357600080fd5b5061020e60048036038101906102099190613838565b610f94565b60405161021c929190613a05565b60405180910390f35b34801561023157600080fd5b5061024c600480360381019061024791906131b7565b61141b565b60405161025a929190613b4c565b60405180910390f35b34801561026f57600080fd5b5061028a600480360381019061028591906131b7565b6117f0565b6040516102979190613c4f565b60405180910390f35b6102ba60048036038101906102b591906131b7565b611a5c565b005b3480156102c857600080fd5b506102e360048036038101906102de91906131b7565b611d4c565b6040516102f293929190613c71565b60405180910390f35b34801561030757600080fd5b50610322600480360381019061031d91906131b7565b6120a9565b604051610333959493929190613caf565b60405180910390f35b34801561034857600080fd5b506103516120ff565b60405161035e9190613d23565b60405180910390f35b34801561037357600080fd5b5061038e60048036038101906103899190613d3e565b612123565b005b34801561039c57600080fd5b506103b760048036038101906103b29190613e0d565b61251f565b6040516103c5929190613e3a565b60405180910390f35b3480156103da57600080fd5b506103f560048036038101906103f09190613838565b612543565b604051610406959493929190613e63565b60405180910390f35b34801561041b57600080fd5b50610424612913565b604051610431919061315c565b60405180910390f35b34801561044657600080fd5b50610461600480360381019061045c9190613ebd565b612919565b005b60045481565b60026020528060005260406000206000915090508060000154908060010160009054906101000a900473ffffffffffffffffffffffffffffffffffffffff16908060020180546104b890613fcd565b80601f01602080910402602001604051908101604052809291908181526020018280546104e490613fcd565b80156105315780601f1061050657610100808354040283529160200191610531565b820191906000526020600020905b81548152906001019060200180831161051457829003601f168201915b50505050509080600301805461054690613fcd565b80601f016020809104026020016040519081016040528092919081815260200182805461057290613fcd565b80156105bf5780601f10610594576101008083540402835291602001916105bf565b820191906000526020600020905b8154815290600101906020018083116105a257829003601f168201915b5050505050908060040180546105d490613fcd565b80601f016020809104026020016040519081016040528092919081815260200182805461060090613fcd565b801561064d5780601f106106225761010080835404028352916020019161064d565b820191906000526020600020905b81548152906001019060200180831161063057829003601f168201915b5050505050908060050154908060060154908060070154908060080154905089565b606061067961301a565b600084116106bc576040517f08c379a00000000000000000000000000000000000000000000000000000000081526004016106b39061404a565b60405180910390fd5b6000808490505b600454811080156106d45750858214155b156108085761079161078360026000848152602001908152602001600020600301805461070090613fcd565b80601f016020809104026020016040519081016040528092919081815260200182805461072c90613fcd565b80156107795780601f1061074e57610100808354040283529160200191610779565b820191906000526020600020905b81548152906001019060200180831161075c57829003601f168201915b5050505050612c10565b61078c89612c10565b612cfb565b156107a55781806107a190614099565b9250505b8582036107c3576001816107b991906140e1565b8360200181815250505b6004546001826107d391906140e1565b036107f557600183600001901515908115158152505060008360200181815250505b808061080090614099565b9150506106c3565b508067ffffffffffffffff81111561082357610822613361565b5b60405190808252806020026020018201604052801561085c57816020015b610849613036565b8152602001906001900390816108415790505b5092506000808590505b6004548110801561087657508282105b15610bd5576109336109256002600084815260200190815260200160002060030180546108a290613fcd565b80601f01602080910402602001604051908101604052809291908181526020018280546108ce90613fcd565b801561091b5780601f106108f05761010080835404028352916020019161091b565b820191906000526020600020905b8154815290600101906020018083116108fe57829003601f168201915b5050505050612c10565b61092e8a612c10565b612cfb565b15610bc2576002600082815260200190815260200160002060405180610120016040529081600082015481526020016001820160009054906101000a900473ffffffffffffffffffffffffffffffffffffffff1673ffffffffffffffffffffffffffffffffffffffff1673ffffffffffffffffffffffffffffffffffffffff1681526020016002820180546109c790613fcd565b80601f01602080910402602001604051908101604052809291908181526020018280546109f390613fcd565b8015610a405780601f10610a1557610100808354040283529160200191610a40565b820191906000526020600020905b815481529060010190602001808311610a2357829003601f168201915b50505050508152602001600382018054610a5990613fcd565b80601f0160208091040260200160405190810160405280929190818152602001828054610a8590613fcd565b8015610ad25780601f10610aa757610100808354040283529160200191610ad2565b820191906000526020600020905b815481529060010190602001808311610ab557829003601f168201915b50505050508152602001600482018054610aeb90613fcd565b80601f0160208091040260200160405190810160405280929190818152602001828054610b1790613fcd565b8015610b645780601f10610b3957610100808354040283529160200191610b64565b820191906000526020600020905b815481529060010190602001808311610b4757829003601f168201915b50505050508152602001600582015481526020016006820154815260200160078201548152602001600882015481525050858381518110610ba857610ba7614115565b5b60200260200101819052508180610bbe90614099565b9250505b8080610bcd90614099565b915050610866565b505050935093915050565b60606000806000806000600160003373ffffffffffffffffffffffffffffffffffffffff1673ffffffffffffffffffffffffffffffffffffffff16815260200190815260200160002090506000610c3c82600001548a8a612e26565b905080606001518160800151610c529190614144565b67ffffffffffffffff811115610c6b57610c6a613361565b5b604051908082528060200260200182016040528015610ca457816020015b610c91613036565b815260200190600190039081610c895790505b50965060005b8751811015610f6b57600060026000856002016000858760600151610ccf91906140e1565b815260200190815260200160002054815260200190815260200160002060405180610120016040529081600082015481526020016001820160009054906101000a900473ffffffffffffffffffffffffffffffffffffffff1673ffffffffffffffffffffffffffffffffffffffff1673ffffffffffffffffffffffffffffffffffffffff168152602001600282018054610d6890613fcd565b80601f0160208091040260200160405190810160405280929190818152602001828054610d9490613fcd565b8015610de15780601f10610db657610100808354040283529160200191610de1565b820191906000526020600020905b815481529060010190602001808311610dc457829003601f168201915b50505050508152602001600382018054610dfa90613fcd565b80601f0160208091040260200160405190810160405280929190818152602001828054610e2690613fcd565b8015610e735780601f10610e4857610100808354040283529160200191610e73565b820191906000526020600020905b815481529060010190602001808311610e5657829003601f168201915b50505050508152602001600482018054610e8c90613fcd565b80601f0160208091040260200160405190810160405280929190818152602001828054610eb890613fcd565b8015610f055780601f10610eda57610100808354040283529160200191610f05565b820191906000526020600020905b815481529060010190602001808311610ee857829003601f168201915b50505050508152602001600582015481526020016006820154815260200160078201548152602001600882015481525050905080898381518110610f4c57610f4b614115565b5b6020026020010181905250508080610f6390614099565b915050610caa565b508160000154955080600001519450806020015193508060400151925050509295509295909350565b6060610f9e613098565b600080600160008873ffffffffffffffffffffffffffffffffffffffff1673ffffffffffffffffffffffffffffffffffffffff1681526020019081526020016000209050610ff181600101548787612e26565b9250826060015183608001516110079190614144565b67ffffffffffffffff8111156110205761101f613361565b5b60405190808252806020026020018201604052801561105957816020015b6110466130c7565b81526020019060019003908161103e5790505b5093506000836060015190505b8360800151811015611410576000600360008460030160008581526020019081526020016000205481526020019081526020016000206040518060a001604052908160008201548152602001600182015481526020016002820160009054906101000a900473ffffffffffffffffffffffffffffffffffffffff1673ffffffffffffffffffffffffffffffffffffffff1673ffffffffffffffffffffffffffffffffffffffff1681526020016003820154815260200160048201548152505090506000600260008360200151815260200190815260200160002060405180610120016040529081600082015481526020016001820160009054906101000a900473ffffffffffffffffffffffffffffffffffffffff1673ffffffffffffffffffffffffffffffffffffffff1673ffffffffffffffffffffffffffffffffffffffff1681526020016002820180546111bc90613fcd565b80601f01602080910402602001604051908101604052809291908181526020018280546111e890613fcd565b80156112355780601f1061120a57610100808354040283529160200191611235565b820191906000526020600020905b81548152906001019060200180831161121857829003601f168201915b5050505050815260200160038201805461124e90613fcd565b80601f016020809104026020016040519081016040528092919081815260200182805461127a90613fcd565b80156112c75780601f1061129c576101008083540402835291602001916112c7565b820191906000526020600020905b8154815290600101906020018083116112aa57829003601f168201915b505050505081526020016004820180546112e090613fcd565b80601f016020809104026020016040519081016040528092919081815260200182805461130c90613fcd565b80156113595780601f1061132e57610100808354040283529160200191611359565b820191906000526020600020905b81548152906001019060200180831161133c57829003601f168201915b50505050508152602001600582015481526020016006820154815260200160078201548152602001600882015481525050905060006040518060600160405280836020015173ffffffffffffffffffffffffffffffffffffffff1681526020018360600151815260200184606001518152509050808887815181106113e1576113e0614115565b5b602002602001018190525085806113f790614099565b965050505050808061140890614099565b915050611066565b505050935093915050565b60606000806002600085815260200190815260200160002060405180610120016040529081600082015481526020016001820160009054906101000a900473ffffffffffffffffffffffffffffffffffffffff1673ffffffffffffffffffffffffffffffffffffffff1673ffffffffffffffffffffffffffffffffffffffff1681526020016002820180546114af90613fcd565b80601f01602080910402602001604051908101604052809291908181526020018280546114db90613fcd565b80156115285780601f106114fd57610100808354040283529160200191611528565b820191906000526020600020905b81548152906001019060200180831161150b57829003601f168201915b5050505050815260200160038201805461154190613fcd565b80601f016020809104026020016040519081016040528092919081815260200182805461156d90613fcd565b80156115ba5780601f1061158f576101008083540402835291602001916115ba565b820191906000526020600020905b81548152906001019060200180831161159d57829003601f168201915b505050505081526020016004820180546115d390613fcd565b80601f01602080910402602001604051908101604052809291908181526020018280546115ff90613fcd565b801561164c5780601f106116215761010080835404028352916020019161164c565b820191906000526020600020905b81548152906001019060200180831161162f57829003601f168201915b50505050508152602001600582015481526020016006820154815260200160078201548152602001600882015481525050905080610100015191508167ffffffffffffffff8111156116a1576116a0613361565b5b6040519080825280602002602001820160405280156116da57816020015b6116c76130fe565b8152602001906001900390816116bf5790505b5092506000805b6005548110156117e85782600001516003600083815260200190815260200160002060010154036117d557600360008281526020019081526020016000206040518060a001604052908160008201548152602001600182015481526020016002820160009054906101000a900473ffffffffffffffffffffffffffffffffffffffff1673ffffffffffffffffffffffffffffffffffffffff1673ffffffffffffffffffffffffffffffffffffffff168152602001600382015481526020016004820154815250508583815181106117bb576117ba614115565b5b602002602001018190525081806117d190614099565b9250505b80806117e090614099565b9150506116e1565b505050915091565b6117f8613036565b6002600083815260200190815260200160002060405180610120016040529081600082015481526020016001820160009054906101000a900473ffffffffffffffffffffffffffffffffffffffff1673ffffffffffffffffffffffffffffffffffffffff1673ffffffffffffffffffffffffffffffffffffffff16815260200160028201805461188790613fcd565b80601f01602080910402602001604051908101604052809291908181526020018280546118b390613fcd565b80156119005780601f106118d557610100808354040283529160200191611900565b820191906000526020600020905b8154815290600101906020018083116118e357829003601f168201915b5050505050815260200160038201805461191990613fcd565b80601f016020809104026020016040519081016040528092919081815260200182805461194590613fcd565b80156119925780601f1061196757610100808354040283529160200191611992565b820191906000526020600020905b81548152906001019060200180831161197557829003601f168201915b505050505081526020016004820180546119ab90613fcd565b80601f01602080910402602001604051908101604052809291908181526020018280546119d790613fcd565b8015611a245780601f106119f957610100808354040283529160200191611a24565b820191906000526020600020905b815481529060010190602001808311611a0757829003601f168201915b505050505081526020016005820154815260200160068201548152602001600782015481526020016008820154815250509050919050565b60008110158015611a6e575060045481105b611aad576040517f08c379a0000000000000000000000000000000000000000000000000000000008152600401611aa4906141c4565b60405180910390fd5b60006002600083815260200190815260200160002090508060070154421115611b0b576040517f08c379a0000000000000000000000000000000000000000000000000000000008152600401611b0290614230565b60405180910390fd5b60003411611b4e576040517f08c379a0000000000000000000000000000000000000000000000000000000008152600401611b45906142c2565b60405180910390fd5b6000600160003373ffffffffffffffffffffffffffffffffffffffff1673ffffffffffffffffffffffffffffffffffffffff168152602001908152602001600020905060008160010154905060006040518060a001604052806005548152602001856000015481526020013373ffffffffffffffffffffffffffffffffffffffff16815260200134815260200142815250905080600360006005548152602001908152602001600020600082015181600001556020820151816001015560408201518160020160006101000a81548173ffffffffffffffffffffffffffffffffffffffff021916908373ffffffffffffffffffffffffffffffffffffffff160217905550606082015181600301556080820151816004015590505080600001518360030160008481526020019081526020016000208190555034846006016000828254611c9b91906140e1565b9250508190555060056000815480929190611cb590614099565b9190505550826001016000815480929190611ccf90614099565b9190505550836008016000815480929190611ce990614099565b91905055503373ffffffffffffffffffffffffffffffffffffffff167f3b5443c59641f965c6df0836dbe11676fa8c79c3184392351bb19fd51de3d49a856003018660060154604051611d3d92919061437b565b60405180910390a25050505050565b606060008060006004548510611d63576000611d72565b84600454611d719190614144565b5b905060006004548610611d8757600454611d89565b855b90508067ffffffffffffffff811115611da557611da4613361565b5b604051908082528060200260200182016040528015611dde57816020015b611dcb613036565b815260200190600190039081611dc35790505b50945060005b8181101561208557600260008285611dfc91906140e1565b815260200190815260200160002060405180610120016040529081600082015481526020016001820160009054906101000a900473ffffffffffffffffffffffffffffffffffffffff1673ffffffffffffffffffffffffffffffffffffffff1673ffffffffffffffffffffffffffffffffffffffff168152602001600282018054611e8690613fcd565b80601f0160208091040260200160405190810160405280929190818152602001828054611eb290613fcd565b8015611eff5780601f10611ed457610100808354040283529160200191611eff565b820191906000526020600020905b815481529060010190602001808311611ee257829003601f168201915b50505050508152602001600382018054611f1890613fcd565b80601f0160208091040260200160405190810160405280929190818152602001828054611f4490613fcd565b8015611f915780601f10611f6657610100808354040283529160200191611f91565b820191906000526020600020905b815481529060010190602001808311611f7457829003601f168201915b50505050508152602001600482018054611faa90613fcd565b80601f0160208091040260200160405190810160405280929190818152602001828054611fd690613fcd565b80156120235780601f10611ff857610100808354040283529160200191612023565b820191906000526020600020905b81548152906001019060200180831161200657829003601f168201915b5050505050815260200160058201548152602001600682015481526020016007820154815260200160088201548152505086828151811061206757612066614115565b5b6020026020010181905250808061207d90614099565b915050611de4565b50600060045411612097576000612099565b805b9350600454925050509193909250565b60036020528060005260406000206000915090508060000154908060010154908060020160009054906101000a900473ffffffffffffffffffffffffffffffffffffffff16908060030154908060040154905085565b60008054906101000a900473ffffffffffffffffffffffffffffffffffffffff1681565b848484848442811161216a576040517f08c379a0000000000000000000000000000000000000000000000000000000008152600401612161906143f7565b60405180910390fd5b600082116121ad576040517f08c379a00000000000000000000000000000000000000000000000000000000081526004016121a490614489565b60405180910390fd5b60008551116121f1576040517f08c379a00000000000000000000000000000000000000000000000000000000081526004016121e8906144f5565b60405180910390fd5b6000845111612235576040517f08c379a000000000000000000000000000000000000000000000000000000000815260040161222c90614561565b60405180910390fd5b6000835111612279576040517f08c379a0000000000000000000000000000000000000000000000000000000008152600401612270906145cd565b60405180910390fd5b600060405180610120016040528060045481526020013373ffffffffffffffffffffffffffffffffffffffff1681526020018c81526020018b81526020018a81526020018981526020016000815260200188815260200160008152509050806002600060045481526020019081526020016000206000820151816000015560208201518160010160006101000a81548173ffffffffffffffffffffffffffffffffffffffff021916908373ffffffffffffffffffffffffffffffffffffffff16021790555060408201518160020190816123539190614784565b5060608201518160030190816123699190614784565b50608082015181600401908161237f9190614784565b5060a0820151816005015560c0820151816006015560e0820151816007015561010082015181600801559050506000600160003373ffffffffffffffffffffffffffffffffffffffff1673ffffffffffffffffffffffffffffffffffffffff1681526020019081526020016000206000015490508160000151600160003373ffffffffffffffffffffffffffffffffffffffff1673ffffffffffffffffffffffffffffffffffffffff168152602001908152602001600020600201600083815260200190815260200160002081905550600160003373ffffffffffffffffffffffffffffffffffffffff1673ffffffffffffffffffffffffffffffffffffffff16815260200190815260200160002060000160008154809291906124a290614099565b9190505550600460008154809291906124ba90614099565b91905055503373ffffffffffffffffffffffffffffffffffffffff167f17dd0b5f0975f4651b002ed3b016428bae979f5704d8b2473931b2312185c05a83606001516040516125099190614856565b60405180910390a2505050505050505050505050565b60016020528060005260406000206000915090508060000154908060010154905082565b606060008060008060009350612557613098565b60005b60045481101561263e5760006002600083815260200190815260200160002090508a73ffffffffffffffffffffffffffffffffffffffff168160010160009054906101000a900473ffffffffffffffffffffffffffffffffffffffff1673ffffffffffffffffffffffffffffffffffffffff160361262a5760005b600554811015612628576000600360008381526020019081526020016000209050826000015481600101540361261457888061261090614099565b9950505b50808061262090614099565b9150506125d5565b505b50808061263690614099565b91505061255a565b5061264a858989612e26565b9050806060015181608001516126609190614144565b67ffffffffffffffff81111561267957612678613361565b5b6040519080825280602002602001820160405280156126b257816020015b61269f6130c7565b8152602001906001900390816126975790505b5095506000805b6004548110156128f05760006002600083815260200190815260200160002090508b73ffffffffffffffffffffffffffffffffffffffff168160010160009054906101000a900473ffffffffffffffffffffffffffffffffffffffff1673ffffffffffffffffffffffffffffffffffffffff16036128dc5760005b6005548110156128da57600060036000838152602001908152602001600020905082600001548160010154036128c6578560600151851015801561277b5750856080015185105b156128b7576127886130c7565b8160020160009054906101000a900473ffffffffffffffffffffffffffffffffffffffff16816000019073ffffffffffffffffffffffffffffffffffffffff16908173ffffffffffffffffffffffffffffffffffffffff16815250508360030180546127f390613fcd565b80601f016020809104026020016040519081016040528092919081815260200182805461281f90613fcd565b801561286c5780601f106128415761010080835404028352916020019161286c565b820191906000526020600020905b81548152906001019060200180831161284f57829003601f168201915b505050505081602001819052508160030154816040018181525050808c8860600151886128999190614144565b815181106128aa576128a9614115565b5b6020026020010181905250505b84806128c290614099565b9550505b5080806128d290614099565b915050612734565b505b5080806128e890614099565b9150506126b9565b508160000151945081602001519350816040015192505050939792965093509350565b60055481565b8484848484428111612960576040517f08c379a0000000000000000000000000000000000000000000000000000000008152600401612957906143f7565b60405180910390fd5b600082116129a3576040517f08c379a000000000000000000000000000000000000000000000000000000000815260040161299a90614489565b60405180910390fd5b60008551116129e7576040517f08c379a00000000000000000000000000000000000000000000000000000000081526004016129de906144f5565b60405180910390fd5b6000845111612a2b576040517f08c379a0000000000000000000000000000000000000000000000000000000008152600401612a2290614561565b60405180910390fd5b6000835111612a6f576040517f08c379a0000000000000000000000000000000000000000000000000000000008152600401612a66906145cd565b60405180910390fd5b6000600260008d8152602001908152602001600020905060008c10158015612a9857506004548c105b612ad7576040517f08c379a0000000000000000000000000000000000000000000000000000000008152600401612ace906141c4565b60405180910390fd5b3373ffffffffffffffffffffffffffffffffffffffff168160010160009054906101000a900473ffffffffffffffffffffffffffffffffffffffff1673ffffffffffffffffffffffffffffffffffffffff1614612b69576040517f08c379a0000000000000000000000000000000000000000000000000000000008152600401612b60906148ea565b60405180910390fd5b8a816002019081612b7a9190614784565b5089816003019081612b8c9190614784565b5088816004019081612b9e9190614784565b508781600501819055508681600701819055503373ffffffffffffffffffffffffffffffffffffffff167fb961c338b427968a67f1a3560907d7075a0d1fca0c2d16dcb76da3a963cfe37382600301604051612bfa919061490a565b60405180910390a2505050505050505050505050565b606060008290506000815167ffffffffffffffff811115612c3457612c33613361565b5b6040519080825280601f01601f191660200182016040528015612c665781602001600182028036833780820191505090505b50905060005b8251811015612cf057612c9b838281518110612c8b57612c8a614115565b5b602001015160f81c60f81b612fd2565b828281518110612cae57612cad614115565b5b60200101907effffffffffffffffffffffffffffffffffffffffffffffffffffffffffffff1916908160001a9053508080612ce890614099565b915050612c6c565b508092505050919050565b6000808390506000839050805182511015612d1b57600092505050612e20565b60005b81518351612d2c9190614144565b8111612e185760006001905060005b8351811015612df057838181518110612d5757612d56614115565b5b602001015160f81c60f81b7effffffffffffffffffffffffffffffffffffffffffffffffffffffffffffff1916858285612d9191906140e1565b81518110612da257612da1614115565b5b602001015160f81c60f81b7effffffffffffffffffffffffffffffffffffffffffffffffffffffffffffff191614612ddd5760009150612df0565b8080612de890614099565b915050612d3b565b508015612e04576001945050505050612e20565b508080612e1090614099565b915050612d1e565b506000925050505b92915050565b612e2e613098565b60008311612e71576040517f08c379a0000000000000000000000000000000000000000000000000000000008152600401612e689061404a565b60405180910390fd5b60008211612eb4576040517f08c379a0000000000000000000000000000000000000000000000000000000008152600401612eab90614978565b60405180910390fd5b612ebc613098565b8360018587612ecb91906140e1565b612ed59190614144565b612edf91906149c7565b8160000181815250506000816000015111612efb576000612f14565b600183612f089190614144565b84612f1391906149f8565b5b81606001818152505084816060015185612f2e91906140e1565b11612f4857806060015184612f4391906140e1565b612f4a565b845b81608001818152505080600001518310612f68578060000151612f76565b600183612f7591906140e1565b5b81602001818152505060018311612f8e576001612f9c565b600183612f9b9190614144565b5b8160400181815250506000816000015111612fb8576000612fbe565b80604001515b816040018181525050809150509392505050565b600060418260f81c60ff1610158015612ff25750605a8260f81c60ff1611155b156130115760208260f81c6130079190614a47565b60f81b9050613015565b8190505b919050565b6040518060400160405280600015158152602001600081525090565b60405180610120016040528060008152602001600073ffffffffffffffffffffffffffffffffffffffff168152602001606081526020016060815260200160608152602001600081526020016000815260200160008152602001600081525090565b6040518060a0016040528060008152602001600081526020016000815260200160008152602001600081525090565b6040518060600160405280600073ffffffffffffffffffffffffffffffffffffffff16815260200160608152602001600081525090565b6040518060a001604052806000815260200160008152602001600073ffffffffffffffffffffffffffffffffffffffff16815260200160008152602001600081525090565b6000819050919050565b61315681613143565b82525050565b6000602082019050613171600083018461314d565b92915050565b6000604051905090565b600080fd5b600080fd5b61319481613143565b811461319f57600080fd5b50565b6000813590506131b18161318b565b92915050565b6000602082840312156131cd576131cc613181565b5b60006131db848285016131a2565b91505092915050565b600073ffffffffffffffffffffffffffffffffffffffff82169050919050565b600061320f826131e4565b9050919050565b61321f81613204565b82525050565b600081519050919050565b600082825260208201905092915050565b60005b8381101561325f578082015181840152602081019050613244565b60008484015250505050565b6000601f19601f8301169050919050565b600061328782613225565b6132918185613230565b93506132a1818560208601613241565b6132aa8161326b565b840191505092915050565b6000610120820190506132cb600083018c61314d565b6132d8602083018b613216565b81810360408301526132ea818a61327c565b905081810360608301526132fe818961327c565b90508181036080830152613312818861327c565b905061332160a083018761314d565b61332e60c083018661314d565b61333b60e083018561314d565b61334961010083018461314d565b9a9950505050505050505050565b600080fd5b600080fd5b7f4e487b7100000000000000000000000000000000000000000000000000000000600052604160045260246000fd5b6133998261326b565b810181811067ffffffffffffffff821117156133b8576133b7613361565b5b80604052505050565b60006133cb613177565b90506133d78282613390565b919050565b600067ffffffffffffffff8211156133f7576133f6613361565b5b6134008261326b565b9050602081019050919050565b82818337600083830152505050565b600061342f61342a846133dc565b6133c1565b90508281526020810184848401111561344b5761344a61335c565b5b61345684828561340d565b509392505050565b600082601f83011261347357613472613357565b5b813561348384826020860161341c565b91505092915050565b6000806000606084860312156134a5576134a4613181565b5b600084013567ffffffffffffffff8111156134c3576134c2613186565b5b6134cf8682870161345e565b93505060206134e0868287016131a2565b92505060406134f1868287016131a2565b9150509250925092565b600081519050919050565b600082825260208201905092915050565b6000819050602082019050919050565b61353081613143565b82525050565b61353f81613204565b82525050565b600082825260208201905092915050565b600061356182613225565b61356b8185613545565b935061357b818560208601613241565b6135848161326b565b840191505092915050565b6000610120830160008301516135a86000860182613527565b5060208301516135bb6020860182613536565b50604083015184820360408601526135d38282613556565b915050606083015184820360608601526135ed8282613556565b915050608083015184820360808601526136078282613556565b91505060a083015161361c60a0860182613527565b5060c083015161362f60c0860182613527565b5060e083015161364260e0860182613527565b50610100830151613657610100860182613527565b508091505092915050565b600061366e838361358f565b905092915050565b6000602082019050919050565b600061368e826134fb565b6136988185613506565b9350836020820285016136aa85613517565b8060005b858110156136e657848403895281516136c78582613662565b94506136d283613676565b925060208a019950506001810190506136ae565b50829750879550505050505092915050565b60008115159050919050565b61370d816136f8565b82525050565b6040820160008201516137296000850182613704565b50602082015161373c6020850182613527565b50505050565b6000606082019050818103600083015261375c8185613683565b905061376b6020830184613713565b9392505050565b6000806040838503121561378957613788613181565b5b6000613797858286016131a2565b92505060206137a8858286016131a2565b9150509250929050565b600060a08201905081810360008301526137cc8188613683565b90506137db602083018761314d565b6137e8604083018661314d565b6137f5606083018561314d565b613802608083018461314d565b9695505050505050565b61381581613204565b811461382057600080fd5b50565b6000813590506138328161380c565b92915050565b60008060006060848603121561385157613850613181565b5b600061385f86828701613823565b9350506020613870868287016131a2565b9250506040613881868287016131a2565b9150509250925092565b600081519050919050565b600082825260208201905092915050565b6000819050602082019050919050565b60006060830160008301516138cf6000860182613536565b50602083015184820360208601526138e78282613556565b91505060408301516138fc6040860182613527565b508091505092915050565b600061391383836138b7565b905092915050565b6000602082019050919050565b60006139338261388b565b61393d8185613896565b93508360208202850161394f856138a7565b8060005b8581101561398b578484038952815161396c8582613907565b94506139778361391b565b925060208a01995050600181019050613953565b50829750879550505050505092915050565b60a0820160008201516139b36000850182613527565b5060208201516139c66020850182613527565b5060408201516139d96040850182613527565b5060608201516139ec6060850182613527565b5060808201516139ff6080850182613527565b50505050565b600060c0820190508181036000830152613a1f8185613928565b9050613a2e602083018461399d565b9392505050565b600081519050919050565b600082825260208201905092915050565b6000819050602082019050919050565b60a082016000820151613a776000850182613527565b506020820151613a8a6020850182613527565b506040820151613a9d6040850182613536565b506060820151613ab06060850182613527565b506080820151613ac36080850182613527565b50505050565b6000613ad58383613a61565b60a08301905092915050565b6000602082019050919050565b6000613af982613a35565b613b038185613a40565b9350613b0e83613a51565b8060005b83811015613b3f578151613b268882613ac9565b9750613b3183613ae1565b925050600181019050613b12565b5085935050505092915050565b60006040820190508181036000830152613b668185613aee565b9050613b75602083018461314d565b9392505050565b600061012083016000830151613b956000860182613527565b506020830151613ba86020860182613536565b5060408301518482036040860152613bc08282613556565b91505060608301518482036060860152613bda8282613556565b91505060808301518482036080860152613bf48282613556565b91505060a0830151613c0960a0860182613527565b5060c0830151613c1c60c0860182613527565b5060e0830151613c2f60e0860182613527565b50610100830151613c44610100860182613527565b508091505092915050565b60006020820190508181036000830152613c698184613b7c565b905092915050565b60006060820190508181036000830152613c8b8186613683565b9050613c9a602083018561314d565b613ca7604083018461314d565b949350505050565b600060a082019050613cc4600083018861314d565b613cd1602083018761314d565b613cde6040830186613216565b613ceb606083018561314d565b613cf8608083018461314d565b9695505050505050565b6000613d0d826131e4565b9050919050565b613d1d81613d02565b82525050565b6000602082019050613d386000830184613d14565b92915050565b600080600080600060a08688031215613d5a57613d59613181565b5b600086013567ffffffffffffffff811115613d7857613d77613186565b5b613d848882890161345e565b955050602086013567ffffffffffffffff811115613da557613da4613186565b5b613db18882890161345e565b945050604086013567ffffffffffffffff811115613dd257613dd1613186565b5b613dde8882890161345e565b9350506060613def888289016131a2565b9250506080613e00888289016131a2565b9150509295509295909350565b600060208284031215613e2357613e22613181565b5b6000613e3184828501613823565b91505092915050565b6000604082019050613e4f600083018561314d565b613e5c602083018461314d565b9392505050565b600060a0820190508181036000830152613e7d8188613928565b9050613e8c602083018761314d565b613e99604083018661314d565b613ea6606083018561314d565b613eb3608083018461314d565b9695505050505050565b60008060008060008060c08789031215613eda57613ed9613181565b5b6000613ee889828a016131a2565b965050602087013567ffffffffffffffff811115613f0957613f08613186565b5b613f1589828a0161345e565b955050604087013567ffffffffffffffff811115613f3657613f35613186565b5b613f4289828a0161345e565b945050606087013567ffffffffffffffff811115613f6357613f62613186565b5b613f6f89828a0161345e565b9350506080613f8089828a016131a2565b92505060a0613f9189828a016131a2565b9150509295509295509295565b7f4e487b7100000000000000000000000000000000000000000000000000000000600052602260045260246000fd5b60006002820490506001821680613fe557607f821691505b602082108103613ff857613ff7613f9e565b5b50919050565b7f506167652073697a652063616e6e6f7420626520300000000000000000000000600082015250565b6000614034601583613230565b915061403f82613ffe565b602082019050919050565b6000602082019050818103600083015261406381614027565b9050919050565b7f4e487b7100000000000000000000000000000000000000000000000000000000600052601160045260246000fd5b60006140a482613143565b91507fffffffffffffffffffffffffffffffffffffffffffffffffffffffffffffffff82036140d6576140d561406a565b5b600182019050919050565b60006140ec82613143565b91506140f783613143565b925082820190508082111561410f5761410e61406a565b5b92915050565b7f4e487b7100000000000000000000000000000000000000000000000000000000600052603260045260246000fd5b600061414f82613143565b915061415a83613143565b92508282039050818111156141725761417161406a565b5b92915050565b7f496e76616c69642063616d706169676e20494400000000000000000000000000600082015250565b60006141ae601383613230565b91506141b982614178565b602082019050919050565b600060208201905081810360008301526141dd816141a1565b9050919050565b7f43616d706169676e20697320616c7265616479206f7665720000000000000000600082015250565b600061421a601883613230565b9150614225826141e4565b602082019050919050565b600060208201905081810360008301526142498161420d565b9050919050565b7f446f6e6174696f6e20616d6f756e742073686f756c64206265206d6f7265207460008201527f68616e2030000000000000000000000000000000000000000000000000000000602082015250565b60006142ac602583613230565b91506142b782614250565b604082019050919050565b600060208201905081810360008301526142db8161429f565b9050919050565b60008190508160005260206000209050919050565b6000815461430481613fcd565b61430e8186613230565b94506001821660008114614329576001811461433f57614372565b60ff198316865281151560200286019350614372565b614348856142e2565b60005b8381101561436a5781548189015260018201915060208101905061434b565b808801955050505b50505092915050565b6000604082019050818103600083015261439581856142f7565b90506143a4602083018461314d565b9392505050565b7f446174652073686f756c64206265206675747572652064617465000000000000600082015250565b60006143e1601a83613230565b91506143ec826143ab565b602082019050919050565b60006020820190508181036000830152614410816143d4565b9050919050565b7f476f616c20616d6f756e742073686f756c64206265206d6f7265207468616e2060008201527f3000000000000000000000000000000000000000000000000000000000000000602082015250565b6000614473602183613230565b915061447e82614417565b604082019050919050565b600060208201905081810360008301526144a281614466565b9050919050565b7f46756c6c206e616d652063616e6e6f7420626520656d70747900000000000000600082015250565b60006144df601983613230565b91506144ea826144a9565b602082019050919050565b6000602082019050818103600083015261450e816144d2565b9050919050565b7f5469746c652063616e6e6f7420626520656d7074790000000000000000000000600082015250565b600061454b601583613230565b915061455682614515565b602082019050919050565b6000602082019050818103600083015261457a8161453e565b9050919050565b7f53746f72792063616e6e6f7420626520656d7074790000000000000000000000600082015250565b60006145b7601583613230565b91506145c282614581565b602082019050919050565b600060208201905081810360008301526145e6816145aa565b9050919050565b60006020601f8301049050919050565b600082821b905092915050565b60006008830261463a7fffffffffffffffffffffffffffffffffffffffffffffffffffffffffffffffff826145fd565b61464486836145fd565b95508019841693508086168417925050509392505050565b6000819050919050565b600061468161467c61467784613143565b61465c565b613143565b9050919050565b6000819050919050565b61469b83614666565b6146af6146a782614688565b84845461460a565b825550505050565b600090565b6146c46146b7565b6146cf818484614692565b505050565b5b818110156146f3576146e86000826146bc565b6001810190506146d5565b5050565b601f82111561473857614709816142e2565b614712846145ed565b81016020851015614721578190505b61473561472d856145ed565b8301826146d4565b50505b505050565b600082821c905092915050565b600061475b6000198460080261473d565b1980831691505092915050565b6000614774838361474a565b9150826002028217905092915050565b61478d82613225565b67ffffffffffffffff8111156147a6576147a5613361565b5b6147b08254613fcd565b6147bb8282856146f7565b600060209050601f8311600181146147ee57600084156147dc578287015190505b6147e68582614768565b86555061484e565b601f1984166147fc866142e2565b60005b82811015614824578489015182556001820191506020850194506020810190506147ff565b86831015614841578489015161483d601f89168261474a565b8355505b6001600288020188555050505b505050505050565b60006020820190508181036000830152614870818461327c565b905092915050565b7f596f7520617265206e6f74207468652063616d706169676e2063726561746f7260008201527f2100000000000000000000000000000000000000000000000000000000000000602082015250565b60006148d4602183613230565b91506148df82614878565b604082019050919050565b60006020820190508181036000830152614903816148c7565b9050919050565b6000602082019050818103600083015261492481846142f7565b905092915050565b7f50616765206e756d6265722063616e6e6f742062652030000000000000000000600082015250565b6000614962601783613230565b915061496d8261492c565b602082019050919050565b6000602082019050818103600083015261499181614955565b9050919050565b7f4e487b7100000000000000000000000000000000000000000000000000000000600052601260045260246000fd5b60006149d282613143565b91506149dd83613143565b9250826149ed576149ec614998565b5b828204905092915050565b6000614a0382613143565b9150614a0e83613143565b9250828202614a1c81613143565b91508282048414831517614a3357614a3261406a565b5b5092915050565b600060ff82169050919050565b6000614a5282614a3a565b9150614a5d83614a3a565b9250828201905060ff811115614a7657614a7561406a565b5b9291505056fea2646970667358221220e69b070c12d38d0b9dd81d755ec90ce0c533d5c39aae311050716a6a66085c3d64736f6c63430008120033",
  "linkReferences": {},
  "deployedLinkReferences": {}
}