{
  "_format": "hh-sol-artifact-1",
  "contractName": "CrowdFunding",
  "sourceName": "contracts/CrowdFunding.sol",
  "abi": [
    {
      "inputs": [],
      "stateMutability": "payable",
      "type": "constructor"
    },
    {
      "anonymous": false,
      "inputs": [
        {
          "indexed": true,
          "internalType": "address",
          "name": "sender",
          "type": "address"
        },
        {
          "indexed": false,
          "internalType": "string",
          "name": "title",
          "type": "string"
        }
      ],
      "name": "CampaignCreated",
      "type": "event"
    },
    {
      "anonymous": false,
      "inputs": [
        {
          "indexed": true,
          "internalType": "address",
          "name": "sender",
          "type": "address"
        },
        {
          "indexed": false,
          "internalType": "string",
          "name": "title",
          "type": "string"
        }
      ],
      "name": "CampaignEdited",
      "type": "event"
    },
    {
      "anonymous": false,
      "inputs": [
        {
          "indexed": true,
          "internalType": "address",
          "name": "sender",
          "type": "address"
        },
        {
          "indexed": false,
          "internalType": "string",
          "name": "title",
          "type": "string"
        },
        {
          "indexed": false,
          "internalType": "uint256",
          "name": "amount",
          "type": "uint256"
        }
      ],
      "name": "DonationSent",
      "type": "event"
    },
    {
      "inputs": [
        {
          "internalType": "uint256",
          "name": "",
          "type": "uint256"
        }
      ],
      "name": "campaigns",
      "outputs": [
        {
          "internalType": "uint256",
          "name": "id",
          "type": "uint256"
        },
        {
          "internalType": "address",
          "name": "creator",
          "type": "address"
        },
        {
          "internalType": "string",
          "name": "fullname",
          "type": "string"
        },
        {
          "internalType": "string",
          "name": "title",
          "type": "string"
        },
        {
          "internalType": "string",
          "name": "story",
          "type": "string"
        },
        {
          "internalType": "uint256",
          "name": "goalAmount",
          "type": "uint256"
        },
        {
          "internalType": "uint256",
          "name": "currentAmount",
          "type": "uint256"
        },
        {
          "internalType": "uint256",
          "name": "deadline",
          "type": "uint256"
        },
        {
          "internalType": "uint256",
          "name": "totalDonations",
          "type": "uint256"
        }
      ],
      "stateMutability": "view",
      "type": "function"
    },
    {
      "inputs": [
        {
          "internalType": "string",
          "name": "_fullname",
          "type": "string"
        },
        {
          "internalType": "string",
          "name": "_title",
          "type": "string"
        },
        {
          "internalType": "string",
          "name": "_story",
          "type": "string"
        },
        {
          "internalType": "uint256",
          "name": "_goalAmount",
          "type": "uint256"
        },
        {
          "internalType": "uint256",
          "name": "_deadline",
          "type": "uint256"
        }
      ],
      "name": "createCampaign",
      "outputs": [],
      "stateMutability": "nonpayable",
      "type": "function"
    },
    {
      "inputs": [
        {
          "internalType": "uint256",
          "name": "",
          "type": "uint256"
        }
      ],
      "name": "donationTransactions",
      "outputs": [
        {
          "internalType": "uint256",
          "name": "id",
          "type": "uint256"
        },
        {
          "internalType": "uint256",
          "name": "campaignId",
          "type": "uint256"
        },
        {
          "internalType": "address",
          "name": "donor",
          "type": "address"
        },
        {
          "internalType": "uint256",
          "name": "amount",
          "type": "uint256"
        },
        {
          "internalType": "uint256",
          "name": "timestamp",
          "type": "uint256"
        }
      ],
      "stateMutability": "view",
      "type": "function"
    },
    {
      "inputs": [
        {
          "internalType": "uint256",
          "name": "_campaignId",
          "type": "uint256"
        },
        {
          "internalType": "string",
          "name": "_fullname",
          "type": "string"
        },
        {
          "internalType": "string",
          "name": "_title",
          "type": "string"
        },
        {
          "internalType": "string",
          "name": "_story",
          "type": "string"
        },
        {
          "internalType": "uint256",
          "name": "_goalAmount",
          "type": "uint256"
        },
        {
          "internalType": "uint256",
          "name": "_deadline",
          "type": "uint256"
        }
      ],
      "name": "editCampaign",
      "outputs": [],
      "stateMutability": "nonpayable",
      "type": "function"
    },
    {
      "inputs": [
        {
          "internalType": "uint256",
          "name": "_campaignId",
          "type": "uint256"
        }
      ],
      "name": "getCampaign",
      "outputs": [
        {
          "components": [
            {
              "internalType": "uint256",
              "name": "id",
              "type": "uint256"
            },
            {
              "internalType": "address",
              "name": "creator",
              "type": "address"
            },
            {
              "internalType": "string",
              "name": "fullname",
              "type": "string"
            },
            {
              "internalType": "string",
              "name": "title",
              "type": "string"
            },
            {
              "internalType": "string",
              "name": "story",
              "type": "string"
            },
            {
              "internalType": "uint256",
              "name": "goalAmount",
              "type": "uint256"
            },
            {
              "internalType": "uint256",
              "name": "currentAmount",
              "type": "uint256"
            },
            {
              "internalType": "uint256",
              "name": "deadline",
              "type": "uint256"
            },
            {
              "internalType": "uint256",
              "name": "totalDonations",
              "type": "uint256"
            }
          ],
          "internalType": "struct CrowdFunding.Campaign",
          "name": "",
          "type": "tuple"
        }
      ],
      "stateMutability": "view",
      "type": "function"
    },
    {
      "inputs": [
        {
          "internalType": "uint256",
          "name": "_campaignId",
          "type": "uint256"
        }
      ],
      "name": "getCampaignDonations",
      "outputs": [
        {
          "components": [
            {
              "internalType": "uint256",
              "name": "id",
              "type": "uint256"
            },
            {
              "internalType": "uint256",
              "name": "campaignId",
              "type": "uint256"
            },
            {
              "internalType": "address",
              "name": "donor",
              "type": "address"
            },
            {
              "internalType": "uint256",
              "name": "amount",
              "type": "uint256"
            },
            {
              "internalType": "uint256",
              "name": "timestamp",
              "type": "uint256"
            }
          ],
          "internalType": "struct CrowdFunding.DonationTransaction[]",
          "name": "allDonations",
          "type": "tuple[]"
        },
        {
          "internalType": "uint256",
          "name": "totalCampaignDonations",
          "type": "uint256"
        }
      ],
      "stateMutability": "view",
      "type": "function"
    },
    {
      "inputs": [
        {
          "internalType": "uint256",
          "name": "_pageSize",
          "type": "uint256"
        },
        {
          "internalType": "uint256",
          "name": "_pageNumber",
          "type": "uint256"
        }
      ],
      "name": "getUserCampaigns",
      "outputs": [
        {
          "components": [
            {
              "internalType": "uint256",
              "name": "id",
              "type": "uint256"
            },
            {
              "internalType": "address",
              "name": "creator",
              "type": "address"
            },
            {
              "internalType": "string",
              "name": "fullname",
              "type": "string"
            },
            {
              "internalType": "string",
              "name": "title",
              "type": "string"
            },
            {
              "internalType": "string",
              "name": "story",
              "type": "string"
            },
            {
              "internalType": "uint256",
              "name": "goalAmount",
              "type": "uint256"
            },
            {
              "internalType": "uint256",
              "name": "currentAmount",
              "type": "uint256"
            },
            {
              "internalType": "uint256",
              "name": "deadline",
              "type": "uint256"
            },
            {
              "internalType": "uint256",
              "name": "totalDonations",
              "type": "uint256"
            }
          ],
          "internalType": "struct CrowdFunding.Campaign[]",
          "name": "",
          "type": "tuple[]"
        },
        {
          "internalType": "uint256",
          "name": "",
          "type": "uint256"
        },
        {
          "internalType": "uint256",
          "name": "",
          "type": "uint256"
        },
        {
          "internalType": "uint256",
          "name": "",
          "type": "uint256"
        },
        {
          "internalType": "uint256",
          "name": "",
          "type": "uint256"
        }
      ],
      "stateMutability": "view",
      "type": "function"
    },
    {
      "inputs": [],
      "name": "owner",
      "outputs": [
        {
          "internalType": "address payable",
          "name": "",
          "type": "address"
        }
      ],
      "stateMutability": "view",
      "type": "function"
    },
    {
      "inputs": [
        {
          "internalType": "uint256",
          "name": "_campaignId",
          "type": "uint256"
        }
      ],
      "name": "sendDonation",
      "outputs": [],
      "stateMutability": "payable",
      "type": "function"
    },
    {
      "inputs": [],
      "name": "totalCampaigns",
      "outputs": [
        {
          "internalType": "uint256",
          "name": "",
          "type": "uint256"
        }
      ],
      "stateMutability": "view",
      "type": "function"
    },
    {
      "inputs": [],
      "name": "totalDonations",
      "outputs": [
        {
          "internalType": "uint256",
          "name": "",
          "type": "uint256"
        }
      ],
      "stateMutability": "view",
      "type": "function"
    },
    {
      "inputs": [
        {
          "internalType": "address",
          "name": "",
          "type": "address"
        }
      ],
      "name": "users",
      "outputs": [
        {
          "internalType": "uint256",
          "name": "totalCampaigns",
          "type": "uint256"
        },
        {
          "internalType": "uint256",
          "name": "totalDonations",
          "type": "uint256"
        }
      ],
      "stateMutability": "view",
      "type": "function"
    }
  ],
  "bytecode": "0x6080604052336000806101000a81548173ffffffffffffffffffffffffffffffffffffffff021916908373ffffffffffffffffffffffffffffffffffffffff16021790555060006004819055506131388061005b6000396000f3fe6080604052600436106100a75760003560e01c80638acd0bfc116100645780638acd0bfc146101f45780638da5cb5b14610235578063980f2e6614610260578063a87430ba14610289578063de2ed893146102c7578063e1a783a0146102f2576100a7565b806302932f56146100ac578063141961bc146100d75780633e3b66751461011c5780635167642f1461015d5780635598f8cc1461019b578063665588c9146101d8575b600080fd5b3480156100b857600080fd5b506100c161031b565b6040516100ce9190611ba2565b60405180910390f35b3480156100e357600080fd5b506100fe60048036038101906100f99190611bfd565b610321565b60405161011399989796959493929190611cfb565b60405180910390f35b34801561012857600080fd5b50610143600480360381019061013e9190611d9d565b610527565b604051610154959493929190611fda565b60405180910390f35b34801561016957600080fd5b50610184600480360381019061017f9190611bfd565b610a1a565b60405161019292919061214b565b60405180910390f35b3480156101a757600080fd5b506101c260048036038101906101bd9190611bfd565b610def565b6040516101cf919061224e565b60405180910390f35b6101f260048036038101906101ed9190611bfd565b61105b565b005b34801561020057600080fd5b5061021b60048036038101906102169190611bfd565b61134b565b60405161022c959493929190612270565b60405180910390f35b34801561024157600080fd5b5061024a6113a1565b60405161025791906122e4565b60405180910390f35b34801561026c57600080fd5b5061028760048036038101906102829190612434565b6113c5565b005b34801561029557600080fd5b506102b060048036038101906102ab919061252f565b6117c1565b6040516102be92919061255c565b60405180910390f35b3480156102d357600080fd5b506102dc6117e5565b6040516102e99190611ba2565b60405180910390f35b3480156102fe57600080fd5b5061031960048036038101906103149190612585565b6117eb565b005b60045481565b60026020528060005260406000206000915090508060000154908060010160009054906101000a900473ffffffffffffffffffffffffffffffffffffffff169080600201805461037090612695565b80601f016020809104026020016040519081016040528092919081815260200182805461039c90612695565b80156103e95780601f106103be576101008083540402835291602001916103e9565b820191906000526020600020905b8154815290600101906020018083116103cc57829003601f168201915b5050505050908060030180546103fe90612695565b80601f016020809104026020016040519081016040528092919081815260200182805461042a90612695565b80156104775780601f1061044c57610100808354040283529160200191610477565b820191906000526020600020905b81548152906001019060200180831161045a57829003601f168201915b50505050509080600401805461048c90612695565b80601f01602080910402602001604051908101604052809291908181526020018280546104b890612695565b80156105055780601f106104da57610100808354040283529160200191610505565b820191906000526020600020905b8154815290600101906020018083116104e857829003601f168201915b5050505050908060050154908060060154908060070154908060080154905089565b606060008060008060008711610572576040517f08c379a000000000000000000000000000000000000000000000000000000000815260040161056990612712565b60405180910390fd5b600086116105b5576040517f08c379a00000000000000000000000000000000000000000000000000000000081526004016105ac9061277e565b60405180910390fd5b6000600160003373ffffffffffffffffffffffffffffffffffffffff1673ffffffffffffffffffffffffffffffffffffffff168152602001908152602001600020905060008860018a846000015461060d91906127cd565b6106179190612801565b6106219190612864565b9050600080821161063357600061064c565b6001896106409190612801565b8a61064b9190612895565b5b905060008360000154828c61066191906127cd565b1161067757818b61067291906127cd565b61067d565b83600001545b90506000828261068d9190612801565b67ffffffffffffffff8111156106a6576106a5612309565b5b6040519080825280602002602001820160405280156106df57816020015b6106cc611ae2565b8152602001906001900390816106c45790505b50905060005b81518110156109a257600060026000886002016000858961070691906127cd565b815260200190815260200160002054815260200190815260200160002060405180610120016040529081600082015481526020016001820160009054906101000a900473ffffffffffffffffffffffffffffffffffffffff1673ffffffffffffffffffffffffffffffffffffffff1673ffffffffffffffffffffffffffffffffffffffff16815260200160028201805461079f90612695565b80601f01602080910402602001604051908101604052809291908181526020018280546107cb90612695565b80156108185780601f106107ed57610100808354040283529160200191610818565b820191906000526020600020905b8154815290600101906020018083116107fb57829003601f168201915b5050505050815260200160038201805461083190612695565b80601f016020809104026020016040519081016040528092919081815260200182805461085d90612695565b80156108aa5780601f1061087f576101008083540402835291602001916108aa565b820191906000526020600020905b81548152906001019060200180831161088d57829003601f168201915b505050505081526020016004820180546108c390612695565b80601f01602080910402602001604051908101604052809291908181526020018280546108ef90612695565b801561093c5780601f106109115761010080835404028352916020019161093c565b820191906000526020600020905b81548152906001019060200180831161091f57829003601f168201915b50505050508152602001600582015481526020016006820154815260200160078201548152602001600882015481525050905080838381518110610983576109826128d7565b5b602002602001018190525050808061099a90612906565b9150506106e5565b506000848c106109b257846109c0565b60018c6109bf91906127cd565b5b9050600060018d116109d35760016109e1565b60018d6109e09190612801565b5b9050600086116109f25760006109f4565b805b90508287600001548784849b509b509b509b509b50505050505050509295509295909350565b60606000806002600085815260200190815260200160002060405180610120016040529081600082015481526020016001820160009054906101000a900473ffffffffffffffffffffffffffffffffffffffff1673ffffffffffffffffffffffffffffffffffffffff1673ffffffffffffffffffffffffffffffffffffffff168152602001600282018054610aae90612695565b80601f0160208091040260200160405190810160405280929190818152602001828054610ada90612695565b8015610b275780601f10610afc57610100808354040283529160200191610b27565b820191906000526020600020905b815481529060010190602001808311610b0a57829003601f168201915b50505050508152602001600382018054610b4090612695565b80601f0160208091040260200160405190810160405280929190818152602001828054610b6c90612695565b8015610bb95780601f10610b8e57610100808354040283529160200191610bb9565b820191906000526020600020905b815481529060010190602001808311610b9c57829003601f168201915b50505050508152602001600482018054610bd290612695565b80601f0160208091040260200160405190810160405280929190818152602001828054610bfe90612695565b8015610c4b5780601f10610c2057610100808354040283529160200191610c4b565b820191906000526020600020905b815481529060010190602001808311610c2e57829003601f168201915b50505050508152602001600582015481526020016006820154815260200160078201548152602001600882015481525050905080610100015191508167ffffffffffffffff811115610ca057610c9f612309565b5b604051908082528060200260200182016040528015610cd957816020015b610cc6611b44565b815260200190600190039081610cbe5790505b5092506000805b600554811015610de7578260000151600360008381526020019081526020016000206001015403610dd457600360008281526020019081526020016000206040518060a001604052908160008201548152602001600182015481526020016002820160009054906101000a900473ffffffffffffffffffffffffffffffffffffffff1673ffffffffffffffffffffffffffffffffffffffff1673ffffffffffffffffffffffffffffffffffffffff16815260200160038201548152602001600482015481525050858381518110610dba57610db96128d7565b5b60200260200101819052508180610dd090612906565b9250505b8080610ddf90612906565b915050610ce0565b505050915091565b610df7611ae2565b6002600083815260200190815260200160002060405180610120016040529081600082015481526020016001820160009054906101000a900473ffffffffffffffffffffffffffffffffffffffff1673ffffffffffffffffffffffffffffffffffffffff1673ffffffffffffffffffffffffffffffffffffffff168152602001600282018054610e8690612695565b80601f0160208091040260200160405190810160405280929190818152602001828054610eb290612695565b8015610eff5780601f10610ed457610100808354040283529160200191610eff565b820191906000526020600020905b815481529060010190602001808311610ee257829003601f168201915b50505050508152602001600382018054610f1890612695565b80601f0160208091040260200160405190810160405280929190818152602001828054610f4490612695565b8015610f915780601f10610f6657610100808354040283529160200191610f91565b820191906000526020600020905b815481529060010190602001808311610f7457829003601f168201915b50505050508152602001600482018054610faa90612695565b80601f0160208091040260200160405190810160405280929190818152602001828054610fd690612695565b80156110235780601f10610ff857610100808354040283529160200191611023565b820191906000526020600020905b81548152906001019060200180831161100657829003601f168201915b505050505081526020016005820154815260200160068201548152602001600782015481526020016008820154815250509050919050565b6000811015801561106d575060045481105b6110ac576040517f08c379a00000000000000000000000000000000000000000000000000000000081526004016110a39061299a565b60405180910390fd5b6000600260008381526020019081526020016000209050806007015442111561110a576040517f08c379a000000000000000000000000000000000000000000000000000000000815260040161110190612a06565b60405180910390fd5b6000341161114d576040517f08c379a000000000000000000000000000000000000000000000000000000000815260040161114490612a98565b60405180910390fd5b6000600160003373ffffffffffffffffffffffffffffffffffffffff1673ffffffffffffffffffffffffffffffffffffffff168152602001908152602001600020905060008160010154905060006040518060a001604052806005548152602001856000015481526020013373ffffffffffffffffffffffffffffffffffffffff16815260200134815260200142815250905080600360006005548152602001908152602001600020600082015181600001556020820151816001015560408201518160020160006101000a81548173ffffffffffffffffffffffffffffffffffffffff021916908373ffffffffffffffffffffffffffffffffffffffff16021790555060608201518160030155608082015181600401559050508060000151836003016000848152602001908152602001600020819055503484600601600082825461129a91906127cd565b92505081905550600560008154809291906112b490612906565b91905055508260010160008154809291906112ce90612906565b91905055508360080160008154809291906112e890612906565b91905055503373ffffffffffffffffffffffffffffffffffffffff167f3b5443c59641f965c6df0836dbe11676fa8c79c3184392351bb19fd51de3d49a85600301866006015460405161133c929190612b51565b60405180910390a25050505050565b60036020528060005260406000206000915090508060000154908060010154908060020160009054906101000a900473ffffffffffffffffffffffffffffffffffffffff16908060030154908060040154905085565b60008054906101000a900473ffffffffffffffffffffffffffffffffffffffff1681565b848484848442811161140c576040517f08c379a000000000000000000000000000000000000000000000000000000000815260040161140390612bcd565b60405180910390fd5b6000821161144f576040517f08c379a000000000000000000000000000000000000000000000000000000000815260040161144690612c5f565b60405180910390fd5b6000855111611493576040517f08c379a000000000000000000000000000000000000000000000000000000000815260040161148a90612ccb565b60405180910390fd5b60008451116114d7576040517f08c379a00000000000000000000000000000000000000000000000000000000081526004016114ce90612d37565b60405180910390fd5b600083511161151b576040517f08c379a000000000000000000000000000000000000000000000000000000000815260040161151290612da3565b60405180910390fd5b600060405180610120016040528060045481526020013373ffffffffffffffffffffffffffffffffffffffff1681526020018c81526020018b81526020018a81526020018981526020016000815260200188815260200160008152509050806002600060045481526020019081526020016000206000820151816000015560208201518160010160006101000a81548173ffffffffffffffffffffffffffffffffffffffff021916908373ffffffffffffffffffffffffffffffffffffffff16021790555060408201518160020190816115f59190612f5a565b50606082015181600301908161160b9190612f5a565b5060808201518160040190816116219190612f5a565b5060a0820151816005015560c0820151816006015560e0820151816007015561010082015181600801559050506000600160003373ffffffffffffffffffffffffffffffffffffffff1673ffffffffffffffffffffffffffffffffffffffff1681526020019081526020016000206000015490508160000151600160003373ffffffffffffffffffffffffffffffffffffffff1673ffffffffffffffffffffffffffffffffffffffff168152602001908152602001600020600201600083815260200190815260200160002081905550600160003373ffffffffffffffffffffffffffffffffffffffff1673ffffffffffffffffffffffffffffffffffffffff168152602001908152602001600020600001600081548092919061174490612906565b91905055506004600081548092919061175c90612906565b91905055503373ffffffffffffffffffffffffffffffffffffffff167f17dd0b5f0975f4651b002ed3b016428bae979f5704d8b2473931b2312185c05a83606001516040516117ab919061302c565b60405180910390a2505050505050505050505050565b60016020528060005260406000206000915090508060000154908060010154905082565b60055481565b8484848484428111611832576040517f08c379a000000000000000000000000000000000000000000000000000000000815260040161182990612bcd565b60405180910390fd5b60008211611875576040517f08c379a000000000000000000000000000000000000000000000000000000000815260040161186c90612c5f565b60405180910390fd5b60008551116118b9576040517f08c379a00000000000000000000000000000000000000000000000000000000081526004016118b090612ccb565b60405180910390fd5b60008451116118fd576040517f08c379a00000000000000000000000000000000000000000000000000000000081526004016118f490612d37565b60405180910390fd5b6000835111611941576040517f08c379a000000000000000000000000000000000000000000000000000000000815260040161193890612da3565b60405180910390fd5b6000600260008d8152602001908152602001600020905060008c1015801561196a57506004548c105b6119a9576040517f08c379a00000000000000000000000000000000000000000000000000000000081526004016119a09061299a565b60405180910390fd5b3373ffffffffffffffffffffffffffffffffffffffff168160010160009054906101000a900473ffffffffffffffffffffffffffffffffffffffff1673ffffffffffffffffffffffffffffffffffffffff1614611a3b576040517f08c379a0000000000000000000000000000000000000000000000000000000008152600401611a32906130c0565b60405180910390fd5b8a816002019081611a4c9190612f5a565b5089816003019081611a5e9190612f5a565b5088816004019081611a709190612f5a565b508781600501819055508681600701819055503373ffffffffffffffffffffffffffffffffffffffff167fb961c338b427968a67f1a3560907d7075a0d1fca0c2d16dcb76da3a963cfe37382600301604051611acc91906130e0565b60405180910390a2505050505050505050505050565b60405180610120016040528060008152602001600073ffffffffffffffffffffffffffffffffffffffff168152602001606081526020016060815260200160608152602001600081526020016000815260200160008152602001600081525090565b6040518060a001604052806000815260200160008152602001600073ffffffffffffffffffffffffffffffffffffffff16815260200160008152602001600081525090565b6000819050919050565b611b9c81611b89565b82525050565b6000602082019050611bb76000830184611b93565b92915050565b6000604051905090565b600080fd5b600080fd5b611bda81611b89565b8114611be557600080fd5b50565b600081359050611bf781611bd1565b92915050565b600060208284031215611c1357611c12611bc7565b5b6000611c2184828501611be8565b91505092915050565b600073ffffffffffffffffffffffffffffffffffffffff82169050919050565b6000611c5582611c2a565b9050919050565b611c6581611c4a565b82525050565b600081519050919050565b600082825260208201905092915050565b60005b83811015611ca5578082015181840152602081019050611c8a565b60008484015250505050565b6000601f19601f8301169050919050565b6000611ccd82611c6b565b611cd78185611c76565b9350611ce7818560208601611c87565b611cf081611cb1565b840191505092915050565b600061012082019050611d11600083018c611b93565b611d1e602083018b611c5c565b8181036040830152611d30818a611cc2565b90508181036060830152611d448189611cc2565b90508181036080830152611d588188611cc2565b9050611d6760a0830187611b93565b611d7460c0830186611b93565b611d8160e0830185611b93565b611d8f610100830184611b93565b9a9950505050505050505050565b60008060408385031215611db457611db3611bc7565b5b6000611dc285828601611be8565b9250506020611dd385828601611be8565b9150509250929050565b600081519050919050565b600082825260208201905092915050565b6000819050602082019050919050565b611e1281611b89565b82525050565b611e2181611c4a565b82525050565b600082825260208201905092915050565b6000611e4382611c6b565b611e4d8185611e27565b9350611e5d818560208601611c87565b611e6681611cb1565b840191505092915050565b600061012083016000830151611e8a6000860182611e09565b506020830151611e9d6020860182611e18565b5060408301518482036040860152611eb58282611e38565b91505060608301518482036060860152611ecf8282611e38565b91505060808301518482036080860152611ee98282611e38565b91505060a0830151611efe60a0860182611e09565b5060c0830151611f1160c0860182611e09565b5060e0830151611f2460e0860182611e09565b50610100830151611f39610100860182611e09565b508091505092915050565b6000611f508383611e71565b905092915050565b6000602082019050919050565b6000611f7082611ddd565b611f7a8185611de8565b935083602082028501611f8c85611df9565b8060005b85811015611fc85784840389528151611fa98582611f44565b9450611fb483611f58565b925060208a01995050600181019050611f90565b50829750879550505050505092915050565b600060a0820190508181036000830152611ff48188611f65565b90506120036020830187611b93565b6120106040830186611b93565b61201d6060830185611b93565b61202a6080830184611b93565b9695505050505050565b600081519050919050565b600082825260208201905092915050565b6000819050602082019050919050565b60a0820160008201516120766000850182611e09565b5060208201516120896020850182611e09565b50604082015161209c6040850182611e18565b5060608201516120af6060850182611e09565b5060808201516120c26080850182611e09565b50505050565b60006120d48383612060565b60a08301905092915050565b6000602082019050919050565b60006120f882612034565b612102818561203f565b935061210d83612050565b8060005b8381101561213e57815161212588826120c8565b9750612130836120e0565b925050600181019050612111565b5085935050505092915050565b6000604082019050818103600083015261216581856120ed565b90506121746020830184611b93565b9392505050565b6000610120830160008301516121946000860182611e09565b5060208301516121a76020860182611e18565b50604083015184820360408601526121bf8282611e38565b915050606083015184820360608601526121d98282611e38565b915050608083015184820360808601526121f38282611e38565b91505060a083015161220860a0860182611e09565b5060c083015161221b60c0860182611e09565b5060e083015161222e60e0860182611e09565b50610100830151612243610100860182611e09565b508091505092915050565b60006020820190508181036000830152612268818461217b565b905092915050565b600060a0820190506122856000830188611b93565b6122926020830187611b93565b61229f6040830186611c5c565b6122ac6060830185611b93565b6122b96080830184611b93565b9695505050505050565b60006122ce82611c2a565b9050919050565b6122de816122c3565b82525050565b60006020820190506122f960008301846122d5565b92915050565b600080fd5b600080fd5b7f4e487b7100000000000000000000000000000000000000000000000000000000600052604160045260246000fd5b61234182611cb1565b810181811067ffffffffffffffff821117156123605761235f612309565b5b80604052505050565b6000612373611bbd565b905061237f8282612338565b919050565b600067ffffffffffffffff82111561239f5761239e612309565b5b6123a882611cb1565b9050602081019050919050565b82818337600083830152505050565b60006123d76123d284612384565b612369565b9050828152602081018484840111156123f3576123f2612304565b5b6123fe8482856123b5565b509392505050565b600082601f83011261241b5761241a6122ff565b5b813561242b8482602086016123c4565b91505092915050565b600080600080600060a086880312156124505761244f611bc7565b5b600086013567ffffffffffffffff81111561246e5761246d611bcc565b5b61247a88828901612406565b955050602086013567ffffffffffffffff81111561249b5761249a611bcc565b5b6124a788828901612406565b945050604086013567ffffffffffffffff8111156124c8576124c7611bcc565b5b6124d488828901612406565b93505060606124e588828901611be8565b92505060806124f688828901611be8565b9150509295509295909350565b61250c81611c4a565b811461251757600080fd5b50565b60008135905061252981612503565b92915050565b60006020828403121561254557612544611bc7565b5b60006125538482850161251a565b91505092915050565b60006040820190506125716000830185611b93565b61257e6020830184611b93565b9392505050565b60008060008060008060c087890312156125a2576125a1611bc7565b5b60006125b089828a01611be8565b965050602087013567ffffffffffffffff8111156125d1576125d0611bcc565b5b6125dd89828a01612406565b955050604087013567ffffffffffffffff8111156125fe576125fd611bcc565b5b61260a89828a01612406565b945050606087013567ffffffffffffffff81111561262b5761262a611bcc565b5b61263789828a01612406565b935050608061264889828a01611be8565b92505060a061265989828a01611be8565b9150509295509295509295565b7f4e487b7100000000000000000000000000000000000000000000000000000000600052602260045260246000fd5b600060028204905060018216806126ad57607f821691505b6020821081036126c0576126bf612666565b5b50919050565b7f506167652073697a652063616e6e6f7420626520300000000000000000000000600082015250565b60006126fc601583611c76565b9150612707826126c6565b602082019050919050565b6000602082019050818103600083015261272b816126ef565b9050919050565b7f50616765206e756d6265722063616e6e6f742062652030000000000000000000600082015250565b6000612768601783611c76565b915061277382612732565b602082019050919050565b600060208201905081810360008301526127978161275b565b9050919050565b7f4e487b7100000000000000000000000000000000000000000000000000000000600052601160045260246000fd5b60006127d882611b89565b91506127e383611b89565b92508282019050808211156127fb576127fa61279e565b5b92915050565b600061280c82611b89565b915061281783611b89565b925082820390508181111561282f5761282e61279e565b5b92915050565b7f4e487b7100000000000000000000000000000000000000000000000000000000600052601260045260246000fd5b600061286f82611b89565b915061287a83611b89565b92508261288a57612889612835565b5b828204905092915050565b60006128a082611b89565b91506128ab83611b89565b92508282026128b981611b89565b915082820484148315176128d0576128cf61279e565b5b5092915050565b7f4e487b7100000000000000000000000000000000000000000000000000000000600052603260045260246000fd5b600061291182611b89565b91507fffffffffffffffffffffffffffffffffffffffffffffffffffffffffffffffff82036129435761294261279e565b5b600182019050919050565b7f496e76616c69642063616d706169676e20494400000000000000000000000000600082015250565b6000612984601383611c76565b915061298f8261294e565b602082019050919050565b600060208201905081810360008301526129b381612977565b9050919050565b7f43616d706169676e20697320616c7265616479206f7665720000000000000000600082015250565b60006129f0601883611c76565b91506129fb826129ba565b602082019050919050565b60006020820190508181036000830152612a1f816129e3565b9050919050565b7f446f6e6174696f6e20616d6f756e742073686f756c64206265206d6f7265207460008201527f68616e2030000000000000000000000000000000000000000000000000000000602082015250565b6000612a82602583611c76565b9150612a8d82612a26565b604082019050919050565b60006020820190508181036000830152612ab181612a75565b9050919050565b60008190508160005260206000209050919050565b60008154612ada81612695565b612ae48186611c76565b94506001821660008114612aff5760018114612b1557612b48565b60ff198316865281151560200286019350612b48565b612b1e85612ab8565b60005b83811015612b4057815481890152600182019150602081019050612b21565b808801955050505b50505092915050565b60006040820190508181036000830152612b6b8185612acd565b9050612b7a6020830184611b93565b9392505050565b7f446174652073686f756c64206265206675747572652064617465000000000000600082015250565b6000612bb7601a83611c76565b9150612bc282612b81565b602082019050919050565b60006020820190508181036000830152612be681612baa565b9050919050565b7f476f616c20616d6f756e742073686f756c64206265206d6f7265207468616e2060008201527f3000000000000000000000000000000000000000000000000000000000000000602082015250565b6000612c49602183611c76565b9150612c5482612bed565b604082019050919050565b60006020820190508181036000830152612c7881612c3c565b9050919050565b7f46756c6c206e616d652063616e6e6f7420626520656d70747900000000000000600082015250565b6000612cb5601983611c76565b9150612cc082612c7f565b602082019050919050565b60006020820190508181036000830152612ce481612ca8565b9050919050565b7f5469746c652063616e6e6f7420626520656d7074790000000000000000000000600082015250565b6000612d21601583611c76565b9150612d2c82612ceb565b602082019050919050565b60006020820190508181036000830152612d5081612d14565b9050919050565b7f53746f72792063616e6e6f7420626520656d7074790000000000000000000000600082015250565b6000612d8d601583611c76565b9150612d9882612d57565b602082019050919050565b60006020820190508181036000830152612dbc81612d80565b9050919050565b60006020601f8301049050919050565b600082821b905092915050565b600060088302612e107fffffffffffffffffffffffffffffffffffffffffffffffffffffffffffffffff82612dd3565b612e1a8683612dd3565b95508019841693508086168417925050509392505050565b6000819050919050565b6000612e57612e52612e4d84611b89565b612e32565b611b89565b9050919050565b6000819050919050565b612e7183612e3c565b612e85612e7d82612e5e565b848454612de0565b825550505050565b600090565b612e9a612e8d565b612ea5818484612e68565b505050565b5b81811015612ec957612ebe600082612e92565b600181019050612eab565b5050565b601f821115612f0e57612edf81612ab8565b612ee884612dc3565b81016020851015612ef7578190505b612f0b612f0385612dc3565b830182612eaa565b50505b505050565b600082821c905092915050565b6000612f3160001984600802612f13565b1980831691505092915050565b6000612f4a8383612f20565b9150826002028217905092915050565b612f6382611c6b565b67ffffffffffffffff811115612f7c57612f7b612309565b5b612f868254612695565b612f91828285612ecd565b600060209050601f831160018114612fc45760008415612fb2578287015190505b612fbc8582612f3e565b865550613024565b601f198416612fd286612ab8565b60005b82811015612ffa57848901518255600182019150602085019450602081019050612fd5565b868310156130175784890151613013601f891682612f20565b8355505b6001600288020188555050505b505050505050565b600060208201905081810360008301526130468184611cc2565b905092915050565b7f596f7520617265206e6f74207468652063616d706169676e2063726561746f7260008201527f2100000000000000000000000000000000000000000000000000000000000000602082015250565b60006130aa602183611c76565b91506130b58261304e565b604082019050919050565b600060208201905081810360008301526130d98161309d565b9050919050565b600060208201905081810360008301526130fa8184612acd565b90509291505056fea2646970667358221220730c85d94de9e4627aeb1453f9321dbbf9a325e3284e733bb5d5fa9f5b643e7764736f6c63430008120033",
  "linkReferences": {},
  "deployedLinkReferences": {}
}