{
  "_format": "hh-sol-artifact-1",
  "contractName": "CrowdFunding",
  "sourceName": "contracts/CrowdFunding.sol",
  "abi": [
    {
      "inputs": [],
      "stateMutability": "payable",
      "type": "constructor"
    },
    {
      "anonymous": false,
      "inputs": [
        {
          "indexed": true,
          "internalType": "address",
          "name": "sender",
          "type": "address"
        },
        {
          "indexed": false,
          "internalType": "string",
          "name": "title",
          "type": "string"
        }
      ],
      "name": "CampaignCreated",
      "type": "event"
    },
    {
      "anonymous": false,
      "inputs": [
        {
          "indexed": true,
          "internalType": "address",
          "name": "sender",
          "type": "address"
        },
        {
          "indexed": false,
          "internalType": "string",
          "name": "title",
          "type": "string"
        }
      ],
      "name": "CampaignEdited",
      "type": "event"
    },
    {
      "anonymous": false,
      "inputs": [
        {
          "indexed": true,
          "internalType": "address",
          "name": "sender",
          "type": "address"
        },
        {
          "indexed": false,
          "internalType": "string",
          "name": "title",
          "type": "string"
        },
        {
          "indexed": false,
          "internalType": "uint256",
          "name": "amount",
          "type": "uint256"
        }
      ],
      "name": "DonationSent",
      "type": "event"
    },
    {
      "inputs": [
        {
          "internalType": "uint256",
          "name": "",
          "type": "uint256"
        }
      ],
      "name": "campaigns",
      "outputs": [
        {
          "internalType": "uint256",
          "name": "id",
          "type": "uint256"
        },
        {
          "internalType": "address",
          "name": "creator",
          "type": "address"
        },
        {
          "internalType": "string",
          "name": "fullname",
          "type": "string"
        },
        {
          "internalType": "string",
          "name": "title",
          "type": "string"
        },
        {
          "internalType": "string",
          "name": "story",
          "type": "string"
        },
        {
          "internalType": "uint256",
          "name": "goalAmount",
          "type": "uint256"
        },
        {
          "internalType": "uint256",
          "name": "currentAmount",
          "type": "uint256"
        },
        {
          "internalType": "uint256",
          "name": "deadline",
          "type": "uint256"
        },
        {
          "internalType": "uint256",
          "name": "totalDonations",
          "type": "uint256"
        }
      ],
      "stateMutability": "view",
      "type": "function"
    },
    {
      "inputs": [
        {
          "internalType": "string",
          "name": "_fullname",
          "type": "string"
        },
        {
          "internalType": "string",
          "name": "_title",
          "type": "string"
        },
        {
          "internalType": "string",
          "name": "_story",
          "type": "string"
        },
        {
          "internalType": "uint256",
          "name": "_goalAmount",
          "type": "uint256"
        },
        {
          "internalType": "uint256",
          "name": "_deadline",
          "type": "uint256"
        }
      ],
      "name": "createCampaign",
      "outputs": [],
      "stateMutability": "nonpayable",
      "type": "function"
    },
    {
      "inputs": [
        {
          "internalType": "uint256",
          "name": "",
          "type": "uint256"
        }
      ],
      "name": "donationTransactions",
      "outputs": [
        {
          "internalType": "uint256",
          "name": "id",
          "type": "uint256"
        },
        {
          "internalType": "uint256",
          "name": "campaignId",
          "type": "uint256"
        },
        {
          "internalType": "address",
          "name": "donor",
          "type": "address"
        },
        {
          "internalType": "uint256",
          "name": "amount",
          "type": "uint256"
        },
        {
          "internalType": "uint256",
          "name": "timestamp",
          "type": "uint256"
        }
      ],
      "stateMutability": "view",
      "type": "function"
    },
    {
      "inputs": [
        {
          "internalType": "uint256",
          "name": "_campaignId",
          "type": "uint256"
        },
        {
          "internalType": "string",
          "name": "_fullname",
          "type": "string"
        },
        {
          "internalType": "string",
          "name": "_title",
          "type": "string"
        },
        {
          "internalType": "string",
          "name": "_story",
          "type": "string"
        },
        {
          "internalType": "uint256",
          "name": "_goalAmount",
          "type": "uint256"
        },
        {
          "internalType": "uint256",
          "name": "_deadline",
          "type": "uint256"
        }
      ],
      "name": "editCampaign",
      "outputs": [],
      "stateMutability": "nonpayable",
      "type": "function"
    },
    {
      "inputs": [
        {
          "internalType": "uint256",
          "name": "_campaignId",
          "type": "uint256"
        }
      ],
      "name": "getCampaign",
      "outputs": [
        {
          "components": [
            {
              "internalType": "uint256",
              "name": "id",
              "type": "uint256"
            },
            {
              "internalType": "address",
              "name": "creator",
              "type": "address"
            },
            {
              "internalType": "string",
              "name": "fullname",
              "type": "string"
            },
            {
              "internalType": "string",
              "name": "title",
              "type": "string"
            },
            {
              "internalType": "string",
              "name": "story",
              "type": "string"
            },
            {
              "internalType": "uint256",
              "name": "goalAmount",
              "type": "uint256"
            },
            {
              "internalType": "uint256",
              "name": "currentAmount",
              "type": "uint256"
            },
            {
              "internalType": "uint256",
              "name": "deadline",
              "type": "uint256"
            },
            {
              "internalType": "uint256",
              "name": "totalDonations",
              "type": "uint256"
            }
          ],
          "internalType": "struct CrowdFunding.Campaign",
          "name": "",
          "type": "tuple"
        }
      ],
      "stateMutability": "view",
      "type": "function"
    },
    {
      "inputs": [
        {
          "internalType": "uint256",
          "name": "_campaignId",
          "type": "uint256"
        }
      ],
      "name": "getCampaignDonations",
      "outputs": [
        {
          "components": [
            {
              "internalType": "uint256",
              "name": "id",
              "type": "uint256"
            },
            {
              "internalType": "uint256",
              "name": "campaignId",
              "type": "uint256"
            },
            {
              "internalType": "address",
              "name": "donor",
              "type": "address"
            },
            {
              "internalType": "uint256",
              "name": "amount",
              "type": "uint256"
            },
            {
              "internalType": "uint256",
              "name": "timestamp",
              "type": "uint256"
            }
          ],
          "internalType": "struct CrowdFunding.DonationTransaction[]",
          "name": "allDonations",
          "type": "tuple[]"
        },
        {
          "internalType": "uint256",
          "name": "totalCampaignDonations",
          "type": "uint256"
        }
      ],
      "stateMutability": "view",
      "type": "function"
    },
    {
      "inputs": [
        {
          "internalType": "address",
          "name": "_walletAddress",
          "type": "address"
        },
        {
          "internalType": "uint256",
          "name": "_pageSize",
          "type": "uint256"
        },
        {
          "internalType": "uint256",
          "name": "_pageNumber",
          "type": "uint256"
        }
      ],
      "name": "getDonatorsByWalletAddress",
      "outputs": [
        {
          "components": [
            {
              "internalType": "address",
              "name": "donator",
              "type": "address"
            },
            {
              "internalType": "string",
              "name": "campaignTitle",
              "type": "string"
            },
            {
              "internalType": "uint256",
              "name": "donationAmount",
              "type": "uint256"
            }
          ],
          "internalType": "struct CrowdFunding.DonationData[]",
          "name": "donations",
          "type": "tuple[]"
        },
        {
          "internalType": "uint256",
          "name": "donatorCount",
          "type": "uint256"
        },
        {
          "internalType": "uint256",
          "name": "totalPages",
          "type": "uint256"
        },
        {
          "internalType": "uint256",
          "name": "nextPage",
          "type": "uint256"
        },
        {
          "internalType": "uint256",
          "name": "previousPage",
          "type": "uint256"
        }
      ],
      "stateMutability": "view",
      "type": "function"
    },
    {
      "inputs": [
        {
          "internalType": "uint256",
          "name": "_pageSize",
          "type": "uint256"
        },
        {
          "internalType": "uint256",
          "name": "_pageNumber",
          "type": "uint256"
        }
      ],
      "name": "getUserCampaigns",
      "outputs": [
        {
          "components": [
            {
              "internalType": "uint256",
              "name": "id",
              "type": "uint256"
            },
            {
              "internalType": "address",
              "name": "creator",
              "type": "address"
            },
            {
              "internalType": "string",
              "name": "fullname",
              "type": "string"
            },
            {
              "internalType": "string",
              "name": "title",
              "type": "string"
            },
            {
              "internalType": "string",
              "name": "story",
              "type": "string"
            },
            {
              "internalType": "uint256",
              "name": "goalAmount",
              "type": "uint256"
            },
            {
              "internalType": "uint256",
              "name": "currentAmount",
              "type": "uint256"
            },
            {
              "internalType": "uint256",
              "name": "deadline",
              "type": "uint256"
            },
            {
              "internalType": "uint256",
              "name": "totalDonations",
              "type": "uint256"
            }
          ],
          "internalType": "struct CrowdFunding.Campaign[]",
          "name": "allCampaigns",
          "type": "tuple[]"
        },
        {
          "internalType": "uint256",
          "name": "userTotalCampaigns",
          "type": "uint256"
        },
        {
          "internalType": "uint256",
          "name": "totalPages",
          "type": "uint256"
        },
        {
          "internalType": "uint256",
          "name": "nextPage",
          "type": "uint256"
        },
        {
          "internalType": "uint256",
          "name": "previousPage",
          "type": "uint256"
        }
      ],
      "stateMutability": "view",
      "type": "function"
    },
    {
      "inputs": [],
      "name": "owner",
      "outputs": [
        {
          "internalType": "address payable",
          "name": "",
          "type": "address"
        }
      ],
      "stateMutability": "view",
      "type": "function"
    },
    {
      "inputs": [
        {
          "internalType": "uint256",
          "name": "_campaignId",
          "type": "uint256"
        }
      ],
      "name": "sendDonation",
      "outputs": [],
      "stateMutability": "payable",
      "type": "function"
    },
    {
      "inputs": [],
      "name": "totalCampaigns",
      "outputs": [
        {
          "internalType": "uint256",
          "name": "",
          "type": "uint256"
        }
      ],
      "stateMutability": "view",
      "type": "function"
    },
    {
      "inputs": [],
      "name": "totalDonations",
      "outputs": [
        {
          "internalType": "uint256",
          "name": "",
          "type": "uint256"
        }
      ],
      "stateMutability": "view",
      "type": "function"
    },
    {
      "inputs": [
        {
          "internalType": "address",
          "name": "",
          "type": "address"
        }
      ],
      "name": "users",
      "outputs": [
        {
          "internalType": "uint256",
          "name": "totalCampaigns",
          "type": "uint256"
        },
        {
          "internalType": "uint256",
          "name": "totalDonations",
          "type": "uint256"
        }
      ],
      "stateMutability": "view",
      "type": "function"
    }
  ],
  "bytecode": "0x6080604052336000806101000a81548173ffffffffffffffffffffffffffffffffffffffff021916908373ffffffffffffffffffffffffffffffffffffffff16021790555060006004819055506137f68061005b6000396000f3fe6080604052600436106100c25760003560e01c80638acd0bfc1161007f578063a87430ba11610059578063a87430ba146102a4578063b0445d60146102e2578063de2ed89314610323578063e1a783a01461034e576100c2565b80638acd0bfc1461020f5780638da5cb5b14610250578063980f2e661461027b576100c2565b806302932f56146100c7578063141961bc146100f25780633e3b6675146101375780635167642f146101785780635598f8cc146101b6578063665588c9146101f3575b600080fd5b3480156100d357600080fd5b506100dc610377565b6040516100e991906120a1565b60405180910390f35b3480156100fe57600080fd5b50610119600480360381019061011491906120fc565b61037d565b60405161012e999897969594939291906121fa565b60405180910390f35b34801561014357600080fd5b5061015e6004803603810190610159919061229c565b610583565b60405161016f9594939291906124d9565b60405180910390f35b34801561018457600080fd5b5061019f600480360381019061019a91906120fc565b610937565b6040516101ad92919061264a565b60405180910390f35b3480156101c257600080fd5b506101dd60048036038101906101d891906120fc565b610d0c565b6040516101ea919061274d565b60405180910390f35b61020d600480360381019061020891906120fc565b610f78565b005b34801561021b57600080fd5b50610236600480360381019061023191906120fc565b611268565b60405161024795949392919061276f565b60405180910390f35b34801561025c57600080fd5b506102656112be565b60405161027291906127e3565b60405180910390f35b34801561028757600080fd5b506102a2600480360381019061029d9190612933565b6112e2565b005b3480156102b057600080fd5b506102cb60048036038101906102c69190612a2e565b6116de565b6040516102d9929190612a5b565b60405180910390f35b3480156102ee57600080fd5b5061030960048036038101906103049190612a84565b611702565b60405161031a959493929190612be9565b60405180910390f35b34801561032f57600080fd5b50610338611ad2565b60405161034591906120a1565b60405180910390f35b34801561035a57600080fd5b5061037560048036038101906103709190612c43565b611ad8565b005b60045481565b60026020528060005260406000206000915090508060000154908060010160009054906101000a900473ffffffffffffffffffffffffffffffffffffffff16908060020180546103cc90612d53565b80601f01602080910402602001604051908101604052809291908181526020018280546103f890612d53565b80156104455780601f1061041a57610100808354040283529160200191610445565b820191906000526020600020905b81548152906001019060200180831161042857829003601f168201915b50505050509080600301805461045a90612d53565b80601f016020809104026020016040519081016040528092919081815260200182805461048690612d53565b80156104d35780601f106104a8576101008083540402835291602001916104d3565b820191906000526020600020905b8154815290600101906020018083116104b657829003601f168201915b5050505050908060040180546104e890612d53565b80601f016020809104026020016040519081016040528092919081815260200182805461051490612d53565b80156105615780601f1061053657610100808354040283529160200191610561565b820191906000526020600020905b81548152906001019060200180831161054457829003601f168201915b5050505050908060050154908060060154908060070154908060080154905089565b60606000806000806000600160003373ffffffffffffffffffffffffffffffffffffffff1673ffffffffffffffffffffffffffffffffffffffff168152602001908152602001600020905060006105df82600001548a8a611dcf565b9050806060015181608001516105f59190612db3565b67ffffffffffffffff81111561060e5761060d612808565b5b60405190808252806020026020018201604052801561064757816020015b610634611f7b565b81526020019060019003908161062c5790505b50965060005b875181101561090e576000600260008560020160008587606001516106729190612de7565b815260200190815260200160002054815260200190815260200160002060405180610120016040529081600082015481526020016001820160009054906101000a900473ffffffffffffffffffffffffffffffffffffffff1673ffffffffffffffffffffffffffffffffffffffff1673ffffffffffffffffffffffffffffffffffffffff16815260200160028201805461070b90612d53565b80601f016020809104026020016040519081016040528092919081815260200182805461073790612d53565b80156107845780601f1061075957610100808354040283529160200191610784565b820191906000526020600020905b81548152906001019060200180831161076757829003601f168201915b5050505050815260200160038201805461079d90612d53565b80601f01602080910402602001604051908101604052809291908181526020018280546107c990612d53565b80156108165780601f106107eb57610100808354040283529160200191610816565b820191906000526020600020905b8154815290600101906020018083116107f957829003601f168201915b5050505050815260200160048201805461082f90612d53565b80601f016020809104026020016040519081016040528092919081815260200182805461085b90612d53565b80156108a85780601f1061087d576101008083540402835291602001916108a8565b820191906000526020600020905b81548152906001019060200180831161088b57829003601f168201915b505050505081526020016005820154815260200160068201548152602001600782015481526020016008820154815250509050808983815181106108ef576108ee612e1b565b5b602002602001018190525050808061090690612e4a565b91505061064d565b508160000154955080600001519450806020015193508060400151925050509295509295909350565b60606000806002600085815260200190815260200160002060405180610120016040529081600082015481526020016001820160009054906101000a900473ffffffffffffffffffffffffffffffffffffffff1673ffffffffffffffffffffffffffffffffffffffff1673ffffffffffffffffffffffffffffffffffffffff1681526020016002820180546109cb90612d53565b80601f01602080910402602001604051908101604052809291908181526020018280546109f790612d53565b8015610a445780601f10610a1957610100808354040283529160200191610a44565b820191906000526020600020905b815481529060010190602001808311610a2757829003601f168201915b50505050508152602001600382018054610a5d90612d53565b80601f0160208091040260200160405190810160405280929190818152602001828054610a8990612d53565b8015610ad65780601f10610aab57610100808354040283529160200191610ad6565b820191906000526020600020905b815481529060010190602001808311610ab957829003601f168201915b50505050508152602001600482018054610aef90612d53565b80601f0160208091040260200160405190810160405280929190818152602001828054610b1b90612d53565b8015610b685780601f10610b3d57610100808354040283529160200191610b68565b820191906000526020600020905b815481529060010190602001808311610b4b57829003601f168201915b50505050508152602001600582015481526020016006820154815260200160078201548152602001600882015481525050905080610100015191508167ffffffffffffffff811115610bbd57610bbc612808565b5b604051908082528060200260200182016040528015610bf657816020015b610be3611fdd565b815260200190600190039081610bdb5790505b5092506000805b600554811015610d04578260000151600360008381526020019081526020016000206001015403610cf157600360008281526020019081526020016000206040518060a001604052908160008201548152602001600182015481526020016002820160009054906101000a900473ffffffffffffffffffffffffffffffffffffffff1673ffffffffffffffffffffffffffffffffffffffff1673ffffffffffffffffffffffffffffffffffffffff16815260200160038201548152602001600482015481525050858381518110610cd757610cd6612e1b565b5b60200260200101819052508180610ced90612e4a565b9250505b8080610cfc90612e4a565b915050610bfd565b505050915091565b610d14611f7b565b6002600083815260200190815260200160002060405180610120016040529081600082015481526020016001820160009054906101000a900473ffffffffffffffffffffffffffffffffffffffff1673ffffffffffffffffffffffffffffffffffffffff1673ffffffffffffffffffffffffffffffffffffffff168152602001600282018054610da390612d53565b80601f0160208091040260200160405190810160405280929190818152602001828054610dcf90612d53565b8015610e1c5780601f10610df157610100808354040283529160200191610e1c565b820191906000526020600020905b815481529060010190602001808311610dff57829003601f168201915b50505050508152602001600382018054610e3590612d53565b80601f0160208091040260200160405190810160405280929190818152602001828054610e6190612d53565b8015610eae5780601f10610e8357610100808354040283529160200191610eae565b820191906000526020600020905b815481529060010190602001808311610e9157829003601f168201915b50505050508152602001600482018054610ec790612d53565b80601f0160208091040260200160405190810160405280929190818152602001828054610ef390612d53565b8015610f405780601f10610f1557610100808354040283529160200191610f40565b820191906000526020600020905b815481529060010190602001808311610f2357829003601f168201915b505050505081526020016005820154815260200160068201548152602001600782015481526020016008820154815250509050919050565b60008110158015610f8a575060045481105b610fc9576040517f08c379a0000000000000000000000000000000000000000000000000000000008152600401610fc090612ede565b60405180910390fd5b60006002600083815260200190815260200160002090508060070154421115611027576040517f08c379a000000000000000000000000000000000000000000000000000000000815260040161101e90612f4a565b60405180910390fd5b6000341161106a576040517f08c379a000000000000000000000000000000000000000000000000000000000815260040161106190612fdc565b60405180910390fd5b6000600160003373ffffffffffffffffffffffffffffffffffffffff1673ffffffffffffffffffffffffffffffffffffffff168152602001908152602001600020905060008160010154905060006040518060a001604052806005548152602001856000015481526020013373ffffffffffffffffffffffffffffffffffffffff16815260200134815260200142815250905080600360006005548152602001908152602001600020600082015181600001556020820151816001015560408201518160020160006101000a81548173ffffffffffffffffffffffffffffffffffffffff021916908373ffffffffffffffffffffffffffffffffffffffff1602179055506060820151816003015560808201518160040155905050806000015183600301600084815260200190815260200160002081905550348460060160008282546111b79190612de7565b92505081905550600560008154809291906111d190612e4a565b91905055508260010160008154809291906111eb90612e4a565b919050555083600801600081548092919061120590612e4a565b91905055503373ffffffffffffffffffffffffffffffffffffffff167f3b5443c59641f965c6df0836dbe11676fa8c79c3184392351bb19fd51de3d49a856003018660060154604051611259929190613095565b60405180910390a25050505050565b60036020528060005260406000206000915090508060000154908060010154908060020160009054906101000a900473ffffffffffffffffffffffffffffffffffffffff16908060030154908060040154905085565b60008054906101000a900473ffffffffffffffffffffffffffffffffffffffff1681565b8484848484428111611329576040517f08c379a000000000000000000000000000000000000000000000000000000000815260040161132090613111565b60405180910390fd5b6000821161136c576040517f08c379a0000000000000000000000000000000000000000000000000000000008152600401611363906131a3565b60405180910390fd5b60008551116113b0576040517f08c379a00000000000000000000000000000000000000000000000000000000081526004016113a79061320f565b60405180910390fd5b60008451116113f4576040517f08c379a00000000000000000000000000000000000000000000000000000000081526004016113eb9061327b565b60405180910390fd5b6000835111611438576040517f08c379a000000000000000000000000000000000000000000000000000000000815260040161142f906132e7565b60405180910390fd5b600060405180610120016040528060045481526020013373ffffffffffffffffffffffffffffffffffffffff1681526020018c81526020018b81526020018a81526020018981526020016000815260200188815260200160008152509050806002600060045481526020019081526020016000206000820151816000015560208201518160010160006101000a81548173ffffffffffffffffffffffffffffffffffffffff021916908373ffffffffffffffffffffffffffffffffffffffff1602179055506040820151816002019081611512919061349e565b506060820151816003019081611528919061349e565b50608082015181600401908161153e919061349e565b5060a0820151816005015560c0820151816006015560e0820151816007015561010082015181600801559050506000600160003373ffffffffffffffffffffffffffffffffffffffff1673ffffffffffffffffffffffffffffffffffffffff1681526020019081526020016000206000015490508160000151600160003373ffffffffffffffffffffffffffffffffffffffff1673ffffffffffffffffffffffffffffffffffffffff168152602001908152602001600020600201600083815260200190815260200160002081905550600160003373ffffffffffffffffffffffffffffffffffffffff1673ffffffffffffffffffffffffffffffffffffffff168152602001908152602001600020600001600081548092919061166190612e4a565b91905055506004600081548092919061167990612e4a565b91905055503373ffffffffffffffffffffffffffffffffffffffff167f17dd0b5f0975f4651b002ed3b016428bae979f5704d8b2473931b2312185c05a83606001516040516116c89190613570565b60405180910390a2505050505050505050505050565b60016020528060005260406000206000915090508060000154908060010154905082565b606060008060008060009350611716612022565b60005b6004548110156117fd5760006002600083815260200190815260200160002090508a73ffffffffffffffffffffffffffffffffffffffff168160010160009054906101000a900473ffffffffffffffffffffffffffffffffffffffff1673ffffffffffffffffffffffffffffffffffffffff16036117e95760005b6005548110156117e757600060036000838152602001908152602001600020905082600001548160010154036117d35788806117cf90612e4a565b9950505b5080806117df90612e4a565b915050611794565b505b5080806117f590612e4a565b915050611719565b50611809858989611dcf565b90508060600151816080015161181f9190612db3565b67ffffffffffffffff81111561183857611837612808565b5b60405190808252806020026020018201604052801561187157816020015b61185e612051565b8152602001906001900390816118565790505b5095506000805b600454811015611aaf5760006002600083815260200190815260200160002090508b73ffffffffffffffffffffffffffffffffffffffff168160010160009054906101000a900473ffffffffffffffffffffffffffffffffffffffff1673ffffffffffffffffffffffffffffffffffffffff1603611a9b5760005b600554811015611a995760006003600083815260200190815260200160002090508260000154816001015403611a85578560600151851015801561193a5750856080015185105b15611a7657611947612051565b8160020160009054906101000a900473ffffffffffffffffffffffffffffffffffffffff16816000019073ffffffffffffffffffffffffffffffffffffffff16908173ffffffffffffffffffffffffffffffffffffffff16815250508360030180546119b290612d53565b80601f01602080910402602001604051908101604052809291908181526020018280546119de90612d53565b8015611a2b5780601f10611a0057610100808354040283529160200191611a2b565b820191906000526020600020905b815481529060010190602001808311611a0e57829003601f168201915b505050505081602001819052508160030154816040018181525050808c886060015188611a589190612db3565b81518110611a6957611a68612e1b565b5b6020026020010181905250505b8480611a8190612e4a565b9550505b508080611a9190612e4a565b9150506118f3565b505b508080611aa790612e4a565b915050611878565b508160000151945081602001519350816040015192505050939792965093509350565b60055481565b8484848484428111611b1f576040517f08c379a0000000000000000000000000000000000000000000000000000000008152600401611b1690613111565b60405180910390fd5b60008211611b62576040517f08c379a0000000000000000000000000000000000000000000000000000000008152600401611b59906131a3565b60405180910390fd5b6000855111611ba6576040517f08c379a0000000000000000000000000000000000000000000000000000000008152600401611b9d9061320f565b60405180910390fd5b6000845111611bea576040517f08c379a0000000000000000000000000000000000000000000000000000000008152600401611be19061327b565b60405180910390fd5b6000835111611c2e576040517f08c379a0000000000000000000000000000000000000000000000000000000008152600401611c25906132e7565b60405180910390fd5b6000600260008d8152602001908152602001600020905060008c10158015611c5757506004548c105b611c96576040517f08c379a0000000000000000000000000000000000000000000000000000000008152600401611c8d90612ede565b60405180910390fd5b3373ffffffffffffffffffffffffffffffffffffffff168160010160009054906101000a900473ffffffffffffffffffffffffffffffffffffffff1673ffffffffffffffffffffffffffffffffffffffff1614611d28576040517f08c379a0000000000000000000000000000000000000000000000000000000008152600401611d1f90613604565b60405180910390fd5b8a816002019081611d39919061349e565b5089816003019081611d4b919061349e565b5088816004019081611d5d919061349e565b508781600501819055508681600701819055503373ffffffffffffffffffffffffffffffffffffffff167fb961c338b427968a67f1a3560907d7075a0d1fca0c2d16dcb76da3a963cfe37382600301604051611db99190613624565b60405180910390a2505050505050505050505050565b611dd7612022565b60008311611e1a576040517f08c379a0000000000000000000000000000000000000000000000000000000008152600401611e1190613692565b60405180910390fd5b60008211611e5d576040517f08c379a0000000000000000000000000000000000000000000000000000000008152600401611e54906136fe565b60405180910390fd5b611e65612022565b8360018587611e749190612de7565b611e7e9190612db3565b611e88919061374d565b8160000181815250506000816000015111611ea4576000611ebd565b600183611eb19190612db3565b84611ebc919061377e565b5b81606001818152505084816060015185611ed79190612de7565b11611ef157806060015184611eec9190612de7565b611ef3565b845b81608001818152505080600001518310611f11578060000151611f1f565b600183611f1e9190612de7565b5b81602001818152505060018311611f37576001611f45565b600183611f449190612db3565b5b8160400181815250506000816000015111611f61576000611f67565b80604001515b816040018181525050809150509392505050565b60405180610120016040528060008152602001600073ffffffffffffffffffffffffffffffffffffffff168152602001606081526020016060815260200160608152602001600081526020016000815260200160008152602001600081525090565b6040518060a001604052806000815260200160008152602001600073ffffffffffffffffffffffffffffffffffffffff16815260200160008152602001600081525090565b6040518060a0016040528060008152602001600081526020016000815260200160008152602001600081525090565b6040518060600160405280600073ffffffffffffffffffffffffffffffffffffffff16815260200160608152602001600081525090565b6000819050919050565b61209b81612088565b82525050565b60006020820190506120b66000830184612092565b92915050565b6000604051905090565b600080fd5b600080fd5b6120d981612088565b81146120e457600080fd5b50565b6000813590506120f6816120d0565b92915050565b600060208284031215612112576121116120c6565b5b6000612120848285016120e7565b91505092915050565b600073ffffffffffffffffffffffffffffffffffffffff82169050919050565b600061215482612129565b9050919050565b61216481612149565b82525050565b600081519050919050565b600082825260208201905092915050565b60005b838110156121a4578082015181840152602081019050612189565b60008484015250505050565b6000601f19601f8301169050919050565b60006121cc8261216a565b6121d68185612175565b93506121e6818560208601612186565b6121ef816121b0565b840191505092915050565b600061012082019050612210600083018c612092565b61221d602083018b61215b565b818103604083015261222f818a6121c1565b9050818103606083015261224381896121c1565b9050818103608083015261225781886121c1565b905061226660a0830187612092565b61227360c0830186612092565b61228060e0830185612092565b61228e610100830184612092565b9a9950505050505050505050565b600080604083850312156122b3576122b26120c6565b5b60006122c1858286016120e7565b92505060206122d2858286016120e7565b9150509250929050565b600081519050919050565b600082825260208201905092915050565b6000819050602082019050919050565b61231181612088565b82525050565b61232081612149565b82525050565b600082825260208201905092915050565b60006123428261216a565b61234c8185612326565b935061235c818560208601612186565b612365816121b0565b840191505092915050565b6000610120830160008301516123896000860182612308565b50602083015161239c6020860182612317565b50604083015184820360408601526123b48282612337565b915050606083015184820360608601526123ce8282612337565b915050608083015184820360808601526123e88282612337565b91505060a08301516123fd60a0860182612308565b5060c083015161241060c0860182612308565b5060e083015161242360e0860182612308565b50610100830151612438610100860182612308565b508091505092915050565b600061244f8383612370565b905092915050565b6000602082019050919050565b600061246f826122dc565b61247981856122e7565b93508360208202850161248b856122f8565b8060005b858110156124c757848403895281516124a88582612443565b94506124b383612457565b925060208a0199505060018101905061248f565b50829750879550505050505092915050565b600060a08201905081810360008301526124f38188612464565b90506125026020830187612092565b61250f6040830186612092565b61251c6060830185612092565b6125296080830184612092565b9695505050505050565b600081519050919050565b600082825260208201905092915050565b6000819050602082019050919050565b60a0820160008201516125756000850182612308565b5060208201516125886020850182612308565b50604082015161259b6040850182612317565b5060608201516125ae6060850182612308565b5060808201516125c16080850182612308565b50505050565b60006125d3838361255f565b60a08301905092915050565b6000602082019050919050565b60006125f782612533565b612601818561253e565b935061260c8361254f565b8060005b8381101561263d57815161262488826125c7565b975061262f836125df565b925050600181019050612610565b5085935050505092915050565b6000604082019050818103600083015261266481856125ec565b90506126736020830184612092565b9392505050565b6000610120830160008301516126936000860182612308565b5060208301516126a66020860182612317565b50604083015184820360408601526126be8282612337565b915050606083015184820360608601526126d88282612337565b915050608083015184820360808601526126f28282612337565b91505060a083015161270760a0860182612308565b5060c083015161271a60c0860182612308565b5060e083015161272d60e0860182612308565b50610100830151612742610100860182612308565b508091505092915050565b60006020820190508181036000830152612767818461267a565b905092915050565b600060a0820190506127846000830188612092565b6127916020830187612092565b61279e604083018661215b565b6127ab6060830185612092565b6127b86080830184612092565b9695505050505050565b60006127cd82612129565b9050919050565b6127dd816127c2565b82525050565b60006020820190506127f860008301846127d4565b92915050565b600080fd5b600080fd5b7f4e487b7100000000000000000000000000000000000000000000000000000000600052604160045260246000fd5b612840826121b0565b810181811067ffffffffffffffff8211171561285f5761285e612808565b5b80604052505050565b60006128726120bc565b905061287e8282612837565b919050565b600067ffffffffffffffff82111561289e5761289d612808565b5b6128a7826121b0565b9050602081019050919050565b82818337600083830152505050565b60006128d66128d184612883565b612868565b9050828152602081018484840111156128f2576128f1612803565b5b6128fd8482856128b4565b509392505050565b600082601f83011261291a576129196127fe565b5b813561292a8482602086016128c3565b91505092915050565b600080600080600060a0868803121561294f5761294e6120c6565b5b600086013567ffffffffffffffff81111561296d5761296c6120cb565b5b61297988828901612905565b955050602086013567ffffffffffffffff81111561299a576129996120cb565b5b6129a688828901612905565b945050604086013567ffffffffffffffff8111156129c7576129c66120cb565b5b6129d388828901612905565b93505060606129e4888289016120e7565b92505060806129f5888289016120e7565b9150509295509295909350565b612a0b81612149565b8114612a1657600080fd5b50565b600081359050612a2881612a02565b92915050565b600060208284031215612a4457612a436120c6565b5b6000612a5284828501612a19565b91505092915050565b6000604082019050612a706000830185612092565b612a7d6020830184612092565b9392505050565b600080600060608486031215612a9d57612a9c6120c6565b5b6000612aab86828701612a19565b9350506020612abc868287016120e7565b9250506040612acd868287016120e7565b9150509250925092565b600081519050919050565b600082825260208201905092915050565b6000819050602082019050919050565b6000606083016000830151612b1b6000860182612317565b5060208301518482036020860152612b338282612337565b9150506040830151612b486040860182612308565b508091505092915050565b6000612b5f8383612b03565b905092915050565b6000602082019050919050565b6000612b7f82612ad7565b612b898185612ae2565b935083602082028501612b9b85612af3565b8060005b85811015612bd75784840389528151612bb88582612b53565b9450612bc383612b67565b925060208a01995050600181019050612b9f565b50829750879550505050505092915050565b600060a0820190508181036000830152612c038188612b74565b9050612c126020830187612092565b612c1f6040830186612092565b612c2c6060830185612092565b612c396080830184612092565b9695505050505050565b60008060008060008060c08789031215612c6057612c5f6120c6565b5b6000612c6e89828a016120e7565b965050602087013567ffffffffffffffff811115612c8f57612c8e6120cb565b5b612c9b89828a01612905565b955050604087013567ffffffffffffffff811115612cbc57612cbb6120cb565b5b612cc889828a01612905565b945050606087013567ffffffffffffffff811115612ce957612ce86120cb565b5b612cf589828a01612905565b9350506080612d0689828a016120e7565b92505060a0612d1789828a016120e7565b9150509295509295509295565b7f4e487b7100000000000000000000000000000000000000000000000000000000600052602260045260246000fd5b60006002820490506001821680612d6b57607f821691505b602082108103612d7e57612d7d612d24565b5b50919050565b7f4e487b7100000000000000000000000000000000000000000000000000000000600052601160045260246000fd5b6000612dbe82612088565b9150612dc983612088565b9250828203905081811115612de157612de0612d84565b5b92915050565b6000612df282612088565b9150612dfd83612088565b9250828201905080821115612e1557612e14612d84565b5b92915050565b7f4e487b7100000000000000000000000000000000000000000000000000000000600052603260045260246000fd5b6000612e5582612088565b91507fffffffffffffffffffffffffffffffffffffffffffffffffffffffffffffffff8203612e8757612e86612d84565b5b600182019050919050565b7f496e76616c69642063616d706169676e20494400000000000000000000000000600082015250565b6000612ec8601383612175565b9150612ed382612e92565b602082019050919050565b60006020820190508181036000830152612ef781612ebb565b9050919050565b7f43616d706169676e20697320616c7265616479206f7665720000000000000000600082015250565b6000612f34601883612175565b9150612f3f82612efe565b602082019050919050565b60006020820190508181036000830152612f6381612f27565b9050919050565b7f446f6e6174696f6e20616d6f756e742073686f756c64206265206d6f7265207460008201527f68616e2030000000000000000000000000000000000000000000000000000000602082015250565b6000612fc6602583612175565b9150612fd182612f6a565b604082019050919050565b60006020820190508181036000830152612ff581612fb9565b9050919050565b60008190508160005260206000209050919050565b6000815461301e81612d53565b6130288186612175565b9450600182166000811461304357600181146130595761308c565b60ff19831686528115156020028601935061308c565b61306285612ffc565b60005b8381101561308457815481890152600182019150602081019050613065565b808801955050505b50505092915050565b600060408201905081810360008301526130af8185613011565b90506130be6020830184612092565b9392505050565b7f446174652073686f756c64206265206675747572652064617465000000000000600082015250565b60006130fb601a83612175565b9150613106826130c5565b602082019050919050565b6000602082019050818103600083015261312a816130ee565b9050919050565b7f476f616c20616d6f756e742073686f756c64206265206d6f7265207468616e2060008201527f3000000000000000000000000000000000000000000000000000000000000000602082015250565b600061318d602183612175565b915061319882613131565b604082019050919050565b600060208201905081810360008301526131bc81613180565b9050919050565b7f46756c6c206e616d652063616e6e6f7420626520656d70747900000000000000600082015250565b60006131f9601983612175565b9150613204826131c3565b602082019050919050565b60006020820190508181036000830152613228816131ec565b9050919050565b7f5469746c652063616e6e6f7420626520656d7074790000000000000000000000600082015250565b6000613265601583612175565b91506132708261322f565b602082019050919050565b6000602082019050818103600083015261329481613258565b9050919050565b7f53746f72792063616e6e6f7420626520656d7074790000000000000000000000600082015250565b60006132d1601583612175565b91506132dc8261329b565b602082019050919050565b60006020820190508181036000830152613300816132c4565b9050919050565b60006020601f8301049050919050565b600082821b905092915050565b6000600883026133547fffffffffffffffffffffffffffffffffffffffffffffffffffffffffffffffff82613317565b61335e8683613317565b95508019841693508086168417925050509392505050565b6000819050919050565b600061339b61339661339184612088565b613376565b612088565b9050919050565b6000819050919050565b6133b583613380565b6133c96133c1826133a2565b848454613324565b825550505050565b600090565b6133de6133d1565b6133e98184846133ac565b505050565b5b8181101561340d576134026000826133d6565b6001810190506133ef565b5050565b601f8211156134525761342381612ffc565b61342c84613307565b8101602085101561343b578190505b61344f61344785613307565b8301826133ee565b50505b505050565b600082821c905092915050565b600061347560001984600802613457565b1980831691505092915050565b600061348e8383613464565b9150826002028217905092915050565b6134a78261216a565b67ffffffffffffffff8111156134c0576134bf612808565b5b6134ca8254612d53565b6134d5828285613411565b600060209050601f83116001811461350857600084156134f6578287015190505b6135008582613482565b865550613568565b601f19841661351686612ffc565b60005b8281101561353e57848901518255600182019150602085019450602081019050613519565b8683101561355b5784890151613557601f891682613464565b8355505b6001600288020188555050505b505050505050565b6000602082019050818103600083015261358a81846121c1565b905092915050565b7f596f7520617265206e6f74207468652063616d706169676e2063726561746f7260008201527f2100000000000000000000000000000000000000000000000000000000000000602082015250565b60006135ee602183612175565b91506135f982613592565b604082019050919050565b6000602082019050818103600083015261361d816135e1565b9050919050565b6000602082019050818103600083015261363e8184613011565b905092915050565b7f506167652073697a652063616e6e6f7420626520300000000000000000000000600082015250565b600061367c601583612175565b915061368782613646565b602082019050919050565b600060208201905081810360008301526136ab8161366f565b9050919050565b7f50616765206e756d6265722063616e6e6f742062652030000000000000000000600082015250565b60006136e8601783612175565b91506136f3826136b2565b602082019050919050565b60006020820190508181036000830152613717816136db565b9050919050565b7f4e487b7100000000000000000000000000000000000000000000000000000000600052601260045260246000fd5b600061375882612088565b915061376383612088565b9250826137735761377261371e565b5b828204905092915050565b600061378982612088565b915061379483612088565b92508282026137a281612088565b915082820484148315176137b9576137b8612d84565b5b509291505056fea264697066735822122045d88a98e845e650c0c240e3b0bedaf5b51546857692f2b65edbc41962d44b7564736f6c63430008120033",
  "linkReferences": {},
  "deployedLinkReferences": {}
}